:02000002D0002C
:1040000000400D00D0810D00000006000D000501EC
:084010000401BD0B00000000DB
:04401800EC7C0D002F
:1040200009480A49884208B505D0094A824202D0A7
:10403000121A03F00DFD0748074A0021121A03F077
:104040002FFD014808BD00BFF8E4032034810D00B6
:104050006CE503206CE50320F0E7032070B5074E04
:10406000074C02F01BF8A41BA4080025A54200D1B0
:1040700070BD56F8043B98470135F7E70C810D00F9
:1040800030810D0000F0A1B808B500F0F1F8BDE8EE
:10409000084001F0C5BF00F0EDBC00F0EBBC00F043
:1040A000F1BC000008B5034A00210C2000F0ECFB35
:1040B000FEE700BF49460D000078B0FA80F04009E5
:1040C00070470123037070477047006A0368DB681C
:1040D000184738B50446006928B185680C2103F0FB
:1040E00082F82846F8E7204638BD00000A4B10B594
:1040F0000446036001F0CAF8214601F0BAFA02F062
:1041000073FB02F065FB2046044B40F8043B01F0D2
:104110009DF9204610BD00BF3C7D0D00247D0D00A3
:1041200010B50446FFF7E2FF2046242103F05BF8B8
:10413000204610BDF8B5037D05460F4616468BB1E7
:104140000368DB6883B19A88012A06D09B68F9E787
:104150009B684BB19A88012AFAD12BB19A89BA424D
:10416000F6D19E732846F8BD0A49102003F03DF8A9
:10417000044668B11022002103F092FC064B236034
:104180000123A3802B69A360A781A6732C61E9E7B3
:104190002875E7E709800D00100003000EB410B584
:1041A0008DB00FAA016852F8044B0392002320201F
:1041B000CDE90403CDE900421E2004AA00F074FBFF
:1041C0000DB0BDE8104003B0704708B500210220D3
:1041D00002F048FFBDE808400021032002F042BF82
:1041E00010B51A4BA6B0186803F06AF9CDE90201C0
:1041F000174B184A1B680093174B80211B6806A8B1
:1042000000F050FC154B16491B788DF800300968FA
:104210003C2306AA04A802F099F8059C7CB16368C7
:10422000013B63605BB9236820469B689847A3689D
:10423000013BA3601BB923682046DB689847094906
:10424000094806AAFFF7AAFF26B010BD74E50320AF
:1042500078E50320007D0D007CE5032080E5032048
:10426000F8E403200D7D0D00F8E5032000000000B8
:1042700030B54B4C237D85B00BB302232372E3682A
:1042800043F00103E3602368DB6823B19A88042AC2
:104290007BD09B68F9E74349102002F0A6FF054652
:1042A000002870D01022002103F0FAFB3E4B2B6057
:1042B0000423AB802369AB603C4BEB60256101229A
:1042C00002213748FFF736FF01220321FFF732FFB3
:1042D00001A8334900F092FC019808B100F0D2FB2C
:1042E000022002F0D0FE012808BF314A314C08BF3D
:1042F00013684FF0030004BF0133136002F0C3FEE4
:10430000012801BF2C4A13680133136000F0A4F99F
:104310002268801A254A904233D900F093FB48B9AD
:1043200000F088FB00F08EFB10B900F07BFBF9E792
:1043300000F088FB102002F0B9FE204B186003F05B
:10434000ADF813A3D3E9002303F012F912A3D3E9C4
:10435000002303F037FA0022194B03F009F903F0A8
:1043600019FB184B1860FFF73BFF114A002313603D
:10437000114A4FF47A70136001F0F4FD00F06CF90B
:10438000206005B030BD207599E7084ADA6096E7ED
:104390006666666666660A400000000000FEAF4082
:1043A00084E5032009800D001000030080EE360034
:1043B0007CE50320A8E5032078E5032070E50320D1
:1043C0000000144074E5032070B5D0E900531426B2
:1043D000044606FB0356AE4204D0284600F090FC8B
:1043E0001435F8E7206800F04DFB204670BD884288
:1043F000F8B504460D46164616D9904215D2A2F1DC
:104400001406751AA1F114072C44B7421CD02CB124
:104410003146204600F0DCFC337C2374304600F04B
:104420006FFC143E143CF0E70ED0B5420CD02CB11A
:104430002946204600F0CCFC2B7C2374284600F053
:104440005FFC14351434F0E7F8BD2DE9F04100238A
:10445000C0E9003383604F689F4204460E4623DD67
:104460004FF0140808FB07F000F004FB0546D8B134
:10447000D4E9001208FB0212FFF7B9FF206800F030
:1044800001FB2560A760D6E9007308FB0378B845F7
:1044900008D03946284600F0B5FC3B7C2B74143715
:1044A0001435F4E7736863602046BDE8F0810000CE
:1044B0002DE9F041364B374D01268CB01E7000F0CF
:1044C000CBF8354B186000F0C7F8344B0024186067
:1044D0000021304600F010FACDE90044029402F0C9
:1044E00083F96946074603A8FFF7AFFFA84603A96B
:1044F00006A8FFF7AAFF2A4B48F8043B06A909A81B
:10450000FFF7A3FF09AA1E21404601F005FA09A8FA
:10451000FFF75AFF06A8FFF757FF224B2B602F62C9
:1045200003A8FFF751FF204B2B6002F05DF94FF419
:10453000165102F049F900F0A9FE294601F07EF972
:104540006846FFF741FF194A1949284602F046FE1E
:104550001848194DA0F809400346011D43F8091BEE
:104560009C70164B4360114A15490675C0E9034417
:10457000047202F033FE2146284601F017FD0B4A73
:104580001049284602F02AFE0CB0BDE8F08100BFB9
:1045900080E50320ACE50320A4E50320A8E5032083
:1045A000247D0D005C7E0D003C7D0D006CE503203C
:1045B000ED400D0084E503209CE50320100003007E
:1045C000D3400D00CD5F0D0008B5024B1B689B6802
:1045D000019308BD6802030008B5024B1B68DB6845
:1045E000019308BD6802030008B5024B1B685B68B5
:1045F000019308BD2C02030008B5024B1B689B68A1
:10460000019308BD2C02030008B5024B1B68DB6850
:10461000019308BD2C02030008B5024B1B685B69BF
:10462000019308BD2C02030008B5024B1B681B6BED
:10463000019308BD2C02030008B5024B1B685B68A0
:10464000019308BD1802030008B5024B1B68DB6824
:10465000019308BD1802030008B5024B1B685B6993
:10466000019308BD1802030008B5024B1B685B6C80
:10467000019308BD4802030008B5024B1B689B6C00
:10468000019308BD4802030008B5024B1B68DB6CB0
:10469000019308BD4802030008B5024B1B685B6D1F
:1046A000019308BD4802030008B5024B1B685B6913
:1046B000019308BD6402030008B5024B1B681B6828
:1046C000019308BD3C02030008B5024B1B689B68C0
:1046D000019308BD3C02030008B5024B1B68DB6870
:1046E000019308BD3C02030008B5024B1B681B691F
:1046F000019308BD3C02030008B5024B1B685B69CF
:10470000019308BD3C02030008B5024B1B689B697E
:10471000019308BD3C02030008B5024B1B68DB692E
:10472000019308BD3C02030008B5024B1B681B6ADD
:10473000019308BD3C02030008B5024B1B689B6A4D
:10474000019308BD3C02030008B5024B1B68DB6AFD
:10475000019308BD3C02030008B5024B1B681B6AAD
:10476000019308BD2802030008B5024B1B685B6A71
:10477000019308BD2802030008B5024B1B689B6A21
:10478000019308BD2802030008B5024B1B68DB6AD1
:10479000019308BD2802030008B5024B1B681B6B80
:1047A000019308BD2802030008B5024B1B685B6B30
:1047B000019308BD2802030008B5024B1B681B6C5F
:1047C000019308BD2802030008B5024B1B689B6CCF
:1047D000019308BD2802030008B5024B1B68DB6C7F
:1047E000019308BD2802030008B5024B1B68DB6972
:1047F000019308BD3002030008B5024B1B681B6A19
:10480000019308BD3002030008B5024B1B681B680A
:10481000019308BD4C02030008B5024B1B685B689E
:10482000019308BD4C02030008B5024B1B689B684E
:10483000019308BD4C02030008B5024B1B681B69BD
:10484000019308BD4C02030008B5024B1B685B696D
:10485000019308BD4C02030008B5024B1B689B691D
:10486000019308BD4C02030008B5024B1B68DB69CD
:10487000019308BD4C02030008B5024B1B681B6A7C
:10488000019308BD4C02030008B5024B1B685B6B2B
:10489000019308BD6002030008B5024B1B681B6D45
:1048A000019308BD6002030008B5024B1B685B6DF5
:1048B000019308BD6002030008B5024B1B68DB6E64
:1048C000019308BD6002030008B5024B1B681B6F13
:1048D000019308BD6002030008B5024B1B685B68CA
:1048E000019308BD2002030008B5024B1B685B69F9
:1048F000019308BD2002030008B5024B1B68DB6A68
:10490000019308BD2002030008B5024B1B68DB6C55
:10491000019308BD2002030008B5024B1B685B6DC4
:10492000019308BD2002030008B5034B1B68D3F8B0
:104930008830019308BD00002002030008B5034B36
:104940001B68D3F89430019308BD000020020300D7
:1049500008B5034B1B68D3F8AC30019308BD0000C9
:104960002002030008B5024B1B685B68019308BD79
:104970004002030008B5024B1B689B68019308BD09
:104980004002030008B5024B1B68DB68019308BDB9
:104990004002030008B5024B1B681B69019308BD68
:1049A0004002030008B5024B1B685B69019308BD18
:1049B0004002030008B5024B1B689B69019308BDC8
:1049C0004002030008B5024B1B68DB69019308BD78
:1049D0004002030008B5024B1B681B6A019308BD27
:1049E0004002030008B5024B1B681B6B019308BD16
:1049F0004002030008B5024B1B685B6B019308BDC6
:104A00004002030008B5024B1B681B6C019308BDF4
:104A10004002030008B5024B1B685B6C019308BDA4
:104A20004002030008B5024B1B689B68019308BD58
:104A30004402030008B5024B1B68DB68019308BD04
:104A40004402030008B5024B1B685B69019308BD73
:104A50004402030008B5024B1B681B6A019308BDA2
:104A60004402030008B5024B1B68DB6B019308BDD1
:104A70004402030008B5024B1B681B68019308BD84
:104A80001C02030008B5024B1B685B68019308BD5C
:104A90001C02030008B5024B1B689B68019308BD0C
:104AA0001C02030008B5024B1B68DB69019308BDBB
:104AB0001C02030008B5024B1B685B6A019308BD2A
:104AC0001C02030008B5024B1B68DB6A019308BD9A
:104AD0001C02030008B5024B1B681B6B019308BD49
:104AE0001C02030008B5024B1B685B6C019308BDF8
:104AF0001C020300002240681146FFF76BBF002232
:104B000040681146FFF776BF40680022FFF76ABF92
:104B10004068002281F00101FFF754BF0023406884
:104B20001A461946FFF746BF002340681A46194641
:104B3000FFF738BF002240681146FFF72BBF002265
:104B400040681146FFF716BF406800220221FFF7B8
:104B500019BF002340681A46FFF704BF024B032227
:104B60005A60024A1A607047D0E50320607D0D004C
:104B700010B5044608462170FFF736FE0023636037
:104B8000204610BD10B50446006818B1FFF77AFF43
:104B90000023236010BD10B50446FFF7F3FF204645
:104BA00010BD38B5B1F9043083800B460D4653F87B
:104BB000062FC0F806209B8843810446FFF7E2FFDA
:104BC0002B6813B1236000232B60204638BD000002
:104BD00038B50C460546FFF7D5FF44B12088FFF7EE
:104BE00049FF286028B12288214602F031FF0020C9
:104BF00038BD0148FCE700BFFCFEFFFFF0B52D4DBE
:104C00000B7D04468BB00846AF1D002B38D00B68D7
:104C10001B79002B34D00022274B049302A90430C7
:104C20000292ADF80C208DF80E20FFF791FEDDF812
:104C30000E30C5F8063000B2BDF81230ADF80C00E9
:104C4000A8800299BB802846FFF7C2FF02A8FFF7A1
:104C500099FF00232360A380A37123814FF6FF7384
:104C60006381B5F90430A3803B68C4F80630BB8883
:104C7000296863812046FFF7ABFF20460BB0F0BDEB
:104C800000262023CDE902360C4B00930C49334615
:104C900002AA3220FFF700FE074B049302A94FF649
:104CA000F263044802968DF80E60ADF80C30FFF701
:104CB00078FFCBE7D8E503200000FFFF9B7D0D00C8
:104CC000947D0D0010B5094B094C022200201A609A
:104CD000084B2060A080A071A360FFF7FDFD204677
:104CE000054A0649BDE8104002F078BAE4E5032021
:104CF000D8E503200000FFFF6CE50320974B0D0073
:104D000010B504460068FFF7BDFE204610BD10B583
:104D10000446006808B1FFF7B5FE0023C4E901337B
:104D2000236010BD38B504460D4600680131FFF719
:104D3000B1FE10B1C4E90005012038BD10B503680B
:104D4000044623B143688B4201D3012010BD2046A5
:104D5000FFF7E8FF0028F9D0A368002BF5D12268FF
:104D60001370F2E737B50D46114601920446FFF77E
:104D7000E5FF019A28B92046FFF7C9FF204603B096
:104D800030BDA2602946206802F062FE2268A36856
:104D90000021D154F2E738B5054600680C4668B1E9
:104DA0006A688B689A4207D3096802F0C6FEA36856
:104DB000AB600023A36038BDFFF764FE23682B605F
:104DC00063686B60A368AB600023C4E90033F1E75C
:104DD00010B50023C0E90033044683600373FFF776
:104DE000DAFF204610BD884210B5044605D00B6896
:104DF0002BB18A681946FFF7B5FF204610BDFFF7B3
:104E000086FFFAE710B500230446C0E9003383604B
:104E10000373FFF7E8FF204610BD10B50368044692
:104E20009B689847A368013BA3602BB92368204681
:104E3000DB68BDE81040184710BD10B50446006897
:104E400008B1FFF719FC204610BD10B58368044671
:104E500013B1032201469847204610BD70B5D0E932
:104E60000053044605EB0316AE4204D02846FFF774
:104E700047FF1035F8E72068FFF704FE204670BDB5
:104E80000B68036013B15A6801325A60704710B55D
:104E90000446006828B14368013B43600BB9FFF743
:104EA000BCFF204610BD13B50B460246D0E90001F9
:104EB0006C4684E8030093E8030082E8030094E86A
:104EC000030083E8030002B010BD000010B5064CDB
:104ED000002320462360FFF7C7FB2046034A04490E
:104EE000BDE8104002F07AB9E8E503206CE5032044
:104EF0003B4E0D00F8B506460D468F180024BD4206
:104F00000CD0336815F8011B9B6830469847031E88
:104F100001DB1C44F3E7002C08BF1C462046F8BD0B
:104F200013B50446084659B1019102F02CFE2368DE
:104F30000199DB680246204602B0BDE810401847E0
:104F400002B010BD03689B68184738B50D210546AF
:104F5000FFF7F8FF0A2104462846FFF7F3FF204435
:104F600038BD30B58BB000238DF82430012A98BFAE
:104F70000A2209AC0D46B1FBF2F101FB125303F01A
:104F8000FF03092B94BF30333733DBB2AA4204F856
:104F9000013DEFD92146FFF7C3FF0BB030BD2DE92E
:104FA000F04186B000AF05460E46381D1421144668
:104FB0003B60FFF77FFD13280ED8391D2846FFF709
:104FC000AFFF04461EB12846FFF7BFFF044420464A
:104FD0001837BD46BDE8F08100F1080323F0070350
:104FE000E846ADEB030D2246411C3B686846FFF7DF
:104FF00061FD69462846FFF793FF0446C546E1E791
:1050000080680368DB6818477047084611B10B6871
:105010005B681847704770477047704738B504465B
:105020000D4600682E2102F074FD2368C31A2B6020
:1050300023B1037803B1013023682060184638BDDE
:1050400010B50C21044602F0CEF8204610BD10B574
:105050000421044602F0C7F8204610BD10B5042113
:10506000044602F0C0F8204610BD08B502F05BFD12
:10507000B0FA80F0400908BD10B50C4601F0B4FB51
:10508000844210D001F084FC844205D101F080FC00
:10509000BDE8104001F079BC2CB1236820465B6864
:1050A000BDE81040184710BD13B5044608460191ED
:1050B00002F069FD01990246204602B0BDE81040A9
:1050C00001F082BF13B504460846019102F05BFD72
:1050D00023680199DB680246204602B0BDE8104013
:1050E000184707B503688DF80710DB6801220DF13A
:1050F0000701984703B05DF804FB0EB403B503AB9A
:10510000002153F8042B006A0193FFF748FF02B017
:105110005DF804EB03B070472DE9F74FD0E9009537
:105120004FF0140808FB05F50093AB10184D174617
:105130005D434C46002D23DD6E1008FB06F004EBAA
:10514000000A3A46BAF804B0205801915F4528BFDA
:105150005A4602F020FD0199012378B95F4503D139
:10516000009A13703546E5E78CBF01200020002827
:10517000F8D0AE1B0AF11404013EF3E7C00FF6E7C6
:10518000A4EB09040248A410604303B0BDE8F08F0B
:10519000CDCCCCCC7FB50369067E01910BB301B3B6
:1051A000002500F10C04039503A901A8FFF736FFC1
:1051B0000146B0B10DF10B03039A8DF80B50204658
:1051C000FFF7AAFF9DF80B305BB12468142303FBA3
:1051D000004000F10804B0F90630002BA8BFDEB291
:1051E000E2E7304604B070BD10B50A4C2378BFF337
:1051F0005B8FDB070BD42046FEF75EFF38B12046FD
:10520000FEF75FFF044A0549054801F0E7FF04483F
:1052100010BD00BFF0E503206CE5032019500D0020
:10522000FCE4032010B50A4C2378BFF35B8FDB0747
:105230000BD42046FEF740FF38B12046FEF741FF71
:10524000044A0549054801F0C9FF044810BD00BFE4
:10525000F4E503206CE5032017500D0000E5032062
:1052600038B500250446C0E90055C0E904558560FD
:10527000856140F8245FFFF7F7F9FFF7B5FFE061BC
:10528000FFF7D0FF25732062204638BD10B50B4CC8
:105290002378BFF35B8FDB070ED42046FEF70CFFAD
:1052A00050B10748FFF7DCFF2046FEF70AFF054A2A
:1052B0000549034801F092FF014810BDECE50320C9
:1052C000FCE503206CE50320FD560D00024A03496E
:1052D00003480023FFF7F8BAD9550D0065550D00B6
:1052E000E5540D0000231A4619461846FFF7ECBA9C
:1052F00037B50D6951F8043B0093044601A8FFF748
:10530000BFFD6A462946204601F008FD01A8FFF7C7
:10531000BEFD204603B030BD37B58D6851F8043B63
:105320000093044601A8FFF7ABFD6A4629462046D4
:1053300001F070FD01A8FFF7AAFD204603B030BDC3
:1053400037B5CD6851F8043B0093044601A8FFF738
:1053500097FD6A462946204601F038FD01A8FFF76F
:1053600096FD204603B030BD70B58AB00D460146AB
:1053700004A8FFF7D1FF144E04A801F063FDE8B1C3
:1053800004A96846FFF7DCFF02983146FFF76DFE7F
:10539000044610B12C1E18BF012401A8FFF777FDA9
:1053A000002CE9D004A96846FFF7A2FF684601F087
:1053B000EBFC286001A8FFF76AFDDDE705A8FFF711
:1053C00066FD0AB070BD00BFC27D0D0037B50C464A
:1053D00020461249154602F0A6FB48B901F004FA2E
:1053E0004FF4165101F0F0F901F0FEF903B030BDB1
:1053F0000B49204602F097FB70B94FF4165301A9F0
:1054000028460193FFF7B0FF01F0C2FA019901F0BD
:10541000B9FA01F0BDFAE9E70020E7E7C77D0D0022
:10542000CE7D0D0070B5D0E900531426044606FB6E
:105430000356AE4205D005F10800FFF7F3FF14351F
:10544000F7E72068FFF71EFB204670BD10B5044645
:105450000C30FFF7E7FF2046FFF700FD204610BDA8
:1054600010B5044B044640F8043BFFF7EFFF20461D
:1054700010BD00BF247D0D0010B50446FFF7F0FFFE
:105480002046242101F0AFFE204610BD10B5034B8D
:1054900003600446FFF7E4FF204610BD747E0D0054
:1054A00010B50446FFF7F2FF2046242101F09BFED1
:1054B000204610BD0022C0E9002210B582600C68B1
:1054C00004604C6844608C680A604A6084608A604A
:1054D00010BD10B5036804461868FFF7DDF82046D4
:1054E00010BD00002DE9F04F87B0804603931C4BA0
:1054F0005B68C3F30803894616466BB9FFF7C6FE1F
:10550000044600F12403406A0593FFF7BDF8237BAE
:105510002BB105A8FFF7DDFF07B0BDE8F08F012331
:105520002373D4E900535FFA89F905EB830AAA458E
:1055300012D055F8047B3146381DFFF72BFE81450C
:10554000F5D33B68039A0092D3F808B04A46334635
:1055500041463846D847EAE700232373D9E700BF1E
:1055600000ED00E02DE9F74F9B461A4B5B68C3F353
:1055700008038046894616466BB9FFF787FE044646
:1055800000F12403406A0193FFF77EF8237B2BB1DF
:1055900001A8FFF79EFF03B0BDE8F08F012323733E
:1055A000D4E90053F6B205EB830A55450ED055F801
:1055B000047B5946381DFFF7EDFD8642F5D33B6865
:1055C0004A46DB68414638469847EEE70023237396
:1055D000DEE700BF00ED00E02DE9F341164B5B680C
:1055E000C3F3080305460F461BBBFFF74FFE00F150
:1055F00024030446406A0193FFF746F8D4E90063A8
:10560000462406EB8308B04509D101A8FFF761FFE6
:10561000A542B4BF0020012002B0BDE8F08156F8D9
:10562000040B39460430FFF7B5FD8442A8BF044699
:10563000E9E70020F0E700BF00ED00E070B50446A8
:10564000D0E900020B4600EB8202824207D00146FD
:105650001D6851F8046BAE4203D00846F5E7002000
:1056600070BD521A02F002FA6368013B63600120C8
:10567000F6E71FB500F124030446406A0191039345
:10568000FFF702F801A92046FFF7D8FF18B16368B9
:105690000BB9FFF727FE03A8FFF71BFF04B010BDEF
:1056A00070B5D0E904561823044603FB0656AE42F3
:1056B00015D005F110012046FFF7C0FF63680BB954
:1056C000FFF710FEE06929690368DB68984769699C
:1056D00019B1206A0368DB6898471835E7E7D4E911
:1056E0000453182606FB0356AE4204D02846FFF7A3
:1056F00007FB1835F8E70023636170BD73B50446F6
:10570000FFF7F0FD04F12403606A0193FEF7BCFF8C
:105710002046FFF7C5FF01A8FFF7DBFE606A08B16E
:10572000FEF7AAFFD4E90453182606FB0356AE423F
:1057300004D02846FFF7E4FA1835F8E72069FFF7A8
:10574000A1F92068FFF79EF9204602B070BD88429B
:10575000F8B506460C46154627D9904226D2A2F146
:1057600014056C1AA1F1140704440026AF423DD081
:10577000A4B12B682360AB88A380B5F90630E38021
:10578000C4E902662661AB68A360AE60E368EA68BC
:10579000E260EB6023692A6922612B6105F1080050
:1057A000FFF740FE143D143CE0E71FD00027AC4259
:1057B0001CD0A6B123683360A388B380B4F9063047
:1057C000F380C6E902773761A368B360A760F36826
:1057D000E268F260E360336922693261236104F1B7
:1057E0000800FFF71FFE14341436E0E7F8BDF8B5E3
:1057F000D0E901539D4204460E4617460DDB0135A4
:10580000002D006804DDA900FFF744F918B9F8BDC0
:10581000FFF738F900202060A5602568626805EB75
:1058200086019200A2EB8602081D02F01FF945F8DE
:1058300026706368013363600120E8E737B500F143
:1058400024030446406A01930D46FEF71DFFD4E988
:10585000003103EB810083421A460BD01268AA4242
:1058600003F10403F7D101A8FFF733FE0025284612
:1058700003B030BD2A462046FFF7B9FF0546002891
:10588000F1D06368012B01D1FFF720FD01A8FFF7DC
:1058900020FEECE78842F8B504460D46164614D9BA
:1058A000904213D2A2F11006751AA1F110072C44F0
:1058B000B74218D01CB131462046FFF789FA30466E
:1058C000FFF71EFA103E103CF2E70CD0B5420AD0AA
:1058D0001CB129462046FFF77BFA2846FFF710FA4D
:1058E00010351034F2E7F8BD70B50E1E054611DD17
:1058F0003001FFF7BFF8044658B1D5E9001201EBBB
:105900000212FFF7C7FF2868FFF7BCF82C60AE60F3
:10591000012070BD0024F6E72DE9F04F914697B0C5
:1059200000230391D9F804100C9346229942C0E950
:105930000033C0E90233C0E90433CDE90A33044639
:10594000027623DCD9E90057142303FB0757AF4243
:105950003BD029460DA8FFF73BFA0DA911A80B9ED5
:10596000FFF736FADDE90B1399421BDA0A9B0B9A13
:1059700003EB061603EB0212314606F11000FFF7A7
:1059800089FFEEB90B9B01330B9311E00AA8FFF7D7
:10599000ABFF0028D6D10AA8FFF760FA204617B05F
:1059A000BDE8F08F01310AA8FFF79EFF0028DDD186
:1059B00011A8FFF7A5F90DA8FFF7A2F91435C6E75E
:1059C00011A93046FFF704FADCE70026CDE90D66A1
:1059D0000F9637464FF0140ADDE90A239E4280F203
:1059E00097803301D35808930BB90136F4E70AFBCB
:1059F00006F3099702930DAD09A908A8FFF70EFB5E
:105A000083460028F1D00146099A8DF81F700DF1E8
:105A10001F032846FFF780FB9DF81F800190B8F117
:105A2000000F66D1BDF82430ADF84830CDE91388B9
:105A30004FF6FF73CDF844B0ADF84A30CDF854803E
:105A4000D5E9013293421ADB03F1010BBBF1000FE0
:105A50004ADD0AFB0BF0FFF70DF80490002845D053
:105A6000D5E900120AFB0212FFF771FE049B2868B9
:105A70000493FFF707F8049B2B60C5F808B0019B5F
:105A8000D5F800B06A680AFB03F30BEB030101F1E0
:105A900014000AFB02B204910593FFF758FE049923
:105AA000A9B1059B119A4BF80320BDF848308B80B3
:105AB000BDF94A30CB80C1E902770F61139B8B603F
:105AC000149B1397CB60159B14970B6115976B680C
:105AD00001336B6013A8FFF7A5FCB8F1000F08D0E5
:105AE0000DA8FFF79FFC56E74346C0E74FF00108BB
:105AF000F0E7019B2D680AFB0355089B1B782BB927
:105B0000D9F80030029A13441B7CEB80083573E708
:105B10002168226062686360A3680B920C9A0C9300
:105B2000E368A2600D9A0D932369E2600E9A0E93CA
:105B3000636922610F9A0F93039B0A916261237636
:105B4000CEE700007FB50546094B45F8043B044607
:105B50000E4601A81146FEF778FC01AA31462846F8
:105B6000FFF7DAFE01A8FEF72FFC204604B070BD57
:105B7000247D0D00F0B50F4687B026490C9C3846B1
:105B800016461D4601F0CFFF00BBE4B1294668462A
:105B9000FFF790FC2049242001F027FB054670B157
:105BA000694603A8FEF751FC03AA31462846FFF7D1
:105BB000C9FF03A8FEF708FC184B2C622B6068464F
:105BC000FEF702FC2C46204607B0F0BD14493846CB
:105BD00001F0A9FFE0B9002CF5D029466846FFF78F
:105BE00069FC0D49242001F000FB05460028E6D0A1
:105BF000694603A8FEF729FC03AA31462846FFF7A9
:105C0000A1FF03A8FEF7E0FB064B2B602C62D6E752
:105C10000024D8E7D67D0D0009800D00747E0D00AC
:105C2000DA7D0D005C7E0D00014B024A1A60704760
:105C3000F8E50320EB7D0D002DE9F047089DD0F835
:105C4000209004460E461746984600F0CDFD81454B
:105C50004CD02B79190704D56A6954492046FFF7BF
:105C60004CFAB8F1000F0DD05B212046FFF739FA4E
:105C700041462046FFF726FA23684D49DB68022299
:105C8000204698472B79DA0723D5D5F808802F21AD
:105C9000404601F092FF08B100F10108414620465C
:105CA000FFF710FA2B799B0708D53A212046FFF71A
:105CB00018FAEA683F492046FFF71FFA2A79236855
:105CC00012F0040FDB6814BF3B493C490222204616
:105CD00098472B7958071DD529690B461A4613F8A2
:105CE000010B60B1202808D11946F7E7344800F0CD
:105CF00014FF0028ADD0BDE8F0872828EED1236836
:105D0000521ADB682046984723682E49DB68042234
:105D10002046984700213846FEF7CEFD0146204632
:105D2000FFF7D0F923682549DB680222204698470F
:105D30001EB131462046FFF7C5F92B7913F0300F1D
:105D40002CD023682049DB680222204698472B7913
:105D5000D9060AD523681D49DB68072220469847E3
:105D6000AA691B492046FFF7C8F92B799A0611D575
:105D7000DB0605D523681049DB68022220469847D8
:105D800023681449DB6820460A229847E9692046BF
:105D9000FFF798F95D212046FFF7A3F923680E4924
:105DA000DB6820460222BDE8F0471847EF7D0D0072
:105DB000F67D0D00F97D0D00FC7D0D00017E0D00CE
:105DC000A8E70320FF7D0D00047E0D00077E0D0077
:105DD0000F7E0D00127E0D001D7E0D002DE9F0439B
:105DE00085B0D0F820900C9C05460F4690461E4684
:105DF00000F0FAFC814505D1494800F08EFE0028EC
:105E000040F08A802B6A474A01924FF0000901A8AE
:105E100003938DF8089001F03EF849464046FEF79E
:105E20004BFD41498046012201A801F0BDF84146E1
:105E3000FFF73AF93FB13D49012201A801F0B4F85A
:105E40003946FFF731F93EB13949012201A801F085
:105E5000ABF83146FFF728F92379DF070ED5A6689E
:105E60002F21304601F0A9FE00B1461C3149012224
:105E700001A801F099F83146FFF716F923799E073A
:105E800007D52D49022201A801F08EF8E16801F042
:105E90000FF82379580714D5266933461F4613F89F
:105EA000012B2AB1202A01D11E46F7E7282AF5D175
:105EB0002249022201A801F077F8BA1B314601F00D
:105EC00083F82379190707D51D49012201A801F09C
:105ED0006BF8616900F0FEFF2379DA0608D5042229
:105EE00018490DEB020001F05FF8A16900F0E0FF36
:105EF00023799B0607D51449062201A801F054F81E
:105F0000E169FFF7D1F801A800F0AFFF286A0F4957
:105F100003680222DB68984705B0BDE8F08300BF44
:105F2000A8E70320447E0D00CC7D0D00207E0D00EF
:105F3000227E0D00247E0D00267E0D00297E0D00A0
:105F40002C7E0D002E7E0D00337E0D001D7E0D007B
:105F5000024B1A68024B1A60704700BF04E5032029
:105F600024E603200021FEF7BFBC10B50446FEF76F
:105F70006CFF204610BD00000348044A044900237A
:105F8000836001F02BB900BF28E603206CE50320F5
:105F90006B5F0D00006800F077BD10B5044601602E
:105FA00002710AB1FFF7F6FF204610BD13B5044693
:105FB000019101F0EBF8019A01462046FFF7EDFF51
:105FC000204602B010BD006800F067BD10B503792F
:105FD00004460BB1FFF7F7FF204610BD014B1860D8
:105FE000704700BF08E5032008B50B4B43B100F034
:105FF000FBFB03681B699847002801DDAFF30080B5
:10600000064B43B100F0C4FC03681B6998470028A5
:1060100001DDAFF3008008BD0000000000000000BB
:1060200008B5FFF7E1FFFEF717FB014B186008BD4D
:10603000BCE703200248034A0349121A01F008BDD5
:1060400000F4032004F4032030810D0007B5002381
:1060500000931A466FF07701FEF770FC03B05DF80D
:1060600004FB000007B543880A2B08D0502B0BD146
:10607000094B1B684BB103B05DF804EB1847FFF701
:10608000E5FF03B05DF804FB002300931A466FF0B0
:106090007701FEF753FCF4E73CE6032038B5124CD9
:1060A0001248134D0021FEF71DFD2368AB42114B32
:1060B0000CBF012200221A7002D0FFF7BBFF25603F
:1060C000FEF7BAFA044601F0F3FC0B4B13B120467D
:1060D000AFF3008000210848FEF7C4FCBDE838405B
:1060E00006480021FEF720BC00F40320DD5F0D0010
:1060F0001E1C279A38E603200000000065600D0092
:1061000070470020704710B51021044601F06BF86D
:10611000204610BD08B5FFF7F6FF08BD30B50022D8
:106120004FF69C74026084808D888C800C6885801A
:1061300004600A6030BD10B504460068FEF7A2FC9A
:10614000204610BD38B5C468F4B12378022B03D1C2
:1061500004F10C00FFF7EFFF656835B12846FEF744
:1061600074FE1021284601F03EF8A56835B1284696
:10617000FEF76BFE1021284601F035F82046142169
:10618000BDE8384001F02FB838BD73B50E4604465F
:1061900056F8043B00930D4601A83146FEF770FE09
:1061A000019A009B6260236001A800230193009381
:1061B000FEF76DFE3046FEF76AFE2846082101F024
:1061C00012F8204602B070BD826810B50AB901F01D
:1061D00010F8BDE81040C368184708B5006800F122
:1061E0001001FFF7F1FF08BD826810B50AB901F090
:1061F00000F8BDE81040C368184708B5006800F112
:106200001001FFF7F1FF08BD38B500230446036015
:1062100010200D46FDF73FFF28B10123C0E90133EF
:10622000024B0360C5602060204638BDD87E0D005B
:1062300038B5002383608B6804460D462BB10222DB
:106240009847EB68E360AB68A360204638BD000068
:10625000F0B589B004686846FFF760FF4FF00203AD
:10626000D4E84F2F002A03D1C4E8413F0029F7D1D9
:1062700025D104F10C0569462846FFF74FFFBFF30F
:106280005B8F01236370002004F10803BFF35B8F71
:1062900053E8006F43E80002002AF9D1BFF35B8F97
:1062A0006EB1FEF731FB78B129463046FFF78CFF1F
:1062B0003046FEF7CAFD1021304600F094FF6846D4
:1062C000FFF739FF09B0F0BD314602A8FFF7B0FF74
:1062D000E068B4F9105008B101F038FC06901020C5
:1062E000ADF81C50FDF7D7FE0546E8B100278760E2
:1062F0001820FDF7D0FE044688B10146876002A849
:10630000FEF7D1FD049BA268A360059B049206A939
:10631000E268E36004F110000592FFF7FFFE084B0E
:10632000EB60084B2C60AB6006A8FFF704FF02A8E7
:10633000FEF78BFD002229460348FEF7EDFAB7E78A
:10634000DB610D0071640D00E5690D002DE9F0477A
:106350008AB005469DF848900C4617469846FEF7C9
:1063600071FB07AE824638BB4FF62E73059005A928
:106370003046ADF81830FFF7D1FE1420FDF78BFE44
:10638000044648B1022303700123C0E901AA437007
:1063900031460C30FFF7C2FE2846214640F8044B38
:1063A000FFF732FF3046FFF7C6FE05A8FFF7C3FE32
:1063B00028460AB0BDE8F0870C234FF0000A1420ED
:1063C000CDE908AA0793FDF766FE014628B1C0E9AA
:1063D00001AA80F800A080F801A004A80391FFF7AB
:1063E00013FF224B08930820FDF755FE824628B183
:1063F000039B40F8043B04A9FEF742FD00965FFAB8
:1064000089F3424639462046CDF824A0FEF722FB08
:10641000B8B9039B5B7803F0FF0293B94FF69C7306
:1064200005A903A80592ADF81830FFF711FF05A8DC
:10643000FFF781FE05A80999FFF7A7FE06A8FEF75A
:1064400026FD039B059304A906A8FEF719FD059BED
:10645000069A2B606A60002306A806930593FEF750
:1064600016FD04A8FEF713FDA2E700BF35650D0079
:10647000022AF8B5054607D0032A18D0012A01D10F
:106480000B6803600020F8BD18200E68FDF703FEBE
:10649000044650B13146FFF7CBFE3069B6F91470AF
:1064A00008B101F053FB2061A7822C60EAE7046881
:1064B000002CE7D004F11000FFF73DFE2046FEF768
:1064C000C4FC1821204600F08EFEDBE738B500231F
:1064D00083608B6804460D462BB102229847EB6817
:1064E000E360AB68A360204638BD022A70B504465D
:1064F00007D0032A12D0012A01D10B6803600020C3
:1065000070BD14200E68FDF7C6FD054620B131466A
:10651000FFF7DCFF337C2B742560F0E70468002C68
:10652000EDD02046FEF791FC1421204600F05BFEE2
:10653000E5E70000F0B589B004460D4601A8114614
:10654000FFF723FEA4B124B21DB1284601F0FEFAE4
:10655000054601A803A90395ADF81040FFF778FEA2
:1065600003A8FFF7E8FD02A8FEF791FC09B0F0BD13
:10657000019D0123D5E84F2F002A03D1C5E8413FF3
:106580000029F7D1EFD12B73BFF35B8F6B702B1DFD
:10659000BFF35B8F53E8006F43E80042002AF9D154
:1065A000BFF35B8F002EDED02046FEF7ADF9074625
:1065B00060B105F10C013046FFF716FE3046FEF7DC
:1065C00044FC1021304600F00EFECCE7314603A813
:1065D000FFF77CFF2B7B8DF81C301020FDF75BFD57
:1065E0000546D0B187601420FDF755FD044678B10B
:1065F0008760014603A8FEF756FC059BA268A360CE
:10660000069B0592E268E3609DF81C3006922374B5
:10661000064BEB60064B2C60AB6003A8FEF715FC45
:10662000002229460348FEF777F9C7E7FB610D0012
:10663000EB640D00E5690D00704710B518210446A4
:1066400000F0D1FD204610BDF0B5037D062B8DB0C6
:106650000E4600F104074FF0000412D000F10805C7
:1066600015F8011D0A223046FEF77BFCAF420444B8
:1066700019D0002CF4D02E213046FEF763FC0444E0
:10668000EEE72F236A4639460A208DF80040FEF7D0
:106690000BF8684601F077FA33680246DB68694612
:1066A00030469847044620460DB0F0BD10B5054B66
:1066B0000446112240F8043B002101F0F1F9204684
:1066C00010BD00BFF47E0D000346074A10B543F825
:1066D000042B01F1100251F8044B43F8044B914292
:1066E000F9D10A781A7010BDF47E0D0010B59DF82E
:1066F000084044EA032343EA024242EA01610423D8
:106700004160037510BD000013B5054B0360CB78E5
:1067100000938B784A780978FFF7E8FF02B010BD44
:10672000F47E0D0041747047704708B50021007C6D
:10673000FEF792F840EAE07008BD08B50121007C40
:10674000FEF78AF840EAE07008BD08B5007CFEF765
:106750007BF820EAE07008BD08B5007CFEF76CF815
:1067600020EAE07008BD13B50446007C0191FEF7F5
:106770006BF80028019901DC607C20B1207CFEF7D9
:1067800073F820EAE07002B010BD007CFEF774B828
:1067900010B51421044600F026FD204610BD00006F
:1067A00010B54FF47A73044608460021C4E901137A
:1067B000044B23600123207463741146FEF724F810
:1067C000204610BD087F0D00007C0022FEF724B893
:1067D000007CFEF729B810B514220446002101F010
:1067E0005FF9204610BD000010B5104C88B003A81A
:1067F000FFF7F1FF2178BFF35B8F11F0010111D199
:1068000020460191FDF758FC019958B103AA0848A8
:10681000FFF7C6FF2046FDF754FC064A0649044828
:1068200000F0DCFC024808B010BD00BF40E60320C9
:1068300044E603206CE5032029670D000022406830
:106840001146FEF7A7B8002240681146FEF7C2B80D
:10685000002240681146FEF7CDB840680022FEF7DE
:10686000C1B84068002281F00101FEF7ABB80023F7
:1068700040681A461946FEF79DB8002340681A463C
:106880001946FEF78FB8002240681146FEF772B82D
:10689000406800220221FEF775B8002340681A46BE
:1068A000FEF760B8084B10B5282422461846002190
:1068B00001F0F6F8054B04804FF0FF3242600422ED
:1068C0005A60034A1A6010BD60E6032058E60320B0
:1068D000387F0D0070474174704708B5007CFDF7A4
:1068E0002BFF20EAE07008BD08B5007CFDF7FCFE38
:1068F00020EAE07008BD08B5007CFDF705FF40EA1E
:10690000E07008BD08B5007CFDF7F6FE40EAE070D7
:1069100008BD007CFDF700BF37B5457C04462DB1AE
:10692000207C03B0BDE83040FDF7D6BE007C01916D
:10693000FDF702FF00280199F2DC284603B030BDC4
:1069400010B51421044600F04EFC204610BD000096
:1069500010B54FF0000C0446084611464FF47A7209
:10696000C4E901C2044A22600122207462741A46FA
:10697000FDF7A2FE204610BD747F0D00007C0023B1
:10698000FDF7E2BE0022FFF7F9BF007CFDF79CBED9
:1069900013B50E4C2178BFF35B8F11F0010112D1BA
:1069A00020460191FDF788FB019960B1084A094B27
:1069B0000948FFF7CDFF2046FDF783FB074A08494A
:1069C000054800F00BFC044802B010BD88E6032027
:1069D0008CE6032010E7032094E703206CE50320F6
:1069E000D5680D0010B5836804460BB900F001FCB2
:1069F000C3689847A3681BB10322214620469847E5
:106A000020461021BDE8104000F0EDBB7047F8B5FE
:106A1000064615460C468F18BC4206D0336814F85B
:106A2000011B9B6830469847F6E72846F8BD007C76
:106A30000022FDF791BE007C0021FDF795BE007C91
:106A40000021FDF799BE007C0021FDF79DBE007C72
:106A50000021FDF7A1BE10B51421044600F0C3FBD0
:106A6000204610BD10B54FF47A7304460846002145
:106A7000C4E90113034B236020741146FDF79CFE0B
:106A8000204610BDA47F0D0008B50021007CFDF755
:106A90009BFEB0FA80F0400908BD08B50021007CDB
:106AA000FDF79AFEB0FA80F0400908BD0023406867
:106AB0001A46FDF757BF406800220221FDF762BF6A
:106AC000002240681146FDF755BF0022406811467C
:106AD000FDF760BF002340681A461946FDF762BF04
:106AE000002340681A461946FDF764BF406800213C
:106AF000FDF788BF40680021FDF78CBF4068002289
:106B000081F00101FDF75EBF40680022FDF76ABF1A
:106B1000002240681146FDF76DBF00224068114613
:106B2000FDF758BF2DE9F043002495B016460D46F9
:106B30000746FFF7BBFD214618220EA8009400F07F
:106B4000AFFF4023CDE90C3421466B460CAA3046FA
:106B5000FDF742FD044600284CD102460121686839
:106B6000FDF718FF0221804622466868FDF712FFF4
:106B7000009E81462146002E3CD000293AD1736800
:106B8000022B03D00A2B11D0F669F4E7B8F1000FFD
:106B90000AD0716906A8043107ADFFF7B5FD0FCD26
:106BA0003C1D0FC42B6823704146EDE7B9F1000F7F
:106BB00001D14946E8E77469102201A800F070FF8E
:106BC00006238DF8143001AD04F108031834186859
:106BD00059682A4603C20833A3421546F7D101A9D2
:106BE00006A807ADFFF770FD0FCD3C1D0FC42B6845
:106BF0002370DEE70098FDF7E7FC384615B0BDE8E6
:106C0000F0830000024B034A1A6000225A6070476A
:106C1000A8E70320CC7F0D0000F11003012213F838
:106C2000101C0129184608D153F8041C02EB41023C
:106C3000013A03F11003F2D17047022904BF53F85F
:106C4000041C5218F4E70EB4F0B588B000AF07F199
:106C50003405102155F8042B7A6004462B46781829
:106C6000FD60FDF727FF0F287A681AD900F10803A5
:106C700023F007036E46ADEB030D411C2B4668461F
:106C8000FD60FDF717FF021E04DD236869469B685F
:106C900020469847B5462037BD46BDE8F04003B0D2
:106CA00070470028F7D0236802469B6807F110015F
:106CB00020469847EFE710B5036804469B6898475D
:106CC000A368013BA3602BB923682046DB68BDE8BD
:106CD0001040184710BD07B503688DF807109B6872
:106CE00001220DF10701984703B05DF804FB38B5A8
:106CF0000B6803604D6843689D4204460CD015B193
:106D00006B6801336B60606828B14368013B436086
:106D10000BB9FFF7D0FF6560204638BD0B46114622
:106D2000002210B5C0E90022044683600BB920465A
:106D300010BDFFF7DCFFFAE78368EBB11A78032A8E
:106D40001AD8DFE802F00417021B0520704702681A
:106D50005B685268D05C2D2812D0A0F13003092B5B
:106D60000ED974280ED066280CD0A0F16E035842BC
:106D70005841704706207047002070470420704734
:106D8000032070470220704710B50446FFF7D4FF78
:106D900002280ED0C31EDBB2012B14D82268A368D0
:106DA00050685B68BDE810400A220021184400F0DA
:106DB00093BF2268A36852685B68D05CA0F174033B
:106DC0005842584110BD0020FCE7000038B50023B0
:106DD000C0E9003304460E48C4E90203A9B10B78A8
:106DE000032B06D08BB9136858684B68C35C6E2BB5
:106DF00007D013684D6858688B6828445B1BA060F7
:106E0000E36011462046FFF772FF204638BD00BF01
:106E10001F7E0D0038B500250B46C0E90055C0E9BE
:106E20000255C0E90455044611464BB11A78012AAF
:106E300006D103F11002DB6882604361FFF757FF60
:106E4000204638BD10B54369044663B18068E060F0
:106E5000013B1030A0602061636113B1FFF7DCFEDD
:106E6000A060012000E0184610BD10B57D21044649
:106E7000FFF731FF01232371204610BD08B50379C8
:106E8000012B02D0022B04D008BD2C21FFF723FFD9
:106E9000FAE73A21FAE710B50446FFF7EFFF20467C
:106EA0007B21FFF718FF00232371204610BD00004F
:106EB00013B504460191FFF7E1FF2368019ADB68EF
:106EC00003492046984701232046237102B010BD94
:106ED000F97D0D0013B504460191FFF7CFFF23683C
:106EE000019ADB6803492046984701232046237115
:106EF00002B010BD00800D002DE9F0410D4617468F
:106F00002221DFF8A08004462F44FFF7E4FE294643
:106F1000BD422A4638D015F8016B222E03D05C2ED4
:106F200001D01F2EF4D82368521A9B682046984738
:106F30005C212046FFF7CFFE0D2E0AD8072E1CD964
:106F4000A6F10803052B18D8DFE803F00D0F111781
:106F50001315222E01D05C2E0FD131462046FFF7AB
:106F6000BAFE2946D4E76221F8E77421F6E76E21DC
:106F7000F4E76621F2E77221F0E723683246DB6826
:106F8000414620469847ECE78D4204D023686A1AB0
:106F90009B682046984722212046FFF79CFEBDE8CB
:106FA000F08100BF03800D0013B50446CDE9002138
:106FB000FFF764FF2046DDE90021FFF79DFF022374
:106FC0002046237102B010BD13B50446CDE900215F
:106FD000FFF754FF2046DDE90021FFF78DFF012375
:106FE0002046237102B010BD232813B502D900201A
:106FF00002B010BDA0F10B03022B1AD8174C217858
:10700000BFF35B8F11F001010BD120460191FDF719
:1070100053F8019928B11248FDF7AAFD2046FDF763
:1070200050F80F4B1878FDF7E7FB0028DFD101205F
:10703000DEE7012809D800F081F80021007CFDF787
:10704000B3FB80F00100C0B2D2E709380128EED8C6
:10705000FFF79EFC007CFDF767FBF2E7B0E703203B
:10706000B4E70320232838B504460D460AD8FF2983
:1070700008D0FFF7B9FF28B129462046BDE83840BF
:10708000FDF7BABA38BD10B50446FDF7BDFA031FC7
:10709000DBB2012B08D92046FFF7A6FF20B120461E
:1070A000BDE81040FDF7B8BA002010BD0D2810B59E
:1070B00004469CBF0E34A4B22046FFF795FF50B1A2
:1070C00003212046FDF790FA032804D12046BDE8AD
:1070D0001040FDF7A9BA002010BD000038B500230C
:1070E00020254380142304460380856005610649FA
:1070F000284600F07CF804496060284600F077F8E4
:10710000E060204638BD00BF09800D0038B500237F
:1071100020254380142304460380856005610649C9
:10712000284600F064F804496060284600F05FF8E3
:10713000E060204638BD00BF09800D0030B50F4D1E
:107140002978BFF35B8F11F0010487B013D1284673
:10715000FCF7B2FF78B101A8FFF7C0FF01AA2146F2
:107160000748FFF77FFC2846FCF7ABFF054A0649B6
:10717000034800F033F8024807B030BDC0E70320F1
:10718000C8E703206CE503200D6A0D0010B50F4C15
:107190002378BFF35B8FDB0786B013D42046FCF760
:1071A0008BFF78B101A8FFF7B1FF01AA01210848C0
:1071B000FFF758FC2046FCF784FF064A06490448BE
:1071C00000F00CF8024806B010BD00BFC4E7032071
:1071D000DCE703206CE503200D6A0D000B46014639
:1071E000184600F027BCFCF75ABFFCF754BFFCF769
:1071F00054BF08B5FDF766FC81F0004102E000BF16
:1072000083F0004330B54FEA41044FEA430594EA66
:10721000050F08BF90EA020F1FBF54EA000C55EAA1
:10722000020C7FEA645C7FEA655C00F0E2804FEA72
:107230005454D4EB5555B8BF6D420CDD2C4480EA54
:10724000020281EA030382EA000083EA010180EA84
:10725000020281EA0303362D88BF30BD11F0004FD2
:107260004FEA01314FF4801C4CEA113102D0404208
:1072700061EB410113F0004F4FEA03334CEA133343
:1072800002D0524263EB430394EA050F00F0A7805B
:10729000A4F10104D5F1200E0DDB02FA0EFC22FA56
:1072A00005F2801841F1000103FA0EF2801843FA4A
:1072B00005F359410EE0A5F120050EF1200E012A3B
:1072C00003FA0EFC28BF4CF0020C43FA05F3C01879
:1072D00051EBE37101F0004507D54FF0000EDCF1F2
:1072E000000C7EEB00006EEB0101B1F5801F1BD39B
:1072F000B1F5001F0CD349085FEA30004FEA3C0C9F
:1073000004F101044FEA445212F5800F80F09A8094
:10731000BCF1004F08BF5FEA500C50F1000041EB98
:10732000045141EA050130BD5FEA4C0C404141EB9C
:107330000101013C28BFB1F5801FE9D291F0000F97
:1073400004BF01460020B1FA81F308BF2033A3F146
:107350000B03B3F120020CDA0C3208DD02F1140C3D
:10736000C2F10C0201FA0CF021FA02F10CE002F178
:107370001402D8BFC2F1200C01FA02F120FA0CFC71
:10738000DCBF41EA0C019040E41AA2BF01EB0451BA
:10739000294330BD6FEA04041F3C1CDA0C340EDCB8
:1073A00004F11404C4F1200220FA04F001FA02F3FB
:1073B00040EA030021FA04F345EA030130BDC4F1B9
:1073C0000C04C4F1200220FA02F001FA04F340EAAE
:1073D0000300294630BD21FA04F0294630BD94F05F
:1073E000000F83F4801306BF81F480110134013D46
:1073F0004EE77FEA645C18BF7FEA655C29D094EAB7
:10740000050F08BF90EA020F05D054EA000C04BF34
:107410001946104630BD91EA030F1EBF002100201F
:1074200030BD5FEA545C05D14000494128BF41F0BE
:10743000004130BD14F580043CBF01F5801130BD22
:1074400001F0004545F0FE4141F470014FF00000AD
:1074500030BD7FEA645C1ABF194610467FEA655C5E
:107460001CBF0B46024650EA013406BF52EA033500
:1074700091EA030F41F4002130BD00BF90F0000FEE
:1074800004BF0021704730B54FF4806404F132042A
:107490004FF000054FF0000150E700BF90F0000FE3
:1074A00004BF0021704730B54FF4806404F132040A
:1074B00010F0004548BF40424FF000013EE700BFDA
:1074C00042004FEAE2014FEA31014FEA02701FBF6A
:1074D00012F07F4393F07F4F81F06051704732F09C
:1074E0007F4208BF704793F07F4F04BF41F40021F3
:1074F000704730B54FF4607401F0004521F0004151
:107500001CE700BF50EA010208BF704730B54FF0DA
:1075100000050AE050EA010208BF704730B511F0DB
:10752000004502D5404261EB41014FF4806404F113
:1075300032045FEA915C3FF4D8AE4FF003025FEA99
:10754000DC0C18BF03325FEADC0C18BF033202EB1D
:10755000DC02C2F1200300FA03FC20FA02F001FA77
:1075600003FE40EA0E0021FA02F11444BDE600BF1A
:1075700070B54FF0FF0C4CF4E06C1CEA11541DBFC9
:107580001CEA135594EA0C0F95EA0C0F00F0DEF894
:107590002C4481EA030621EA4C5123EA4C5350EA79
:1075A000013518BF52EA033541F4801143F48013CA
:1075B00038D0A0FB02CE4FF00005E1FB02E506F05B
:1075C0000042E0FB03E54FF00006E1FB03569CF0B0
:1075D000000F18BF4EF0010EA4F1FF04B6F5007FB6
:1075E00064F5407404D25FEA4E0E6D4146EB060628
:1075F00042EAC62141EA55514FEAC52040EA5E50B1
:107600004FEACE2EB4F1FD0C88BFBCF5E06F1ED85A
:10761000BEF1004F08BF5FEA500E50F1000041EB91
:10762000045170BD06F0004646EA010140EA02003E
:1076300081EA0301B4EB5C04C2BFD4EB0C0541EA60
:10764000045170BD41F480114FF0000E013C00F375
:10765000AB8014F1360FDEBF002001F0004170BD99
:10766000C4F10004203C35DA0C341BDC04F11404B2
:10767000C4F1200500FA05F320FA04F001FA05F23E
:1076800040EA020001F0004221F0004110EBD3700B
:1076900021FA04F642EB06015EEA430E08BF20EA37
:1076A000D37070BDC4F10C04C4F1200500FA04F3DA
:1076B00020FA05F001FA04F240EA020001F000416C
:1076C00010EBD37041F100015EEA430E08BF20EADF
:1076D000D37070BDC4F1200500FA05F24EEA020E27
:1076E00020FA04F301FA05F243EA020321FA04F056
:1076F00001F0004121FA04F220EA020000EBD3700D
:107700005EEA430E08BF20EAD37070BD94F0000F0C
:107710000FD101F00046400041EB010111F4801F40
:1077200008BF013CF7D041EA060195F0000F18BFF1
:10773000704703F00046520043EB030313F4801F2D
:1077400008BF013DF7D043EA0603704794EA0C0FE7
:107750000CEA135518BF95EA0C0F0CD050EA4106FD
:1077600018BF52EA4306D1D181EA030101F000417A
:107770004FF0000070BD50EA410606BF10461946A2
:1077800052EA430619D094EA0C0F02D150EA0136AE
:1077900013D195EA0C0F05D152EA03361CBF1046EF
:1077A00019460AD181EA030101F0004141F0FE418E
:1077B00041F470014FF0000070BD41F0FE4141F412
:1077C000780170BD70B54FF0FF0C4CF4E06C1CEA12
:1077D00011541DBF1CEA135594EA0C0F95EA0C0FC7
:1077E00000F0A7F8A4EB050481EA030E52EA033582
:1077F0004FEA013100F088804FEA03334FF08055A3
:1078000045EA131343EA12634FEA022245EA1115CF
:1078100045EA10654FEA00260EF000419D4208BF80
:10782000964244F1FD0404F5407402D25B084FEA2D
:107830003202B61A65EB03055B084FEA32024FF4D9
:1078400080104FF4002CB6EB020E75EB030E22BF36
:10785000B61A754640EA0C005B084FEA3202B6EBF6
:10786000020E75EB030E22BFB61A754640EA5C00A5
:107870005B084FEA3202B6EB020E75EB030E22BF35
:10788000B61A754640EA9C005B084FEA3202B6EB36
:10789000020E75EB030E22BFB61A754640EADC00F5
:1078A00055EA060E18D04FEA051545EA16754FEA57
:1078B00006164FEAC30343EA52734FEAC2025FEA75
:1078C0001C1CC0D111F4801F0BD141EA00014FF004
:1078D00000004FF0004CB6E711F4801F04BF0143D5
:1078E0000020B4F1FD0C88BFBCF5E06F3FF6AFAEF1
:1078F000B5EB030C04BFB6EB020C5FEA500C50F181
:10790000000041EB045170BD0EF0004E4EEA113103
:1079100014EB5C04C2BFD4EB0C0541EA045170BD0A
:1079200041F480114FF0000E013C90E645EA060E4E
:107930008DE60CEA135594EA0C0F08BF95EA0C0F7C
:107940003FF43BAF94EA0C0F0AD150EA01347FF4C4
:1079500034AF95EA0C0F7FF425AF104619462CE79B
:1079600095EA0C0F06D152EA03353FF4FDAE1046FE
:10797000194622E750EA410618BF52EA43067FF44F
:10798000C5AE50EA41047FF40DAF52EA43057FF4DF
:10799000EBAE12E74FEA4102B2F1E04324BFB3F588
:1079A000001CDCF1FE5C0DD901F0004C4FEAC00276
:1079B0004CEA5070B2F1004F40EB830008BF20F05A
:1079C0000100704711F0804F21D113F13872BCBF14
:1079D00001F00040704741F480114FEA5252C2F169
:1079E0001802C2F1200C10FA0CF320FA02F018BFB2
:1079F00040F001004FEAC1234FEAD32303FA0CFC05
:107A000040EA0C0023FA02F34FEA4303CCE77FEA93
:107A1000625307D150EA01331EBF4FF0FE4040F4DD
:107A20004000704701F0004040F0FE4040F400008C
:107A3000704700BF10B5054C13462CB10A460146ED
:107A40000220AFF3008010BD2046FCE700000000DC
:107A50000A44914200F1FF3300D1704710B511F88C
:107A6000014B03F8014F9142F9D110BD884210B586
:107A700001EB020402D98442234607D8431EA142E7
:107A800008D011F8012B03F8012FF8E70244014652
:107A90008A4200D110BD13F8014D02F8014DF7E7FD
:107AA00002440346934200D1704703F8011BF9E7F3
:107AB00038B50D4B1D68AB6B04467BB91820FCF73D
:107AC000D9FF0A4A0A4BA863C0E90023094B836027
:107AD0000B23838101220023C0E90423AB6B002226
:107AE0001C615A6138BD00BF08E503200E33CDABE1
:107AF00034126DE6ECDE0500C9B2034610F8012B26
:107B00001AB18A42F9D118467047002918BF0023DC
:107B1000F9E710B50446FFF7EFFF18B9204600F06B
:107B200032F8204410BD10F8012B11F8013B012A56
:107B300028BF9A42F7D0D01A7047034611F8012B9C
:107B400003F8012B002AF9D170470000024B0146CF
:107B5000186800F003B800BF08E5032037B50446F5
:107B600008460D4600F00FF8421C114620460192CF
:107B7000FCF7B0FF044618B1019A2946FFF768FFE9
:107B8000204603B030BD034613F8012B002AFBD179
:107B9000181A0138704710B56AB10139841810F805
:107BA000013B11F8012F934203D1A04201D0002BD9
:107BB000F5D1981A10BD1046FCE738B503460C46BF
:107BC00069B9BDE83840FFF797BF431C0546214619
:107BD0001846FFF791FF0028F7D1284638BD002549
:107BE000F5E700002DE9F0473A4E86468C466046A0
:107BF0001CF8014BA55D15F00805F8D12D2C33D1EB
:107C00009CF800404FF0010800F1020C002B5CD002
:107C1000102B0CD1302C0AD19CF8000000F0DF00B2
:107C200058284DD19CF8014010230CF1020C08F1AA
:107C30000047013F0026B7FBF3F9304603FB197AF2
:107C4000A4F13005092D18D82C46A34224DD751C5B
:107C500007D081451DD301D1A2451ADB00FB0340AB
:107C600001261CF8014BEBE72B2C08BF9CF80040C9
:107C7000A84608BF00F1020CC8E7A4F14105192D80
:107C800001D8373CE1E7A4F16105192D04D8573C30
:107C9000DBE74FF0FF36E4E7731C06D12223CEF872
:107CA0000030384642B9BDE8F087B8F1000F00D087
:107CB0004042002AF7D00EB10CF1FF311160F2E71B
:107CC0003024002BB3D10823B1E7302CA4D00A23F1
:107CD000ADE700BF0B800D0013460A46014602487F
:107CE0000068FFF77FBF00BF08E5032021400D00BB
:107CF0005D400D0085400D0089400D000000000032
:107D00005B25642C25642C252E32665D007075621F
:107D10006C69736865643A202573000000000000F8
:107D2000000000000000000000000000A5400D0061
:107D3000C9400D000000000000000000ED400D00F3
:107D400021410D00395C0D00CB400D007368656565
:107D500074546573743100000000000000000000DE
:107D6000534B0D00494B0D003F4B0D00354B0D00A3
:107D7000294B0D001D4B0D00ED6A0D00F56A0D003D
:107D8000114B0D00094B0D00FF4A0D00F54A0D0087
:107D9000256B0D00776972696E670053797374659E
:107DA0006D20736C65657020636F6E6669677572B0
:107DB0006174696F6E20697320696E76616C6964A5
:107DC0002E00626175640053657269616C005365D1
:107DD0007269616C31004A534F4E53747265616D24
:107DE0004C6F6748616E646C65720061707000254D
:107DF0003031307520005D20002564002C200028E3
:107E0000293A2000205B00636F6465203D20002537
:107E1000690064657461696C73203D20000D0A007F
:107E20006D00630066006C6E00666E007400636F28
:107E300064650064657461696C0000000000000006
:107E4000000000001B500D0041500D0001500D00BE
:107E5000476C0D00000000000000000061540D00A0
:107E600079540D00395C0D00CB400D00000000007E
:107E7000000000008D540D00A1540D00DD5D0D00CB
:107E800009500D00000000000000000019500D0016
:107E90004F500D00755B0D000B500D0000000000F1
:107EA0000000000017500D005D500D00CD530D0077
:107EB00079500D0025592D256D2D25645425483AFE
:107EC000254D3A2553257A0061736374696D650009
:107ED000000000000000000001610D0007610D00BE
:107EE00045610D0015610D0003610D0000000000EB
:107EF0000000000049660D0039660D003B660D006C
:107F0000000000000000000029670D0091670D00CF
:107F100067670D00F54E0D0059670D002B670D00CA
:107F20003B670D008B670D004B670D0025670D004B
:107F300000000000000000009B680D0091680D002B
:107F400087680D003D680D007B680D006F680D00AF
:107F5000ED6A0D00F56A0D0063680D005B680D00A9
:107F600051680D0047680D00256B0D0000000000F2
:107F700000000000D5680D0041690D0019690D0071
:107F8000F54E0D00E9680D0005690D00F7680D005C
:107F900013690D00D7680D00DB680D0000000000BC
:107FA000000000000D6A0D00576A0D002F6A0D00D9
:107FB0000F6A0D00376A0D003F6A0D00476A0D0019
:107FC0004F6A0D000000000000000000AD6A0D00C7
:107FD000B76A0D00C16A0D00CB6A0D00D56A0D00AD
:107FE000E16A0D00ED6A0D00F56A0D00FD6A0D00F5
:107FF000096B0D00116B0D001B6B0D00256B0D0047
:1080000025750075253034780000002020202020C0
:108010002020202028282828282020202020202038
:108020002020202020202020202020881010101028
:10803000101010101010101010101004040404047C
:1080400004040404041010101010101041414141A8
:108050004141010101010101010101010101010190
:1080600001010101010110101010101042424242A2
:108070004242020202020202020202020202020260
:108080000202020202021010101020000000000084
:1080900000000000000000000000000000000000E0
:1080A00000000000000000000000000000000000D0
:1080B00000000000000000000000000000000000C0
:1080C00000000000000000000000000000000000B0
:1080D00000000000000000000000000000000000A0
:1080E0000000000000000000000000000000000090
:1080F0000000000000000000000000000000000080
:10810000000000000000000000000000B1440D006D
:108110005D4B0D00C54C0D00CD4E0D00295C0D00D2
:10812000515F0D00795F0D00A5680D00056C0D0015
:04813000000000004B
:108134004C7D0D008C7E0D00A47E0D00C87E0D00CC
:108144000CE5032000000000000000000000000017
:10815400000000000000000000000000000000001B
:10816400000000000000000000000000000000000B
:1081740000000000000000000000000000000000FB
:1081840000000000000000000000000000000000EB
:1081940000000000000000000000000000000000DB
:0481A40000000000D7
:1081A800FFFFFFFF00000102030405060708090A94
:1081B8000B0C0D0E0F101112131415161718191A8F
:0881C8001B1C1D1E1F202800D6
:0481D0007856341297
:04000003D0004020C9
:00000001FF
