:02000002D0002C
:1040000000400D00C0790D00000006000D00050104
:084010000401BD0B00000000DB
:04401800D4740D004F
:10401C0009480A49884208B505D0094A824202D0AB
:10402C00121A03F003F90748074A0021121A03F089
:10403C0025F9014808BD00BF0CE5032024790D00CB
:10404C0080E5032080E50320F0E7032070B5074EE0
:10405C00074C02F095F8A41BA4080025A54200D13A
:10406C0070BD56F8043B98470135F7E7FC780D0016
:10407C0020790D0000F0C7B808B500F031F9BDE8A3
:10408C00084002F03FB800F059BD00F057BD00F0F9
:10409C005DBD000008B5034A00210C2000F050FC67
:1040AC00FEE700BF2D470D000078B0FA80F0400904
:1040BC0070470123037070477047006A0368DB6820
:1040CC00184738B50446006928B185680C2103F0FF
:1040DC0096F82846F8E7204638BD08B500F0FEFCF7
:1040EC0010B900F0EBFCF9E7BDE8084000F0F6BCB5
:1040FC0008B5002000F00AFD28B100F0EFFC80F0BC
:10410C000100C0B208BD0120FCE700000A4B10B54D
:10411C000446036001F054F9214601F044FB02F01F
:10412C00D9FB02F0CBFB2046044B40F8043B01F0DA
:10413C0027FA204610BD00BF24750D000C750D002C
:10414C0010B50446FFF7E2FF2046242103F057F890
:10415C00204610BDC06820B183888B4201D0806896
:10416C00F9E7704710B50446006808B100F0EEFCA2
:10417C00204610BDF8B5037D05460F46164643B1E3
:10418C0000680121FFF7E6FF58B18389BB4202D1D9
:10419C0086732846F8BD806818B18388012BFAD144
:1041AC00F2E70B49102003F02CF8044668B11022FA
:1041BC00002103F063F8074B23600123A3802B69D4
:1041CC00A360A781A6732C61E3E72875E1E700BF24
:1041DC00F9770D00100003000EB410B58DB00FAAC6
:1041EC00016852F8044B039200232020CDE904030C
:1041FC00CDE900421E2004AA00F0B2FB0DB0BDE8D0
:10420C00104003B0704708B50021022002F08EFF69
:10421C000021032002F08AFFBDE8084000210420A1
:10422C0002F084BF70B5254C254D22682549264ED9
:10423C00B0B004A800F064FE2A68224908A800F077
:10424C005FFE32681F490CA800F05AFE33680193D8
:10425C002B68009323681D4A802110A800F086FC6F
:10426C001B4B1C491B788DF8003009683C2310AAA5
:10427C0002A802F0E1F8039C7CB16368013B636027
:10428C005BB9236820469B689847A368013BA360F1
:10429C001BB923682046DB6898470F490F4810AAC2
:1042AC00FFF79AFF0CA800F089FD08A800F086FD26
:1042BC0004A800F083FD30B070BD00BF8CE5032076
:1042CC0088E50320E8740D0084E50320EB740D00F1
:1042DC009CE503200CE50320F6740D000CE603208E
:1042EC007FB500F0FBFB18B900F0F0FBFFF7F5FE13
:1042FC00654C237D002B47D00323206823720E21AD
:10430C00FFF728FF30B3037B042B1DD12068042159
:10431C00FFF720FF0646002840F0A4805B491020E0
:10432C0002F06FFF0546002800F0AB8010223146EA
:10433C0002F0A4FF564B2B600423AB802369AB60C7
:10434C00544BEB6025611FE0806818B183880E2BFD
:10435C00FAD1D7E74D49142002F053FF0546002847
:10436C0000F08F801422002102F088FF484B2B6054
:10437C000E23AB802369AB6004232B730023EB81EA
:10438C00237D2561002BC1D1012202213E48FFF77C
:10439C00F1FE01220321FFF7EDFE01220421FFF7BC
:1043AC00E9FE01A8384900F087FC019808B100F03B
:1043BC00CDFB022002F0CBFE012808BF364A374C59
:1043CC0008BF13684FF0030004BF0133136002F001
:1043DC00BEFE012804BF324A13684FF0040004BF2C
:1043EC000133136002F0B3FE012801BF2D4A13689C
:1043FC000133136000F09CF92268801A2A4A90421B
:10440C0012D900F06BFB18B900F060FBFFF765FEEA
:10441C00FFF708FF204A00231360214A1360214A4A
:10442C00136000F085F9206000F058FB38B31F4C86
:10443C0000F07EF92268801A1D4A90421FD900F0C4
:10444C004DFB18B900F042FBFFF747FE00F046FBAE
:10445C0010B1002000F052FBFFF74AFE28B900F023
:10446C002DFBF9E70B4BC3608EE7FFF741FE4FF0D6
:10447C00FF31104801F0FBFE00F05AF9206004B047
:10448C0070BD257580E700BFA0E50320F9770D000E
:10449C0010000300A0BB0D008CE50320BCE503203D
:1044AC0088E5032084E50320E0930400B8E50320AD
:1044BC0080EE3600D4E7032070B5D0E90053142603
:1044CC00044606FB0356AE4204D0284600F076FCA8
:1044DC001435F8E7206800F039FB204670BD88429F
:1044EC00F8B504460D46164616D9904215D2A2F1DF
:1044FC001406751AA1F114072C44B7421CD02CB128
:10450C003146204600F0D6FC337C2374304600F054
:10451C0055FC143E143CF0E70ED0B5420CD02CB137
:10452C002946204600F0C6FC2B7C2374284600F05C
:10453C0045FC14351434F0E7F8BD2DE9F0410023A7
:10454C00C0E9003383604F689F4204460E4623DD6A
:10455C004FF0140808FB07F000F0F0FA0546D8B14C
:10456C00D4E9001208FB0212FFF7B9FF206800F033
:10457C00EDFA2560A760D6E9007308FB0378B8450F
:10458C0008D03946284600F0AFFC3B7C2B7414371E
:10459C001435F4E7736863602046BDE8F0810000D1
:1045AC002DE9F043374B384D384E01278DB01F7035
:1045BC0000F0BEF8364B186000F0BAF8354B00240A
:1045CC001860354BAB602C60AC80AC71384600F099
:1045DC00DFF932463149284602F00CFECDE90044A1
:1045EC00029402F077F92E4D8046694603A8FFF736
:1045FC00A4FFA94603A906A8FFF79FFF294B49F87A
:10460C00043B06A909A8FFF798FF09AA1E214846F2
:10461C0001F01CFA09A8FFF74FFF06A8FFF74CFFA3
:10462C00214B2B60C5F8208003A8FFF745FF1F4BDB
:10463C002B6002F04FF94FF4165102F03BF900F0E9
:10464C00BFFE294601F094F96846FFF735FF324664
:10465C001749284602F0CEFD16481749A0F8094024
:10466C000346021D43F8092B9C70144B0775C0E9D7
:10467C00034443600472324602F0BCFD0DB0BDE849
:10468C00F08300BF9CE5032090E5032080E5032028
:10469C00B8E50320BCE503200000FFFF71410D00CD
:1046AC00C0E503200C750D004C760D0024750D0033
:1046BC0019410D00A0E50320CF400D0010000300B0
:1046CC0008B5024B1B689B68019308BD6802030088
:1046DC0008B5024B1B68DB68019308BD6802030038
:1046EC0008B5024B1B689B68019308BD2C020300A4
:1046FC0008B5024B1B68DB68019308BD2C02030054
:10470C0008B5024B1B685B69019308BD2C020300C2
:10471C0008B5024B1B685B68019308BD18020300C7
:10472C0008B5024B1B68DB68019308BD1802030037
:10473C0008B5024B1B685B69019308BD18020300A6
:10474C0008B5024B1B685B6C019308BD4802030063
:10475C0008B5024B1B689B6C019308BD4802030013
:10476C0008B5024B1B68DB6C019308BD48020300C3
:10477C0008B5024B1B685B6D019308BD4802030032
:10478C0008B5024B1B685B69019308BD640203000A
:10479C0008B5024B1B681B68019308BD3C02030063
:1047AC0008B5024B1B689B68019308BD3C020300D3
:1047BC0008B5024B1B68DB68019308BD3C02030083
:1047CC0008B5024B1B681B69019308BD3C02030032
:1047DC0008B5024B1B685B69019308BD3C020300E2
:1047EC0008B5024B1B689B69019308BD3C02030092
:1047FC0008B5024B1B68DB69019308BD3C02030042
:10480C0008B5024B1B681B6A019308BD3C020300F0
:10481C0008B5024B1B689B6A019308BD3C02030060
:10482C0008B5024B1B68DB6A019308BD3C02030010
:10483C0008B5024B1B681B6A019308BD28020300D4
:10484C0008B5024B1B685B6A019308BD2802030084
:10485C0008B5024B1B689B6A019308BD2802030034
:10486C0008B5024B1B68DB6A019308BD28020300E4
:10487C0008B5024B1B681B6B019308BD2802030093
:10488C0008B5024B1B685B6B019308BD2802030043
:10489C0008B5024B1B681B6C019308BD2802030072
:1048AC0008B5024B1B68DB69019308BD300203009D
:1048BC0008B5024B1B681B6A019308BD300203004C
:1048CC0008B5024B1B681B68019308BD4C02030022
:1048DC0008B5024B1B685B68019308BD4C020300D2
:1048EC0008B5024B1B689B68019308BD4C02030082
:1048FC0008B5024B1B681B69019308BD4C020300F1
:10490C0008B5024B1B685B69019308BD4C020300A0
:10491C0008B5024B1B689B69019308BD4C02030050
:10492C0008B5024B1B68DB69019308BD4C02030000
:10493C0008B5024B1B681B6A019308BD4C020300AF
:10494C0008B5024B1B685B6B019308BD600203004A
:10495C0008B5024B1B681B6D019308BD6002030078
:10496C0008B5024B1B685B6D019308BD6002030028
:10497C0008B5024B1B68DB6E019308BD6002030097
:10498C0008B5024B1B681B6F019308BD6002030046
:10499C0008B5024B1B685B68019308BD200203003D
:1049AC0008B5024B1B68DB6C019308BD20020300A9
:1049BC0008B5024B1B685B6D019308BD2002030018
:1049CC0008B5034B1B68D3F88830019308BD000071
:1049DC002002030008B5034B1B68D3F894300193F5
:1049EC0008BD00002002030008B5034B1B68D3F878
:1049FC00AC30019308BD00002002030008B5024B47
:104A0C001B685B68019308BD4002030008B5024BAC
:104A1C001B689B68019308BD4002030008B5024B5C
:104A2C001B68DB68019308BD4002030008B5024B0C
:104A3C001B681B69019308BD4002030008B5024BBB
:104A4C001B685B69019308BD4002030008B5024B6B
:104A5C001B689B69019308BD4002030008B5024B1B
:104A6C001B68DB69019308BD4002030008B5024BCB
:104A7C001B681B6A019308BD4002030008B5024B7A
:104A8C001B681B6B019308BD4002030008B5024B69
:104A9C001B685B6B019308BD4002030008B5024B19
:104AAC001B681B6C019308BD4002030008B5024B48
:104ABC001B685B6C019308BD4002030008B5024BF8
:104ACC001B689B68019308BD4402030008B5024BA8
:104ADC001B68DB68019308BD4402030008B5024B58
:104AEC001B685B69019308BD4402030008B5024BC7
:104AFC001B681B6A019308BD4402030008B5024BF6
:104B0C001B68DB6A019308BD4402030008B5024B25
:104B1C001B681B6B019308BD4402030008B5024BD4
:104B2C001B68DB6B019308BD4402030008B5024B04
:104B3C001B681B6C019308BD4402030008B5024BB3
:104B4C001B681B68019308BD1C02030008B5024BCF
:104B5C001B685B68019308BD1C02030008B5024B7F
:104B6C001B689B68019308BD1C02030008B5024B2F
:104B7C001B68DB69019308BD1C02030008B5024BDE
:104B8C001B685B6A019308BD1C02030008B5024B4D
:104B9C001B68DB6A019308BD1C02030008B5024BBD
:104BAC001B681B6B019308BD1C02030008B5024B6C
:104BBC001B685B6C019308BD1C020300002240685B
:104BCC001146FFF753BF002240681146FFF75EBF46
:104BDC0040680022FFF752BF4068002281F00101BB
:104BEC00FFF73CBF002340681A461946FFF72EBF5B
:104BFC00002340681A461946FFF720BF0022406880
:104C0C001146FFF713BF002240681146FFF7FEBEA6
:104C1C00406800220221FFF701BF002340681A46BA
:104C2C00FFF7ECBE024B03225A60024A1A6070472F
:104C3C00E4E5032054750D0010B5044608462170B8
:104C4C00FFF72EFE00236360204610BD10B504460E
:104C5C00006818B1FFF77AFF0023236010BD38B548
:104C6C00B1F9043083800B460D4653F8062FC0F87B
:104C7C0006209B8843810446FFF7E8FF2B6813B19D
:104C8C00236000232B60204638BD000038B50C464D
:104C9C000546FFF7DBFF44B12088FFF74FFF286084
:104CAC0028B12288214602F0C1FA002038BD014803
:104CBC00FCE700BFFCFEFFFFF0B52D4D0B7D04465D
:104CCC008BB00846AF1D002B38D00B681B79002B1E
:104CDC0034D00022274B049302A904300292ADF881
:104CEC000C208DF80E20FFF77FFEDDF80E30C5F896
:104CFC00063000B2BDF81230ADF80C00A880029955
:104D0C00BB802846FFF7C2FF02A8FFF79FFF0023D6
:104D1C002360A380A37123814FF6FF736381B5F9E0
:104D2C000430A3803B68C4F80630BB8829686381D3
:104D3C002046FFF7ABFF20460BB0F0BD002620232A
:104D4C00CDE902360C4B00930C49334602AA3220B3
:104D5C00FFF7FEFD074B049302A94FF6F2630448DC
:104D6C0002968DF80E60ADF80C30FFF778FFCBE7AC
:104D7C00ECE503200000FFFF8F750D0088750D001A
:104D8C0010B5094B094C022200201A60084B206018
:104D9C00A080A071A360FFF7FBFD2046054A0649E1
:104DAC00BDE8104002F026BAF8E50320ECE503203C
:104DBC000000FFFF80E5032071410D0010B5044693
:104DCC000068FFF7C3FE204610BD10B5044600680E
:104DDC0008B1FFF7BBFE0023C4E90133236010BD0B
:104DEC0038B504460D4600680131FFF7B7FE10B127
:104DFC00C4E90005012038BD10B50368044623B191
:104E0C0043688B4201D3012010BD2046FFF7E8FF19
:104E1C000028F9D0A368002BF5D122681370F2E7B3
:104E2C0037B50D46114601920446FFF7E5FF019A8E
:104E3C0028B92046FFF7C9FF204603B030BDA26059
:104E4C002946206802F0F2F92268A3680021D154A7
:104E5C00F2E7002313B5C0E9003304468360037303
:104E6C0041B10846019102F07CFA019902462046B4
:104E7C00FFF7D6FF204602B010BD38B505460068D6
:104E8C000C4668B16A688B689A4207D3096802F0CD
:104E9C0042FAA368AB600023A36038BDFFF756FE4F
:104EAC0023682B6063686B60A368AB600023C4E964
:104EBC000033F1E710B50023C0E9003304468360EA
:104ECC000373FFF7DAFF204610BD884210B5044685
:104EDC0005D00B682BB18A681946FFF7A1FF204655
:104EEC0010BDFFF772FFFAE710B500230446C0E9C6
:104EFC00003383600373FFF7E8FF204610BD00000A
:104F0C000EB470B587B00BAD044655F8042B019266
:104F1C002B46052104A80395FFF730FE0B490646E6
:104F2C002046FFF796FF31462046FFF765FF2068C5
:104F3C0030B1019A03952B46711CFFF71FFEA06040
:104F4C00204607B0BDE8704003B0704710760D00E6
:104F5C0010B5036804469B689847A368013BA3609F
:104F6C002BB923682046DB68BDE81040184710BDFC
:104F7C0010B50446006808B1FFF7EAFB204610BDE7
:104F8C0010B58368044613B10322014698472046A6
:104F9C0010BD70B5D0E90053044605EB0316AE42C4
:104FAC0004D02846FFF70AFF1035F8E72068FFF712
:104FBC00CDFD204670BD0B68036013B15A680132F9
:104FCC005A60704710B50446006828B14368013B2D
:104FDC0043600BB9FFF7BCFF204610BD13B50B4661
:104FEC000246D0E900016C4684E8030093E8030014
:104FFC0082E8030094E8030083E8030002B010BDCC
:10500C0010B5064C002320462360FFF799FB204681
:10501C00034A0449BDE8104002F0ECB8FCE503205B
:10502C0080E503207D4F0D00F8B506460D468F1820
:10503C000024BD420CD0336815F8011B9B68304628
:10504C009847031E01DB1C44F3E7002C08BF1C46E9
:10505C002046F8BD13B50446084659B1019102F03B
:10506C0080F923680199DB680246204602B0BDE84E
:10507C001040184702B010BD03689B68184738B53C
:10508C000D210546FFF7F8FF0A2104462846FFF7D5
:10509C00F3FF204438BD30B58BB000238DF824309D
:1050AC00012A98BF0A2209AC0D46B1FBF2F101FBB3
:1050BC00125303F0FF03092B94BF30333733DBB2A9
:1050CC00AA4204F8013DEFD92146FFF7C3FF0BB00C
:1050DC0030BD2DE9F04186B000AF05460E46381DB7
:1050EC00142114463B60FFF749FD13280ED8391DD7
:1050FC002846FFF7AFFF04461EB12846FFF7BFFF57
:10510C00044420461837BD46BDE8F08100F1080381
:10511C0023F00703E846ADEB030D2246411C3B6828
:10512C006846FFF72BFD69462846FFF793FF0446B8
:10513C00C546E1E780680368DB6818477047084696
:10514C0011B10B685B681847704770477047704720
:10515C0038B504460D4600682E2102F0C8F82368C5
:10516C00C31A2B6023B1037803B10130236820608C
:10517C00184638BD10B50C21044602F040F8204604
:10518C0010BD10B50421044602F039F8204610BDBC
:10519C0010B50421044602F032F8204610BD08B5C3
:1051AC0002F0AFF8B0FA80F0400908BD10B50C461B
:1051BC0001F090FB844210D001F060FC844205D1D8
:1051CC0001F05CFCBDE8104001F055BC2CB123682B
:1051DC0020465B68BDE81040184710BD13B5044667
:1051EC000846019102F0BDF801990246204602B032
:1051FC00BDE8104001F04CBF13B5044608460191C0
:10520C0002F0AFF823680199DB680246204602B031
:10521C00BDE81040184707B503688DF80710DB6828
:10522C0001220DF10701984703B05DF804FB0EB4A1
:10523C0003B503AB002153F8042B006A0193FFF76D
:10524C0048FF02B05DF804EB03B070472DE9F74F4F
:10525C00D0E900954FF0140808FB05F50093AB104E
:10526C00184D17465D434C46002D23DD6E1008FB90
:10527C0006F004EB000A3A46BAF804B02058019143
:10528C005F4528BF5A4602F074F80199012378B99A
:10529C005F4503D1009A13703546E5E78CBF0120BA
:1052AC0000200028F8D0AE1B0AF11404013EF3E7ED
:1052BC00C00FF6E7A4EB09040248A410604303B046
:1052CC00BDE8F08FCDCCCCCC7FB50369067E0191C7
:1052DC000BB301B3002500F10C04039503A901A83D
:1052EC00FFF736FF0146B0B10DF10B03039A8DF8B1
:1052FC000B502046FFF7AAFF9DF80B305BB12468DA
:10530C00142303FB004000F10804B0F90630002B15
:10531C00A8BFDEB2E2E7304604B070BD10B50A4C4F
:10532C002378BFF35B8FDB070BD42046FEF7BCFE64
:10533C0038B12046FEF7BDFE044A0549054801F088
:10534C0059FF044810BD00BF04E6032080E503208C
:10535C0059510D0010E5032010B50A4C2378BFF30A
:10536C005B8FDB070BD42046FEF79EFE38B1204640
:10537C00FEF79FFE044A0549054801F03BFF04482F
:10538C0010BD00BF08E6032080E5032057510D0037
:10539C0014E5032038B500250446C0E90055C0E9E2
:1053AC0004558560856140F8245FFFF7C9F9FFF764
:1053BC00B5FFE061FFF7D0FF25732062204638BDB2
:1053CC0010B50B4C2378BFF35B8FDB070ED4204654
:1053DC00FEF76AFE50B10748FFF7DCFF2046FEF7E8
:1053EC0068FE054A0549034801F004FF014810BD59
:1053FC0000E6032010E6032080E503203D580D0055
:10540C00024A034903480023FFF7BABA19570D00A3
:10541C00A5560D0025560D0000231A4619461846B0
:10542C00FFF7AEBA37B50D6951F8043B009304464B
:10543C0001A8FFF7C0FD6A462946204601F0D2FCC0
:10544C0001A8FFF7BFFD204603B030BD37B58D680E
:10545C0051F8043B0093044601A8FFF7ACFD6A46E3
:10546C002946204601F03AFD01A8FFF7ABFD204686
:10547C0003B030BD37B5CD6851F8043B00930446FA
:10548C0001A8FFF798FD6A462946204601F002FD67
:10549C0001A8FFF797FD204603B030BD70B58AB068
:1054AC000D46014604A8FFF7D1FF144E04A801F0E5
:1054BC002DFDE8B104A96846FFF7DCFF02983146E0
:1054CC00FFF76DFE044610B12C1E18BF012401A875
:1054DC00FFF778FD002CE9D004A96846FFF7A2FF7E
:1054EC00684601F0B5FC286001A8FFF76BFDDDE70D
:1054FC0005A8FFF767FD0AB070BD00BFB6750D00BB
:10550C0037B50C4620461249154601F0FAFE48B94B
:10551C0001F0E0F94FF4165101F0CCF901F0DAF991
:10552C0003B030BD0B49204601F0EBFE70B94FF4CF
:10553C00165301A928460193FFF7B0FF01F09EFA1C
:10554C00019901F095FA01F099FAE9E70020E7E7F3
:10555C00BB750D00C2750D0070B5D0E90053142653
:10556C00044606FB0356AE4205D005F10800FFF7D2
:10557C00F3FF1435F7E72068FFF7E8FA204670BD13
:10558C0010B504460C30FFF7E7FF2046FFF701FD8E
:10559C00204610BD10B5044B044640F8043BFFF701
:1055AC00EFFF204610BD00BF0C750D0010B5044672
:1055BC00FFF7F0FF2046242101F021FE204610BD0C
:1055CC0010B5034B03600446FFF7E4FF204610BD03
:1055DC0064760D0010B50446FFF7F2FF2046242137
:1055EC0001F00DFE204610BD0022C0E9002210B5CE
:1055FC0082600C6804604C6844608C680A604A6085
:10560C0084608A6010BD10B5036804461868FFF703
:10561C00AFF8204610BD00002DE9F04F87B0804652
:10562C0003931C4B5B68C3F30803894616466BB99E
:10563C00FFF7C6FE044600F12403406A0593FFF70A
:10564C008FF8237B2BB105A8FFF7DDFF07B0BDE872
:10565C00F08F01232373D4E900535FFA89F905EB2A
:10566C00830AAA4512D055F8047B3146381DFFF742
:10567C002BFE8145F5D33B68039A0092D3F808B012
:10568C004A46334641463846D847EAE70023237357
:10569C00D9E700BF00ED00E02DE9F74F9B461A4B10
:1056AC005B68C3F308038046894616466BB9FFF75F
:1056BC0087FE044600F12403406A0193FFF750F87B
:1056CC00237B2BB101A8FFF79EFF03B0BDE8F08F41
:1056DC0001232373D4E90053F6B205EB830A554535
:1056EC000ED055F8047B5946381DFFF7EDFD864268
:1056FC00F5D33B684A46DB68414638469847EEE7A7
:10570C0000232373DEE700BF00ED00E02DE9F34139
:10571C00164B5B68C3F3080305460F461BBBFFF72C
:10572C004FFE00F124030446406A0193FFF718F87A
:10573C00D4E90063462406EB8308B04509D101A8DF
:10574C00FFF761FFA542B4BF0020012002B0BDE805
:10575C00F08156F8040B39460430FFF7B5FD84424E
:10576C00A8BF0446E9E70020F0E700BF00ED00E029
:10577C0070B50446D0E900020B4600EB820282426F
:10578C0007D001461D6851F8046BAE4203D00846A1
:10579C00F5E7002070BD521A01F056FD6368013B1D
:1057AC0063600120F6E71FB500F124030446406A4C
:1057BC0001910393FEF7D4FF01A92046FFF7D8FF10
:1057CC0018B163680BB9FFF727FE03A8FFF71BFF9F
:1057DC0004B010BD70B5D0E904561823044603FB81
:1057EC000656AE4215D005F110012046FFF7C0FF5A
:1057FC0063680BB9FFF710FEE06929690368DB6881
:10580C009847696919B1206A0368DB6898471835AD
:10581C00E7E7D4E90453182606FB0356AE4204D03E
:10582C002846FFF7CBFA1835F8E70023636170BD03
:10583C0073B50446FFF7F0FD04F12403606A01938D
:10584C00FEF78EFF2046FFF7C5FF01A8FFF7DBFE32
:10585C00606A08B1FEF77CFFD4E90453182606FBF6
:10586C000356AE4204D02846FFF7A8FA1835F8E7DD
:10587C002069FFF76BF92068FFF768F9204602B042
:10588C0070BD8842F8B506460C46154627D990429D
:10589C0026D2A2F114056C1AA1F1140704440026B7
:1058AC00AF423DD0A4B12B682360AB88A380B5F97F
:1058BC000630E380C4E902662661AB68A360AE6083
:1058CC00E368EA68E260EB6023692A6922612B6174
:1058DC0005F10800FFF740FE143D143CE0E71FD033
:1058EC000027AC421CD0A6B123683360A388B380D8
:1058FC00B4F90630F380C6E902773761A368B36068
:10590C00A760F368E268F260E36033692269326190
:10591C00236104F10800FFF71FFE14341436E0E78E
:10592C00F8BDF8B5D0E901539D4204460E46174622
:10593C000DDB0135002D006804DDA900FFF70EF921
:10594C0018B9F8BDFFF702F900202060A5602568A2
:10595C00626805EB86019200A2EB8602081D01F03D
:10596C0073FC45F826706368013363600120E8E737
:10597C0037B500F124030446406A01930D46FEF747
:10598C00EFFED4E9003103EB810083421A460BD0C1
:10599C001268AA4203F10403F7D101A8FFF733FE02
:1059AC000025284603B030BD2A462046FFF7B9FF34
:1059BC0005460028F1D06368012B01D1FFF720FDCB
:1059CC0001A8FFF720FEECE78842F8B504460D4627
:1059DC00164614D9904213D2A2F11006751AA1F1F1
:1059EC0010072C44B74218D01CB131462046FFF7A3
:1059FC0061FA3046FFF7E2F9103E103CF2E70CD0AA
:105A0C00B5420AD01CB129462046FFF753FA284666
:105A1C00FFF7D4F910351034F2E7F8BD70B50E1E4F
:105A2C00054611DD3001FFF789F8044658B1D5E978
:105A3C00001201EB0212FFF7C7FF2868FFF786F888
:105A4C002C60AE60012070BD0024F6E72DE9F04F0C
:105A5C00914697B000230391D9F804100C93462279
:105A6C009942C0E90033C0E90233C0E90433CDE9FF
:105A7C000A330446027623DCD9E90057142303FBCE
:105A8C000757AF423BD029460DA8FFF713FA0DA9D3
:105A9C0011A80B9EFFF70EFADDE90B1399421BDAE6
:105AAC000A9B0B9A03EB061603EB0212314606F126
:105ABC001000FFF789FFEEB90B9B01330B9311E03C
:105ACC000AA8FFF7ABFF0028D6D10AA8FFF761FAA6
:105ADC00204617B0BDE8F08F01310AA8FFF79EFFF2
:105AEC000028DDD111A8FFF769F90DA8FFF766F9B9
:105AFC001435C6E711A93046FFF7DCF9DCE70026C0
:105B0C00CDE90D660F9637464FF0140ADDE90A23EE
:105B1C009E4280F297803301D35808930BB901361B
:105B2C00F4E70AFB06F3099702930DAD09A908A83F
:105B3C00FFF70EFB83460028F1D00146099A8DF839
:105B4C001F700DF11F032846FFF780FB9DF81F8087
:105B5C000190B8F1000F66D1BDF82430ADF8483093
:105B6C00CDE913884FF6FF73CDF844B0ADF84A3049
:105B7C00CDF85480D5E9013293421ADB03F1010BC5
:105B8C00BBF1000F4ADD0AFB0BF0FEF7D7FF0490C8
:105B9C00002845D0D5E900120AFB0212FFF771FE6E
:105BAC00049B28680493FEF7D1FF049B2B60C5F877
:105BBC0008B0019BD5F800B06A680AFB03F30BEB45
:105BCC00030101F114000AFB02B204910593FFF7E3
:105BDC0058FE0499A9B1059B119A4BF80320BDF806
:105BEC0048308B80BDF94A30CB80C1E902770F6118
:105BFC00139B8B60149B1397CB60159B14970B61B5
:105C0C0015976B6801336B6013A8FFF7A5FCB8F10F
:105C1C00000F08D00DA8FFF79FFC56E74346C0E7DE
:105C2C004FF00108F0E7019B2D680AFB0355089B18
:105C3C001B782BB9D9F80030029A13441B7CEB80EB
:105C4C00083573E72168226062686360A3680B9271
:105C5C000C9A0C93E368A2600D9A0D932369E26091
:105C6C000E9A0E93636922610F9A0F93039B0A910C
:105C7C0062612376CEE700007FB50546094B45F8F7
:105C8C00043B04460E4601A81146FEF756FC01AA39
:105C9C0031462846FFF7DAFE01A8FEF70DFC204638
:105CAC0004B070BD0C750D00F0B50F4687B02649D9
:105CBC000C9C384616461D4601F023FB00BBE4B194
:105CCC0029466846FFF790FC2049242001F099FAF8
:105CDC00054670B1694603A8FEF72FFC03AA3146AE
:105CEC002846FFF7C9FF03A8FEF7E6FB184B2C620A
:105CFC002B606846FEF7E0FB2C46204607B0F0BD53
:105D0C001449384601F0FDFAE0B9002CF5D02946CB
:105D1C006846FFF769FC0D49242001F072FA05462C
:105D2C000028E6D0694603A8FEF707FC03AA314613
:105D3C002846FFF7A1FF03A8FEF7BEFB064B2B601E
:105D4C002C62D6E70024D8E7CA750D00F9770D0050
:105D5C0064760D00CE750D004C760D00014B024A99
:105D6C001A6070470CE60320DF750D002DE9F04733
:105D7C00089DD0F8209004460E461746984600F031
:105D8C00A9FD81454CD02B79190704D56A69544972
:105D9C002046FFF74CFAB8F1000F0DD05B212046DE
:105DAC00FFF739FA41462046FFF726FA23684D499A
:105DBC00DB680222204698472B79DA0723D5D5F8E1
:105DCC0008802F21404601F0E6FA08B100F10108E5
:105DDC0041462046FFF710FA2B799B0708D53A214C
:105DEC002046FFF718FAEA683F492046FFF71FFAEA
:105DFC002A79236812F0040FDB6814BF3B493C4935
:105E0C000222204698472B7958071DD529690B4645
:105E1C001A4613F8010B60B1202808D11946F7E790
:105E2C00344800F0DEFE0028ADD0BDE8F08728280D
:105E3C00EED12368521ADB682046984723682E4916
:105E4C00DB6804222046984700213846FEF790FD77
:105E5C0001462046FFF7D0F923682549DB6802226A
:105E6C00204698471EB131462046FFF7C5F92B79DD
:105E7C0013F0300F2CD023682049DB680222204617
:105E8C0098472B79D9060AD523681D49DB68072268
:105E9C0020469847AA691B492046FFF7C8F92B7979
:105EAC009A0611D5DB0605D523681049DB6802225A
:105EBC002046984723681449DB6820460A229847F5
:105ECC00E9692046FFF798F95D212046FFF7A3F911
:105EDC0023680E49DB6820460222BDE8F0471847CC
:105EEC00E3750D00EA750D00E8740D00ED750D00FD
:105EFC00F2750D00BCE70320F0750D00F5750D0073
:105F0C00F8750D0000760D0003760D000E760D0071
:105F1C002DE9F04385B0D0F820900C9C05460F4637
:105F2C0090461E4600F0D6FC814505D1494800F04C
:105F3C0058FE002840F08A802B6A474A01924FF0A5
:105F4C00000901A803938DF8089001F008F8494660
:105F5C004046FEF70DFD41498046012201A801F0A3
:105F6C0087F84146FFF73AF93FB13D49012201A8B4
:105F7C0001F07EF83946FFF731F93EB1394901227B
:105F8C0001A801F075F83146FFF728F92379DF07EE
:105F9C000ED5A6682F21304601F0FDF900B1461C44
:105FAC003149012201A801F063F83146FFF716F9D7
:105FBC0023799E0707D52D49022201A801F058F834
:105FCC00E16800F0D9FF2379580714D526693346C8
:105FDC001F4613F8012B2AB1202A01D11E46F7E7E0
:105FEC00282AF5D12249022201A801F041F8BA1B56
:105FFC00314601F04DF82379190707D51D490122C7
:10600C0001A801F035F8616900F0C8FF2379DA06C0
:10601C0008D5042218490DEB020001F029F8A169FA
:10602C0000F0AAFF23799B0607D51449062201A884
:10603C0001F01EF8E169FFF7D1F801A800F079FF33
:10604C00286A0F4903680222DB68984705B0BDE84F
:10605C00F08300BFBCE7032034760D00C0750D0043
:10606C0011760D0013760D0015760D0017760D00C8
:10607C001A760D003D750D001D760D0022760D0073
:10608C000E760D00024B1A68024B1A60704700BF67
:10609C0018E5032038E6032010B50446FEF770FF20
:1060AC00204610BD0348044A04490023836001F0D4
:1060BC00A1B800BF3CE6032080E50320A5600D00DD
:1060CC00014B1860704700BF1CE5032008B50B4B53
:1060DC0043B100F0FFFB03681B699847002801DD02
:1060EC00AFF30080064B43B100F0C8FC03681B699A
:1060FC009847002801DDAFF3008008BD00000000C8
:10610C000000000008B5FFF7E1FFFEF711FB014BA3
:10611C00186008BDD0E703200248034A0349121A4D
:10612C0001F084B800F4032004F4032020790D005E
:10613C0007B5002300931A466FF07701FEF74AFC6F
:10614C0003B05DF804FB000007B543880A2B08D0A8
:10615C00502B0BD1094B1B684BB103B05DF804EB12
:10616C001847FFF7E5FF03B05DF804FB002300932D
:10617C001A466FF07701FEF72DFCF4E750E603208A
:10618C0038B5124C1248134D0021FEF70FFD236851
:10619C00AB42114B0CBF012200221A7002D0FFF748
:1061AC00BBFF2560FEF7B4FA044601F06FF80B4B09
:1061BC0013B12046AFF3008000210848FEF7AEFC77
:1061CC00BDE8384006480021FEF7FABB00F4032076
:1061DC00CD600D001E1C279A4CE603200000000029
:1061EC0055610D0070470020704710B51021044612
:1061FC0001F005F8204610BD08B5FFF7F6FF08BD05
:10620C0030B500224FF69C74026084808D888C809F
:10621C000C68858004600A6030BD10B504460068C7
:10622C00FEF794FC204610BD38B5C468F4B1237851
:10623C00022B03D104F10C00FFF7EFFF656835B1B9
:10624C002846FEF79DFE1021284600F0D8FFA568D1
:10625C0035B12846FEF794FE1021284600F0CFFFFA
:10626C0020461421BDE8384000F0C9BF38BD0846AF
:10627C000021FEF75BBC73B50E46044656F8043B92
:10628C0000930D4601A83146FEF795FE019A009B3E
:10629C006260236001A8002301930093FEF792FE35
:1062AC003046FEF78FFE2846082100F0A8FF204656
:1062BC0002B070BD826810B50AB900F0A6FFBDE847
:1062CC001040C368184708B5006800F11001FFF7CB
:1062DC00F1FF08BD826810B50AB900F096FFBDE861
:1062EC001040C368184708B5006800F11001FFF7AB
:1062FC00F1FF08BD38B500230446036010200D469D
:10630C00FDF7C1FE28B10123C0E90133024B036044
:10631C00C5602060204638BDC8760D0038B5002316
:10632C0083608B6804460D462BB102229847EB68BC
:10633C00E360AB68A360204638BD0000F0B589B0BF
:10634C0004686846FFF75CFF4FF00203D4E84F2F58
:10635C00002A03D1C4E8413F0029F7D125D104F12B
:10636C000C0569462846FFF74BFFBFF35B8F0123F3
:10637C006370002004F10803BFF35B8F53E8006FD8
:10638C0043E80002002AF9D1BFF35B8F6EB1FEF730
:10639C0007FB78B129463046FFF78CFF3046FEF7F5
:1063AC00EFFD1021304600F02AFF6846FFF735FF5D
:1063BC0009B0F0BD314602A8FFF7B0FFE068B4F9B0
:1063CC00105008B100F0B0FF06901020ADF81C5032
:1063DC00FDF759FE0546E8B1002787601820FDF748
:1063EC0052FE044688B10146876002A8FEF7F6FD0E
:1063FC00049BA268A360059B049206A9E268E36073
:10640C0004F110000592FFF7FBFE084BEB60084B04
:10641C002C60AB6006A8FFF700FF02A8FEF7B0FDEA
:10642C00002229460348FEF7C3FAB7E7D3620D00F2
:10643C0069650D00DD6A0D002DE9F0478AB005464F
:10644C009DF848900C4617469846FEF747FB07AE5A
:10645C00824638BB4FF62E73059005A93046ADF831
:10646C001830FFF7CDFE1420FDF70DFE044648B1A1
:10647C00022303700123C0E901AA437031460C309A
:10648C00FFF7BEFE2846214640F8044BFFF732FFCB
:10649C003046FFF7C2FE05A8FFF7BFFE28460AB03C
:1064AC00BDE8F0870C234FF0000A1420CDE908AAB0
:1064BC000793FDF7E8FD014628B1C0E901AA80F871
:1064CC0000A080F801A004A80391FFF713FF224B52
:1064DC0008930820FDF7D7FD824628B1039B40F8AE
:1064EC00043B04A9FEF767FD00965FFA89F3424668
:1064FC0039462046CDF824A0FEF7F8FAB8B9039B2C
:10650C005B7803F0FF0293B94FF69C7305A903A8BF
:10651C000592ADF81830FFF711FF05A8FFF77DFEC7
:10652C0005A80999FFF7A7FE06A8FEF74BFD039BEC
:10653C00059304A906A8FEF73EFD059B069A2B6061
:10654C006A60002306A806930593FEF73BFD04A89A
:10655C00FEF738FDA2E700BF2D660D00022AF8B544
:10656C00054607D0032A18D0012A01D10B68036015
:10657C000020F8BD18200E68FDF785FD044650B1CB
:10658C003146FFF7CBFE3069B6F9147008B100F054
:10659C00CBFE2061A7822C60EAE70468002CE7D0D0
:1065AC0004F11000FFF739FE2046FEF7E9FC182134
:1065BC00204600F024FEDBE738B5002383608B68AF
:1065CC0004460D462BB102229847EB68E360AB689A
:1065DC00A360204638BD022A70B5044607D0032AB2
:1065EC0012D0012A01D10B680360002070BD142069
:1065FC000E68FDF748FD054620B13146FFF7DCFF7C
:10660C00337C2B742560F0E70468002CEDD0204619
:10661C00FEF7B6FC1421204600F0F1FDE5E7000082
:10662C00F0B589B004460D4601A81146FFF723FECC
:10663C00A4B124B21DB1284600F076FE054601A88F
:10664C0003A90395ADF81040FFF778FE03A8FFF7F8
:10665C00E4FD02A8FEF7B6FC09B0F0BD019D0123D4
:10666C00D5E84F2F002A03D1C5E8413F0029F7D1C7
:10667C00EFD12B73BFF35B8F6B702B1DBFF35B8F55
:10668C0053E8006F43E80042002AF9D1BFF35B8F57
:10669C00002EDED02046FEF783F9074660B105F1E7
:1066AC000C013046FFF716FE3046FEF769FC102150
:1066BC00304600F0A4FDCCE7314603A8FFF77CFF81
:1066CC002B7B8DF81C301020FDF7DDFC0546D0B17E
:1066DC0087601420FDF7D7FC044678B1876001462B
:1066EC0003A8FEF77BFC059BA268A360069B0592A2
:1066FC00E268E3609DF81C3006922374064BEB6055
:10670C00064B2C60AB6003A8FEF73AFC002229462E
:10671C000348FEF74DF9C7E7F3620D00E3650D0082
:10672C00DD6A0D00704710B51821044600F067FDB6
:10673C00204610BDF0B5037D062B8DB00E4600F142
:10674C0004074FF0000412D000F1080515F8011DE4
:10675C000A223046FEF79FFCAF42044419D0002CAD
:10676C00F4D02E213046FEF787FC0444EEE72F23AD
:10677C006A4639460A208DF80040FEF701F8684653
:10678C0000F0EFFD33680246DB68694630469847F7
:10679C00044620460DB0F0BD10B5054B0446112241
:1067AC0040F8043B002100F069FD204610BD00BFFD
:1067BC00E4760D000346074A10B543F8042B01F1AB
:1067CC00100251F8044B43F8044B9142F9D10A786A
:1067DC001A7010BDE4760D0010B59DF8084044EA1F
:1067EC00032343EA024242EA016104234160037538
:1067FC0010BD000013B5054B0360CB7800938B786C
:10680C004A780978FFF7E8FF02B010BDE4760D0076
:10681C0041747047704708B50021007CFEF778F88A
:10682C0040EAE07008BD08B50121007CFEF770F865
:10683C0040EAE07008BD08B5007CFEF761F820EA7C
:10684C00E07008BD08B5007CFEF752F820EAE07055
:10685C0008BD13B50446007C0191FEF751F80028E1
:10686C00019901DC607C20B1207CFEF759F820EA0C
:10687C00E07002B010BD007CFEF75AB810B51421C0
:10688C00044600F0BCFC204610BD000010B54FF4CF
:10689C007A73044608460021C4E90113044B2360B3
:1068AC000123207463741146FEF70AF8204610BDCC
:1068BC00F8760D00007C0022FEF70AB8007CFEF78B
:1068CC000FB810B514220446002100F0D7FC204666
:1068DC0010BD000010B5104C88B003A8FFF7F1FFF5
:1068EC002178BFF35B8F11F0010111D1204601918A
:1068FC00FDF7DAFB019958B103AA0848FFF7C6FF68
:10690C002046FDF7D6FB064A0649044800F072FC07
:10691C00024808B010BD00BF54E6032058E603201F
:10692C0080E5032021680D00002240681146FEF727
:10693C007DB8002240681146FEF798B800224068E6
:10694C001146FEF7A3B840680022FEF797B84068DE
:10695C00002281F00101FEF781B8002340681A463D
:10696C001946FEF773B8002340681A461946FEF71D
:10697C0065B8002240681146FEF748B8406800220E
:10698C000221FEF74BB8002340681A46FEF736B8D2
:10699C00084B10B5282422461846002100F06EFC46
:1069AC00054B04804FF0FF32426004225A60034AC8
:1069BC001A6010BD74E603206CE6032028770D00E6
:1069CC0070474174704708B5007CFDF721FF20EA41
:1069DC00E07008BD08B5007CFDF7F2FE20EAE0701F
:1069EC0008BD08B5007CFDF7FBFE40EAE07008BD71
:1069FC0008B5007CFDF7ECFE40EAE07008BD007CB9
:106A0C00FDF7F6BE37B5457C04462DB1207C03B0AE
:106A1C00BDE83040FDF7CCBE007C0191FDF7F8FEDF
:106A2C0000280199F2DC284603B030BD10B51421C2
:106A3C00044600F0E4FB204610BD000010B54FF0FA
:106A4C00000C0446084611464FF47A72C4E901C2A0
:106A5C00044A22600122207462741A46FDF798FEE3
:106A6C00204610BD64770D00007C0023FDF7D8BED6
:106A7C000022FFF7F9BF007CFDF792BE13B50E4C58
:106A8C002178BFF35B8F11F0010112D120460191E7
:106A9C00FDF70AFB019960B1084A094B0948FFF759
:106AAC00CDFF2046FDF705FB074A0849054800F0D5
:106ABC00A1FB044802B010BD9CE60320A0E6032015
:106ACC0024E70320A8E7032080E50320CD690D000F
:106ADC0010B5836804460BB900F097FBC368984760
:106AEC00A3681BB10322214620469847204610215B
:106AFC00BDE8104000F083BB7047F8B5064615465C
:106B0C000C468F18BC4206D0336814F8011B9B68E6
:106B1C0030469847F6E72846F8BD007C0022FDF782
:106B2C0087BE007C0021FDF78BBE007C0021FDF7A9
:106B3C008FBE007C0021FDF793BE007C0021FDF789
:106B4C0097BE10B51421044600F059FB204610BD29
:106B5C0010B54FF47A73044608460021C4E90113BA
:106B6C00034B236020741146FDF792FE204610BDA6
:106B7C0094770D00002340681A46FDF73FBF40682C
:106B8C0000220221FDF74ABF002240681146FDF7A2
:106B9C003DBF002240681146FDF748BF0023406806
:106BAC001A461946FDF74ABF002340681A46194693
:106BBC00FDF74CBF40680021FDF770BF4068002115
:106BCC00FDF774BF4068002281F00101FDF746BF5C
:106BDC0040680022FDF752BF002240681146FDF7C5
:106BEC0055BF002240681146FDF740BF2DE9F04328
:106BFC00002495B016460D460746FFF7CDFD2146FD
:106C0C0018220EA8009400F039FB4023CDE90C3477
:106C1C0021466B460CAA3046FDF75AFD0446002867
:106C2C004CD1024601216868FDF700FF0221804625
:106C3C0022466868FDF7FAFE009E81462146002E2A
:106C4C003CD000293AD17368022B03D00A2B11D007
:106C5C00F669F4E7B8F1000F0AD0716906A804319F
:106C6C0007ADFFF7C7FD0FCD3C1D0FC42B6823707C
:106C7C004146EDE7B9F1000F01D14946E8E77469E7
:106C8C00102201A800F0FAFA06238DF8143001AD99
:106C9C0004F108031834186859682A4603C20833EB
:106CAC00A3421546F7D101A906A807ADFFF782FD4F
:106CBC000FCD3C1D0FC42B682370DEE70098FDF749
:106CCC00FFFC384615B0BDE8F0830000024B034AC8
:106CDC001A6000225A607047BCE70320BC770D0095
:106CEC0000F11003012213F8101C0129184608D1D9
:106CFC0053F8041C02EB4102013A03F11003F2D1E8
:106D0C007047022904BF53F8041C5218F4E70EB460
:106D1C00F0B588B000AF07F13405102155F8042BFD
:106D2C007A6004462B467818FD60FDF727FF0F2884
:106D3C007A681AD900F1080323F007036E46ADEB0D
:106D4C00030D411C2B466846FD60FDF717FF021E24
:106D5C0004DD236869469B6820469847B546203772
:106D6C00BD46BDE8F04003B070470028F7D023685B
:106D7C0002469B6807F1100120469847EFE710B5D3
:106D8C00036804469B689847A368013BA3602BB932
:106D9C0023682046DB68BDE81040184710BD07B5D6
:106DAC0003688DF807109B6801220DF107019847C5
:106DBC0003B05DF804FB38B50B6803604D6843689D
:106DCC009D4204460CD015B16B6801336B60606852
:106DDC0028B14368013B43600BB9FFF7D0FF6560F6
:106DEC00204638BD0B461146002210B5C0E90022E2
:106DFC00044683600BB9204610BDFFF7DCFFFAE7B1
:106E0C008368EBB11A78032A1AD8DFE802F004176A
:106E1C00021B0520704702685B685268D05C2D2805
:106E2C0012D0A0F13003092B0ED974280ED066288D
:106E3C000CD0A0F16E0358425841704706207047A1
:106E4C0000207047042070470320704702207047D1
:106E5C0010B50446FFF7D4FF02280ED0C31EDBB2D8
:106E6C00012B14D82268A36850685B68BDE81040F9
:106E7C000A220021184400F01DBB2268A368526846
:106E8C005B68D05CA0F174035842584110BD0020DF
:106E9C00FCE7000038B50023C0E9003304460E4877
:106EAC00C4E90203A9B10B78032B06D08BB9136884
:106EBC0058684B68C35C6E2B07D013684D685868D4
:106ECC008B6828445B1BA060E36011462046FFF7EB
:106EDC0072FF204638BD00BF10760D0038B5002576
:106EEC000B46C0E90055C0E90255C0E904550446FB
:106EFC0011464BB11A78012A06D103F11002DB6856
:106F0C0082604361FFF757FF204638BD10B54369D7
:106F1C00044663B18068E060013B1030A0602061E2
:106F2C00636113B1FFF7DCFEA060012000E018469E
:106F3C0010BD10B57D210446FFF731FF01232371ED
:106F4C00204610BD08B50379012B02D0022B04D0CA
:106F5C0008BD2C21FFF723FFFAE73A21FAE710B519
:106F6C000446FFF7EFFF20467B21FFF718FF0023B5
:106F7C002371204610BD000013B504460191FFF7A4
:106F8C00E1FF2368019ADB680349204698470123F7
:106F9C002046237102B010BDE8740D0013B50446F1
:106FAC000191FFF7CFFF2368019ADB680349204664
:106FBC00984701232046237102B010BDF0770D00D5
:106FCC002DE9F0410D4617462221DFF8A08004463A
:106FDC002F44FFF7E4FE2946BD422A4638D015F867
:106FEC00016B222E03D05C2E01D01F2EF4D8236807
:106FFC00521A9B68204698475C212046FFF7CFFE2B
:10700C000D2E0AD8072E1CD9A6F10803052B18D86B
:10701C00DFE803F00D0F11171315222E01D05C2E93
:10702C000FD131462046FFF7BAFE2946D4E762213C
:10703C00F8E77421F6E76E21F4E76621F2E7722196
:10704C00F0E723683246DB68414620469847ECE778
:10705C008D4204D023686A1A9B68204698472221E7
:10706C002046FFF79CFEBDE8F08100BFF3770D00D2
:10707C0013B50446CDE90021FFF764FF2046DDE996
:10708C000021FFF79DFF02232046237102B010BDA3
:10709C0013B50446CDE90021FFF754FF2046DDE986
:1070AC000021FFF78DFF01232046237102B010BD94
:1070BC00232813B502D9002002B010BDA0F10B0398
:1070CC00022B1AD8174C2178BFF35B8F11F00101FA
:1070DC000BD120460191FCF7E7FF019928B112482A
:1070EC00FDF7AAFD2046FCF7E4FF0F4B1878FDF7DF
:1070FC00DFFB0028DFD10120DEE7012809D800F0F2
:10710C0051F80021007CFDF7BBFB80F00100C0B200
:10711C00D2E709380128EED8FFF7B0FC007CFDF768
:10712C006FFBF2E7C4E70320C8E70320232838B538
:10713C0004460D460AD8FF2908D0FFF7B9FF28B13D
:10714C0029462046BDE83840FDF7CABA38BD10B50F
:10715C000446FDF7CDFA031FDBB2012B08D92046FC
:10716C00FFF7A6FF20B12046BDE81040FDF7C8BAD6
:10717C00002010BD38B5002320254380142304467D
:10718C000380856005610649284600F03CF80449F7
:10719C006060284600F037F8E060204638BD00BF3C
:1071AC00F9770D0030B50F4D2978BFF35B8F11F0D7
:1071BC00010487B013D12846FCF776FF78B101A8FB
:1071CC00FFF7D8FF01AA21460748FFF7C1FC284664
:1071DC00FCF76FFF054A0649034800F00BF802481C
:1071EC0007B030BDD8E70320DCE7032080E503209F
:1071FC00056B0D000B460146184600F009B8FCF76C
:10720C0046BFFCF740BFFCF740BF08B5FDF7BEFC1E
:10721C0010B5054C13462CB10A4601460220AFF3BB
:10722C00008010BD2046FCE7000000000A4491429B
:10723C0000F1FF3300D1704710B511F8014B03F882
:10724C00014F9142F9D110BD884210B501EB0204F7
:10725C0002D98442234607D8431EA14208D011F814
:10726C00012B03F8012FF8E7024401468A4200D1B2
:10727C0010BD13F8014D02F8014DF7E70244034627
:10728C00934200D1704703F8011BF9E738B50D4B59
:10729C001D68AB6B04467BB91820FDF74FFC0A4AFE
:1072AC000A4BA863C0E90023094B83600B2383813D
:1072BC0001220023C0E90423AB6B00221C615A613C
:1072CC0038BD00BF1CE503200E33CDAB34126DE688
:1072DC00ECDE0500C9B2034610F8012B1AB18A4244
:1072EC00F9D118467047002918BF0023F9E710B5EB
:1072FC000446FFF7EFFF18B9204600F032F820449F
:10730C0010BD10F8012B11F8013B012A28BF9A423D
:10731C00F7D0D01A7047034611F8012B03F8012B54
:10732C00002AF9D170470000024B0146186800F0A2
:10733C0003B800BF1CE5032037B5044608460D46CC
:10734C0000F00FF8421C114620460192FDF726FC76
:10735C00044618B1019A2946FFF768FF204603B08E
:10736C0030BD034613F8012B002AFBD1181A013843
:10737C00704710B56AB10139841810F8013B11F847
:10738C00012F934203D1A04201D0002BF5D1981AC2
:10739C0010BD1046FCE738B503460C4669B9BDE88C
:1073AC003840FFF797BF431C054621461846FFF7A8
:1073BC0091FF0028F7D1284638BD0025F5E70000DD
:1073CC002DE9F0473A4E86468C4660461CF8014B38
:1073DC00A55D15F00805F8D12D2C33D19CF8004093
:1073EC004FF0010800F1020C002B5CD0102B0CD1DB
:1073FC00302C0AD19CF8000000F0DF0058284DD149
:10740C009CF8014010230CF1020C08F10047013FDD
:10741C000026B7FBF3F9304603FB197AA4F13005CB
:10742C00092D18D82C46A34224DD751C07D08145A4
:10743C001DD301D1A2451ADB00FB034001261CF829
:10744C00014BEBE72B2C08BF9CF80040A84608BF6B
:10745C0000F1020CC8E7A4F14105192D01D8373C05
:10746C00E1E7A4F16105192D04D8573CDBE74FF097
:10747C00FF36E4E7731C06D12223CEF800303846E1
:10748C0042B9BDE8F087B8F1000F00D04042002AA5
:10749C00F7D00EB10CF1FF311160F2E73024002B64
:1074AC00B3D10823B1E7302CA4D00A23ADE700BF39
:1074BC00FB770D0013460A46014602480068FFF7A9
:1074CC007FBF00BF1CE503201D400D0059400D007F
:1074DC0081400D0085400D00000000002564005B1C
:1074EC0025642C25642C25645D007075626C6973B1
:1074FC006865643A2025730000000000000000005D
:10750C000000000000000000A1400D00C5400D006F
:10751C00000000000000000019410D004D410D005D
:10752C00795D0D00C7400D0052616461724576654E
:10753C006E74007368656574546573743100000073
:10754C000000000000000000274C0D001D4C0D0039
:10755C00134C0D00094C0D00FD4B0D00F14B0D00B3
:10756C00C16B0D00C96B0D00E54B0D00DD4B0D0023
:10757C00D34B0D00C94B0D00F96B0D007769726987
:10758C006E670053797374656D20736C656570203C
:10759C00636F6E66696775726174696F6E2069736B
:1075AC0020696E76616C69642E00626175640053AB
:1075BC00657269616C0053657269616C31004A5384
:1075CC004F4E53747265616D4C6F6748616E646C9D
:1075DC0065720061707000253031307520005D20BF
:1075EC00002C200028293A2000205B00636F646582
:1075FC00203D200025690064657461696C73203D31
:10760C0020000D0A006D00630066006C6E00666E53
:10761C0000636F64650064657461696C0000000050
:10762C0000000000000000005B510D0081510D00B6
:10763C0041510D001B6D0D0000000000000000000A
:10764C00A1550D00B9550D00795D0D00C7400D0019
:10765C000000000000000000CD550D00E1550D00AC
:10766C001D5F0D0049510D000000000000000000DE
:10767C0059510D008F510D00B55C0D004B510D0093
:10768C00000000000000000057510D009D510D003E
:10769C000D550D00B9510D0025592D256D2D256465
:1076AC005425483A254D3A2553257A006173637465
:1076BC00696D65000000000000000000F1610D0024
:1076CC00F7610D0035620D0005620D00F3610D00D0
:1076DC00000000000000000041670D0031670D0044
:1076EC0033670D00000000000000000021680D0051
:1076FC0089680D005F680D0035500D0051680D0054
:10770C0023680D0033680D0083680D0043680D007D
:10771C001D680D00000000000000000093690D00C2
:10772C0089690D007F690D0035690D0073690D00C5
:10773C0067690D00C16B0D00C96B0D005B690D0015
:10774C0053690D0049690D003F690D00F96B0D007F
:10775C000000000000000000CD690D00396A0D002A
:10776C00116A0D0035500D00E1690D00FD690D0029
:10777C00EF690D000B6A0D00CF690D00D3690D0088
:10778C000000000000000000056B0D004F6B0D00A9
:10779C00276B0D00076B0D002F6B0D00376B0D0069
:1077AC003F6B0D00476B0D00000000000000000057
:1077BC00816B0D008B6B0D00956B0D009F6B0D009D
:1077CC00A96B0D00B56B0D00C16B0D00C96B0D00E5
:1077DC00D16B0D00DD6B0D00E56B0D00EF6B0D003B
:1077EC00F96B0D00257500752530347800000020EC
:1077FC002020202020202020282828282820202055
:10780C002020202020202020202020202020208804
:10781C001010101010101010101010101010100468
:10782C0004040404040404040410101010101010B8
:10783C0041414141414101010101010101010101AC
:10784C0001010101010101010101101010101010C2
:10785C00424242424242020202020202020202027C
:10786C000202020202020202020210101010200098
:10787C0000000000000000000000000000000000FC
:10788C0000000000000000000000000000000000EC
:10789C0000000000000000000000000000000000DC
:1078AC0000000000000000000000000000000000CC
:1078BC0000000000000000000000000000000000BC
:1078CC0000000000000000000000000000000000AC
:1078DC00000000000000000000000000000000009C
:1078EC00000000000000000000000000000000008C
:1078FC00AD450D00314C0D008D4D0D000D500D00A2
:10790C00695D0D0091600D00B1600D009D690D0069
:04791C00D96C0D0015
:047920000000000063
:107924003F750D007C760D0094760D00B8760D0041
:1079340020E503200000000000000000000000001B
:107944000000000000000000000000000000000033
:107954000000000000000000000000000000000023
:107964000000000000000000000000000000000013
:107974000000000000000000000000000000000003
:1079840000000000000000000000000000000000F3
:0479940000000000EF
:10799800FFFFFFFF00000102030405060708090AAC
:1079A8000B0C0D0E0F101112131415161718191AA7
:0879B8001B1C1D1E1F202800EE
:0479C00078563412AF
:04000003D000401CCD
:00000001FF
