:02000002D0002C
:1040000000400D00407E0D00000006000D0005017F
:084010000401BD0B00000000DB
:0440180050790D00CE
:10401C0009480A49884208B505D0094A824202D0AB
:10402C00121A03F041FB0748074A0021121A03F049
:10403C0063FB014808BD00BFFCE40320A47D0D0018
:10404C0070E5032070E50320F0E7032070B5074E00
:10405C00074C02F093F8A41BA4080025A54200D13C
:10406C0070BD56F8043B98470135F7E7707D0D009D
:10407C00947D0D0000F0A1B808B500F0F5F8BDE88E
:10408C00084002F03DB800F0FDBC00F0FBBC00F0B5
:10409C0001BD000008B5034A00210C2000F0F4FB20
:1040AC00FEE700BF25460D000078B0FA80F040090D
:1040BC0070470123037070477047006A0368DB6820
:1040CC00184738B50446006928B185680C2103F0FF
:1040DC0018F92846F8E7204638BD00000A4B10B501
:1040EC000446036001F0DAF8214601F0CAFA02F046
:1040FC00EFFB02F0E1FB2046044B40F8043B01F0DF
:10410C00ADF9204610BD00BFA0790D0088790D00D7
:10411C0010B50446FFF7E2FF2046242103F0F1F826
:10412C00204610BDF8B5037D05460F4616468BB1EB
:10413C000368DB6883B19A88012A06D09B68F9E78B
:10414C009B684BB19A88012AFAD12BB19A89BA4251
:10415C00F6D19E732846F8BD0A49102003F0D3F817
:10416C00044668B11022002103F0C6FA064B236006
:10417C000123A3802B69A360A781A6732C61E9E7B7
:10418C002875E7E76D7C0D00100003000EB410B528
:10419C008DB00FAA016852F8044B03920023202023
:1041AC00CDE90403CDE900421E2004AA00F07CFBFB
:1041BC000DB0BDE8104003B0704708B500210220D7
:1041CC0002F0F6FFBDE808400021032002F0F0BF2A
:1041DC0010B51D4B1D4A1B681D481468A8B00593EB
:1041EC0001F050FF10EE100A03F0F8F9059B194A84
:1041FC000094CDE90201802108A800F05BFC164B6D
:10420C0016491B788DF8003009683C2308AA06A8CB
:10421C0002F010F9079C7CB16368013B63605BB9E9
:10422C00236820469B689847A368013BA3601BB991
:10423C0023682046DB68984709490A4808AAFFF713
:10424C00A5FF28B010BD00BF78E5032074E503205E
:10425C0098E5032064790D007CE50320FCE4032041
:10426C0071790D00F4E5032030B5494C237D85B000
:10427C000BB302232372E36843F00103E36023686A
:10428C00DB6823B19A88042A7FD09B68F9E74149FF
:10429C00102003F038F80546002874D010220021B5
:1042AC0003F02AFA3C4B2B600423AB802369AB60F0
:1042BC003A4BEB602561012202213548FFF732FFB2
:1042CC0001220321FFF72EFF01A8314900F09EFCCB
:1042DC00019808B100F0DEFB022002F07AFF012801
:1042EC0008BF2F4A2F4C08BF13684FF0030004BFC0
:1042FC000133136002F06DFF012801BF2A4A1368D5
:10430C000133136000F090F92268801A234A90421E
:10431C001AD900F097FB48B900F08CFB00F092FB27
:10432C0010B900F07FFBF9E700F08CFBFFF750FFB2
:10433C001B4A002313601C4A4FF47A70136001F07F
:10434C0019FE00F071F92060184C00F06DF922682C
:10435C00801A174A904214D900F074FB48B900F047
:10436C0069FB00F06FFB10B900F05CFBF9E700F0A3
:10437C0069FB4FF0FF310F4801F077FF00F054F963
:10438C00206005B030BD207595E7044ADA6092E7ED
:10439C0080E503206D7C0D001000030040771B00AE
:1043AC0078E50320A4E5032074E50320A0E50320B1
:1043BC00005C2605BCE7032070B5D0E90053142639
:1043CC00044606FB0356AE4204D0284600F0A0FC7F
:1043DC001435F8E7206800F05DFB204670BD88427C
:1043EC00F8B504460D46164616D9904215D2A2F1E0
:1043FC001406751AA1F114072C44B7421CD02CB129
:10440C003146204600F0ECFC337C2374304600F03F
:10441C007FFC143E143CF0E70ED0B5420CD02CB10E
:10442C002946204600F0DCFC2B7C2374284600F047
:10443C006FFC14351434F0E7F8BD2DE9F04100237E
:10444C00C0E9003383604F689F4204460E4623DD6B
:10445C004FF0140808FB07F000F014FB0546D8B128
:10446C00D4E9001208FB0212FFF7B9FF206800F034
:10447C0011FB2560A760D6E9007308FB0378B845EB
:10448C0008D03946284600F0C5FC3B7C2B74143709
:10449C001435F4E7736863602046BDE8F0810000D2
:1044AC002DE9F041364B374D01268CB01E7000F0D3
:1044BC00BBF8354B186000F0B7F8344B002418608B
:1044CC000021304600F018FACDE90044029402F0C5
:1044DC00FFF96946074603A8FFF7AFFFA84603A9F3
:1044EC0006A8FFF7AAFF2A4B48F8043B06A909A81F
:1044FC00FFF7A3FF09AA1E21404601F015FA09A8EF
:10450C00FFF75AFF06A8FFF757FF224B2B602F62CD
:10451C0003A8FFF751FF204B2B6002F0D9F94FF4A1
:10452C00165102F0C5F900F0B9FE294601F08EF9DA
:10453C006846FFF741FF194A1949284602F0DCFE8C
:10454C001848194DA0F809400346011D43F8091BF2
:10455C009C70164B4360114A15490675C0E903441B
:10456C00047202F0C9FE2146284601F035FD0B4AC3
:10457C001049284602F0C0FE0CB0BDE8F08100BF27
:10458C007CE50320A8E50320A0E50320A4E5032097
:10459C0088790D00C07A0D00A0790D0070E503201C
:1045AC00E9400D0080E5032098E50320100003008E
:1045BC00CF400D0005600D0008B5024B1B689B68D1
:1045CC00019308BD6802030008B5024B1B68DB6849
:1045DC00019308BD6802030008B5024B1B689B6879
:1045EC00019308BD2C02030008B5024B1B68DB6865
:1045FC00019308BD2C02030008B5024B1B685B69D4
:10460C00019308BD2C02030008B5024B1B685B68C4
:10461C00019308BD1802030008B5024B1B68DB6848
:10462C00019308BD1802030008B5024B1B685B69B7
:10463C00019308BD1802030008B5024B1B685B6CA4
:10464C00019308BD4802030008B5024B1B689B6C24
:10465C00019308BD4802030008B5024B1B68DB6CD4
:10466C00019308BD4802030008B5024B1B685B6D43
:10467C00019308BD4802030008B5024B1B685B6937
:10468C00019308BD6402030008B5024B1B681B684C
:10469C00019308BD3C02030008B5024B1B689B68E4
:1046AC00019308BD3C02030008B5024B1B68DB6894
:1046BC00019308BD3C02030008B5024B1B681B6943
:1046CC00019308BD3C02030008B5024B1B685B69F3
:1046DC00019308BD3C02030008B5024B1B689B69A3
:1046EC00019308BD3C02030008B5024B1B68DB6953
:1046FC00019308BD3C02030008B5024B1B681B6A02
:10470C00019308BD3C02030008B5024B1B689B6A71
:10471C00019308BD3C02030008B5024B1B68DB6A21
:10472C00019308BD3C02030008B5024B1B689B6952
:10473C00019308BD2802030008B5024B1B68DB6916
:10474C00019308BD2802030008B5024B1B681B6AC5
:10475C00019308BD2802030008B5024B1B685B6A75
:10476C00019308BD2802030008B5024B1B689B6A25
:10477C00019308BD2802030008B5024B1B68DB6AD5
:10478C00019308BD2802030008B5024B1B681B6B84
:10479C00019308BD2802030008B5024B1B685B6B34
:1047AC00019308BD2802030008B5024B1B681B6C63
:1047BC00019308BD2802030008B5024B1B689B6CD3
:1047CC00019308BD2802030008B5024B1B68DB6C83
:1047DC00019308BD2802030008B5024B1B681B6D32
:1047EC00019308BD2802030008B5024B1B68DB6966
:1047FC00019308BD3002030008B5024B1B681B6A0D
:10480C00019308BD3002030008B5024B1B681B68FE
:10481C00019308BD4C02030008B5024B1B685B6892
:10482C00019308BD4C02030008B5024B1B689B6842
:10483C00019308BD4C02030008B5024B1B681B69B1
:10484C00019308BD4C02030008B5024B1B685B6961
:10485C00019308BD4C02030008B5024B1B689B6911
:10486C00019308BD4C02030008B5024B1B68DB69C1
:10487C00019308BD4C02030008B5024B1B681B6A70
:10488C00019308BD4C02030008B5024B1B685B6B1F
:10489C00019308BD6002030008B5024B1B681B6D39
:1048AC00019308BD6002030008B5024B1B685B6DE9
:1048BC00019308BD6002030008B5024B1B68DB6E58
:1048CC00019308BD6002030008B5024B1B681B6F07
:1048DC00019308BD6002030008B5024B1B685B68BE
:1048EC00019308BD2002030008B5024B1B685B69ED
:1048FC00019308BD2002030008B5024B1B68DB6A5C
:10490C00019308BD2002030008B5024B1B68DB6C49
:10491C00019308BD2002030008B5024B1B685B6DB8
:10492C00019308BD2002030008B5034B1B68D3F8A4
:10493C008830019308BD00002002030008B5034B2A
:10494C001B68D3F89430019308BD000020020300CB
:10495C0008B5034B1B68D3F8AC30019308BD0000BD
:10496C002002030008B5024B1B685B68019308BD6D
:10497C004002030008B5024B1B689B68019308BDFD
:10498C004002030008B5024B1B68DB68019308BDAD
:10499C004002030008B5024B1B681B69019308BD5C
:1049AC004002030008B5024B1B685B69019308BD0C
:1049BC004002030008B5024B1B689B69019308BDBC
:1049CC004002030008B5024B1B68DB69019308BD6C
:1049DC004002030008B5024B1B681B6A019308BD1B
:1049EC004002030008B5024B1B681B6B019308BD0A
:1049FC004002030008B5024B1B685B6B019308BDBA
:104A0C004002030008B5024B1B681B6C019308BDE8
:104A1C004002030008B5024B1B685B6C019308BD98
:104A2C004002030008B5024B1B689B68019308BD4C
:104A3C004402030008B5024B1B68DB68019308BDF8
:104A4C004402030008B5024B1B685B69019308BD67
:104A5C004402030008B5024B1B681B6A019308BD96
:104A6C004402030008B5024B1B68DB6B019308BDC5
:104A7C004402030008B5024B1B681B6C019308BD74
:104A8C004402030008B5024B1B681B68019308BD68
:104A9C001C02030008B5024B1B685B68019308BD40
:104AAC001C02030008B5024B1B689B68019308BDF0
:104ABC001C02030008B5024B1B68DB69019308BD9F
:104ACC001C02030008B5024B1B685B6A019308BD0E
:104ADC001C02030008B5024B1B68DB6A019308BD7E
:104AEC001C02030008B5024B1B681B6B019308BD2D
:104AFC001C02030008B5024B1B685B6C019308BDDC
:104B0C001C020300002240681146FFF763BF00221D
:104B1C0040681146FFF76EBF40680022FFF762BF86
:104B2C004068002281F00101FFF74CBF0023406870
:104B3C001A461946FFF73EBF002340681A4619462D
:104B4C00FFF730BF002240681146FFF723BF002259
:104B5C0040681146FFF70EBF406800220221FFF7A4
:104B6C0011BF002340681A46FFF7FCBE024B03221C
:104B7C005A60024A1A607047CCE50320C4790D00D4
:104B8C0010B5044608462170FFF72EFE0023636023
:104B9C00204610BD10B50446006818B1FFF77AFF27
:104BAC000023236010BD10B50446FFF7F3FF204629
:104BBC0010BD38B5B1F9043083800B460D4653F85F
:104BCC00062FC0F806209B8843810446FFF7E2FFBE
:104BDC002B6813B1236000232B60204638BD0000E6
:104BEC0038B50C460546FFF7D5FF44B12088FFF7D2
:104BFC0049FF286028B12288214602F055FD00208B
:104C0C0038BD0148FCE700BFFCFEFFFFF0B52D4DA1
:104C1C000B7D04468BB00846AF1D002B38D00B68BB
:104C2C001B79002B34D00022274B049302A90430AB
:104C3C000292ADF80C208DF80E20FFF789FEDDF8FE
:104C4C000E30C5F8063000B2BDF81230ADF80C00CD
:104C5C00A8800299BB802846FFF7C2FF02A8FFF785
:104C6C0099FF00232360A380A37123814FF6FF7368
:104C7C006381B5F90430A3803B68C4F80630BB8867
:104C8C00296863812046FFF7ABFF20460BB0F0BDCF
:104C9C0000262023CDE902360C4B00930C493346F9
:104CAC0002AA3220FFF7F8FD074B049302A94FF636
:104CBC00F263044802968DF80E60ADF80C30FFF7E5
:104CCC0078FFCBE7D4E503200000FFFFFF790D0050
:104CDC00F8790D0010B5094B094C022200201A601E
:104CEC00084B2060A080A071A360FFF7F5FD204663
:104CFC00054A0649BDE8104002F0FEBAE0E5032083
:104D0C00D4E503200000FFFF70E50320B34B0D003A
:104D1C0010B504460068FFF7BDFE204610BD10B567
:104D2C000446006808B1FFF7B5FE0023C4E901335F
:104D3C00236010BD38B504460D4600680131FFF7FD
:104D4C00B1FE10B1C4E90005012038BD10B50368EF
:104D5C00044623B143688B4201D3012010BD204689
:104D6C00FFF7E8FF0028F9D0A368002BF5D12268E3
:104D7C001370F2E737B50D46114601920446FFF762
:104D8C00E5FF019A28B92046FFF7C9FF204603B07A
:104D9C0030BDA2602946206802F086FC2268A36818
:104DAC000021D154F2E738B5054600680C4668B1CD
:104DBC006A688B689A4207D3096802F0EAFCA36818
:104DCC00AB600023A36038BDFFF764FE23682B6043
:104DDC0063686B60A368AB600023C4E90033F1E740
:104DEC0010B50023C0E90033044683600373FFF75A
:104DFC00DAFF204610BD884210B5044605D00B687A
:104E0C002BB18A681946FFF7B5FF204610BDFFF796
:104E1C0086FFFAE710B500230446C0E9003383602F
:104E2C000373FFF7E8FF204610BD10B50368044676
:104E3C009B689847A368013BA3602BB92368204665
:104E4C00DB68BDE81040184710BD10B5044600687B
:104E5C0008B1FFF7F9FB204610BD10B58368044676
:104E6C0013B1032201469847204610BD70B5D0E916
:104E7C000053044605EB0316AE4204D02846FFF758
:104E8C0047FF1035F8E72068FFF704FE204670BD99
:104E9C000B68036013B15A6801325A60704710B541
:104EAC000446006828B14368013B43600BB9FFF727
:104EBC00BCFF204610BD13B50B460246D0E90001DD
:104ECC006C4684E8030093E8030082E8030094E84E
:104EDC00030083E8030002B010BD000010B5064CBF
:104EEC00002320462360FFF7A7FB2046034A044912
:104EFC00BDE8104002F000BAE4E5032070E50320A1
:104F0C00574E0D00F8B506460D468F180024BD42CD
:104F1C000CD0336815F8011B9B6830469847031E6C
:104F2C0001DB1C44F3E7002C08BF1C462046F8BDEF
:104F3C0013B50446084659B1019102F050FC2368A0
:104F4C000199DB680246204602B0BDE810401847C4
:104F5C0002B010BD03689B68184738B50D21054693
:104F6C00FFF7F8FF0A2104462846FFF7F3FF204419
:104F7C0038BD30B58BB000238DF82430012A98BF92
:104F8C000A2209AC0D46B1FBF2F101FB125303F0FE
:104F9C00FF03092B94BF30333733DBB2AA4204F83A
:104FAC00013DEFD92146FFF7C3FF0BB030BD2DE912
:104FBC00F04186B000AF05460E46381D142114464C
:104FCC003B60FFF77FFD13280ED8391D2846FFF7ED
:104FDC00AFFF04461EB12846FFF7BFFF044420462E
:104FEC001837BD46BDE8F08100F1080323F0070334
:104FFC00E846ADEB030D2246411C3B686846FFF7C3
:10500C0061FD69462846FFF793FF0446C546E1E774
:10501C0080680368DB6818477047084611B10B6855
:10502C005B681847704770477047704738B504463F
:10503C000D4600682E2102F098FB2368C31A2B60E2
:10504C0023B1037803B1013023682060184638BDC2
:10505C0010B50C21044602F054F9204610BD10B5D1
:10506C000421044602F04DF9204610BD10B5042170
:10507C00044602F046F9204610BD08B502F07FFB4D
:10508C00B0FA80F0400908BD10B50C4601F020FCC8
:10509C00844210D001F0F0FC844205D101F0ECFC0C
:1050AC00BDE8104001F0E5BC2CB1236820465B68DC
:1050BC00BDE81040184710BD13B5044608460191D1
:1050CC0002F08DFB01990246204602B0BDE810406B
:1050DC0002F020B813B504460846019102F07FFB9C
:1050EC0023680199DB680246204602B0BDE81040F7
:1050FC00184707B503688DF80710DB6801220DF11E
:10510C000701984703B05DF804FB0EB403B503AB7D
:10511C00002153F8042B006A0193FFF748FF02B0FB
:10512C005DF804EB03B070472DE9F74FD0E900951B
:10513C004FF0140808FB05F50093AB10184D1746FB
:10514C005D434C46002D23DD6E1008FB06F004EB8E
:10515C00000A3A46BAF804B0205801915F4528BFBE
:10516C005A4602F044FB0199012378B95F4503D1FB
:10517C00009A13703546E5E78CBF0120002000280B
:10518C00F8D0AE1B0AF11404013EF3E7C00FF6E7AA
:10519C00A4EB09040248A410604303B0BDE8F08FEF
:1051AC00CDCCCCCC7FB50369067E01910BB301B39A
:1051BC00002500F10C04039503A901A8FFF736FFA5
:1051CC000146B0B10DF10B03039A8DF80B5020463C
:1051DC00FFF7AAFF9DF80B305BB12468142303FB87
:1051EC00004000F10804B0F90630002BA8BFDEB275
:1051FC00E2E7304604B070BD10B50A4C2378BFF31B
:10520C005B8FDB070BD42046FEF74EFF38B12046F0
:10521C00FEF74FFF044A0549054802F06DF80448B3
:10522C0010BD00BFECE5032070E5032035500D00E8
:10523C0000E5032010B50A4C2378BFF35B8FDB0726
:10524C000BD42046FEF730FF38B12046FEF731FF75
:10525C00044A0549054802F04FF8044810BD00BF48
:10526C00F0E5032070E5032033500D0004E5032026
:10527C0038B500250446C0E90055C0E904558560E1
:10528C00856140F8245FFFF7D7F9FFF7B5FFE061C0
:10529C00FFF7D0FF25732062204638BD10B50B4CAC
:1052AC002378BFF35B8FDB070ED42046FEF7FCFEA2
:1052BC0050B10748FFF7DCFF2046FEF7FAFE054A1F
:1052CC000549034802F018F8014810BDE8E5032031
:1052DC00F8E5032070E5032019570D00024A034935
:1052EC0003480023FFF7F0BAF5550D0081550D006A
:1052FC0001550D0000231A4619461846FFF7E4BA6B
:10530C0037B50D6951F8043B0093044601A8FFF72B
:10531C00BFFD6A462946204601F0A6FD01A8FFF70D
:10532C00BEFD204603B030BD37B58D6851F8043B47
:10533C000093044601A8FFF7ABFD6A4629462046B8
:10534C0001F00EFE01A8FFF7AAFD204603B030BD08
:10535C0037B5CD6851F8043B0093044601A8FFF71C
:10536C0097FD6A462946204601F0D6FD01A8FFF7B5
:10537C0096FD204603B030BD70B58AB00D4601468F
:10538C0004A8FFF7D1FF144E04A801F001FEE8B108
:10539C0004A96846FFF7DCFF02983146FFF76DFE63
:1053AC00044610B12C1E18BF012401A8FFF777FD8D
:1053BC00002CE9D004A96846FFF7A2FF684601F06B
:1053CC0089FD286001A8FFF76AFDDDE705A8FFF756
:1053DC0066FD0AB070BD00BF267A0D0037B50C46CD
:1053EC0020461249154602F0CAF948B901F070FA84
:1053FC004FF4165101F05CFA01F06AFA03B030BDBB
:10540C000B49204602F0BBF970B94FF4165301A9B1
:10541C0028460193FFF7B0FF01F02EFB019901F034
:10542C0025FB01F029FBE9E70020E7E72B7A0D00CB
:10543C00327A0D0070B5D0E900531426044606FBF1
:10544C000356AE4205D005F10800FFF7F3FF143503
:10545C00F7E72068FFF71EFB204670BD10B5044629
:10546C000C30FFF7E7FF2046FFF700FD204610BD8C
:10547C0010B5044B044640F8043BFFF7EFFF204601
:10548C0010BD00BF88790D0010B50446FFF7F0FF82
:10549C002046242101F035FF204610BD10B5034BEA
:1054AC0003600446FFF7E4FF204610BDD87A0D00D8
:1054BC0010B50446FFF7F2FF2046242101F021FF2E
:1054CC00204610BD0022C0E9002210B582600C6895
:1054DC0004604C6844608C680A604A6084608A602E
:1054EC0010BD10B5036804461868FFF7BDF82046D8
:1054FC0010BD00002DE9F04F87B0804603931C4B84
:10550C005B68C3F30803894616466BB9FFF7C6FE02
:10551C00044600F12403406A0593FFF79DF8237BB2
:10552C002BB105A8FFF7DDFF07B0BDE8F08F012315
:10553C002373D4E900535FFA89F905EB830AAA4572
:10554C0012D055F8047B3146381DFFF72BFE8145F0
:10555C00F5D33B68039A0092D3F808B04A46334619
:10556C0041463846D847EAE700232373D9E700BF02
:10557C0000ED00E02DE9F74F9B461A4B5B68C3F337
:10558C0008038046894616466BB9FFF787FE04462A
:10559C0000F12403406A0193FFF75EF8237B2BB1E3
:1055AC0001A8FFF79EFF03B0BDE8F08F0123237322
:1055BC00D4E90053F6B205EB830A55450ED055F8E5
:1055CC00047B5946381DFFF7EDFD8642F5D33B6849
:1055DC004A46DB68414638469847EEE7002323737A
:1055EC00DEE700BF00ED00E02DE9F341164B5B68F0
:1055FC00C3F3080305460F461BBBFFF74FFE00F134
:10560C0024030446406A0193FFF726F8D4E90063AB
:10561C00462406EB8308B04509D101A8FFF761FFCA
:10562C00A542B4BF0020012002B0BDE8F08156F8BD
:10563C00040B39460430FFF7B5FD8442A8BF04467D
:10564C00E9E70020F0E700BF00ED00E070B504468C
:10565C00D0E900020B4600EB8202824207D00146E1
:10566C001D6851F8046BAE4203D00846F5E70020E4
:10567C0070BD521A02F026F86368013B636001208A
:10568C00F6E71FB500F124030446406A0191039329
:10569C00FEF7E2FF01A92046FFF7D8FF18B16368B7
:1056AC000BB9FFF727FE03A8FFF71BFF04B010BDD3
:1056BC0070B5D0E904561823044603FB0656AE42D7
:1056CC0015D005F110012046FFF7C0FF63680BB938
:1056DC00FFF710FEE06929690368DB689847696980
:1056EC0019B1206A0368DB6898471835E7E7D4E9F5
:1056FC000453182606FB0356AE4204D02846FFF787
:10570C0007FB1835F8E70023636170BD73B50446D9
:10571C00FFF7F0FD04F12403606A0193FEF79CFF90
:10572C002046FFF7C5FF01A8FFF7DBFE606A08B152
:10573C00FEF78AFFD4E90453182606FB0356AE4243
:10574C0004D02846FFF7E4FA1835F8E72069FFF78C
:10575C00A1F92068FFF79EF9204602B070BD88427F
:10576C00F8B506460C46154627D9904226D2A2F12A
:10577C0014056C1AA1F1140704440026AF423DD065
:10578C00A4B12B682360AB88A380B5F90630E38005
:10579C00C4E902662661AB68A360AE60E368EA68A0
:1057AC00E260EB6023692A6922612B6105F1080034
:1057BC00FFF740FE143D143CE0E71FD00027AC423D
:1057CC001CD0A6B123683360A388B380B4F906302B
:1057DC00F380C6E902773761A368B360A760F3680A
:1057EC00E268F260E360336922693261236104F19B
:1057FC000800FFF71FFE14341436E0E7F8BDF8B5C7
:10580C00D0E901539D4204460E4617460DDB013587
:10581C00002D006804DDA900FFF744F918B9F8BDA4
:10582C00FFF738F900202060A5602568626805EB59
:10583C0086019200A2EB8602081D01F043FF45F899
:10584C0026706368013363600120E8E737B500F127
:10585C0024030446406A01930D46FEF7FDFED4E98D
:10586C00003103EB810083421A460BD01268AA4226
:10587C0003F10403F7D101A8FFF733FE00252846F6
:10588C0003B030BD2A462046FFF7B9FF0546002875
:10589C00F1D06368012B01D1FFF720FD01A8FFF7C0
:1058AC0020FEECE78842F8B504460D46164614D99E
:1058BC00904213D2A2F11006751AA1F110072C44D4
:1058CC00B74218D01CB131462046FFF789FA304652
:1058DC00FFF71EFA103E103CF2E70CD0B5420AD08E
:1058EC001CB129462046FFF77BFA2846FFF710FA31
:1058FC0010351034F2E7F8BD70B50E1E054611DDFB
:10590C003001FFF7BFF8044658B1D5E9001201EB9E
:10591C000212FFF7C7FF2868FFF7BCF82C60AE60D7
:10592C00012070BD0024F6E72DE9F04F914697B0A9
:10593C0000230391D9F804100C9346229942C0E934
:10594C000033C0E90233C0E90433CDE90A3304461D
:10595C00027623DCD9E90057142303FB0757AF4227
:10596C003BD029460DA8FFF73BFA0DA911A80B9EB9
:10597C00FFF736FADDE90B1399421BDA0A9B0B9AF7
:10598C0003EB061603EB0212314606F11000FFF78B
:10599C0089FFEEB90B9B01330B9311E00AA8FFF7BB
:1059AC00ABFF0028D6D10AA8FFF760FA204617B043
:1059BC00BDE8F08F01310AA8FFF79EFF0028DDD16A
:1059CC0011A8FFF7A5F90DA8FFF7A2F91435C6E742
:1059DC0011A93046FFF704FADCE70026CDE90D6685
:1059EC000F9637464FF0140ADDE90A239E4280F2E7
:1059FC0097803301D35808930BB90136F4E70AFBAF
:105A0C0006F3099702930DAD09A908A8FFF70EFB41
:105A1C0083460028F1D00146099A8DF81F700DF1CC
:105A2C001F032846FFF780FB9DF81F800190B8F1FB
:105A3C00000F66D1BDF82430ADF84830CDE913889D
:105A4C004FF6FF73CDF844B0ADF84A30CDF8548022
:105A5C00D5E9013293421ADB03F1010BBBF1000FC4
:105A6C004ADD0AFB0BF0FFF70DF80490002845D037
:105A7C00D5E900120AFB0212FFF771FE049B28689D
:105A8C000493FFF707F8049B2B60C5F808B0019B43
:105A9C00D5F800B06A680AFB03F30BEB030101F1C4
:105AAC0014000AFB02B204910593FFF758FE049907
:105ABC00A9B1059B119A4BF80320BDF848308B8097
:105ACC00BDF94A30CB80C1E902770F61139B8B6023
:105ADC00149B1397CB60159B14970B6115976B68F0
:105AEC0001336B6013A8FFF7A5FCB8F1000F08D0C9
:105AFC000DA8FFF79FFC56E74346C0E74FF001089F
:105B0C00F0E7019B2D680AFB0355089B1B782BB90A
:105B1C00D9F80030029A13441B7CEB80083573E7EC
:105B2C002168226062686360A3680B920C9A0C93E4
:105B3C00E368A2600D9A0D932369E2600E9A0E93AE
:105B4C00636922610F9A0F93039B0A91626123761A
:105B5C00CEE700007FB50546094B45F8043B0446EB
:105B6C000E4601A81146FEF768FC01AA31462846EC
:105B7C00FFF7DAFE01A8FEF71FFC204604B070BD4B
:105B8C0088790D00F0B50F4687B026490C9C384635
:105B9C0016461D4601F0F3FD00BBE4B129466846EC
:105BAC00FFF790FC2049242001F0ADFB054670B1B5
:105BBC00694603A8FEF741FC03AA31462846FFF7C5
:105BCC00C9FF03A8FEF7F8FB184B2C622B60684644
:105BDC00FEF7F2FB2C46204607B0F0BD14493846C0
:105BEC0001F0CDFDE0B9002CF5D029466846FFF751
:105BFC0069FC0D49242001F086FB05460028E6D0FF
:105C0C00694603A8FEF719FC03AA31462846FFF79C
:105C1C00A1FF03A8FEF7D0FB064B2B602C62D6E746
:105C2C000024D8E73A7A0D006D7C0D00D87A0D006F
:105C3C003E7A0D00C07A0D00014B024A1A60704783
:105C4C00F4E503204F7A0D002DE9F047089DD0F8BC
:105C5C00209004460E461746984600F039FE8145C2
:105C6C004CD02B79190704D56A6954492046FFF7A3
:105C7C004CFAB8F1000F0DD05B212046FFF739FA32
:105C8C0041462046FFF726FA23684D49DB6802227D
:105C9C00204698472B79DA0723D5D5F808802F2191
:105CAC00404601F0B6FD08B100F10108414620461E
:105CBC00FFF710FA2B799B0708D53A212046FFF7FE
:105CCC0018FAEA683F492046FFF71FFA2A79236839
:105CDC0012F0040FDB6814BF3B493C4902222046FA
:105CEC0098472B7958071DD529690B461A4613F886
:105CFC00010B60B1202808D11946F7E7344800F0B1
:105D0C00B3FF0028ADD0BDE8F0872828EED123687A
:105D1C00521ADB682046984723682E49DB68042218
:105D2C002046984700213846FEF7C6FD014620461E
:105D3C00FFF7D0F923682549DB68022220469847F3
:105D4C001EB131462046FFF7C5F92B7913F0300F01
:105D5C002CD023682049DB680222204698472B79F7
:105D6C00D9060AD523681D49DB68072220469847C7
:105D7C00AA691B492046FFF7C8F92B799A0611D559
:105D8C00DB0605D523681049DB68022220469847BC
:105D9C0023681449DB6820460A229847E9692046A3
:105DAC00FFF798F95D212046FFF7A3F923680E4908
:105DBC00DB6820460222BDE8F0471847537A0D00F5
:105DCC005A7A0D005D7A0D00607A0D00657A0D002F
:105DDC00A4E70320637A0D00687A0D006B7A0D003E
:105DEC00737A0D00767A0D00817A0D002DE9F0435F
:105DFC0085B0D0F820900C9C05460F4690461E4668
:105E0C0000F066FD814505D1494800F02DFF0028C2
:105E1C0040F08A802B6A474A01924FF0000901A892
:105E2C0003938DF8089001F0DCF849464046FEF7E4
:105E3C0043FD41498046012201A801F05BF941462E
:105E4C00FFF73AF93FB13D49012201A801F052F99F
:105E5C003946FFF731F93EB13949012201A801F069
:105E6C0049F93146FFF728F92379DF070ED5A668E3
:105E7C002F21304601F0CDFC00B1461C31490122E6
:105E8C0001A801F037F93146FFF716F923799E077F
:105E9C0007D52D49022201A801F02CF9E16801F087
:105EAC00ADF82379580714D5266933461F4613F8E5
:105EBC00012B2AB1202A01D11E46F7E7282AF5D159
:105ECC002249022201A801F015F9BA1B314601F052
:105EDC0021F92379190707D51D49012201A801F0E1
:105EEC0009F9616901F09CF82379DA0608D50422D6
:105EFC0018490DEB020001F0FDF8A16901F07EF8E4
:105F0C0023799B0607D51449062201A801F0F2F863
:105F1C00E169FFF7D1F801A801F04DF8286A0F49A3
:105F2C0003680222DB68984705B0BDE8F08300BF28
:105F3C00A4E70320A87A0D00307A0D00847A0D00B6
:105F4C00867A0D00887A0D008A7A0D008D7A0D0004
:105F5C00907A0D00927A0D00977A0D00817A0D00DF
:105F6C00024B1A68024B1A60704700BF08E5032009
:105F7C0020E603200021FEF7B7BC10B50446FEF75F
:105F8C006CFF204610BD00000348044A044900235E
:105F9C00836001F0B1B900BF24E6032070E5032053
:105FAC00875F0D00090941EA001107EE901AB8EE5F
:105FBC00E70ADFED027A80EE270A704700004844BA
:105FCC00006800F008BE10B50446016002710AB109
:105FDC00FFF7F6FF204610BD13B50446019101F002
:105FEC0063F9019A01462046FFF7EDFF204602B007
:105FFC0010BD006800F0F8BD10B5037904460BB174
:10600C00FFF7F7FF204610BD2DE9FF4104460D4672
:10601C0017461E46FFF7D4FF36238DF800300023B9
:10602C00206801934FF001080A23694603938DF809
:10603C00088000F0B4FD2068036829469B689847E7
:10604C002068414600F0C3FD054640B16FF09F0546
:10605C002046FFF7CEFF284604B0BDE8F0810223AE
:10606C0020680193694600F083FD0228EED1206878
:10607C0003685B6998473870206803685B699847C8
:10608C003070E5E707B500238DF806308DF8073042
:10609C000DF106020DF107030221FFF7B5FF40B920
:1060AC009DF807109DF8060003B05DF804EBFFF7B0
:1060BC0079BFBFEE000A03B05DF804FB014B18601A
:1060CC00704700BF0CE5032008B50B4B43B100F043
:1060DC00FFFB03681B699847002801DDAFF30080C4
:1060EC00064B43B100F0C8FC03681B6998470028B5
:1060FC0001DDAFF3008008BD0000000000000000CF
:10610C0008B5FFF7E1FFFEF78FFA014B186008BDE9
:10611C00B8E703200248034A0349121A01F0C4BA33
:10612C0000F4032004F40320A07D0D0007B5002328
:10613C0000931A466FF07701FEF700FC03B05DF890
:10614C0004FB000007B543880A2B08D0502B0BD159
:10615C00094B1B684BB103B05DF804EB1847FFF714
:10616C00E5FF03B05DF804FB002300931A466FF0C3
:10617C007701FEF7E3FBF4E738E6032038B5124C61
:10618C001248134D0021FEF7B5FC2368AB42114BAE
:10619C000CBF012200221A7002D0FFF7BBFF256052
:1061AC00FEF732FA044601F0AFFA0B4B13B120465E
:1061BC00AFF3008000210848FEF754FCBDE83840DE
:1061CC0006480021FEF7B0BB00F40320C9600D00A7
:1061DC001E1C279A34E603200000000051610D00BC
:1061EC0070470020704710B51021044601F089F863
:1061FC00204610BD08B5FFF7F6FF08BD30B50022EC
:10620C004FF69C74026084808D888C800C6885802D
:10621C0004600A6030BD10B504460068FEF73AFC15
:10622C00204610BD38B5C468F4B12378022B03D1D5
:10623C0004F10C00FFF7EFFF656835B12846FEF757
:10624C000CFE1021284601F05CF8A56835B12846F3
:10625C00FEF703FE1021284601F053F820461421C6
:10626C00BDE8384001F04DB838BD08460021FEF7B6
:10627C0001BC73B50E46044656F8043B00930D461C
:10628C0001A83146FEF704FE019A009B6260236070
:10629C0001A8002301930093FEF701FE3046FEF7A0
:1062AC00FEFD2846082101F02CF8204602B070BDF6
:1062BC00826810B50AB901F02AF8BDE81040C3682D
:1062CC00184708B5006800F11001FFF7F1FF08BD91
:1062DC00826810B50AB901F01AF8BDE81040C3681D
:1062EC00184708B5006800F11001FFF7F1FF08BD71
:1062FC0038B500230446036010200D46FDF7C3FE9D
:10630C0028B10123C0E90133024B0360C560206052
:10631C00204638BD3C7B0D0038B5002383608B686C
:10632C0004460D462BB102229847EB68E360AB683C
:10633C00A360204638BD0000F0B589B004686846FB
:10634C00FFF75CFF4FF00203D4E84F2F002A03D174
:10635C00C4E8413F0029F7D125D104F10C05694669
:10636C002846FFF74BFFBFF35B8F012363700020C0
:10637C0004F10803BFF35B8F53E8006F43E800029E
:10638C00002AF9D1BFF35B8F6EB1FEF7BDFA78B17D
:10639C0029463046FFF78CFF3046FEF75EFD102194
:1063AC00304600F0AEFF6846FFF735FF09B0F0BD90
:1063BC00314602A8FFF7B0FFE068B4F9105008B1FD
:1063CC0001F0F0F906901020ADF81C50FDF75BFEC3
:1063DC000546E8B1002787601820FDF754FE0446F7
:1063EC0088B10146876002A8FEF765FD049BA26890
:1063FC00A360059B049206A9E268E36004F1100017
:10640C000592FFF7FBFE084BEB60084B2C60AB6072
:10641C0006A8FFF700FF02A8FEF71FFD0022294681
:10642C000348FEF779FAB7E7CF620D0065650D00FA
:10643C00D96A0D002DE9F0478AB005469DF84890C1
:10644C000C4617469846FEF7FDFA07AE824638BB57
:10645C004FF62E73059005A93046ADF81830FFF7AE
:10646C00CDFE1420FDF70FFE044648B10223037045
:10647C000123C0E901AA437031460C30FFF7BEFE80
:10648C002846214640F8044BFFF732FF3046FFF711
:10649C00C2FE05A8FFF7BFFE28460AB0BDE8F0878C
:1064AC000C234FF0000A1420CDE908AA0793FDF73E
:1064BC00EAFD014628B1C0E901AA80F800A080F8E5
:1064CC0001A004A80391FFF713FF224B08930820A7
:1064DC00FDF7D9FD824628B1039B40F8043B04A983
:1064EC00FEF7D6FC00965FFA89F342463946204601
:1064FC00CDF824A0FEF7AEFAB8B9039B5B7803F095
:10650C00FF0293B94FF69C7305A903A80592ADF849
:10651C001830FFF711FF05A8FFF77DFE05A80999B4
:10652C00FFF7A7FE06A8FEF7BAFC039B059304A988
:10653C0006A8FEF7ADFC059B069A2B606A6000234B
:10654C0006A806930593FEF7AAFC04A8FEF7A7FC81
:10655C00A2E700BF29660D00022AF8B5054607D050
:10656C00032A18D0012A01D10B6803600020F8BD62
:10657C0018200E68FDF787FD044650B13146FFF731
:10658C00CBFE3069B6F9147008B101F00BF920613B
:10659C00A7822C60EAE70468002CE7D004F1100015
:1065AC00FFF739FE2046FEF758FC1821204600F074
:1065BC00A8FEDBE738B5002383608B6804460D46E4
:1065CC002BB102229847EB68E360AB68A3602046CE
:1065DC0038BD022A70B5044607D0032A12D0012A0E
:1065EC0001D10B680360002070BD14200E68FDF70C
:1065FC004AFD054620B13146FFF7DCFF337C2B7496
:10660C002560F0E70468002CEDD02046FEF725FC51
:10661C001421204600F075FEE5E70000F0B589B0C6
:10662C0004460D4601A81146FFF723FEA4B124B27F
:10663C001DB1284601F0B6F8054601A803A903953B
:10664C00ADF81040FFF778FE03A8FFF7E4FD02A8B1
:10665C00FEF725FC09B0F0BD019D0123D5E84F2FB5
:10666C00002A03D1C5E8413F0029F7D1EFD12B73A4
:10667C00BFF35B8F6B702B1DBFF35B8F53E8006F09
:10668C0043E80042002AF9D1BFF35B8F002EDED025
:10669C002046FEF739F9074660B105F10C0130468A
:1066AC00FFF716FE3046FEF7D8FB1021304600F0FF
:1066BC0028FECCE7314603A8FFF77CFF2B7B8DF837
:1066CC001C301020FDF7DFFC0546D0B1876014208C
:1066DC00FDF7D9FC044678B18760014603A8FEF7A4
:1066EC00EAFB059BA268A360069B0592E268E36047
:1066FC009DF81C3006922374064BEB60064B2C6005
:10670C00AB6003A8FEF7A9FB002229460348FEF75D
:10671C0003F9C7E7EF620D00DF650D00D96A0D00C4
:10672C00704710B51821044600F0EBFD204610BD53
:10673C00F0B5037D062B8DB00E4600F104074FF02B
:10674C00000412D000F1080515F8011D0A2230468C
:10675C00FEF70FFCAF42044419D0002CF4D02E21CC
:10676C003046FEF7F7FB0444EEE72F236A46394622
:10677C000A208DF80040FDF77FFF684601F02FF8E6
:10678C0033680246DB686946304698470446204623
:10679C000DB0F0BD10B5054B0446112240F8043B7A
:1067AC00002100F0A9FF204610BD00BF587B0D0052
:1067BC000346074A10B543F8042B01F1100251F8B7
:1067CC00044B43F8044B9142F9D10A781A7010BD6E
:1067DC00587B0D0010B59DF8084044EA032343EAAA
:1067EC00024242EA016104234160037510BD0000BE
:1067FC0013B5054B0360CB7800938B784A780978F6
:10680C00FFF7E8FF02B010BD587B0D0041747047D4
:10681C00704708B50021007CFEF71EF840EAE070D6
:10682C0008BD08B50121007CFEF716F840EAE070BF
:10683C0008BD08B5007CFEF707F820EAE07008BD3B
:10684C0008B5007CFDF7F8FF20EAE07008BD13B531
:10685C000446007C0191FDF7F7FF0028019901DC4B
:10686C00607C20B1207CFDF7FFFF20EAE07002B0D5
:10687C0010BD007CFEF700B810B51421044600F0E2
:10688C0040FD204610BD000010B54FF47A7304464D
:10689C0008460021C4E90113044B23600123207432
:1068AC0063741146FDF7B0FF204610BD6C7B0D00E4
:1068BC00007C0022FDF7B0BF007CFDF7B5BF10B522
:1068CC0014220446002100F017FF204610BD0000E2
:1068DC0010B5104C88B003A8FFF7F1FF2178BFF377
:1068EC005B8F11F0010111D120460191FDF7DCFB0A
:1068FC00019958B103AA0848FFF7C6FF2046FDF7D7
:10690C00D8FB064A0649044800F0F6FC024808B0D9
:10691C0010BD00BF3CE6032040E6032070E50320D9
:10692C001D680D00002240681146FEF733B80022A6
:10693C0040681146FEF74EB8002240681146FEF73B
:10694C0059B840680022FEF74DB84068002281F02B
:10695C000101FEF737B8002340681A461946FEF7C6
:10696C0029B8002340681A461946FEF71BB80022C6
:10697C0040681146FDF7FEBF406800220221FEF779
:10698C0001B8002340681A46FDF7ECBF084B10B560
:10699C00282422461846002100F0AEFE054B048048
:1069AC004FF0FF32426004225A60034A1A6010BD55
:1069BC005CE6032054E603209C7B0D007047417479
:1069CC00704708B5007CFDF79FFE20EAE07008BD1B
:1069DC0008B5007CFDF770FE20EAE07008BD08B534
:1069EC00007CFDF779FE40EAE07008BD08B5007C3C
:1069FC00FDF76AFE40EAE07008BD007CFDF774BE4E
:106A0C0037B5457C04462DB1207C03B0BDE8304041
:106A1C00FDF74ABE007C0191FDF776FE0028019936
:106A2C00F2DC284603B030BD10B51421044600F04A
:106A3C0068FC204610BD000010B54FF0000C044659
:106A4C00084611464FF47A72C4E901C2044A226026
:106A5C000122207462741A46FDF716FE204610BD02
:106A6C00D87B0D00007C0023FDF756BE0022FFF7FB
:106A7C00F9BF007CFDF710BE13B50E4C2178BFF3A7
:106A8C005B8F11F0010112D120460191FDF70CFB37
:106A9C00019960B1084A094B0948FFF7CDFF204620
:106AAC00FDF707FB074A0849054800F025FC044898
:106ABC0002B010BD84E6032088E603200CE7032017
:106ACC0090E7032070E50320C9690D0010B58368B9
:106ADC0004460BB900F01BFCC3689847A3681BB1B4
:106AEC00032221462046984720461021BDE810403D
:106AFC0000F007BC7047F8B5064615460C468F18D3
:106B0C00BC4206D0336814F8011B9B68304698478A
:106B1C00F6E72846F8BD007C0022FDF715BE007C88
:106B2C000021FDF719BE007C0021FDF71DBE007C85
:106B3C000021FDF721BE007C0021FDF725BE10B51C
:106B4C001421044600F0DDFB204610BD10B54FF4B7
:106B5C007A73044608460021C4E90113034B2360F1
:106B6C0020741146FDF720FE204610BD087C0D0058
:106B7C007FB500221423CDE90122ADF804300B7847
:106B8C008DF808304B680393CB680493007C0B7A28
:106B9C00059301A9FDF720FE07B05DF804FB7FB556
:106BAC000023CDE901334A6803921423CA68ADF877
:106BBC0004300B7804920A7A0592007C8DF8083028
:106BCC0001AA1946FDF7B0FD07B05DF804FB007C87
:106BDC000022FDF7B1BD08B50021007CFDF7ECFDEE
:106BEC00B0FA80F0400908BD08B50021007CFDF723
:106BFC00EBFDB0FA80F0400908BD002340681A464E
:106C0C00FDF7B0BE406800220221FDF7BBBE00229A
:106C1C0040681146FDF7AEBE002240681146FDF7F4
:106C2C00B9BE002340681A461946FDF7BBBE0023C7
:106C3C0040681A461946FDF7BDBE40680021FDF7B5
:106C4C00E1BE40680021FDF7E5BE4068002281F0FE
:106C5C000101FDF7B7BE40680022FDF7C3BE00225C
:106C6C0040681146FDF7C6BE002240681146FDF78C
:106C7C00B1BE2DE9F043002495B016460D460746EB
:106C8C00FFF788FD214618220EA8009400F034FD71
:106C9C004023CDE90C3421466B460CAA3046FDF757
:106CAC0093FC044600284CD1024601216868FDF78C
:106CBC0071FE0221804622466868FDF76BFE009E3D
:106CCC0081462146002E3CD000293AD17368022B14
:106CDC0003D00A2B11D0F669F4E7B8F1000F0AD0F3
:106CEC00716906A8043107ADFFF782FD0FCD3C1D7D
:106CFC000FC42B6823704146EDE7B9F1000F01D1A9
:106D0C004946E8E77469102201A800F0F5FC062357
:106D1C008DF8143001AD04F1080318341868596863
:106D2C002A4603C20833A3421546F7D101A906A887
:106D3C0007ADFFF73DFD0FCD3C1D0FC42B68237035
:106D4C00DEE70098FDF738FC384615B0BDE8F08357
:106D5C00024B034A1A6000225A607047A4E70320D2
:106D6C00307C0D0000F11003012213F8101C0129D6
:106D7C00184608D153F8041C02EB4102013A03F106
:106D8C001003F2D17047022904BF53F8041C5218A7
:106D9C00F4E70EB4F0B588B000AF07F1340510215C
:106DAC0055F8042B7A6004462B467818FD60FDF7E5
:106DBC0089FE0F287A681AD900F1080323F007031B
:106DCC006E46ADEB030D411C2B466846FD60FDF78E
:106DDC0079FE021E04DD236869469B6820469847AD
:106DEC00B5462037BD46BDE8F04003B070470028DB
:106DFC00F7D0236802469B6807F11001204698479C
:106E0C00EFE710B5036804469B689847A368013BFD
:106E1C00A3602BB923682046DB68BDE810401847F7
:106E2C0010BD07B503688DF807109B6801220DF1A2
:106E3C000701984703B05DF804FB38B50B68036095
:106E4C004D6843689D4204460CD015B16B68013304
:106E5C006B60606828B14368013B43600BB9FFF776
:106E6C00D0FF6560204638BD0B461146002210B598
:106E7C00C0E90022044683600BB9204610BDFFF721
:106E8C00DCFFFAE78368EBB11A78032A1AD8DFE83B
:106E9C0002F00417021B0520704702685B685268F9
:106EAC00D05C2D2812D0A0F13003092B0ED97428F8
:106EBC000ED066280CD0A0F16E0358425841704792
:106ECC00062070470020704704207047032070474D
:106EDC000220704710B50446FFF7D4FF02280ED0ED
:106EEC00C31EDBB2012B14D82268A36850685B6800
:106EFC00BDE810400A220021184400F019BD226898
:106F0C00A36852685B68D05CA0F174035842584186
:106F1C0010BD0020FCE7000038B50023C0E90033A9
:106F2C0004460E48C4E90203A9B10B78032B06D022
:106F3C008BB9136858684B68C35C6E2B07D0136809
:106F4C004D6858688B6828445B1BA060E360114651
:106F5C002046FFF772FF204638BD00BF837A0D0034
:106F6C0038B500250B46C0E90055C0E90255C0E90B
:106F7C000455044611464BB11A78012A06D103F187
:106F8C001002DB6882604361FFF757FF204638BD73
:106F9C0010B54369044663B18068E060013B103072
:106FAC00A0602061636113B1FFF7DCFEA0600120DB
:106FBC0000E0184610BD10B57D210446FFF731FFE7
:106FCC0001232371204610BD08B50379012B02D093
:106FDC00022B04D008BD2C21FFF723FFFAE73A213E
:106FEC00FAE710B50446FFF7EFFF20467B21FFF7C9
:106FFC0018FF00232371204610BD000013B5044672
:10700C000191FFF7E1FF2368019ADB6803492046F1
:10701C00984701232046237102B010BD5D7A0D0004
:10702C0013B504460191FFF7CFFF2368019ADB6883
:10703C0003492046984701232046237102B010BD16
:10704C00647C0D002DE9F0410D4617462221DFF836
:10705C00A08004462F44FFF7E4FE2946BD422A4691
:10706C0038D015F8016B222E03D05C2E01D01F2EC8
:10707C00F4D82368521A9B68204698475C21204616
:10708C00FFF7CFFE0D2E0AD8072E1CD9A6F1080348
:10709C00052B18D8DFE803F00D0F11171315222E4E
:1070AC0001D05C2E0FD131462046FFF7BAFE29469F
:1070BC00D4E76221F8E77421F6E76E21F4E7662144
:1070CC00F2E77221F0E723683246DB68414620463E
:1070DC009847ECE78D4204D023686A1A9B682046D7
:1070EC00984722212046FFF79CFEBDE8F08100BFA7
:1070FC00677C0D0013B50446CDE90021FFF764FF52
:10710C002046DDE90021FFF79DFF02232046237175
:10711C0002B010BD13B50446CDE90021FFF754FFB2
:10712C002046DDE90021FFF78DFF01232046237166
:10713C0002B010BD232813B502D9002002B010BD37
:10714C00A0F10B03022B1AD8174C2178BFF35B8FDD
:10715C0011F001010BD120460191FCF7A5FF01991B
:10716C0028B11248FDF70CFD2046FCF7A2FF0F4B8F
:10717C001878FDF741FB0028DFD10120DEE701285C
:10718C0009D800F069F80021007CFDF705FB80F0C0
:10719C000100C0B2D2E709380128EED8FFF76CFC29
:1071AC00007CFDF7A9FAF2E7ACE70320B0E7032077
:1071BC00232838B504460D460AD8FF2908D0FFF716
:1071CC00B9FF28B129462046BDE83840FDF704BA7E
:1071DC0038BD10B50446FDF707FA031FDBB2012BCF
:1071EC0008D92046FFF7A6FF20B12046BDE8104085
:1071FC00FDF702BA002010BD38B5002320254380CE
:10720C00142304460380856005610649284600F076
:10721C007CF804496060284600F077F8E06020466E
:10722C0038BD00BF6D7C0D0038B500232025438090
:10723C00142304460380856005610649284600F046
:10724C0064F804496060284600F05FF8E06020466E
:10725C0038BD00BF6D7C0D0030B50F4D2978BFF3E4
:10726C005B8F11F0010487B013D12846FCF71CFF8B
:10727C0078B101A8FFF7C0FF01AA21460748FFF724
:10728C0065FC2846FCF715FF054A0649034800F043
:10729C0033F8024807B030BDC0E70320C8E703202D
:1072AC0070E50320016B0D0010B50F4C2378BFF374
:1072BC005B8FDB0786B013D42046FCF7F5FE78B164
:1072CC0001A8FFF7B1FF01AA01210848FFF73EFC16
:1072DC002046FCF7EEFE064A0649044800F00CF87E
:1072EC00024806B010BD00BFC4E70320DCE7032052
:1072FC0070E50320016B0D000B460146184600F0AB
:10730C00C5B9FCF7C4BEFCF7BEBEFCF7BEBE08B5E3
:10731C00FDF7E0FB81F0004102E000BF83F0004389
:10732C0030B54FEA41044FEA430594EA050F08BF14
:10733C0090EA020F1FBF54EA000C55EA020C7FEAD8
:10734C00645C7FEA655C00F0E2804FEA5454D4EB55
:10735C005555B8BF6D420CDD2C4480EA020281EA1F
:10736C00030382EA000083EA010180EA020281EA57
:10737C000303362D88BF30BD11F0004F4FEA0131A9
:10738C004FF4801C4CEA113102D0404261EB4101B8
:10739C0013F0004F4FEA03334CEA133302D052423E
:1073AC0063EB430394EA050F00F0A780A4F10104FA
:1073BC00D5F1200E0DDB02FA0EFC22FA05F2801834
:1073CC0041F1000103FA0EF2801843FA05F359411A
:1073DC000EE0A5F120050EF1200E012A03FA0EFC99
:1073EC0028BF4CF0020C43FA05F3C01851EBE371C3
:1073FC0001F0004507D54FF0000EDCF1000C7EEBE0
:10740C0000006EEB0101B1F5801F1BD3B1F5001F1D
:10741C000CD349085FEA30004FEA3C0C04F101043C
:10742C004FEA445212F5800F80F09A80BCF1004F65
:10743C0008BF5FEA500C50F1000041EB045141EAE7
:10744C00050130BD5FEA4C0C404141EB0101013CB0
:10745C0028BFB1F5801FE9D291F0000F04BF01469F
:10746C000020B1FA81F308BF2033A3F10B03B3F171
:10747C0020020CDA0C3208DD02F1140CC2F10C0201
:10748C0001FA0CF021FA02F10CE002F11402D8BF5F
:10749C00C2F1200C01FA02F120FA0CFCDCBF41EA2B
:1074AC000C019040E41AA2BF01EB0451294330BDFA
:1074BC006FEA04041F3C1CDA0C340EDC04F11404D7
:1074CC00C4F1200220FA04F001FA02F340EA0300AE
:1074DC0021FA04F345EA030130BDC4F10C04C4F1F4
:1074EC00200220FA02F001FA04F340EA03002946D4
:1074FC0030BD21FA04F0294630BD94F0000F83F41E
:10750C00801306BF81F480110134013D4EE77FEA00
:10751C00645C18BF7FEA655C29D094EA050F08BF4C
:10752C0090EA020F05D054EA000C04BF194610462D
:10753C0030BD91EA030F1EBF0021002030BD5FEA71
:10754C00545C05D14000494128BF41F0004130BD99
:10755C0014F580043CBF01F5801130BD01F00045ED
:10756C0045F0FE4141F470014FF0000030BD7FEA60
:10757C00645C1ABF194610467FEA655C1CBF0B465B
:10758C00024650EA013406BF52EA033591EA030F72
:10759C0041F4002130BD00BF90F0000F04BF00216A
:1075AC00704730B54FF4806404F132044FF000059D
:1075BC004FF0000150E700BF90F0000F04BF002116
:1075CC00704730B54FF4806404F1320410F000457C
:1075DC0048BF40424FF000013EE700BF42004FEA77
:1075EC00E2014FEA31014FEA02701FBF12F07F43F4
:1075FC0093F07F4F81F06051704732F07F4208BFAB
:10760C00704793F07F4F04BF41F40021704730B5B1
:10761C004FF4607401F0004521F000411CE700BFFD
:10762C0050EA010208BF704730B54FF000050AE080
:10763C0050EA010208BF704730B511F0004502D581
:10764C00404261EB41014FF4806404F132045FEA83
:10765C00915C3FF4D8AE4FF003025FEADC0C18BF2C
:10766C0003325FEADC0C18BF033202EBDC02C2F11E
:10767C00200300FA03FC20FA02F001FA03FE40EAB0
:10768C000E0021FA02F11444BDE600BF10B5054C02
:10769C0013462CB10A4601460220AFF3008010BD00
:1076AC002046FCE7000000000A44914200F1FF3341
:1076BC0000D1704710B511F8014B03F8014F9142FE
:1076CC00F9D110BD884210B501EB020402D98442F5
:1076DC00234607D8431EA14208D011F8012B03F80A
:1076EC00012FF8E7024401468A4200D110BD13F87D
:1076FC00014D02F8014DF7E702440346934200D1D5
:10770C00704703F8011BF9E738B50D4B1D68AB6BDF
:10771C0004467BB91820FDF7B5F90A4A0A4BA86351
:10772C00C0E90023094B83600B23838101220023D2
:10773C00C0E90423AB6B00221C615A6138BD00BF49
:10774C000CE503200E33CDAB34126DE6ECDE0500F8
:10775C00C9B2034610F8012B1AB18A42F9D1184666
:10776C007047002918BF0023F9E710B50446FFF74E
:10777C00EFFF18B9204600F032F8204410BD10F885
:10778C00012B11F8013B012A28BF9A42F7D0D01ADD
:10779C007047034611F8012B03F8012B002AF9D18D
:1077AC0070470000024B0146186800F003B800BF98
:1077BC000CE5032037B5044608460D4600F00FF8DB
:1077CC00421C114620460192FDF78CF9044618B173
:1077DC00019A2946FFF768FF204603B030BD0346E7
:1077EC0013F8012B002AFBD1181A0138704710B579
:1077FC006AB10139841810F8013B11F8012F93423A
:10780C0003D1A04201D0002BF5D1981A10BD10461F
:10781C00FCE738B503460C4669B9BDE83840FFF7BC
:10782C0097BF431C054621461846FFF791FF0028D9
:10783C00F7D1284638BD0025F5E700002DE9F047C3
:10784C003A4E86468C4660461CF8014BA55D15F0F9
:10785C000805F8D12D2C33D19CF800404FF00108CD
:10786C0000F1020C002B5CD0102B0CD1302C0AD167
:10787C009CF8000000F0DF0058284DD19CF8014026
:10788C0010230CF1020C08F10047013F0026B7FB56
:10789C00F3F9304603FB197AA4F13005092D18D8F9
:1078AC002C46A34224DD751C07D081451DD301D184
:1078BC00A2451ADB00FB034001261CF8014BEBE749
:1078CC002B2C08BF9CF80040A84608BF00F1020C06
:1078DC00C8E7A4F14105192D01D8373CE1E7A4F123
:1078EC006105192D04D8573CDBE74FF0FF36E4E770
:1078FC00731C06D12223CEF80030384642B9BDE8BD
:10790C00F087B8F1000F00D04042002AF7D00EB13A
:10791C000CF1FF311160F2E73024002BB3D10823B6
:10792C00B1E7302CA4D00A23ADE700BF6F7C0D006B
:10793C0013460A46014602480068FFF77FBF00BFA6
:10794C000CE503201D400D0059400D0081400D0039
:10795C0085400D00000000005B25642C25642C255F
:10796C002E32665D007075626C69736865643A20CE
:10797C002573000000000000000000000000000063
:10798C0000000000A1400D00C5400D0000000000EB
:10799C0000000000E9400D001D410D00555C0D007C
:1079AC00C7400D00736865657454657374310000CD
:1079BC0000000000000000006F4B0D00654B0D0037
:1079CC005B4B0D00514B0D00454B0D00394B0D0021
:1079DC00476C0D004F6C0D002D4B0D00254B0D0011
:1079EC001B4B0D00114B0D007F6C0D0077697269FC
:1079FC006E670053797374656D20736C65657020C8
:107A0C00636F6E66696775726174696F6E206973F6
:107A1C0020696E76616C69642E0062617564005336
:107A2C00657269616C0053657269616C31004A530F
:107A3C004F4E53747265616D4C6F6748616E646C28
:107A4C0065720061707000253031307520005D204A
:107A5C00002564002C200028293A2000205B0063BC
:107A6C006F6465203D200025690064657461696C54
:107A7C0073203D20000D0A006D00630066006C6EE3
:107A8C0000666E007400636F646500646574616900
:107A9C006C000000000000000000000037500D00DA
:107AAC005D500D001D500D009F6D0D00000000007D
:107ABC00000000007D540D0095540D00555C0D0028
:107ACC00C7400D000000000000000000A9540D008C
:107ADC00BD540D00F95D0D0025500D000000000097
:107AEC000000000035500D006B500D00915B0D0037
:107AFC0027500D00000000000000000033500D0066
:107B0C0079500D00E9530D0095500D0025592D2588
:107B1C006D2D25645425483A254D3A2553257A0078
:107B2C0061736374696D6500000000000000000063
:107B3C00ED610D00F3610D0031620D0001620D006D
:107B4C00EF610D0000000000000000003D670D001B
:107B5C002D670D002F670D000000000000000000D5
:107B6C001D680D0085680D005B680D00114F0D0040
:107B7C004D680D001F680D002F680D007F680D000B
:107B8C003F680D0019680D000000000000000000A7
:107B9C008F690D0085690D007B690D0031690D0041
:107BAC006F690D0063690D00476C0D004F6C0D0083
:107BBC0057690D004F690D0045690D003B690D00BB
:107BCC007F6C0D000000000000000000C9690D0072
:107BDC00356A0D000D6A0D00114F0D00DD690D00A9
:107BEC00F9690D00EB690D00076A0D00CB690D00FA
:107BFC00CF690D000000000000000000016B0D00BB
:107C0C004B6B0D00236B0D00036B0D002B6B0D00EC
:107C1C00336B0D003B6B0D00436B0D00000000003F
:107C2C0000000000076C0D00116C0D001B6C0D00AA
:107C3C00256C0D002F6C0D003B6C0D00476C0D007E
:107C4C004F6C0D00576C0D00636C0D006B6C0D00D0
:107C5C00756C0D007F6C0D00257500752530347822
:107C6C000000002020202020202020202828282848
:107C7C0028202020202020202020202020202020F0
:107C8C002020208810101010101010101010101040
:107C9C001010100404040404040404040410101050
:107CAC0010101010414141414141010101010101FC
:107CBC00010101010101010101010101010110108A
:107CCC0010101010424242424242020202020202D0
:107CDC00020202020202020202020202020210105C
:107CEC001010200000000000000000000000000048
:107CFC000000000000000000000000000000000078
:107D0C000000000000000000000000000000000067
:107D1C000000000000000000000000000000000057
:107D2C000000000000000000000000000000000047
:107D3C000000000000000000000000000000000037
:107D4C000000000000000000000000000000000027
:107D5C000000000000000000000000000000000017
:107D6C0000000000AD440D00794B0D00E14C0D00FE
:107D7C00E94E0D00455C0D006D5F0D00955F0D002B
:107D8C0099690D005D6D0D00000000000000000001
:047D9C0000000000E3
:047DA00000000000DF
:107DA400B0790D00F07A0D00087B0D002C7B0D00DE
:107DB40010E50320000000000000000000000000A7
:107DC40000000000000000000000000000000000AF
:107DD400000000000000000000000000000000009F
:107DE400000000000000000000000000000000008F
:107DF400000000000000000000000000000000007F
:107E0400000000000000000000000000000000006E
:047E1400000000006A
:107E1800FFFFFFFF00000102030405060708090A27
:107E28000B0C0D0E0F101112131415161718191A22
:087E38001B1C1D1E1F20280069
:047E4000785634122A
:04000003D000401CCD
:00000001FF
