:02000004080AE8
:1000000000000A0840360A08000006000600050144
:080010000402350800000000A5
:0400180094310A080D
:10001C0009480A4908B5884205D0094A824202D0EB
:10002C00121A02F065FF0748074A0021121A02F063
:10003C0087FF064808BD00BF00000020A4350A0851
:10004C007400002074000020D4050020D40500208A
:10005C0070B501F0DBFE0025054E064CA41BA40870
:10006C00A54200D170BD56F8043B98470135F7E71F
:10007C0078350A0898350A0800F061B808B500F020
:10008C00C1F8BDE8084001F083BE00F0FFBB00F0F2
:10009C00FDBB00F003BC000000210C2008B5024A97
:1000AC0000F016FBFEE700BFB9040A080078B0FAAE
:1000BC0080F0400970470123037070477047006A55
:1000CC000368DB681847000010B50446094B036051
:1000DC0000F04EFF214601F07DF902F037FA02F0F4
:1000EC001BFA2046044B40F8043B01F061F8204613
:1000FC0010BD00BFE4310A08CC310A0810B5044623
:10010C00FFF7E2FF2046242102F0DBFE204610BD63
:10011C000EB410B50023016820208DB00FAA52F840
:10012C00044BCDE90403CDE9004203921E2004AA3E
:10013C0000F0DEFA0DB0BDE8104003B0704708B512
:10014C000021022002F03CFE0021032002F038FEC8
:10015C00BDE808400021042002F032BE10B5184B57
:10016C00A4B01A6B802101925A6A04A800929B6970
:10017C00144A00F0A3FB144B14491B7804AA8DF805
:10018C00003009683C2302A801F098FF039C7CB165
:10019C006368013B63605BB9236820469B689847A2
:1001AC00A368013BA3601BB923682046DB68984712
:1001BC000749084804AAFFF7ABFF24B010BD00BFE5
:1001CC00A4000020A8310A087800002000000020BC
:1001DC00B3310A08E400002010B5002400F124011A
:1001EC00D0E90123012A08D11BB9C368826001330D
:1001FC00C3600C308842F3D110BD012B08BF846062
:10020C00F7E70000F0B502208BB002F0EAFD2C4EAF
:10021C0000253061032002F0E4FDF061042002F0BF
:10022C00E0FDB0623046FFF7D7FF05AB0493012326
:10023C00244F10202449CDE90755ADF819508DF8FD
:10024C001B508DF8243005978DF8183002F03BFECA
:10025C00044600282FD01022294602F071FE0423F8
:10026C00A380089B2760A360184B0894E36001A847
:10027C0004A900F095FB019808B100F00FFB00F009
:10028C001DF9134C2368C01A124B98420BD300F083
:10029C00E5FA40B100F012F92060FFF75FFF002390
:1002AC00B36173623363089840B184680C2102F027
:1002BC0008FE2046F8E78DF82400D8E70BB0F0BD17
:1002CC00A40000201000030075340A08C0270900A0
:1002DC007C00002080EE360070B51426D0E9005367
:1002EC00044606FB0356AE4204D0284600F0DAFB67
:1002FC001435F8E7206800F0D1FA204670BD88422A
:10030C00F8B504460D46164616D9904215D2A2F100
:10031C001406751AA1F114072C44B7421CD02CB149
:10032C003146204600F025FC337C2374304600F027
:10033C00B9FB143E143CF0E70ED0B5420CD02CB1F6
:10034C002946204600F015FC2B7C2374284600F02F
:10035C00A9FB14351434F0E7F8BD00232DE9F04166
:10036C00C0E9003383604F6804469F420E4624DD8B
:10037C004FF0140808FB07F000F088FA0546E0B1CE
:10038C00D4E9001208FB0212FFF7B9FF206800F055
:10039C0085FA2560A760D6E9007308FB0378B84599
:1003AC0009D03946284600F0FEFB3B7C143505F895
:1003BC00043C1437F3E7736863602046BDE8F081B2
:1003CC00012070B5224B8CB00021187000F0B0F9F0
:1003DC000023CDE90033029302F0B8F81D4C05461A
:1003EC002646694603A8FFF7B8FF03A906A8FFF73E
:1003FC00B4FF194B06A946F8043B09A8FFF7ADFF5B
:10040C0009AA1E21304601F037F909A8FFF764FF4D
:10041C0006A8FFF761FF114B03A823602562FFF7C5
:10042C005BFF0F4B236002F091F84FF4165102F072
:10043C006FF800F09DFD214601F0B1F86846FFF71A
:10044C004BFF2046074A084902F036FD0CB070BD40
:10045C007800002080000020CC310A08C8320A083D
:10046C00E4310A0874000020D5000A0808B5024BD4
:10047C001B689B68019308BDB001060808B5024BC8
:10048C001B68DB68019308BDB001060808B5024B78
:10049C001B685B69019308BDB001060808B5024BE7
:1004AC001B685B68019308BD9C01060808B5024BEC
:1004BC001B68DB68019308BD9C01060808B5024B5C
:1004CC001B685B69019308BD9C01060808B5024BCB
:1004DC001B685B6C019308BDD001060808B5024B84
:1004EC001B689B6C019308BDD001060808B5024B34
:1004FC001B68DB6C019308BDD001060808B5024BE4
:10050C001B685B6D019308BDD001060808B5024B52
:10051C001B689B69019308BDC401060808B5024B12
:10052C001B681B6A019308BDC401060808B5024B81
:10053C001B685B6A019308BDC401060808B5024B31
:10054C001B689B6A019308BDC401060808B5024BE1
:10055C001B68DB6A019308BDC401060808B5024B91
:10056C001B681B6B019308BDC401060808B5024B40
:10057C001B685B6B019308BDC401060808B5024BF0
:10058C001B689B6B019308BDC401060808B5024BA0
:10059C001B681B6C019308BDC401060808B5024B0F
:1005AC001B68DB6C019308BDC401060808B5024B3F
:1005BC001B681B6E019308BDAC01060808B5024B05
:1005CC001B685B6E019308BDAC01060808B5024BB5
:1005DC001B689B6E019308BDAC01060808B5024B65
:1005EC001B68DB6E019308BDAC01060808B5024B15
:1005FC001B681B6F019308BDAC01060808B5024BC4
:10060C001B685B6F019308BDAC01060808B5034B72
:10061C001B68D3F88030019308BD0000AC010608BC
:10062C0008B5024B1B68DB69019308BDB4010608D1
:10063C0008B5024B1B681B6A019308BDB401060880
:10064C0008B5024B1B681B68019308BDD80106084E
:10065C0008B5024B1B685B68019308BDD8010608FE
:10066C0008B5024B1B689B68019308BDD8010608AE
:10067C0008B5024B1B681B69019308BDD80106081D
:10068C0008B5024B1B685B69019308BDD8010608CD
:10069C0008B5024B1B689B69019308BDD80106087D
:1006AC0008B5024B1B68DB69019308BDD80106082D
:1006BC0008B5024B1B681B6A019308BDD8010608DC
:1006CC0008B5024B1B689B6C019308BDC001060862
:1006DC0008B5024B1B685B6B019308BDA8010208AF
:1006EC0008B5024B1B681B6D019308BDA8010208DD
:1006FC0008B5024B1B685B6D019308BDA80102088D
:10070C0008B5024B1B68DB6E019308BDA8010208FB
:10071C0008B5024B1B681B6F019308BDA8010208AA
:10072C0008B5024B1B685B68019308BDA401060861
:10073C0008B5024B1B68DB6A019308BDA4010608CF
:10074C0008B5024B1B68DB6C019308BDA4010608BD
:10075C0008B5024B1B685B6D019308BDA40106082C
:10076C0008B5034B1B68D3F89030019308BD00000B
:10077C00A401060808B5034B1B68D3F89C30019301
:10078C0008BD0000A401060808B5034B1B68D3F88C
:10079C00B030019308BD0000A401060808B5024B57
:1007AC001B685B68019308BDC801060808B5024BBD
:1007BC001B689B68019308BDC801060808B5024B6D
:1007CC001B68DB68019308BDC801060808B5024B1D
:1007DC001B681B69019308BDC801060808B5024BCC
:1007EC001B685B69019308BDC801060808B5024B7C
:1007FC001B689B69019308BDC801060808B5024B2C
:10080C001B68DB69019308BDC801060808B5024BDB
:10081C001B681B6A019308BDC801060808B5024B8A
:10082C001B681B6B019308BDC801060808B5024B79
:10083C001B685B6B019308BDC801060808B5024B29
:10084C001B681B6C019308BDC801060808B5024B58
:10085C001B685B6C019308BDC801060808B5024B08
:10086C001B685B69019308BDCC01060808B5024BF7
:10087C001B681B6A019308BDCC01060808B5024B26
:10088C001B68DB6B019308BDCC01060808B5024B55
:10089C001B681B68019308BDA001060808B5024B34
:1008AC001B685B68019308BDA001060808B5024BE4
:1008BC001B689B68019308BDA001060808B5024B94
:1008CC001B68DB69019308BDA001060808B5024B43
:1008DC001B685B6A019308BDA001060808B5024BB2
:1008EC001B68DB6A019308BDA001060808B5024B22
:1008FC001B681B6B019308BDA001060808B5024BD1
:10090C001B685B6C019308BDA001060870B500263E
:10091C0004460D4640F8086FFFF7D8FD28462570B1
:10092C00FFF77EFE2046666070BD10B50446006879
:10093C0018B1FFF7B3FF0023236010BD10B50446B8
:10094C00FFF7F3FF204610BD38B5B1F904300D4662
:10095C0083800B4653F8062F0446C0F806209B886C
:10096C004381FFF7E2FF2B6813B1236000232B6058
:10097C00204638BD38B50C460546FFF7D6FF44B1C6
:10098C002088FFF783FF286028B12146228802F0D7
:10099C00AFFA002038BD0148FCE700BFFCFEFFFFAA
:1009AC00F0B52D4D0B7D04468BB00846AF1D002BCA
:1009BC0038D00B681B79002B34D00022274B02A9AE
:1009CC00043004930292ADF80C208DF80E20FFF742
:1009DC00DBFEDDF80E3000B2C5F80630BDF8123083
:1009EC00ADF80C00A88002992846BB80FFF7C2FF27
:1009FC0002A8FFF79AFF00232360A380A371238131
:100A0C004FF6FF736381B5F904302046A3803B6831
:100A1C002968C4F80630BB886381FFF7ABFF20461A
:100A2C000BB0F0BD00262023CDE902360C4B322052
:100A3C0000930C49334602AAFFF752FE074B02A95A
:100A4C0004934FF6F263044802968DF80E60ADF8ED
:100A5C000C30FFF779FFCBE7C80000200000FFFF48
:100A6C0006320A08FF310A080222002010B5084B92
:100A7C00084C1A60084B2060A080A071A360FFF79F
:100A8C004FFE2046BDE81040044A054902F014BA56
:100A9C00D4000020C80000200000FFFF74000020DC
:100AAC0049090A0810B504460068FFF7F7FE20460E
:100ABC0010BD10B50446006808B1FFF7EFFE002327
:100ACC00C4E90133236010BD38B504460D460068F7
:100ADC000131FFF7EBFE10B1C4E90005012038BD70
:100AEC0010B50368044623B143688B4201D301203F
:100AFC0010BD2046FFF7E8FF0028F9D0A368002BB3
:100B0C00F5D122681370F2E770B50E461146044613
:100B1C001546FFF7E5FF20B92046FFF7CAFF204630
:100B2C0070BD2A4631462068A56002F0E1F900212B
:100B3C002268A368D154F2E738B5054600680C4624
:100B4C0068B16A688B689A4207D3096802F045FA63
:100B5C00A368AB600023A36038BDFFF79FFE23683A
:100B6C002B6063686B60A368AB600023C4E900333F
:100B7C00F1E7002310B50446C0E90033836003732A
:100B8C00FFF7DAFF204610BD884210B50B4604462D
:100B9C0004D0096821B19A68FFF7B6FF204610BD52
:100BAC00FFF787FFFAE7002310B50446C0E90033CE
:100BBC0083600373FFF7E8FF204610BDF8B50646C7
:100BCC000D4600248F18BD420CD0336830469B680C
:100BDC0015F8011B9847031E01DB1C44F3E7002C9E
:100BEC0008BF1C462046F8BD70B505460C460846A5
:100BFC0049B102F016FA2B68024621462846BDE898
:100C0C007040DB68184770BD03689B68184738B59F
:100C1C000D210546FFF7F8FF0A2104462846FFF789
:100C2C00F3FF204438BD0023012A98BF0A2230B5B7
:100C3C008BB00C468DF8243009A92546B4FBF2F490
:100C4C0004FB1253DBB2092B94BF30333733DBB2C6
:100C5C00AA4201F8013DF0D9FFF7C6FF0BB030BD39
:100C6C002DE9F04186B000AF05460E46381D142123
:100C7C0014463B60FFF72AFE13280ED82846391D70
:100C8C00FFF7B2FF04461EB12846FFF7C0FF04442D
:100C9C0020461837BD46BDE8F08100F1080323F06B
:100CAC000703E846ADEB030D2246411C3B68684642
:100CBC00FFF70CFE69462846FFF796FF0446C5462B
:100CCC00E1E7002340681A461946FFF787BD8068A4
:100CDC000368DB6818477047084611B10B685B68FE
:100CEC001847704770477047704738B504460D4633
:100CFC0000682E2102F05DF923680246C01A2860B4
:100D0C0020B1137803B101322068226038BD10B5D0
:100D1C0004460C2102F0D5F8204610BD10B504464F
:100D2C00042102F0CEF8204610BD10B50446042173
:100D3C0002F0C7F8204610BD08B502F044F9B0FA2D
:100D4C0080F0400908BD10B50C4601F0FFFB844251
:100D5C0005D101F0FBFBBDE8104001F0DDBB01F05B
:100D6C0033FC844202D101F02FFCF4E701F0B0FC1B
:100D7C00844205D101F0ACFCBDE8104001F0A5BCEB
:100D8C002CB123682046BDE810405B68184710BDA5
:100D9C0038B5054608460C4602F043F92146024692
:100DAC002846BDE8384001F0AEBF70B50446084691
:100DBC000D4602F036F92368024629462046BDE866
:100DCC007040DB68184707B503688DF807100122DF
:100DDC00DB680DF10701984703B05DF804FB0EB416
:100DEC0003B503AB53F8042B0021006A0193FFF702
:100DFC0037FF02B05DF804EB03B070472DE9F74FF5
:100E0C004FF01408D0E9009517464C4608FB05F541
:100E1C000093AB10174D5D43002D23DD6E1008FBC6
:100E2C0006F004EB000ABAF804B03A465F4528BF56
:100E3C005A462058019102F0FCF80123019978B927
:100E4C005F4503D1009A13703546E5E78CBF01204E
:100E5C0000200028F8D0AE1B0AF11404013EF3E781
:100E6C00C00FF6E7A4EB09040248A410604303B0DA
:100E7C00BDE8F08FCDCCCCCC7FB50369067E01915B
:100E8C0003B3F9B1002500F10C04039503A901A8E3
:100E9C00FFF72BFF0146A8B10DF10B032046039A77
:100EAC008DF80B50FFF7AAFF9DF80B3053B11423AC
:100EBC00246803FB0044B4F906300834002BA8BFA7
:100ECC00DEB2E3E7304604B070BD000010B50A4C4A
:100EDC002378BFF35B8FDB070BD42046FFF7E6F8D4
:100EEC0038B12046FFF7E7F8044A0549054801F0F8
:100EFC00E3FF044810BD00BFDC000020740000209C
:100F0C00F30C0A080400002010B50A4C2378BFF338
:100F1C005B8FDB070BD42046FFF7C8F838B12046AF
:100F2C00FFF7C9F8044A0549054801F0C5FF044814
:100F3C0010BD00BFE000002074000020F10C0A0876
:100F4C000800002038B500250446C0E90055C0E96A
:100F5C0004558560856140F8245FFFF7B7FAFFF709
:100F6C00B5FFE061FFF7D0FF25732062204638BD46
:100F7C0010B50B4C2378BFF35B8FDB070ED42046E8
:100F8C00FFF794F850B10748FFF7DCFF2046FFF756
:100F9C0092F8054A0549034801F08EFF014810BD3F
:100FAC00D8000020E8000020740000206B140A0810
:100FBC000023024A02490348FFF7AABB49130A0857
:100FCC00D5120A0855120A0800231A461946184663
:100FDC00FFF79EBB38B5046805467CB16368013BDE
:100FEC0063605BB9236820469B689847A368013B04
:100FFC00A3601BB923682046DB689847284638BD98
:10100C000B68036013B15A6801325A60704737B5E8
:10101C0004460D6951F8043B01A80093FFF7F0FF5B
:10102C006A462946204601F019FD01A8FFF7D2FFB8
:10103C00204603B030BD37B504468D6851F8043BEB
:10104C0001A80093FFF7DCFF6A462946204601F011
:10105C0081FD01A8FFF7BEFF204603B030BD37B5B8
:10106C000446CD6851F8043B01A80093FFF7C8FF74
:10107C006A462946204601F049FD01A8FFF7AAFF60
:10108C00204603B030BD000070B58AB00D46014655
:10109C0004A8FFF7D0FF144E04A801F073FDE8B1CB
:1010AC00684604A9FFF7DBFF31460298FFF744FEC0
:1010BC00044610B12C1E18BF012401A8FFF78AFFAB
:1010CC00002CE9D0684604A9FFF7A1FF684601F09F
:1010DC00FCFC286001A8FFF77DFFDDE705A8FFF702
:1010EC0079FF0AB070BD00BF2D320A0837B50C4627
:1010FC0019492046154601F066FF48B901F026FA59
:10110C004FF4165101F004FA01F020FA03B030BD8F
:10111C002046124901F057FF40B901F055FA4FF43F
:10112C00165101F0F5F901F04FFAEFE720460C49A2
:10113C0001F049FF70B94FF4165301A928460193E9
:10114C00FFF7A2FF01F0C4FA019901F0BBFA01F01C
:10115C00BFFADBE70020D9E732320A0839320A0835
:10116C003C320A0870B51426D0E90053044606FB3D
:10117C000356AE4205D005F10800FFF7F3FF143516
:10118C00F7E72068FFF78AFB204670BD70B5044670
:10119C00D0E9005305EB0316AE4204D02846FFF706
:1011AC0081FC1035F8E72068FFF778FB204670BD0E
:1011BC0010B504460C30FFF7D5FF2046FFF7E6FFCD
:1011CC00204610BD10B50446034B40F8043BFFF716
:1011DC00EFFF204610BD00BFCC310A0810B5044605
:1011EC00FFF7F0FF2046242101F06BFE204610BDD6
:1011FC0010B50446024B0360FFF7E4FF204610BD18
:10120C00E0320A0810B50446FFF7F2FF204624210D
:10121C0001F057FE204610BD0022C0E9002282607A
:10122C0010B50C680A6004604C684A6044608C68B5
:10123C008A60846010BD10B5044603681868FFF717
:10124C005DF9204610BD00002DE9F04F87B00393E7
:10125C001C4B80465B688946C3F3080316466BB982
:10126C00FFF786FE044600F12403406A0593FFF75E
:10127C003DF9237B2BB105A8FFF7DDFF07B0BDE8D7
:10128C00F08F01235FFA89F92373D4E9005305EB3E
:10129C00830AAA4512D055F8047B3146381DFFF756
:1012AC00EBFD8145F5D3039A3B680092D3F808B067
:1012BC004A46334641463846D847EAE7002323736B
:1012CC00D9E700BF00ED00E02DE9F74F9B461A4B24
:1012DC0080465B688946C3F3080316466BB9FFF773
:1012EC0047FE044600F12403406A0193FFF7FEF821
:1012FC00237B2BB101A8FFF79EFF03B0BDE8F08F55
:10130C000123F6B22373D4E9005305EB830A554548
:10131C000ED055F8047B5946381DFFF7ADFD8642BB
:10132C00F5D33B684A4641463846DB689847EEE7BA
:10133C0000232373DEE700BF00ED00E02DE9F3414D
:10134C00164B05465B680F46C3F308031BBBFFF740
:10135C000FFE044600F12403406A0193FFF7C6F820
:10136C00D4E90063462406EB8308B04509D101A8F3
:10137C00FFF761FFA542B4BF0020012002B0BDE819
:10138C00F08156F8040B39460430FFF775FD8442A2
:10139C00A8BF0446E9E70020F0E700BF00ED00E03D
:1013AC000B4670B5044605C800EB8202824207D09A
:1013BC0001461D6851F8046BAE4203D00846F5E7B0
:1013CC00002070BD521A01F0A1FD63680120013BA1
:1013DC006360F6E71FB5044600F12403406A0191EF
:1013EC000393FFF783F8204601A9FFF7D9FF18B143
:1013FC0063680BB9FFF7E8FD03A8FFF71CFF04B007
:10140C0010BD182370B50446D0E9045603FB0656EC
:10141C00AE4215D0204605F11001FFF7C1FF6368FD
:10142C000BB9FFF7D1FDE06929690368DB689847C0
:10143C00696919B1206A0368DB6898471835E7E7D2
:10144C001826D4E9045306FB0356AE4204D02846B2
:10145C00FFF728FB1835F8E70023636170BD73B5FF
:10146C000446FFF7B1FD04F12403606A0193FFF712
:10147C003DF82046FFF7C5FF01A8FFF7DCFE606AC8
:10148C0008B1FFF72BF8D4E90453182606FB0356D2
:10149C00AE4204D02846FFF705FB1835F8E7206963
:1014AC00FFF7FCF92068FFF7F9F9204602B070BD90
:1014BC008842F8B506460C46154627D9904226D2E6
:1014CC000026A2F114056C1AA1F114070444AF42D2
:1014DC003DD0A4B12B682360AB88A380B5F906304E
:1014EC00C4E902662661E380AB68A360AE60E36882
:1014FC00EA68E260EB6023692A6922612B6105F1DD
:10150C000800FFF72FFE143D143CE0E71FD0002726
:10151C00AC421CD0A6B123683360A388B380B4F965
:10152C000630C6E902773761F380A368B360A76021
:10153C00F368E268F260E360336922693261236127
:10154C0004F10800FFF70EFE14341436E0E7F8BD82
:10155C00F8B5D0E901539D4204460E4617460DDB03
:10156C000135002D006804DDA900FFF79FF918B9BB
:10157C00F8BDFFF793F900202060A560256862682C
:10158C0005EB86019200A2EB8602081D01F0BEFC61
:10159C0045F826706368012001336360E8E737B5CE
:1015AC00044600F12403406A0D460193FEF79EFFAA
:1015BC00D4E9003103EB810083421A460AD0126849
:1015CC000433AA42F8D101A8FFF735FE00252846BE
:1015DC0003B030BD2A462046FFF7BAFF0546002867
:1015EC00F1D06368012B01D1FFF7E2FC01A8FFF7F2
:1015FC0022FEECE78842F8B504460D46164614D98F
:10160C00904213D2A2F11006751AA1F110072C44C6
:10161C00B74218D01CB131462046FFF7AAFA304623
:10162C00FFF740FA103E103CF2E70CD0B5420AD05E
:10163C001CB129462046FFF79CFA2846FFF732FAE0
:10164C0010351034F2E7F8BD70B50E1E054611DDED
:10165C003001FFF71BF9044658B1D5E9001201EB34
:10166C000212FFF7C7FF2868FFF718F901202C605A
:10167C00AE6070BD0024F6E72DE9F04F91460023D3
:10168C00462297B00391D9F8041004469942C0E958
:10169C000033C0E90233C0E90433CDE90A330276E2
:1016AC000C9323DCD9E90057142303FB0757AF42F3
:1016BC003BD029460DA8FFF75CFA0DA911A80B9E8B
:1016CC00FFF757FADDE90B1399421BDA0A9B0B9AC9
:1016DC0003EB0616314603EB021206F11000FFF77E
:1016EC0089FFEEB90B9B01330B9311E00AA8FFF7AE
:1016FC00ABFF0028D6D10AA8FFF748FD204617B04B
:10170C00BDE8F08F01310AA8FFF79EFF0028DDD15C
:10171C0011A8FFF7C7F90DA8FFF7C4F91435C6E7F0
:10172C00304611A9FFF725FADCE700264FF0140A22
:10173C003746CDE90D660F96DDE90A239E4280F20D
:10174C0097803301D35808930BB90136F4E70AFBA1
:10175C0006F3099702930DAD09A908A8FFF7C5FA7E
:10176C0083460028F1D00146099A28460DF11F0343
:10177C008DF81F70FFF742FB9DF81F800190B8F1A8
:10178C00000F66D1BDF82430CDE91388ADF8483090
:10179C004FF6FF73CDF844B0ADF84A30CDF8548015
:1017AC00D5E9013293421ADB03F1010BBBF1000FB7
:1017BC004ADD0AFB0BF0FFF769F80490002845D0CE
:1017CC00D5E900120AFB0212FFF772FE049B28688F
:1017DC000493FFF763F8049BC5F808B02B60019BDA
:1017EC00D5F800B00AFB03F36A680BEB030101F1B7
:1017FC0014000AFB02B204910593FFF759FE0499F9
:10180C00A9B1119A059B4BF80320BDF848308B8089
:10181C00BDF94A30C1E902770F61CB80139B8B6015
:10182C00149B1397CB60159B14970B6115976B68E2
:10183C0001336B6013A8FFF795FCB8F1000F08D0CB
:10184C000DA8FFF78FFC56E74346C0E74FF00108A1
:10185C00F0E7019B2D680AFB0355089B1B782BB9FD
:10186C00D9F80030029A13441B7CEB80083573E7DF
:10187C002168226062686360A3680B920C9A0C93D7
:10188C00E368A2600D9A0D932369E2600E9A0E93A1
:10189C00636922610F9A0F93039B0A91626123760D
:1018AC00CEE700007FB505460E460446084B1146B0
:1018BC0045F8043B01A8FEF750FD314601AA284625
:1018CC00FFF7DAFE01A8FEF707FD204604B070BD55
:1018DC00CC310A08F0B50F4687B038462549164674
:1018EC001D460C9C01F06FFB00BBE4B12946684619
:1018FC00FFF792FC2420204901F0E5FA054670B16F
:10190C00694603A8FEF729FD314603AA2846FFF7CE
:10191C00C9FF03A8FEF7E0FC184B2C622B6068464D
:10192C00FEF7DAFC2C46204607B0F0BD38461449C9
:10193C0001F049FBE0B9002CF5D029466846FFF7C9
:10194C006BFC24200C4901F0BEFA05460028E6D0B9
:10195C00694603A8FEF701FD314603AA2846FFF7A6
:10196C00A1FF03A8FEF7B8FC064B2C622B60D6E750
:10197C000024D8E744320A0875340A08E0320A0811
:10198C0048320A08C8320A08014B024A1A607047EA
:10199C00E400002059320A082DE9F047089DD0F8E0
:1019AC00209004460E461746984600F0CFFD814520
:1019BC004DD02B79190704D520466A695449FFF795
:1019CC000EFAB8F1000F0DD05B212046FFF7FBF9A2
:1019DC0041462046FFF7E9F9236802222046DB68DE
:1019EC004C4998472B79DA0724D5D5F808802F2154
:1019FC00404601F030FB08B100F101084146204699
:101A0C00FFF7D3F92B799B0708D53A212046FFF72E
:101A1C00DAF92046EA684049FFF7E1F92A792368A8
:101A2C0012F0040F20464FF00202DB6814BF3B4952
:101A3C003B4998472B7958071DD529690B461A46FF
:101A4C0013F8010B60B1202808D11946F7E7354887
:101A5C0000F049FF0028ACD0BDE8F0872828EED173
:101A6C002368521A2046DB689847236804222046D4
:101A7C00DB682D49984700213846FEF741FE0146A8
:101A8C002046FFF792F9236802222046DB6824499E
:101A9C0098471EB131462046FFF787F92B7913F092
:101AAC00300F2CD023682149DB680222204698474E
:101ABC002B79D9060AD52368072220461C49DB68F6
:101ACC0098472046AA691B49FFF789F92B799A0692
:101ADC0011D5DB0605D5236802222046DB680F49A9
:101AEC0098472368204614490A22DB689847204609
:101AFC00E969FFF75AF95D212046FFF764F923687D
:101B0C002046BDE8F0470222DB680C49184700BFAD
:101B1C005D320A0864320A0867320A086A320A0817
:101B2C006F320A08880500206D320A0872320A08E2
:101B3C0075320A087D320A0880320A088B320A088C
:101B4C002DE9F04385B0D0F8209005460F4690461D
:101B5C001E460C9C00F0FAFC814505D1494800F06A
:101B6C00C2FE002840F08A804FF000092B6A464ADA
:101B7C0001A8019203938DF8089001F02CF84946C6
:101B8C004046FEF7BDFD80464049012201A801F008
:101B9C00ABF84146FFF7FCF83FB13D49012201A8E3
:101BAC0001F0A2F83946FFF7F3F83EB139490122AA
:101BBC0001A801F099F83146FFF7EAF82379DF071D
:101BCC000ED5A6682F21304601F045FA00B1461C0F
:101BDC003149012201A801F087F83146FFF7D8F806
:101BEC0023799E0707D52D49022201A801F07CF824
:101BFC00E16800F0FDFF2379580714D526693346B8
:101C0C001F4613F8012B2AB1202A01D11E46F7E7F3
:101C1C00282AF5D10222224901A801F065F83146A3
:101C2C00BA1B01F070F82379190707D51D49012259
:101C3C0001A801F059F8616900F0ECFF2379DA068C
:101C4C0008D5042218490DEB020001F04DF8A169EA
:101C5C0000F0CEFF23799B0607D51449062201A874
:101C6C0001F042F8E169FFF793F801A800F09DFF3D
:101C7C00286A022203680E49DB68984705B0BDE864
:101C8C00F08300BF88050020B0320A0837320A08FA
:101C9C008E320A0890320A0892320A0894320A08E4
:101CAC0097320A089A320A089C320A08A1320A08AA
:101CBC008B320A08024B1A68024B1A60704700BF3D
:101CCC000C0000201001002010B58368044613B1ED
:101CDC00032201469847204610BD10B50446FFF775
:101CEC00F3FF204610BD13B56C460B46024603C8E5
:101CFC0084E8030093E8030082E8030094E80300FF
:101D0C0083E8030002B010BD00230348034A0449D2
:101D1C00836001F0D1B800BF1401002074000020D2
:101D2C00E71C0A08014B1860704700BF1000002028
:101D3C0008B5134B43B100F009FC03681B699847C5
:101D4C00002801DDAFF300800E4B43B100F0C0FC66
:101D5C0003681B699847002801DDAFF300800A4B2C
:101D6C000BB1AFF30080094B43B100F02DFC0368BD
:101D7C001B699847002801DDAFF3008008BD00BF48
:101D8C000000000000000000000000000000000047
:101D9C0008B5FFF7CDFFFEF791FB014B186008BDAE
:101DAC00A00500200248034A0349121A01F0A0B80A
:101DBC000040024004400240A0350A08002307B549
:101DCC001A466FF077010093FEF7D4FC03B05DF870
:101DDC0004FB000007B543880A2B08D0502B0BD10D
:101DEC00094B1B684BB103B05DF804EB1847FFF7C8
:101DFC00E5FF03B05DF804FB00231A466FF0770192
:101E0C000093FEF7B7FCF4E72801002038B5124C1C
:101E1C0000211248FEF772FD114D2368AB420CBF36
:101E2C00012200220F4B1A7002D0FFF7BBFF256076
:101E3C00FEF734FB044601F08BF80B4B13B1204634
:101E4C00AFF3008000210848FEF718FDBDE83840CC
:101E5C0000210648FEF784BC00400240311D0A08F0
:101E6C001E1C279A2401002000000000E11D0A0816
:101E7C0070470020704710B50446102101F021F87E
:101E8C00204610BD08B5FFF7F6FF08BD002230B59F
:101E9C004FF69C74026084808D888C800C688580E1
:101EAC0004600A6030BD10B504460068FEF7F6FC0D
:101EBC00204610BD38B5C468F4B12378022B03D189
:101ECC0004F10C00FFF7EFFF656835B12846FFF70A
:101EDC00FBFE1021284600F0F4FFA56835B128461A
:101EEC00FFF7F2FE1021284600F0EBFF2046BDE87C
:101EFC003840142100F0E5BF38BD73B50E460446DA
:101F0C0056F8043B0D4601A831460093FFF778F8CC
:101F1C00009B019A23600023626001A80193009347
:101F2C00FFF758F83046FFF755F82846082100F01F
:101F3C00C8FF204602B070BD826810B50AB900F027
:101F4C00C6FFC368BDE81040184708B5006800F12B
:101F5C001001FFF7F1FF08BD826810B50AB900F057
:101F6C00B6FFC368BDE81040184708B5006800F11B
:101F7C001001FFF7F1FF08BD38B5002304460360DC
:101F8C0010200D46FEF781F828B10123C0E901337A
:101F9C00024BC56003602060204638BD44330A08FC
:101FAC0038B5002383608B6804460D462BB10222A2
:101FBC009847EB68E360AB68A360204638BD00002F
:101FCC00F0B589B004686846FFF760FF4FF0020374
:101FDC00D4E84F2F002A03D1C4E8413F0029F7D1A0
:101FEC0025D104F10C0569462846FFF74FFF012364
:101FFC00BFF35B8F63700020BFF35B8F04F10803AA
:10200C0053E8006F43E80002002AF9D1BFF35B8F5D
:10201C006EB1FEF795FB78B129463046FFF78CFF81
:10202C003046FFF751FE1021304600F04AFF68465B
:10203C00FFF739FF09B0F0BD314602A8FFF7B0FF3A
:10204C00E068B4F9105008B100F0D0FF06901020F1
:10205C00ADF81C50FEF719F80546E8B1002787606B
:10206C001820FEF712F8044688B10146876002A8D2
:10207C00FFF739FE049BA268A360059B0492E268FB
:10208C0006A9E36004F110000592FFF7FFFE084B70
:10209C002C60EB60074BAB6006A8FFF704FF02A8AF
:1020AC00FFF712FE002229460348FEF751FBB7E763
:1020BC00571F0A08ED210A082D270A082DE9F047B9
:1020CC008AB005460C46174698469DF84890FEF790
:1020DC00C5FB07AE824638BB4FF62E73059005A99B
:1020EC003046ADF81830FFF7D1FE1420FDF7CDFFC8
:1020FC00044648B1022303700123C0E901AA4370CE
:10210C0031460C30FFF7C2FE2846214640F8044BFE
:10211C00FFF732FF3046FFF7C6FE05A8FFF7C3FEF8
:10212C0028460AB0BDE8F0870C234FF0000A1420B3
:10213C00CDE908AA0793FDF7A8FF014628B1C0E92D
:10214C0001AA80F800A080F801A004A80391FFF771
:10215C0013FF224B08200893FDF797FF824628B106
:10216C00039B04A940F8043BFEF74AFF424639465C
:10217C00204600965FFA89F3CDF824A0FEF776FB93
:10218C00B8B9039B5B7803F0FF0293B94FF69C73CD
:10219C0005A903A80592ADF81830FFF711FF05A8A3
:1021AC00FFF781FE05A80999FFF7A7FE06A8FEF721
:1021BC0011FF039B04A906A80593FEF721FF059BBD
:1021CC00069A2B6000236A6006A806930593FEF717
:1021DC0001FF04A8FEF7FEFEA2E700BFB1220A0829
:1021EC00022AF8B5054607D0032A18D0012A01D1D6
:1021FC000B6803600020F8BD18200E68FDF745FF42
:10220C00044650B13146FFF7CBFE3069B6F9147075
:10221C0008B100F0EBFE2061A7822C60EAE70468AD
:10222C00002CE7D004F11000FFF73DFE2046FFF72D
:10223C004BFD1821204600F044FEDBE738B50023A7
:10224C0083608B6804460D462BB102229847EB68DD
:10225C00E360AB68A360204638BD022A70B5044623
:10226C0007D0032A12D0012A01D10B680360002089
:10227C0070BD14200E68FDF708FF054620B13146ED
:10228C00FFF7DCFF337C2B742560F0E70468002C2F
:10229C00EDD02046FFF718FD1421204600F011FE6A
:1022AC00E5E70000F0B5044689B00D4601A81146DB
:1022BC00FFF723FEA4B124B21DB1284600F096FE10
:1022CC00054601A803A90395ADF81040FFF778FE69
:1022DC0003A8FFF7E8FD02A8FEF77CFE09B0F0BDED
:1022EC000123019DD5E84F2F002A03D1C5E8413FBA
:1022FC000029F7D1EFD12B73BFF35B8F6B70BFF35A
:10230C005B8F2B1D53E8006F43E80042002AF9D184
:10231C00BFF35B8F002EDED02046FEF711FA074686
:10232C0060B1304605F10C01FFF716FE3046FFF7A1
:10233C00CBFC1021304600F0C4FDCCE7314603A89D
:10234C00FFF77CFF2B7B10208DF81C30FDF79DFEDA
:10235C000546D0B187601420FDF797FE044678B18E
:10236C000146876003A8FFF7BEFC059BA268A3602B
:10237C00069B0592E268E3609DF81C30069223747C
:10238C00064B2C60EB60064BAB6003A8FFF79CFC84
:10239C00002229460348FEF7DBF9C7E7771F0A0836
:1023AC0067220A082D270A08704710B50446182121
:1023BC0000F087FD204610BDF8B50E46002400F154
:1023CC000807051D17F8011D0A223046FEF72BFCE5
:1023DC00AF42044401D12046F8BD002CF2D02E218E
:1023EC003046FEF711FC0444ECE7000010B504463F
:1023FC00044B1122002140F8043B00F0A1FD2046C3
:10240C0010BD00BF60330A080346074A10B543F8F5
:10241C00042B01F1100251F8044B914243F8044B88
:10242C00F9D10A781A7010BD60330A08024AC0E963
:10243C00002104220275704760330A0810B59DF81C
:10244C00084044EA0324042344EA024444EA0164B5
:10245C004460037510BD000037B5044D05609DF850
:10246C0018500095FFF7EAFF03B030BD60330A083F
:10247C0041747047704708B50021007CFEF708F9DD
:10248C0040EAE07008BD08B50121007CFEF700F9B8
:10249C0040EAE07008BD08B5007CFEF7F1F820EAD0
:1024AC00E07008BD08B5007CFEF7E2F820EAE070A9
:1024BC0008BD38B50446007C0D46FEF7E1F800284F
:1024CC0001DC607C28B12946207CFEF7E9F820EA83
:1024DC00E07038BD007CFEF7EBB810B50446142153
:1024EC0000F0EFFC204610BD10B54FF47A73044693
:1024FC0008460021C4E90113044B20742360012316
:10250C0011466374FEF79CF8204610BD74330A081C
:10251C000022007CFEF79CB8007CFEF7A1B80000FE
:10252C0010B504461422002100F00AFD054B20468C
:10253C006360054BE36040F2011323818123238206
:10254C0010BD00BF5C0100205D02002030B50F4DB6
:10255C0087B001A8FFF7E4FF2978BFF35B8F11F078
:10256C00010410D12846FDF7A1FD60B1214601AA56
:10257C000748FFF7B9FF2846FDF79DFD054A0649B8
:10258C00034800F099FC024807B030BD2C01002034
:10259C00340100207400002081240A0810B5044680
:1025AC001422002100F0CCFC054B20466360054B47
:1025BC00E36040F2011323818123238210BD00BF0D
:1025CC00DE020020DF03002010B50F4C86B001A8FE
:1025DC00FFF7E4FF2378BFF35B8FDB0710D42046B3
:1025EC00FDF764FD60B1012101AA0848FFF77CFFEB
:1025FC002046FDF760FD064A0649044800F05CFCE5
:10260C00024806B010BD00BF300100204801002078
:10261C007400002081240A0870474174704708B583
:10262C00007CFDF7B3FF20EAE07008BD08B5007C24
:10263C00FDF784FF20EAE07008BD08B5007CFDF7CB
:10264C008DFF40EAE07008BD08B5007CFDF77EFF09
:10265C0040EAE07008BD007CFDF788BF70B5467C91
:10266C0004460D462EB12946207CBDE87040FDF78E
:10267C005DBF007CFDF78AFF0028F4DC304670BD9E
:10268C0010B50446142100F01CFC204610BD0000BF
:10269C004FF0000C10B50446084611464FF47A7200
:1026AC00C4E901C2044A20742260012262741A46F1
:1026BC00FDF72CFF204610BDA4330A080023007C34
:1026CC00FDF76CBF0022FFF7F9BF007CFDF726BFBA
:1026DC0038B50D4D2978BFF35B8F11F0010411D182
:1026EC002846FDF7E3FC68B12146084A084B094827
:1026FC00FFF7CEFF2846FDF7DEFC074A07490548E1
:10270C0000F0DAFB034838BD6004002064040020AC
:10271C00E80400206C0500207400002025260A081F
:10272C0010B5836804460BB900F0D1FBC368984719
:10273C00A3681BB103222146204698472046BDE8DA
:10274C001040102100F0BDBB7047F8B50646154689
:10275C000C468F18BC4206D0336830469B6814F880
:10276C00011B9847F6E72846F8BD0022007CFDF7D0
:10277C001DBF0021007CFDF721BF0021007CFDF76F
:10278C0025BF0021007CFDF729BF0021007CFDF74F
:10279C002DBF10B50446142100F093FB204610BD4C
:1027AC0010B54FF47A73044608460021C4E90113AE
:1027BC00034B114623602074FDF728FF204610BD03
:1027CC00D4330A08002240681146FDF7FFBFF0B56C
:1027DC00154689B011220E460446002103A800F0CC
:1027EC00AFFB284600F01DFC002781B27368284619
:1027FC00009703AAFDF764FF30B139462046FFF776
:10280C0015FE204609B0F0BD204603A9FFF7FCFDDC
:10281C00F7E7002240681146FDF7F8BF0022406838
:10282C001146FEF703B800224068FDF7F7BF0022FF
:10283C00406881F00101FDF7E1BF002340681A46B2
:10284C001946FDF7D3BF002240681146FDF7AEBF15
:10285C00002202214068FDF7B1BF002340681A46F0
:10286C00FDF79CBF0422024B5A60024A1A60704763
:10287C0080050020FC330A08002340681A46FDF747
:10288C008DBF002202214068FDF798BF00224068EE
:10289C001146FDF78BBF002240681146FDF796BF2D
:1028AC00002340681A461946FDF798BF002340687C
:1028BC001A461946FDF79ABF00214068FDF7BEBFC6
:1028CC0000214068FDF7C2BF0022406881F0010181
:1028DC00FDF794BF00224068FDF7A0BF00224068BE
:1028EC001146FDF7A3BF002240681146FDF78EBFCD
:1028FC0070B515468EB0044608A8FFF777FD112277
:10290C00002103A800F01CFB0026284600F089FBE0
:10291C000A4B009681B25B68284603AAFDF7D0FEED
:10292C0030B131462046FFF781FD20460EB070BD18
:10293C00204603A9FFF768FDF7E700BF80050020DC
:10294C00024B034A1A6000225A6070478805002027
:10295C0038340A08012200F1100313F8101C184631
:10296C00012908D153F8041C02EB4102013A03F18E
:10297C001003F2D17047022904BF53F8041C5218FB
:10298C00F4E70EB42DE9F04187B000AF07F1340540
:10299C0055F8048B04462B464246102107F10800DB
:1029AC007D60FDF793FF0F281BD900F1080323F07E
:1029BC0007036E46ADEB030D4246411C2B466846A1
:1029CC007D60FDF783FF021E04DD23686946204607
:1029DC009B689847B5461C37BD46BDE8F04103B02F
:1029EC0070470028F7D0236802469B68204607F101
:1029FC0008019847EFE710B5044603689B689847B1
:102A0C00A368013BA3602BB923682046BDE81040A6
:102A1C00DB68184710BD07B503688DF80710012255
:102A2C009B680DF10701984703B05DF804FB38B5BE
:102A3C000B68044603604D6843689D420CD015B189
:102A4C006B6801336B60606828B14368013B43607D
:102A5C000BB9FFF7D0FF6560204638BD0B46114619
:102A6C00002210B50446C0E9002283600BB9204651
:102A7C0010BDFFF7DCFFFAE70346806820B302784D
:102A8C00032A1AD8DFE802F00417021B052070474E
:102A9C001B685A684368D05C2D2812D0A0F1300313
:102AAC00092B0ED974280ED066280CD0A0F16E0319
:102ABC005842584170470620704700207047042048
:102ACC007047032070470220704710B50446FFF78B
:102ADC00D3FF02280ED0C31EDBB2012B14D8226800
:102AEC00A36850685B680A22BDE8104000211844B6
:102AFC0000F040BB2268A36852685B68D05CA0F110
:102B0C0074035842584110BD0020FCE70B46114697
:102B1C00002210B50446C0E900220D48C4E90202A7
:102B2C00A3B11A78032A06D082B90A6850685A6889
:102B3C00825C6E2A07D00A68586852689B68024407
:102B4C001B1AA260E3602046FFF771FF204610BD00
:102B5C008D320A0838B500250B4604461146C0E9EB
:102B6C000055C0E90255C0E904554BB11A78012A49
:102B7C0006D103F11002DB6882604361FFF757FF57
:102B8C00204638BD10B54369044663B18068013BEB
:102B9C00E0601030A0602061636113B1FFF7DAFED2
:102BAC00A060012000E0184610BD10B57D21044640
:102BBC00FFF731FF01232046237110BD08B50379BF
:102BCC00012B02D0022B04D008BD2C21FFF723FFD0
:102BDC00FAE73A21FAE710B50446FFF7EFFF204673
:102BEC007B21FFF718FF00232046237110BD000046
:102BFC0038B504460D46FFF7E1FF236820462A4608
:102C0C00DB680349984701232046237138BD00BF78
:102C1C0067320A0838B504460D46FFF7CFFF236824
:102C2C0020462A46DB680349984701232046237136
:102C3C0038BD00BF6C340A082DE9F0410D4617462B
:102C4C0022210446FFF7E7FE2946DFF898802F443F
:102C5C00BD422A4638D015F8016B222E03D05C2ECB
:102C6C0001D01F2EF4D82368521A20469B6898472F
:102C7C005C212046FFF7CFFE0D2E0AD8072E1CD95B
:102C8C00A6F10803052B18D8DFE803F00D0F111778
:102C9C001315222E01D05C2E0FD131462046FFF7A2
:102CAC00BAFE2946D4E76221F8E77421F6E76E21D3
:102CBC00F4E76621F2E77221F0E7236832464146D9
:102CCC002046DB689847ECE78D4204D02368204609
:102CDC009B686A1A984722212046FFF79CFEBDE8A4
:102CEC00F08100BF6F340A0870B504460D461646D5
:102CFC00FFF764FF204632462946FFF79DFF02236B
:102D0C002046237170BD70B504460D461646FFF77C
:102D1C0055FF204632462946FFF78EFF01232046F9
:102D2C00237170BD10B50446806808B1FDF7D6FB61
:102D3C00204610BD172870B5044601D9002070BD7F
:102D4C00A0F10D03022B0BD9012826D800F08CF82A
:102D5C000021007CFDF752FC80F00100C0B2EEE7D0
:102D6C00134E3178BFF35B8F11F001050FD1304654
:102D7C00FDF79CF958B129460E48FDF7C7FD3046C2
:102D8C00FDF799F90C4A0D490A4800F095F8094BE2
:102D9C001878FDF74DFC0028D0D1123C012C05D839
:102DAC00FFF796FC007CFDF7E9FBD5E70120C6E7B1
:102DBC00900500209405002074000020312D0A0895
:102DCC00172838B504460D460AD8FF2908D0FFF756
:102DDC00B1FF28B129462046BDE83840FDF746BB77
:102DEC0038BD10B50446FDF749FB031FDBB2012BC0
:102DFC0008D92046FFF79EFF20B12046BDE81040C1
:102E0C00FDF744BB002010BD002313B5074C1A4638
:102E1C00194620460093FFF71FFB2046044A05493C
:102E2C0002B0BDE8104000F047B800BFA405002078
:102E3C0074000020B5230A08002370B520254380B8
:102E4C001423084E044603803146856005612846EC
:102E5C0000F03BF831466060284600F036F8E06040
:102E6C00204670BD75340A0830B50F4D87B02978EF
:102E7C00BFF35B8F11F0010413D12846FDF716F94F
:102E8C0078B101A8FFF7D8FF214601AA0748FFF740
:102E9C0087FC2846FDF70FF9054A0649034800F060
:102EAC000BF8024807B030BDBC050020C00500205F
:102EBC007400002055270A080B460146184600F0FE
:102ECC0009B8FDF7E6B8FDF7E0B8FDF7E0B808B5CE
:102EDC00FDF704FD10B504460448134620B10A461C
:102EEC0002202146AFF3008010BD00BF000000009F
:102EFC000A44914200F1FF3300D1704710B511F82C
:102F0C00014B914203F8014FF9D110BD884210B525
:102F1C0001EB020402D98442234607D8431EA14286
:102F2C0008D011F8012B03F8012FF8E701460244F1
:102F3C008A4200D110BD13F8014D02F8014DF7E79C
:102F4C0003460244934200D1704703F8011BF9E792
:102F5C0038B50D4B04461D68AB6B7BB91820FDF7DB
:102F6C0095FC0A4A0A4BA863C0E90023094B0122CD
:102F7C0083600B2383810023C0E904230022AB6B05
:102F8C001C615A6138BD00BF100000200E33CDAB60
:102F9C0034126DE6ECDE05000346C9B2184613F890
:102FAC00012B12B18A42F9D17047002918BF0020B9
:102FBC00704710B50446FFF7EFFF18B9204600F034
:102FCC0030F8204410BD10F8012B11F8013B012AF8
:102FDC0028BF9A42F7D0D01A7047034611F8012B3C
:102FEC0003F8012B002AF9D170470000024B01466F
:102FFC00186800F003B800BF1000002070B504463C
:10300C0008460D4600F00DF8461C31462046FDF7EB
:10301C006DFC044618B132462946FFF769FF20467D
:10302C0070BD034613F8012B002AFBD1181A013886
:10303C00704710B56AB10139841810F8013B11F8CA
:10304C00012F934203D1A04201D0002BF5D1981A45
:10305C0010BD1046FCE738B503460C4669B9BDE80F
:10306C003840FFF799BF0546431C21461846FFF729
:10307C0093FF0028F7D1284638BD0025F5E700005E
:10308C002DE9F0478C468646394E60461CF8014BBC
:10309C00A55D15F00805F8D12D2C33D14FF00108A2
:1030AC009CF8004000F1020C002B5CD0102B0CD1D2
:1030BC00302C0AD19CF8000000F0DF0058284DD1CC
:1030CC0010239CF801400CF1020C002608F100477B
:1030DC00013FB7FBF3F9304603FB197AA4F1300535
:1030EC00092D18D82C46A34224DD751C07D0814528
:1030FC001DD301D1A2451ADB012600FB03401CF8AD
:10310C00014BEBE72B2C08BF9CF80040A84608BFEE
:10311C0000F1020CC8E7A4F14105192D01D8373C88
:10312C00E1E7A4F16105192D04D8573CDBE74FF01A
:10313C00FF36E4E7731C06D122233846CEF8003064
:10314C0042B9BDE8F087B8F1000F00D04042002A28
:10315C00F7D00EB10CF1FF311160F2E73024002BE7
:10316C00B3D10823B1E7302CA4D00A23ADE700BFBC
:10317C0077340A0813460A46014602480068FFF7EE
:10318C007FBF00BF100000201D000A085D000A0868
:10319C0085000A0889000A08000000005B25642CE1
:1031AC0025642C25645D007075626C6973686564B8
:1031BC003A20257300000000000000000000000011
:1031CC000000000000000000A5000A08C9000A0861
:1031DC000000000000000000D5000A0809010A08E0
:1031EC00A5190A08CB000A087368656574546573E1
:1031FC00743100776972696E670053797374656D09
:10320C0020736C65657020636F6E6669677572619B
:10321C0074696F6E20697320696E76616C69642EB7
:10322C0000626175640053657269616C00555342AC
:10323C0053657269616C31004A534F4E5374726519
:10324C00616D4C6F6748616E646C65720061707083
:10325C0000253031307520005D20002564002C20C5
:10326C000028293A2000205B00636F6465203D2014
:10327C000025690064657461696C73203D20000D44
:10328C000A006D00630066006C6E00666E007400D0
:10329C00636F64650064657461696C000000000014
:1032AC0000000000F50C0A081B0D0A08DB0C0A08CC
:1032BC008F290A080000000000000000D1110A0844
:1032CC00E9110A08A5190A08CB000A080000000039
:1032DC0000000000FD110A0811120A084D1B0A0813
:1032EC00E30C0A080000000000000000F30C0A08C0
:1032FC00290D0A08E1180A08E50C0A08000000006C
:10330C0000000000F10C0A08370D0A08F9100A0831
:10331C00530D0A0825592D256D2D25645425483A41
:10332C00254D3A2553257A0061736374696D6500E8
:10333C0000000000000000007D1E0A08831E0A0821
:10334C00C11E0A08911E0A087F1E0A080000000010
:10335C0000000000C5230A08B5230A08B7230A0891
:10336C00000000000000000081240A08E7240A087D
:10337C00BF240A08C90B0A08B1240A0883240A08C6
:10338C0093240A08E1240A08A3240A087D240A08C5
:10339C00000000000000000025260A088D260A08FF
:1033AC0069260A08C90B0A0839260A0855260A088C
:1033BC0047260A0863260A0827260A082B260A0825
:1033CC00000000000000000055270A089F270A088B
:1033DC0077270A0857270A087F270A0887270A0829
:1033EC008F270A0897270A08000000000000000039
:1033FC0067280A085D280A0853280A08D1270A08F2
:10340C00CF0C0A0847280A08C5280A08CD280A083C
:10341C003B280A0833280A0829280A081F280A0802
:10342C00DB270A08000000000000000085280A08BD
:10343C008F280A0899280A08A3280A08AD280A0820
:10344C00B9280A08C5280A08CD280A08D5280A0868
:10345C00E1280A08E9280A08F3280A08FD280A08BE
:10346C0025750075253034780000002020202020A0
:10347C002020202028282828282020202020202018
:10348C002020202020202020202020881010101008
:10349C00101010101010101010101004040404045C
:1034AC000404040404101010101010104141414188
:1034BC004141010101010101010101010101010170
:1034CC000101010101011010101010104242424282
:1034DC004242020202020202020202020202020240
:1034EC000202020202021010101020000000000064
:1034FC0000000000000000000000000000000000C0
:10350C0000000000000000000000000000000000AF
:10351C00000000000000000000000000000000009F
:10352C00000000000000000000000000000000008F
:10353C00000000000000000000000000000000007F
:10354C00000000000000000000000000000000006F
:10355C00000000000000000000000000000000005F
:10356C00000000000000000000000000CD030A086D
:10357C00750A0A0895190A08C11C0A08151D0A08BB
:10358C0071280A084D290A08152E0A0800000000A7
:04359C00000000002B
:0435A0000000000027
:1035A400F4310A08F8320A0810330A0834330A08D6
:1035B40014000020000000000000000000000000D3
:1035C40000000000000000000000000000000000F7
:1035D40000000000000000000000000000000000E7
:1035E40000000000000000000000000000000000D7
:1035F40000000000000000000000000000000000C7
:1036040000000000000000000000000000000000B6
:0436140000000000B2
:10361800FFFFFFFF00000102030405060708090A6F
:103628000B0C0D0E0F101112131415161718191A6A
:083638001B1C1D1E1F202800B1
:043640007856341272
:04000005080A001CC9
:00000001FF
