:02000002D0002C
:1040000000400D0038510D00000006000D000501B4
:084010000401DB0700000000C1
:04401800104F0D0038
:10401C0009480A49884208B505D0094A824202D0AB
:10402C00121A00F02DFF0748074A0021121A00F05F
:10403C0035FF014808BD00BFA8E60320A4500D00C1
:10404C0014E7032014E70320F0E7032070B5074EB4
:10405C00074C00F065FBA41BA4080025A54200D169
:10406C0070BD56F8043B98470135F7E780500D00BA
:10407C00A0500D0000F016B808B500F025F8BDE80A
:10408C00084000F00FBB00F0C5B900F0C3B900F058
:10409C00C9B90078B0FA80F0400970470123037069
:1040AC007047000008B5064B0121188800F066FE29
:1040BC00044B01211888BDE8084000F05FBE00BF2A
:1040CC0018E70320A8E6032038B50E4D0E4C2888BF
:1040DC00012100F064FE2088012100F060FE4FF405
:1040EC007A7000F09DFA2888002100F058FE208894
:1040FC00002100F054FEBDE838404FF47A7000F017
:10410C008FBA00BF18E70320A8E6032008B5024BBE
:10411C001B689B68019308BD6802030008B5024B3D
:10412C001B68DB68019308BD6802030008B5024BED
:10413C001B689B68019308BD2C02030008B5024B59
:10414C001B68DB68019308BD2C02030008B5024B09
:10415C001B681B69019308BD2C02030008B5024BB8
:10416C001B685B68019308BD1802030008B5024B7D
:10417C001B685B69019308BD1802030008B5024B6C
:10418C001B685B6C019308BD4802030008B5024B29
:10419C001B689B6C019308BD4802030008B5024BD9
:1041AC001B685B69019308BD6402030008B5024BF0
:1041BC001B681B68019308BD3C02030008B5024B49
:1041CC001B68DB68019308BD3C02030008B5024B79
:1041DC001B681B69019308BD3C02030008B5024B28
:1041EC001B685B69019308BD3C02030008B5024BD8
:1041FC001B689B69019308BD3C02030008B5024B88
:10420C001B68DB69019308BD3C02030008B5024B37
:10421C001B681B6A019308BD3C02030008B5024BE6
:10422C001B689B6A019308BD3C02030008B5024B56
:10423C001B681B6A019308BD2802030008B5024BDA
:10424C001B685B6A019308BD2802030008B5024B8A
:10425C001B689B6A019308BD2802030008B5024B3A
:10426C001B68DB6A019308BD2802030008B5024BEA
:10427C001B681B6B019308BD2802030008B5024B99
:10428C001B685B6B019308BD2802030008B5024B49
:10429C001B681B6C019308BD2802030008B5024B78
:1042AC001B68DB69019308BD3002030008B5024BA3
:1042BC001B681B6A019308BD3002030008B5024B52
:1042CC001B681B68019308BD4C02030008B5024B28
:1042DC001B681B69019308BD4C02030008B5024B17
:1042EC001B685B69019308BD4C02030008B5024BC7
:1042FC001B689B69019308BD4C02030008B5024B77
:10430C001B68DB69019308BD4C02030008B5024B26
:10431C001B681B6A019308BD4C02030008B5024BD5
:10432C001B685B68019308BD2002030008B5024BB3
:10433C001B685B69019308BD2002030008B5034BA1
:10434C001B68D3F88830019308BD000020020300DD
:10435C0008B5034B1B68D3F89430019308BD0000DB
:10436C002002030008B5024B1B685B68019308BD73
:10437C004002030008B5024B1B689B68019308BD03
:10438C004002030008B5024B1B68DB68019308BDB3
:10439C004002030008B5024B1B681B69019308BD62
:1043AC004002030008B5024B1B685B69019308BD12
:1043BC004002030008B5024B1B689B69019308BDC2
:1043CC004002030008B5024B1B68DB69019308BD72
:1043DC004002030008B5024B1B681B6A019308BD21
:1043EC004002030008B5024B1B681B6B019308BD10
:1043FC004002030008B5024B1B685B6B019308BDC0
:10440C004002030008B5024B1B68DB6B019308BD2F
:10441C004402030008B5024B1B681B68019308BDDE
:10442C001C02030008B5024B1B685B68019308BDB6
:10443C001C02030008B5024B1B685B6C019308BDA2
:10444C001C020300002240681146FFF7C3BF002284
:10445C0040681146FFF7CEBF40680022FFF7C2BF8D
:10446C004068002281F00101FFF7ACBF00234068D7
:10447C001A461946FFF79EBF002340681A46194694
:10448C00FFF790BF002240681146FFF783BF002260
:10449C0040681146FFF76EBF406800220221FFF70B
:1044AC0071BF002340681A46FFF75CBF024B032222
:1044BC005A60024A1A6070471CE703202C4F0D000B
:1044CC0010B5044608462170FFF7E8FE0023636030
:1044DC00204610BD10B50446006818B1FFF7A2FFC6
:1044EC000023236010BD10B50446FFF7F3FF2046F0
:1044FC0010BD000010B5094B094C022200201A60B7
:10450C00084B2060A080A071A360FFF707FF204636
:10451C00054A0649BDE8104000F09ABC30E703207C
:10452C0024E703200000FFFF14E70320F3440D00F1
:10453C0010B50446006808B1FFF728FE204610BDF0
:10454C0010B5064C002320462360FFF717FE2046CB
:10455C00034A0449BDE8104000F07ABC34E703205C
:10456C0014E703203D450D00F8B506460D468F189F
:10457C000024BD420CD0336815F8011B9B683046F3
:10458C009847031E01DB1C44F3E7002C08BF1C46B4
:10459C002046F8BD13B50446084659B1019100F008
:1045AC00A9FC23680199DB680246204602B0BDE8ED
:1045BC001040184702B010BD03689B68184730B50F
:1045CC008BB000238DF82430012A98BF0A2209AC45
:1045DC000D46B1FBF2F101FB125303F0FF03092B63
:1045EC0094BF30333733DBB2AA4204F8013DEFD924
:1045FC002146FFF7CFFF0BB030BD0000014B024A44
:10460C001A60704738E70320584F0D00024B1A68A8
:10461C00024B1A60704700BFACE603203CE7032056
:10462C000021FFF783BE10B58368044613B1032243
:10463C0001469847204610BD10B50446FFF7F3FF1E
:10464C00204610BD0348044A04490023836000F04F
:10465C00FFBB00BF40E7032014E7032045460D00D5
:10466C00014B1860704700BFB0E6032008B50B4B38
:10467C0043B100F051F903681B699847002801DD2C
:10468C00AFF30080064B43B100F010FA03681B69CE
:10469C009847002801DDAFF3008008BD0000000042
:1046AC000000000008B5FFF7E1FFFFF75FFD014BCD
:1046BC00186008BDD4E703200248034A0349121AC4
:1046CC0000F0DEBB00F4032004F40320A0500D0026
:1046DC0007B5002300931A466FF07701FFF738FEF9
:1046EC0003B05DF804FB000007B543880A2B08D023
:1046FC00502B0BD1094B1B684BB103B05DF804EB8D
:10470C001847FFF7E5FF03B05DF804FB00230093A7
:10471C001A466FF07701FFF71BFEF4E754E703200E
:10472C0038B5124C1248134D0021FFF783FE236855
:10473C00AB42114B0CBF012200221A7002D0FFF7C2
:10474C00BBFF2560FFF70AFD044600F0AFFB0B4BE7
:10475C0013B12046AFF3008000210848FFF752FE4A
:10476C00BDE8384006480021FFF7E8BD00F40320FF
:10477C006D460D001E1C279A50E703200000000018
:10478C00F5460D00704710B51821044600F065FB86
:10479C00204610BDF0B5037D062B8DB00E4600F102
:1047AC0004074FF0000412D000F1080515F8011DA4
:1047BC000A223046FFF703FFAF42044419D0002C05
:1047CC00F4D02E213046FFF7F7FE0444EEE72F23FA
:1047DC006A4639460A208DF80040FFF7DFFC684630
:1047EC0000F088FB33680246DB6869463046984720
:1047FC00044620460DB0F0BD10B5054B0446112201
:10480C0040F8043B002100F049FB204610BD00BFDE
:10481C00804F0D000346074A10B543F8042B01F1F5
:10482C00100251F8044B43F8044B9142F9D10A7829
:10483C001A7010BD804F0D0010B59DF8084044EA69
:10484C00032343EA024242EA0161042341600375F7
:10485C0010BD13B5CB7800938B784A780978FFF7A5
:10486C00EBFF02B010BD41747047704708B50021D2
:10487C00007CFFF73BFD40EAE07008BD08B5012164
:10488C00007CFFF733FD40EAE07008BD08B5007C02
:10489C00FFF724FD20EAE07008BD08B5007CFFF7A7
:1048AC0015FD20EAE07008BD13B50446007C0191AB
:1048BC00FFF714FD0028019901DC607C20B1207CFD
:1048CC00FFF71CFD20EAE07002B010BD007CFFF782
:1048DC001DBD10B51421044600F0BFFA204610BDD2
:1048EC0010B54FF47A73044608460021C4E901134D
:1048FC00044B23600123207463741146FFF7DEFC24
:10490C00204610BD944F0D0010B514220446002112
:10491C0000F0C4FA204610BD10B5104C88B003A8A6
:10492C00FFF7F2FF2178BFF35B8F11F0010111D17A
:10493C0020460191FFF7ADFB019958B103AA084835
:10494C00FFF7CEFF2046FFF7A9FB064A06490448AD
:10495C0000F07EFA024808B010BD00BF58E70320F3
:10496C005CE7032014E7032077480D000022406821
:10497C001146FFF70FBD002240681146FFF72ABD14
:10498C00002240681146FFF735BD40680022FFF752
:10499C0029BD4068002281F00101FFF713BD0023FF
:1049AC0040681A461946FFF705BD002340681A46B1
:1049BC001946FFF7F7BC002240681146FFF7DABC36
:1049CC00406800220221FFF7DDBC002340681A4634
:1049DC00FFF7C8BC084B10B5282422461846002106
:1049EC0000F05CFA054B04804FF0FF324260042269
:1049FC005A60034A1A6010BD78E7032070E7032061
:104A0C00C44F0D0070474174704708B5007CFFF728
:104A1C0005FC20EAE07008BD08B5007CFFF7D6FB6A
:104A2C0020EAE07008BD08B5007CFFF7DFFB40EA28
:104A3C00E07008BD08B5007CFFF7D0FB40EAE070E1
:104A4C0008BD007CFFF7DABB37B5457C04462DB1B9
:104A5C00207C03B0BDE83040FFF7B0BB007C019177
:104A6C00FFF7DCFB00280199F2DC284603B030BDCF
:104A7C0010B51421044600F0F0F9204610BD0000DA
:104A8C0010B54FF0000C0446084611464FF47A72EC
:104A9C00C4E901C2044A22600122207462741A46DD
:104AAC00FFF784FB204610BDF84F0D00F7B51B4CEB
:104ABC0026684EB98420FFF7E6FA054618B1842221
:104ACC00314600F0EBF92560154D2F684FB9842065
:104ADC00FFF7D9FA064618B18422394600F0DEF900
:104AEC002E60104E3178BFF35B8F11F0010112D1A3
:104AFC0030460191FFF7CDFA019960B122682B681D
:104B0C000948FFF7BDFF3046FFF7C8FA074A0849C6
:104B1C00054800F09DF9044803B0F0BDA4E703205C
:104B2C00A8E70320A0E70320ACE7032014E7032049
:104B3C00114A0D007047F8B5064615460C468F18FD
:104B4C00BC4206D0336814F8011B9B68304698476A
:104B5C00F6E72846F8BD007C0022FFF767BB007C17
:104B6C000021FFF76BBB007C0021FFF76FBB007CC3
:104B7C000021FFF773BB007C0021FFF777BB10B55A
:104B8C001421044600F069F9204610BD10B54FF40D
:104B9C007A73044608460021C4E90113034B2360D1
:104BAC0020741146FFF772FB204610BD28500D00F3
:104BBC00002340681A46FFF7D5BB4068002202214B
:104BCC00FFF7E0BB002240681146FFF7D3BB002281
:104BDC0040681146FFF7DEBB002340681A461946B1
:104BEC00FFF7E0BB002340681A461946FFF7E2BB0B
:104BFC004068002281F00101FFF7E4BB406800220D
:104C0C00FFF7F0BB002240681146FFF7F3BB002210
:104C1C0040681146FFF7DEBB2DE9F043002495B048
:104C2C0016460D460746FFF7E7FD214618220EA84B
:104C3C00009400F033F94023CDE90C3421466B4647
:104C4C000CAA3046FFF76AFA0446002846D1024601
:104C5C0001216868FFF79EFB0221804622466868A6
:104C6C00FFF798FB009E81462146002E36D0002986
:104C7C0034D17368022B03D00A2B0BD0F669F4E7FE
:104C8C00B8F1000F04D0716938460431FFF7E1FD2B
:104C9C004146F3E7B9F1000F01D14946EEE77469DB
:104CAC00102201A800F0FAF806238DF8143001AD9B
:104CBC0004F108031834186859682A4603C20833EB
:104CCC00A3421546F7D101A906A807ADFFF7A2FD2F
:104CDC000FCD3C1D0FC42B682370DEE70098FFF747
:104CEC0015FA384615B0BDE8F0830000024B034AB4
:104CFC001A6000225A607047C0E7032050500D0024
:104D0C00232813B502D9002002B010BDA0F10B036B
:104D1C00022B1AD8174C2178BFF35B8F11F00101CD
:104D2C000BD120460191FFF7B4F9019928B1124833
:104D3C00FFF7C6FB2046FFF7B1F90F4B1878FFF7CA
:104D4C00B5FA0028DFD10120DEE7012809D800F0F0
:104D5C0057F80021007CFFF791FA80F00100C0B2F7
:104D6C00D2E709380128EED8FFF7A0FE007CFFF748
:104D7C004DFAF2E7C8E70320CCE70320232838B527
:104D8C0004460D460AD8FF2908D0FFF7B9FF28B111
:104D9C0029462046BDE83840FFF7C8B938BD38B5BC
:104DAC0004460D46FFF7CAF9FF2810D0062804D890
:104DBC004D2323FA00F0C30709D42046FFF7A0FFC8
:104DCC0028B129462046BDE83840FFF7BFB938BDA9
:104DDC0038B50023202543801423044603808560C6
:104DEC0005610649284600F03AF8044960602846F7
:104DFC0000F035F8E060204638BD00BF7C500D0057
:104E0C0030B50F4D2978BFF35B8F11F0010487B0DB
:104E1C0013D12846FFF73DF978B101A8FFF7D8FF69
:104E2C0001AA21460748FFF7B1FE2846FFF736F9DD
:104E3C00054A0649034800F00BF8024807B030BD9C
:104E4C00D8E70320DCE7032014E70320414B0D00D7
:104E5C000B460146184600F005B8FFF718B9FFF7E6
:104E6C0014B9000010B5054C13462CB10A46014686
:104E7C000220AFF3008010BD2046FCE700000000CC
:104E8C000A44914200F1FF3300D1704710B511F87C
:104E9C00014B03F8014F9142F9D110BD0244034676
:104EAC00934200D1704703F8011BF9E738B50D4B5D
:104EBC001D68AB6B04467BB91820FFF7ABFA0A4AA6
:104ECC000A4BA863C0E90023094B83600B23838141
:104EDC0001220023C0E90423AB6B00221C615A6140
:104EEC0038BD00BFB0E603200E33CDAB34126DE6F7
:104EFC00ECDE0500034613F8012B002AFBD1181A2F
:104F0C00013870471D400D0059400D0081400D00C7
:104F1C0085400D00000000000000000000000000B3
:104F2C00AF440D00A5440D009B440D0091440D00B1
:104F3C0085440D0079440D006D440D0065440D0051
:104F4C005B440D0051440D00254C0D006170700048
:104F5C0025592D256D2D25645425483A254D3A2586
:104F6C0053257A0061736374696D6500000000005D
:104F7C0000000000A1470D0091470D0093470D0064
:104F8C00000000000000000077480D00DF480D0015
:104F9C00B5480D0075450D00A7480D0079480D006A
:104FAC0089480D00D9480D0099480D0073480D0033
:104FBC000000000000000000D7490D00CD490D0095
:104FCC00C3490D0079490D00B7490D00AB490D00DF
:104FDC009F490D0097490D008D490D0083490D0027
:104FEC00254C0D000000000000000000114A0D00CF
:104FFC007D4A0D00554A0D0075450D00254A0D00E2
:10500C00414A0D00334A0D004F4A0D00134A0D0062
:10501C00174A0D000000000000000000414B0D007D
:10502C008B4B0D00634B0D00434B0D006B4B0D0078
:10503C00734B0D007B4B0D00834B0D0000000000EB
:10504C0000000000BD4B0D00C74B0D00D14B0D00F7
:10505C00DB4B0D00E54B0D00F14B0D00FD4B0D0036
:10506C00094C0D00114C0D001B4C0D00254C0D0076
:10507C0000000000B9440D0001450D004D450D0028
:10508C0009460D0019460D0051460D00E1490D0071
:04509C00F94C0D00BE
:0450A000000000000C
:1050A40007000000704F0D00B4E60320000000006C
:1050B40000000000000000000000000000000000EC
:1050C40000000000000000000000000000000000DC
:1050D40000000000000000000000000000000000CC
:1050E40000000000000000000000000000000000BC
:1050F40000000000000000000000000000000000AC
:0C5104000000000000000000000000009F
:10511000FFFFFFFF00000102030405060708090A5C
:105120000B0C0D0E0F101112131415161718191A57
:085130001B1C1D1E1F2028009E
:04513800785634125F
:04000003D000401CCD
:00000001FF
