:02000004080AE8
:1000000000000A0864100A08000006000600050146
:080010000402DB070000000000
:040018005C0E0A0868
:10001C0009480A4908B5884205D0094A824202D0EB
:10002C00121A00F0D3FE0748074A0021121A00F0FA
:10003C00DBFE064808BD00BF00000020D40F0A08F4
:10004C0068000020680000204805002048050020BA
:10005C0070B500F00BFB0025054E064CA41BA40844
:10006C00A54200D170BD56F8043B98470135F7E71F
:10007C00AC0F0A08C80F0A0800F013B808B500F056
:10008C0019F8BDE8084000F0B3BA00F0A5B900F0CB
:10009C00ABB90078B0FA80F04009704701230370C7
:1000AC00704708B500F0E2FBBDE808404FF416516C
:1000BC0000F0C2BB08B5022000F004FE084B18602B
:1000CC0050B100F0D3FB074900F000FABDE808403E
:1000DC004FF47A7000F036BA00F0C8FB0249F3E72F
:1000EC006C000020730E0A08700E0A0808B5024B4B
:1000FC001B68DB68019308BDB001060808B5024B0C
:10010C001B685B69019308BDB001060808B5024B7A
:10011C001B685B68019308BD9C01060808B5024B7F
:10012C001B685B69019308BD9C01060808B5024B6E
:10013C001B685B6C019308BDD001060808B5024B27
:10014C001B689B6C019308BDD001060808B5024BD7
:10015C001B689B69019308BDC401060808B5024BD6
:10016C001B685B6A019308BDC401060808B5024B05
:10017C001B689B6A019308BDC401060808B5024BB5
:10018C001B68DB6A019308BDC401060808B5024B65
:10019C001B681B6B019308BDC401060808B5024B14
:1001AC001B685B6B019308BDC401060808B5024BC4
:1001BC001B689B6B019308BDC401060808B5024B74
:1001CC001B681B6C019308BDC401060808B5024BE3
:1001DC001B681B6E019308BDAC01060808B5024BE9
:1001EC001B685B6E019308BDAC01060808B5024B99
:1001FC001B689B6E019308BDAC01060808B5024B49
:10020C001B68DB6E019308BDAC01060808B5024BF8
:10021C001B681B6F019308BDAC01060808B5024BA7
:10022C001B685B6F019308BDAC01060808B5034B56
:10023C001B68D3F88030019308BD0000AC010608A0
:10024C0008B5024B1B68DB69019308BDB4010608B5
:10025C0008B5024B1B681B6A019308BDB401060864
:10026C0008B5024B1B681B68019308BDD801060832
:10027C0008B5024B1B685B68019308BDD8010608E2
:10028C0008B5024B1B681B69019308BDD801060811
:10029C0008B5024B1B685B69019308BDD8010608C1
:1002AC0008B5024B1B689B69019308BDD801060871
:1002BC0008B5024B1B68DB69019308BDD801060821
:1002CC0008B5024B1B681B6A019308BDD8010608D0
:1002DC0008B5024B1B689B6C019308BDC001060856
:1002EC0008B5024B1B685B68019308BDA4010608A6
:1002FC0008B5024B1B685B69019308BDA401060895
:10030C0008B5034B1B68D3F89030019308BD00006F
:10031C00A401060808B5034B1B68D3F89C30019365
:10032C0008BD0000A401060808B5024B1B685B68F9
:10033C00019308BDC801060808B5024B1B689B68F1
:10034C00019308BDC801060808B5024B1B68DB68A1
:10035C00019308BDC801060808B5024B1B681B6950
:10036C00019308BDC801060808B5024B1B685B6900
:10037C00019308BDC801060808B5024B1B689B69B0
:10038C00019308BDC801060808B5024B1B68DB6960
:10039C00019308BDC801060808B5024B1B681B6A0F
:1003AC00019308BDC801060808B5024B1B681B6BFE
:1003BC00019308BDC801060808B5024B1B685B6BAE
:1003CC00019308BDC801060808B5024B1B68DB6B1E
:1003DC00019308BDCC01060808B5024B1B681B68CD
:1003EC00019308BDA001060808B5024B1B685B68A9
:1003FC00019308BDA001060808B5024B1B685B6C95
:10040C00019308BDA001060870B5002604460D46F0
:10041C0040F8086FFFF78AFE28462570FFF710FF9B
:10042C002046666070BD10B50446006818B1FFF731
:10043C00DBFF0023236010BD10B50446FFF7F3FF6C
:10044C00204610BD0222002010B5084B084C1A6043
:10045C00084B2060A080A071A360FFF741FF2046ED
:10046C00BDE81040044A054900F098BC7C0000200F
:10047C00700000200000FFFF6800002045040A08FF
:10048C00F8B506460D4600248F18BD420CD03368D3
:10049C0030469B6815F8011B9847031E01DB1C4472
:1004AC00F3E7002C08BF1C462046F8BD70B5054686
:1004BC000C46084649B100F0C3FC2B6802462146A5
:1004CC002846BDE87040DB68184770BD08B5FFF7DB
:1004DC00EDFF08BD03689B6818470023012A98BFED
:1004EC000A2230B58BB00C468DF8243009A925466C
:1004FC00B4FBF2F404FB1253DBB2092B94BF303380
:10050C003733DBB2AA4201F8013DF0D9FFF7CEFF39
:10051C000BB030BD002340681A461946FFF724BFC4
:10052C00014B024A1A60704780000020830E0A08B3
:10053C00024B1A68024B1A60704700BF0000002083
:10054C00840000200021FFF7D3BE10B58368044659
:10055C0013B1032201469847204610BD10B504463E
:10056C00FFF7F3FF204610BD00230348034A04495C
:10057C00836000F013BC00BF8800002068000020DE
:10058C0069050A08014B1860704700BF0400002081
:10059C0008B5134B43B100F069F903681B69984720
:1005AC00002801DDAFF300800E4B43B100F016FACA
:1005BC0003681B699847002801DDAFF300800A4BE4
:1005CC000BB1AFF30080094B43B100F08DF9036818
:1005DC001B699847002801DDAFF3008008BD00BF00
:1005EC0000000000000000000000000000000000FF
:1005FC0008B5FFF7CDFFFFF791FD014B186008BD63
:10060C00140500200248034A0349121A00F0DEBB0D
:10061C000040024004400240D00F0A08002307B5F6
:10062C001A466FF077010093FFF774FE03B05DF884
:10063C0004FB000007B543880A2B08D0502B0BD1C4
:10064C00094B1B684BB103B05DF804EB1847FFF77F
:10065C00E5FF03B05DF804FB00231A466FF0770149
:10066C000093FFF757FEF4E79C00002038B5124CBE
:10067C0000211248FFF7C0FE114D2368AB420CBF9E
:10068C00012200220F4B1A7002D0FFF7BBFF25602E
:10069C00FFF73CFD044600F0AFFB0B4B13B12046BB
:1006AC00AFF3008000210848FFF78EFEBDE838400C
:1006BC0000210648FFF724BE0040024091050A08BD
:1006CC001E1C279A980000200000000041060A0812
:1006DC00704710B50446182100F065FB204610BD8C
:1006EC00F8B50E46002400F10807051D17F8011D8A
:1006FC000A223046FFF7F1FEAF42044401D12046F6
:10070C00F8BD002CF2D02E213046FFF7E3FE044456
:10071C00ECE7000010B50446044B1122002140F810
:10072C00043B00F061FB204610BD00BFAC0E0A0874
:10073C000346074A10B543F8042B01F1100251F897
:10074C00044B914243F8044BF9D10A781A7010BD4E
:10075C00AC0E0A08024AC0E9002104220275704757
:10076C00AC0E0A0810B59DF8084044EA0324042393
:10077C0044EA024444EA01644460037510BD00007D
:10078C0037B5044D05609DF818500095FFF7EAFF4A
:10079C0003B030BDAC0E0A0841747047704708B501
:1007AC000021007CFFF77CFD40EAE07008BD08B535
:1007BC000121007CFFF774FD40EAE07008BD08B52C
:1007CC00007CFFF765FD20EAE07008BD08B5007CF1
:1007DC00FFF756FD20EAE07008BD38B50446007CF2
:1007EC000D46FFF755FD002801DC607C28B1294639
:1007FC00207CFFF75DFD20EAE07038BD007CFFF740
:10080C005FBD10B50446142100F0CDFA204610BD92
:10081C0010B54FF47A73044608460021C4E901135D
:10082C00044B20742360012311466374FFF718FDF9
:10083C00204610BDC00E0A080022007CFFF718BD30
:10084C0010B504461422002100F0CEFA054B2046C8
:10085C006360054BE36040F2011323818123238203
:10086C0010BD00BFD0000020D101002030B50F4DCD
:10087C0087B001A8FFF7E4FF2978BFF35B8F11F075
:10088C00010410D12846FFF704FC60B1214601AAEF
:10089C000748FFF7BDFF2846FFF700FC054A06494D
:1008AC00034800F07BFA024807B030BDA0000020DE
:1008BC00A800002068000020A9070A0810B504460B
:1008CC001422002100F090FA054B20466360054B82
:1008DC00E36040F2011323818123238210BD00BF0A
:1008EC00520200205303002010B50F4C86B001A813
:1008FC00FFF7E4FF2378BFF35B8FDB0710D42046B0
:10090C00FFF7C7FB60B1012101AA0848FFF780FF80
:10091C002046FFF7C3FB064A0649044800F03EFA9E
:10092C00024806B010BD00BFA4000020BC0000208F
:10093C0068000020A9070A0870474174704708B581
:10094C00007CFFF73BFC20EAE07008BD08B5007C9A
:10095C00FFF70CFC20EAE07008BD08B5007CFFF73F
:10096C0015FC40EAE07008BD08B5007CFFF706FCFA
:10097C0040EAE07008BD007CFFF710BC70B5467C07
:10098C0004460D462EB12946207CBDE87040FFF789
:10099C00E5BB007CFFF712FC0028F4DC304670BD90
:1009AC0010B50446142100F0FEF9204610BD0000DD
:1009BC004FF0000C10B50446084611464FF47A72FD
:1009CC00C4E901C2044A20742260012262741A46EE
:1009DC00FFF7BCFB204610BDF00E0A0838B50D4DD4
:1009EC002978BFF35B8F11F0010411D12846FFF772
:1009FC0050FB68B12146084A084B0948FFF7D8FF5D
:100A0C002846FFF74BFB074A0749054800F0C6F993
:100A1C00034838BDD4030020D80300205C04002018
:100A2C00E00400206800002045090A087047F8B56A
:100A3C00064615460C468F18BC4206D03368304625
:100A4C009B6814F8011B9847F6E72846F8BD00226E
:100A5C00007CFFF7BBBB0021007CFFF7BFBB002174
:100A6C00007CFFF7C3BB0021007CFFF7C7BB002154
:100A7C00007CFFF7CBBB10B50446142100F093F9B2
:100A8C00204610BD10B54FF47A7304460846002179
:100A9C00C4E90113034B114623602074FFF7C6FB16
:100AAC00204610BD200F0A08002240681146FFF7AF
:100ABC0053BCF0B5154689B011220E4604460021F0
:100ACC0003A800F091F9284600F0BAF9002781B28A
:100ADC0073682846009703AAFFF7FAFB30B1394632
:100AEC002046FFF737FE204609B0F0BD204603A98B
:100AFC00FFF71EFEF7E7002240681146FFF74CBCDB
:100B0C00002240681146FFF757BC00224068FFF7EF
:100B1C004BBC0022406881F00101FFF735BC00237B
:100B2C0040681A461946FFF727BC00224068114658
:100B3C00FFF702BC002202214068FFF705BC00232E
:100B4C0040681A46FFF7F0BB0422024B5A60024A77
:100B5C001A607047F4040020480F0A08002340680C
:100B6C001A46FFF7E1BB002202214068FFF7ECBBFD
:100B7C00002240681146FFF7DFBB00224068114697
:100B8C00FFF7EABB002340681A461946FFF7ECBB97
:100B9C00002340681A461946FFF7EEBB0022406856
:100BAC0081F00101FFF7F0BB00224068FFF7FCBBAE
:100BBC00002240681146FFF7FFBB00224068114637
:100BCC00FFF7EABB70B515468EB0044608A8FFF7D0
:100BDC00A1FD1122002103A800F006F900262846E9
:100BEC0000F02EF90A4B009681B25B68284603AAE6
:100BFC00FFF76EFB30B131462046FFF7ABFD2046C8
:100C0C000EB070BD204603A9FFF792FDF7E700BFB9
:100C1C00F4040020024B034A1A6000225A60704709
:100C2C00FC0400207C0F0A0810B50446806808B14B
:100C3C00FFF784FA204610BD172870B5044601D979
:100C4C00002070BDA0F10D03022B0BD9012826D872
:100C5C0000F07CF80021007CFFF7E0FA80F0010046
:100C6C00C0B2EEE7134E3178BFF35B8F11F0010584
:100C7C000FD13046FFF70DFA58B129460E48FFF751
:100C8C00C3FB3046FFF70AFA0C4A0D490A4800F03C
:100C9C0085F8094B1878FFF7DBFA0028D0D1123C05
:100CAC00012C05D8FFF79AFE007CFFF77FFAD5E7F9
:100CBC000120C6E70405002008050020680000207C
:100CCC00350C0A0810B50446FFF710FA031FDBB207
:100CDC00012B08D92046FFF7AFFF20B12046BDE815
:100CEC001040FFF70BBA002010BD0000002313B515
:100CFC00074C1A46194620460093FFF741FD204643
:100D0C00044A054902B0BDE8104000F047B800BFE6
:100D1C001805002068000020DD060A08002370B5C5
:100D2C00202543801423084E0446038031468560F9
:100D3C000561284600F039F831466060284600F01D
:100D4C0034F8E060204670BDA80F0A0830B50F4D8E
:100D5C0087B02978BFF35B8F11F0010413D12846BB
:100D6C00FFF797F978B101A8FFF7D8FF214601AA40
:100D7C000748FFF787FE2846FFF790F9054A064912
:100D8C00034800F00BF8024807B030BD30050020D6
:100D9C003405002068000020390A0A080B46014679
:100DAC00184600F005B8FFF772B9FFF76EB90000EE
:100DBC0010B504460448134620B10A4602202146C9
:100DCC00AFF3008010BD00BF000000000A44914248
:100DDC0000F1FF3300D1704710B511F8014B91426F
:100DEC0003F8014FF9D110BD03460244934200D1E0
:100DFC00704703F8011BF9E738B50D4B04461D6825
:100E0C00AB6B7BB91820FFF7E7FA0A4A0A4BA863C9
:100E1C00C0E90023094B012283600B23838100234B
:100E2C00C0E904230022AB6B1C615A6138BD00BFC2
:100E3C00040000200E33CDAB34126DE6ECDE050061
:100E4C00034613F8012B002AFBD1181A01387047FE
:100E5C001D000A085D000A0885000A0889000A08B6
:100E6C00000000004E6F204D6F74696F6E2044655A
:100E7C00746563746564006170700025592D256D6F
:100E8C002D25645425483A254D3A2553257A006181
:100E9C00736374696D6500000000000000000000C1
:100EAC00ED060A08DD060A08DF060A080000000045
:100EBC0000000000A9070A080F080A08E7070A083B
:100ECC008D040A08D9070A08AB070A08BB070A08E9
:100EDC0009080A08CB070A08A5070A080000000041
:100EEC000000000045090A08AD090A0889090A082A
:100EFC008D040A0859090A0875090A0867090A08BD
:100F0C0083090A0847090A084B090A08000000006F
:100F1C0000000000390A0A08830A0A085B0A0A085A
:100F2C003B0A0A08630A0A086B0A0A08730A0A08C9
:100F3C007B0A0A0800000000000000004B0B0A08A6
:100F4C00410B0A08370B0A08B50A0A0821050A08DA
:100F5C002B0B0A081F0B0A08170B0A080D0B0A08A3
:100F6C00030B0A08BF0A0A0800000000000000007A
:100F7C00690B0A08730B0A087D0B0A08870B0A0811
:100F8C00910B0A089D0B0A08A90B0A08B50B0A0855
:100F9C00BD0B0A08C70B0A08D10B0A080000000099
:100FAC0051040A082D050A083D050A0875050A08AA
:100FBC00550B0A08210C0A08F90C0A08000000005D
:040FCC000000000021
:040FD000000000001D
:100FD4009B0E0A080800002000000000000000002A
:100FE40000000000000000000000000000000000FD
:100FF40000000000000000000000000000000000ED
:1010040000000000000000000000000000000000DC
:1010140000000000000000000000000000000000CC
:1010240000000000000000000000000000000000BC
:081034000000000000000000B4
:10103C00FFFFFFFF00000102030405060708090A71
:10104C000B0C0D0E0F101112131415161718191A6C
:08105C001B1C1D1E1F202800B3
:041064007856341274
:04000005080A001CC9
:00000001FF
