:02000004080AE8
:1000000000000A08BC370A080000060006000501C7
:080010000402350800000000A5
:0400180000330A089F
:10001C0009480A4908B5884205D0094A824202D0EB
:10002C00121A03F01BF80748074A0021121A03F0B2
:10003C003DF8064808BD00BF0000002014370A0830
:10004C008000002080000020C8050020C80500208A
:10005C0070B501F077FF0025054E064CA41BA408D3
:10006C00A54200D170BD56F8043B98470135F7E71F
:10007C00E4360A0804370A0800F0AEB808B500F0F8
:10008C002BF9BDE8084001F01FBF00F09BBC00F04D
:10009C0099BC00F09FBC000000210C2008B5024A5E
:1000AC0000F0AAFBFEE700BFE1050A080078B0FAF1
:1000BC0080F0400970470123037070477047006A55
:1000CC000368DB6818470000024A136801331360A9
:1000DC00704700BF8C000020024A13680133136084
:1000EC00704700BF88000020024A13680133136078
:1000FC00704700BF8400002010B50446094B036014
:10010C0000F0D2FF214601F001FA02F0BBFA02F036
:10011C009FFA2046044B40F8043B01F0E5F82046DA
:10012C0010BD00BF50330A0838330A0810B5044616
:10013C00FFF7E2FF2046242102F079FF204610BD94
:10014C00F8B5037D05460F4616468BB10368DB6890
:10015C0083B19A88012A06D09B68F9E79B684BB15A
:10016C009A88012AFAD12BB19A89BA42F6D19E7398
:10017C002846F8BD10200A4902F05BFF044668B11E
:10018C001022002102F092FF064BA781236001236D
:10019C00A3802B69A673A3602C61E9E72875E7E7B8
:1001AC00E1350A08100003000EB410B500230168F5
:1001BC0020208DB00FAA52F8044BCDE90403CDE9F1
:1001CC00004203921E2004AA00F026FB0DB0BDE8ED
:1001DC00104003B070470000F7B50024164F174EBF
:1001EC003888174D002102F0B3FE3088002102F050
:1001FC00AFFE2888002102F0ABFE00210B2002F09C
:10020C00A7FE4FF0FF3301220E493888009402F00C
:10021C00A1FA4FF0FF3301220B493088009402F011
:10022C0099FA4FF0FF33012208492888009402F014
:10023C0091FA03B0F0BD00BF0800002004000020BC
:10024C0000000020D5000A08E5000A08F5000A089D
:10025C0010B5194B194A1A491B6812680968A4B0E1
:10026C00CDE9002104A88021164A00F0C3FB164BEF
:10027C0016491B7804AA8DF8003009683C2302A8A3
:10028C0001F0B8FF039C7CB16368013B63605BB910
:10029C00236820469B689847A368013BA3601BB961
:1002AC0023682046DB68984709490A4804AAFFF7E7
:1002BC007BFF24B010BD00BF8C0000208800002004
:1002CC008400002014330A08900000200C00002049
:1002DC001F330A08D800002030B58BB005AB04934F
:1002EC000023CDE90733ADF819308DF81B30354BB1
:1002FC000124059302238DF81830334B22461988BC
:10030C0004A88DF82440FFF71BFF304B22461988B8
:10031C00FFF716FF2E4B22461988FFF711FF037DBE
:10032C000546DBB10368DB6823B19A88042A44D004
:10033C009B68F9E71020274902F07BFE0446002851
:10034C0039D01022002102F0B1FE1E4B2360042391
:10035C00A3802B69A360204BE3602C6101A804A946
:10036C0000F0BAFB019808B100F034FB00F00AFB76
:10037C0040B1FFF76DFF0023184A1360184A136051
:10038C00184A136000F02EF9174C2268801A174A8D
:10039C00904208D900F0F6FA10B1002000F002FBF0
:1003AC0000F020F92060089850B184680C2102F00C
:1003BC003EFE2046F8E72875D0E7074ADA60CDE71D
:1003CC000BB030BD1000030008000020040000201A
:1003DC0000000020E1350A0880EE36008C00002079
:1003EC00880000208400002094000020005C26057A
:1003FC0070B51426D0E90053044606FB0356AE42F2
:10040C0004D0284600F0EAFB1435F8E7206800F029
:10041C00E1FA204670BD8842F8B504460D461646F2
:10042C0016D9904215D2A2F11406751AA1F114072F
:10043C002C44B7421CD02CB13146204600F035FC80
:10044C00337C2374304600F0C9FB143E143CF0E7B7
:10045C000ED0B5420CD02CB12946204600F025FC1C
:10046C002B7C2374284600F0B9FB14351434F0E7C8
:10047C00F8BD00232DE9F041C0E9003383604F68DB
:10048C0004469F420E4624DD4FF0140808FB07F08B
:10049C0000F098FA0546E0B1D4E9001208FB02120C
:1004AC00FFF7B9FF206800F095FA2560A760D6E940
:1004BC00007308FB0378B84509D03946284600F08C
:1004CC000EFC3B7C143505F8043C1437F3E77368D9
:1004DC0063602046BDE8F08170B50124254B8CB0DB
:1004EC001C7000F07FF8244B00211860204600F0AF
:1004FC00B3F90023CDE90033029302F0C3F81F4C8B
:10050C0005462646694603A8FFF7B3FF03A906A8CC
:10051C00FFF7AFFF1A4B06A946F8043B09A8FFF7F3
:10052C00A8FF09AA1E21304601F042F909A8FFF7DD
:10053C005FFF06A8FFF75CFF124B2562236003A840
:10054C00FFF756FF104B236002F09CF84FF4165146
:10055C0002F07AF800F0A8FD214601F0BCF86846DC
:10056C00FFF746FF2046094A094902F05BFD0CB033
:10057C0070BD00BF90000020940000209800002067
:10058C0038330A0834340A0850330A088000002033
:10059C0005010A0808B5024B1B689B68019308BD4E
:1005AC00B001060808B5024B1B689B69019308BD96
:1005BC00B001060808B5024B1B68DB69019308BD46
:1005CC00B001060808B5024B1B685B68019308BDB7
:1005DC009C01060808B5024B1B68DB68019308BD3B
:1005EC009C01060808B5024B1B685B69019308BDAA
:1005FC009C01060808B5024B1B685B6C019308BD97
:10060C00D001060808B5024B1B689B6C019308BD12
:10061C00D001060808B5024B1B68DB6C019308BDC2
:10062C00D001060808B5024B1B685B6D019308BD31
:10063C00D001060808B5024B1B689B69019308BDE5
:10064C00C401060808B5024B1B681B6A019308BD60
:10065C00C401060808B5024B1B685B6A019308BD10
:10066C00C401060808B5024B1B689B6A019308BDC0
:10067C00C401060808B5024B1B68DB6A019308BD70
:10068C00C401060808B5024B1B681B6B019308BD1F
:10069C00C401060808B5024B1B685B6B019308BDCF
:1006AC00C401060808B5024B1B689B6B019308BD7F
:1006BC00C401060808B5024B1B681B6C019308BDEE
:1006CC00C401060808B5024B1B68DB6C019308BD1E
:1006DC00C401060808B5024B1B681B6E019308BDCC
:1006EC00AC01060808B5024B1B685B6E019308BD94
:1006FC00AC01060808B5024B1B689B6E019308BD44
:10070C00AC01060808B5024B1B68DB6E019308BDF3
:10071C00AC01060808B5024B1B681B6F019308BDA2
:10072C00AC01060808B5024B1B685B6F019308BD52
:10073C00AC01060808B5034B1B68D3F88030019355
:10074C0008BD0000AC01060808B5024B1B68DB694C
:10075C00019308BDB401060808B5024B1B681B6A5F
:10076C00019308BDB401060808B5024B1B681B6851
:10077C00019308BDD801060808B5024B1B685B68DD
:10078C00019308BDD801060808B5024B1B689B688D
:10079C00019308BDD801060808B5024B1B681B69FC
:1007AC00019308BDD801060808B5024B1B685B69AC
:1007BC00019308BDD801060808B5024B1B689B695C
:1007CC00019308BDD801060808B5024B1B68DB690C
:1007DC00019308BDD801060808B5024B1B681B6ABB
:1007EC00019308BDD801060808B5024B1B689B6C29
:1007FC00019308BDC001060808B5024B1B685B6B72
:10080C00019308BDA801020808B5024B1B681B6DBB
:10081C00019308BDA801020808B5024B1B685B6D6B
:10082C00019308BDA801020808B5024B1B68DB6EDA
:10083C00019308BDA801020808B5024B1B681B6F89
:10084C00019308BDA801020808B5024B1B685B6840
:10085C00019308BDA401060808B5024B1B68DB6AAE
:10086C00019308BDA401060808B5024B1B68DB6C9C
:10087C00019308BDA401060808B5024B1B685B6D0B
:10088C00019308BDA401060808B5034B1B68D3F8F7
:10089C009030019308BD0000A401060808B5034B75
:1008AC001B68D3F89C30019308BD0000A401060816
:1008BC0008B5034B1B68D3F8B030019308BD00009A
:1008CC00A401060808B5024B1B685B68019308BDC0
:1008DC00C801060808B5024B1B689B68019308BD4C
:1008EC00C801060808B5024B1B68DB68019308BDFC
:1008FC00C801060808B5024B1B681B69019308BDAB
:10090C00C801060808B5024B1B685B69019308BD5A
:10091C00C801060808B5024B1B689B69019308BD0A
:10092C00C801060808B5024B1B68DB69019308BDBA
:10093C00C801060808B5024B1B681B6A019308BD69
:10094C00C801060808B5024B1B681B6B019308BD58
:10095C00C801060808B5024B1B685B6B019308BD08
:10096C00C801060808B5024B1B681B6C019308BD37
:10097C00C801060808B5024B1B685B6C019308BDE7
:10098C00C801060808B5024B1B685B69019308BDDA
:10099C00CC01060808B5024B1B681B6A019308BD05
:1009AC00CC01060808B5024B1B68DB6A019308BD35
:1009BC00CC01060808B5024B1B68DB6B019308BD24
:1009CC00CC01060808B5024B1B681B68019308BDD7
:1009DC00A001060808B5024B1B685B68019308BDB3
:1009EC00A001060808B5024B1B689B68019308BD63
:1009FC00A001060808B5024B1B68DB69019308BD12
:100A0C00A001060808B5024B1B685B6A019308BD80
:100A1C00A001060808B5024B1B68DB6A019308BDF0
:100A2C00A001060808B5024B1B681B6B019308BD9F
:100A3C00A001060808B5024B1B685B6C019308BD4E
:100A4C00A001060870B5002604460D4640F8086F54
:100A5C00FFF7D0FD28462570FFF776FE204666602E
:100A6C0070BD10B50446006818B1FFF7B3FF002342
:100A7C00236010BD10B50446FFF7F3FF204610BDF0
:100A8C0038B5B1F904300D4683800B4653F8062F68
:100A9C000446C0F806209B884381FFF7E2FF2B68D1
:100AAC0013B1236000232B60204638BD38B50C46AB
:100ABC000546FFF7D6FF44B12088FFF783FF286077
:100ACC0028B12146228802F0C9FA002038BD01481D
:100ADC00FCE700BFFCFEFFFFF0B52D4D0B7D04467F
:100AEC008BB00846AF1D002B38D00B681B79002B40
:100AFC0034D00022274B02A9043004930292ADF8A3
:100B0C000C208DF80E20FFF7D3FEDDF80E3000B26E
:100B1C00C5F80630BDF81230ADF80C00A88002996B
:100B2C002846BB80FFF7C2FF02A8FFF79AFF0023FD
:100B3C002360A380A37123814FF6FF736381B5F902
:100B4C0004302046A3803B682968C4F80630BB8873
:100B5C006381FFF7ABFF20460BB0F0BD00262023CE
:100B6C00CDE902360C4B322000930C49334602AAD5
:100B7C00FFF74AFE074B02A904934FF6F2630448B1
:100B8C0002968DF80E60ADF80C30FFF779FFCBE7CD
:100B9C00BC0000200000FFFF72330A086B330A0808
:100BAC000222002010B5084B084C1A60084B20603C
:100BBC00A080A071A360FFF747FE2046BDE810405F
:100BCC00044A054902F02EBAC8000020BC000020DF
:100BDC000000FFFF80000020810A0A0810B50446BF
:100BEC000068FFF7F7FE204610BD10B504460068FC
:100BFC0008B1FFF7EFFE0023C4E90133236010BDF9
:100C0C0038B504460D4600680131FFF7EBFE10B114
:100C1C00C4E90005012038BD10B50368044623B1B2
:100C2C0043688B4201D3012010BD2046FFF7E8FF3B
:100C3C000028F9D0A368002BF5D122681370F2E7D5
:100C4C0070B50E46114604461546FFF7E5FF20B970
:100C5C002046FFF7CAFF204670BD2A463146206861
:100C6C00A56002F0FBF900212268A368D154F2E7D9
:100C7C0038B5054600680C4668B16A688B689A42BC
:100C8C0007D3096802F05FFAA368AB600023A36086
:100C9C0038BDFFF79FFE23682B6063686B60A36809
:100CAC00AB600023C4E90033F1E7002310B5044620
:100CBC00C0E9003383600373FFF7DAFF204610BDF1
:100CCC00884210B50B46044604D0096821B19A68D5
:100CDC00FFF7B6FF204610BDFFF787FFFAE70023AA
:100CEC0010B50446C0E9003383600373FFF7E8FFD7
:100CFC00204610BDF8B506460D4600248F18BD429F
:100D0C000CD0336830469B6815F8011B9847031EBE
:100D1C0001DB1C44F3E7002C08BF1C462046F8BD41
:100D2C0070B505460C46084649B102F030FA2B68FE
:100D3C00024621462846BDE87040DB68184770BD66
:100D4C0003689B68184738B50D210546FFF7F8FF77
:100D5C000A2104462846FFF7F3FF204438BD002340
:100D6C00012A98BF0A2230B58BB00C468DF824307E
:100D7C0009A92546B4FBF2F404FB1253DBB2092B90
:100D8C0094BF30333733DBB2AA4201F8013DF0D9BE
:100D9C00FFF7C6FF0BB030BD2DE9F04186B000AFB8
:100DAC0005460E46381D142114463B60FFF72AFEFB
:100DBC0013280ED82846391DFFF7B2FF04461EB182
:100DCC002846FFF7C0FF044420461837BD46BDE84F
:100DDC00F08100F1080323F00703E846ADEB030DA7
:100DEC002246411C3B686846FFF70CFE69462846C4
:100DFC00FFF796FF0446C546E1E7002340681A4614
:100E0C001946FFF77FBD80680368DB681847704799
:100E1C00084611B10B685B681847704770477047FC
:100E2C00704738B504460D4600682E2102F077F95C
:100E3C0023680246C01A286020B1137803B101322E
:100E4C002068226038BD10B504460C2102F0EFF882
:100E5C00204610BD10B50446042102F0E8F82046E7
:100E6C0010BD10B50446042102F0E1F8204610BD77
:100E7C0008B502F05EF9B0FA80F0400908BD10B573
:100E8C000C4601F0FFFB844205D101F0FBFBBDE8F1
:100E9C00104001F0DDBB01F033FC844202D101F0C3
:100EAC002FFCF4E701F0DCFC844205D101F0D8FC06
:100EBC00BDE8104001F0D1BC2CB123682046BDE840
:100ECC0010405B68184710BD38B5054608460C46FF
:100EDC0002F05DF9214602462846BDE8384001F093
:100EEC00DABF70B5044608460D4602F050F9236887
:100EFC00024629462046BDE87040DB68184707B516
:100F0C0003688DF807100122DB680DF10701984783
:100F1C0003B05DF804FB0EB403B503AB53F8042B1C
:100F2C000021006A0193FFF737FF02B05DF804EB74
:100F3C0003B070472DE9F74F4FF01408D0E9009536
:100F4C0017464C4608FB05F50093AB10174D5D4357
:100F5C00002D23DD6E1008FB06F004EB000ABAF836
:100F6C0004B03A465F4528BF5A462058019102F01A
:100F7C0016F90123019978B95F4503D1009A1370D2
:100F8C003546E5E78CBF012000200028F8D0AE1BC9
:100F9C000AF11404013EF3E7C00FF6E7A4EB0904D1
:100FAC000248A410604303B0BDE8F08FCDCCCCCC8C
:100FBC007FB50369067E019103B3F9B1002500F1F9
:100FCC000C04039503A901A8FFF72BFF0146A8B158
:100FDC000DF10B032046039A8DF80B50FFF7AAFF77
:100FEC009DF80B3053B11423246803FB0044B4F96F
:100FFC0006300834002BA8BFDEB2E3E7304604B05D
:10100C0070BD000010B50A4C2378BFF35B8FDB0773
:10101C000BD42046FFF74AF838B12046FFF74BF8BF
:10102C00044A0549054801F0FDFF044810BD00BF06
:10103C00D0000020800000202B0E0A081000002099
:10104C0010B50A4C2378BFF35B8FDB070BD420461B
:10105C00FFF72CF838B12046FFF72DF8044A054964
:10106C00054801F0DFFF044810BD00BFD40000208C
:10107C0080000020290E0A081400002038B5002535
:10108C000446C0E90055C0E904558560856140F807
:10109C00245FFFF7AFFAFFF7B5FFE061FFF7D0FF72
:1010AC0025732062204638BD10B50B4C2378BFF356
:1010BC005B8FDB070ED42046FEF7F8FF50B10748D4
:1010CC00FFF7DCFF2046FEF7F6FF054A054903480B
:1010DC0001F0A8FF014810BDCC000020DC0000206E
:1010EC0080000020A3150A080023024A0249034885
:1010FC00FFF7A2BB81140A080D140A088D130A0805
:10110C0000231A4619461846FFF796BB38B50468F3
:10111C0005467CB16368013B63605BB9236820467C
:10112C009B689847A368013BA3601BB923682046C2
:10113C00DB689847284638BD0B68036013B15A68C2
:10114C0001325A60704737B504460D6951F8043BBB
:10115C0001A80093FFF7F0FF6A462946204601F0EC
:10116C0045FD01A8FFF7D2FF204603B030BD37B5CF
:10117C0004468D6851F8043B01A80093FFF7DCFF8F
:10118C006A462946204601F0ADFD01A8FFF7BEFFD7
:10119C00204603B030BD37B50446CD6851F8043B4A
:1011AC0001A80093FFF7C8FF6A462946204601F0C4
:1011BC0075FD01A8FFF7AAFF204603B030BD000063
:1011CC0070B58AB00D46014604A8FFF7D0FF144E47
:1011DC0004A801F09FFDE8B1684604A9FFF7DBFF06
:1011EC0031460298FFF744FE044610B12C1E18BF7E
:1011FC00012401A8FFF78AFF002CE9D0684604A956
:10120C00FFF7A1FF684601F028FD286001A8FFF751
:10121C007DFFDDE705A8FFF779FF0AB070BD00BFC1
:10122C0099330A0837B50C4619492046154601F082
:10123C0080FF48B901F026FA4FF4165101F004FA78
:10124C0001F020FA03B030BD2046124901F071FFC5
:10125C0040B901F055FA4FF4165101F0F5F901F0CF
:10126C004FFAEFE720460C4901F063FF70B94FF4D9
:10127C00165301A928460193FFF7A2FF01F0F0FADB
:10128C00019901F0E7FA01F0EBFADBE70020D9E76E
:10129C009E330A08A5330A08A8330A0870B5142629
:1012AC00D0E90053044606FB0356AE4205D005F1C7
:1012BC000800FFF7F3FF1435F7E72068FFF78AFB08
:1012CC00204670BD70B50446D0E9005305EB0316FB
:1012DC00AE4204D02846FFF781FC1035F8E72068B1
:1012EC00FFF778FB204670BD10B504460C30FFF7B5
:1012FC00D5FF2046FFF7E6FF204610BD10B504468B
:10130C00034B40F8043BFFF7EFFF204610BD00BF36
:10131C0038330A0810B50446FFF7F0FF20462421A5
:10132C0001F085FE204610BD10B50446024B03604B
:10133C00FFF7E4FF204610BD4C340A0810B50446F4
:10134C00FFF7F2FF2046242101F071FE204610BD6C
:10135C000022C0E90022826010B50C680A600460AB
:10136C004C684A6044608C688A60846010BD10B51B
:10137C00044603681868FFF755F9204610BD0000B5
:10138C002DE9F04F87B003931C4B80465B68894670
:10139C00C3F3080316466BB9FFF786FE044600F14B
:1013AC002403406A0593FFF735F9237B2BB105A87D
:1013BC00FFF7DDFF07B0BDE8F08F01235FFA89F975
:1013CC002373D4E9005305EB830AAA4512D055F8D0
:1013DC00047B3146381DFFF7EBFD8145F5D3039AAD
:1013EC003B680092D3F808B04A463346414638462B
:1013FC00D847EAE700232373D9E700BF00ED00E0EC
:10140C002DE9F74F9B461A4B80465B688946C3F320
:10141C00080316466BB9FFF747FE044600F1240398
:10142C00406A0193FFF7F6F8237B2BB101A8FFF775
:10143C009EFF03B0BDE8F08F0123F6B22373D4E90D
:10144C00005305EB830A55450ED055F8047B5946DD
:10145C00381DFFF7ADFD8642F5D33B684A46414641
:10146C003846DB689847EEE700232373DEE700BFBE
:10147C0000ED00E02DE9F341164B05465B680F4685
:10148C00C3F308031BBBFFF70FFE044600F1240354
:10149C00406A0193FFF7BEF8D4E90063462406EBDB
:1014AC008308B04509D101A8FFF761FFA542B4BF7D
:1014BC000020012002B0BDE8F08156F8040B39463B
:1014CC000430FFF775FD8442A8BF0446E9E700200D
:1014DC00F0E700BF00ED00E00B4670B5044605C810
:1014EC0000EB8202824207D001461D6851F8046B62
:1014FC00AE4203D00846F5E7002070BD521A01F049
:10150C00BBFD63680120013B6360F6E71FB5044631
:10151C0000F12403406A01910393FFF77BF8204606
:10152C0001A9FFF7D9FF18B163680BB9FFF7E8FD04
:10153C0003A8FFF71CFF04B010BD182370B50446B8
:10154C00D0E9045603FB0656AE4215D0204605F1F1
:10155C001001FFF7C1FF63680BB9FFF7D1FDE0691C
:10156C0029690368DB689847696919B1206A0368BF
:10157C00DB6898471835E7E71826D4E9045306FBCF
:10158C000356AE4204D02846FFF728FB1835F8E77F
:10159C000023636170BD73B50446FFF7B1FD04F120
:1015AC002403606A0193FFF735F82046FFF7C5FF67
:1015BC0001A8FFF7DCFE606A08B1FFF723F8D4E955
:1015CC000453182606FB0356AE4204D02846FFF7F8
:1015DC0005FB1835F8E72069FFF7FCF92068FFF7E1
:1015EC00F9F9204602B070BD8842F8B506460C46A3
:1015FC00154627D9904226D20026A2F114056C1A62
:10160C00A1F114070444AF423DD0A4B12B68236070
:10161C00AB88A380B5F90630C4E902662661E38085
:10162C00AB68A360AE60E368EA68E260EB602369D4
:10163C002A6922612B6105F10800FFF72FFE143D8A
:10164C00143CE0E71FD00027AC421CD0A6B12368A5
:10165C003360A388B380B4F90630C6E902773761EA
:10166C00F380A368B360A760F368E268F260E3609C
:10167C00336922693261236104F10800FFF70EFE21
:10168C0014341436E0E7F8BDF8B5D0E901539D42A7
:10169C0004460E4617460DDB0135002D006804DDAF
:1016AC00A900FFF79FF918B9F8BDFFF793F90020CF
:1016BC002060A5602568626805EB86019200A2EBAC
:1016CC008602081D01F0D8FC45F8267063680120DD
:1016DC0001336360E8E737B5044600F12403406A40
:1016EC000D460193FEF796FFD4E9003103EB810020
:1016FC0083421A460AD012680433AA42F8D101A8D0
:10170C00FFF735FE0025284603B030BD2A4620469B
:10171C00FFF7BAFF05460028F1D06368012B01D111
:10172C00FFF7E2FC01A8FFF722FEECE78842F8B5D0
:10173C0004460D46164614D9904213D2A2F1100657
:10174C00751AA1F110072C44B74218D01CB13146C0
:10175C002046FFF7AAFA3046FFF740FA103E103C3D
:10176C00F2E70CD0B5420AD01CB129462046FFF74F
:10177C009CFA2846FFF732FA10351034F2E7F8BD20
:10178C0070B50E1E054611DD3001FFF71BF904463E
:10179C0058B1D5E9001201EB0212FFF7C7FF286818
:1017AC00FFF718F901202C60AE6070BD0024F6E73D
:1017BC002DE9F04F91460023462297B00391D9F8BA
:1017CC00041004469942C0E90033C0E90233C0E971
:1017DC000433CDE90A3302760C9323DCD9E90057A4
:1017EC00142303FB0757AF423BD029460DA8FFF744
:1017FC005CFA0DA911A80B9EFFF757FADDE90B1344
:10180C0099421BDA0A9B0B9A03EB0616314603EB43
:10181C00021206F11000FFF789FFEEB90B9B0133A2
:10182C000B9311E00AA8FFF7ABFF0028D6D10AA84A
:10183C00FFF748FD204617B0BDE8F08F01310AA82C
:10184C00FFF79EFF0028DDD111A8FFF7C7F90DA8FF
:10185C00FFF7C4F91435C6E7304611A9FFF725FA8E
:10186C00DCE700264FF0140A3746CDE90D660F96DB
:10187C00DDE90A239E4280F297803301D358089306
:10188C000BB90136F4E70AFB06F3099702930DAD89
:10189C0009A908A8FFF7C5FA83460028F1D001462C
:1018AC00099A28460DF11F038DF81F70FFF742FBB4
:1018BC009DF81F800190B8F1000F66D1BDF824305F
:1018CC00CDE91388ADF848304FF6FF73CDF844B02E
:1018DC00ADF84A30CDF85480D5E9013293421ADB89
:1018EC0003F1010BBBF1000F4ADD0AFB0BF0FFF714
:1018FC0069F80490002845D0D5E900120AFB0212C1
:10190C00FFF772FE049B28680493FFF763F8049BAF
:10191C00C5F808B02B60019BD5F800B00AFB03F3A7
:10192C006A680BEB030101F114000AFB02B204918B
:10193C000593FFF759FE0499A9B1119A059B4BF831
:10194C000320BDF848308B80BDF94A30C1E90277DD
:10195C000F61CB80139B8B60149B1397CB60159BF3
:10196C0014970B6115976B6801336B6013A8FFF725
:10197C0095FCB8F1000F08D00DA8FFF78FFC56E7C7
:10198C004346C0E74FF00108F0E7019B2D680AFBC6
:10199C000355089B1B782BB9D9F80030029A1344D5
:1019AC001B7CEB80083573E72168226062686360FA
:1019BC00A3680B920C9A0C93E368A2600D9A0D939A
:1019CC002369E2600E9A0E93636922610F9A0F935A
:1019DC00039B0A9162612376CEE700007FB5054632
:1019EC000E460446084B114645F8043B01A8FEF789
:1019FC0040FD314601AA2846FFF7DAFE01A8FEF7A2
:101A0C00F7FC204604B070BD38330A08F0B50F4619
:101A1C0087B03846254916461D460C9C01F089FBBB
:101A2C0000BBE4B129466846FFF792FC242020490C
:101A3C0001F0FFFA054670B1694603A8FEF719FDDF
:101A4C00314603AA2846FFF7C9FF03A8FEF7D0FCCE
:101A5C00184B2C622B606846FEF7CAFC2C462046BD
:101A6C0007B0F0BD3846144901F063FBE0B9002C17
:101A7C00F5D029466846FFF76BFC24200C4901F091
:101A8C00D8FA05460028E6D0694603A8FEF7F1FC13
:101A9C00314603AA2846FFF7A1FF03A8FEF7A8FCCE
:101AAC00064B2C622B60D6E70024D8E7B0330A082B
:101ABC00E1350A084C340A08B4330A0834340A08ED
:101ACC00014B024A1A607047D8000020C5330A083F
:101ADC002DE9F047089DD0F8209004460E46174695
:101AEC00984600F0CFFD81454DD02B79190704D5D0
:101AFC0020466A695449FFF70EFAB8F1000F0DD071
:101B0C005B212046FFF7FBF941462046FFF7E9F938
:101B1C00236802222046DB684C4998472B79DA0768
:101B2C0024D5D5F808802F21404601F04AFB08B196
:101B3C0000F1010841462046FFF7D3F92B799B07AA
:101B4C0008D53A212046FFF7DAF92046EA684049E1
:101B5C00FFF7E1F92A79236812F0040F20464FF0C1
:101B6C000202DB6814BF3B493B4998472B79580765
:101B7C001DD529690B461A4613F8010B60B12028B4
:101B8C0008D11946F7E7354800F075FF0028ACD0AE
:101B9C00BDE8F0872828EED12368521A2046DB686E
:101BAC009847236804222046DB682D49984700217A
:101BBC003846FEF739FE01462046FFF792F92368B6
:101BCC0002222046DB68244998471EB13146204644
:101BDC00FFF787F92B7913F0300F2CD023682149AC
:101BEC00DB680222204698472B79D9060AD5236850
:101BFC00072220461C49DB6898472046AA691B49E6
:101C0C00FFF789F92B799A0611D5DB0605D52368E0
:101C1C0002222046DB680F49984723682046144966
:101C2C000A22DB6898472046E969FFF75AF95D21DB
:101C3C002046FFF764F923682046BDE8F0470222EE
:101C4C00DB680C49184700BFC9330A08D0330A08AF
:101C5C00D3330A08D6330A08DB330A087C05002084
:101C6C00D9330A08DE330A08E1330A08E9330A08D3
:101C7C00EC330A08F7330A082DE9F04385B0D0F8A5
:101C8C00209005460F4690461E460C9C00F0FAFC30
:101C9C00814505D1494800F0EEFE002840F08A80CD
:101CAC004FF000092B6A464A01A8019203938DF864
:101CBC00089001F058F849464046FEF7B5FD8046BD
:101CCC004049012201A801F0D7F84146FFF7FCF882
:101CDC003FB13D49012201A801F0CEF83946FFF78A
:101CEC00F3F83EB13949012201A801F0C5F831469B
:101CFC00FFF7EAF82379DF070ED5A6682F213046C7
:101D0C0001F05FFA00B1461C3149012201A801F033
:101D1C00B3F83146FFF7D8F823799E0707D52D493C
:101D2C00022201A801F0A8F8E16801F029F8237952
:101D3C00580714D5266933461F4613F8012B2AB1D0
:101D4C00202A01D11E46F7E7282AF5D10222224982
:101D5C0001A801F091F83146BA1B01F09CF82379E7
:101D6C00190707D51D49012201A801F085F8616901
:101D7C0001F018F82379DA0608D5042218490DEB7E
:101D8C00020001F079F8A16900F0FAFF23799B06B3
:101D9C0007D51449062201A801F06EF8E169FFF796
:101DAC0093F801A800F0C9FF286A022203680E49C3
:101DBC00DB68984705B0BDE8F08300BF7C050020C8
:101DCC001C340A08A3330A08FA330A08FC330A083D
:101DDC00FE330A0800340A0803340A0806340A08D9
:101DEC0008340A080D340A08F7330A08024B1A683B
:101DFC00024B1A60704700BF18000020040100203D
:101E0C0010B58368044613B1032201469847204657
:101E1C0010BD10B50446FFF7F3FF204610BD13B5F7
:101E2C006C460B46024603C884E8030093E80300A3
:101E3C0082E8030094E8030083E8030002B010BDBD
:101E4C0000230348034A0449836001F0EBB800BF48
:101E5C0008010020800000201F1E0A08014B18609A
:101E6C00704700BF1C00002008B5134B43B100F0B5
:101E7C0009FC03681B699847002801DDAFF300805B
:101E8C000E4B43B100F0ECFC03681B69984700282B
:101E9C0001DDAFF300800A4B0BB1AFF30080094BAF
:101EAC0043B100F02DFC03681B699847002801DD45
:101EBC00AFF3008008BD00BF000000000000000070
:101ECC00000000000000000008B5FFF7CDFFFEF792
:101EDC0089FB014B186008BD940500200248034A99
:101EEC000349121A01F0BAB8004002400440024003
:101EFC0010370A08002307B51A466FF077010093D4
:101F0C00FEF7CCFC03B05DF804FB000007B543887A
:101F1C000A2B08D0502B0BD1094B1B684BB103B0CB
:101F2C005DF804EB1847FFF7E5FF03B05DF804FB21
:101F3C0000231A466FF077010093FEF7AFFCF4E72D
:101F4C001C01002038B5124C00211248FEF772FD1E
:101F5C00114D2368AB420CBF012200220F4B1A70AB
:101F6C0002D0FFF7BBFF2560FEF72CFB044601F007
:101F7C00A5F80B4B13B12046AFF3008000210848A5
:101F8C00FEF718FDBDE8384000210648FEF77CBC82
:101F9C0000400240691E0A081E1C279A18010020E6
:101FAC0000000000191F0A0870470020704710B588
:101FBC000446102101F03BF8204610BD08B5FFF790
:101FCC00F6FF08BD002230B54FF69C740260848089
:101FDC008D888C800C68858004600A6030BD10B5DB
:101FEC0004460068FEF7F6FC204610BD38B5C46800
:101FFC00F4B12378022B03D104F10C00FFF7EFFFAF
:10200C00656835B12846FFF7FBFE1021284601F024
:10201C000EF8A56835B12846FFF7F2FE10212846C8
:10202C0001F005F82046BDE83840142100F0FFBF50
:10203C0038BD73B50E46044656F8043B0D4601A850
:10204C0031460093FFF778F8009B019A2360002338
:10205C00626001A801930093FFF758F83046FFF730
:10206C0055F82846082100F0E2FF204602B070BD6A
:10207C00826810B50AB900F0E0FFC368BDE81040F3
:10208C00184708B5006800F11001FFF7F1FF08BD13
:10209C00826810B50AB900F0D0FFC368BDE81040E3
:1020AC00184708B5006800F11001FFF7F1FF08BDF3
:1020BC0038B500230446036010200D46FDF7E5FFFC
:1020CC0028B10123C0E90133024BC56003602060D5
:1020DC00204638BDB0340A0838B5002383608B68BD
:1020EC0004460D462BB102229847EB68E360AB68BF
:1020FC00A360204638BD0000F0B589B0046868467E
:10210C00FFF760FF4FF00203D4E84F2F002A03D1F2
:10211C00C4E8413F0029F7D125D104F10C056946EB
:10212C002846FFF74FFF0123BFF35B8F637000203E
:10213C00BFF35B8F04F1080353E8006F43E8000220
:10214C00002AF9D1BFF35B8F6EB1FEF78DFB78B12E
:10215C0029463046FFF78CFF3046FFF751FE102121
:10216C00304600F064FF6846FFF739FF09B0F0BD58
:10217C00314602A8FFF7B0FFE068B4F9105008B17F
:10218C0000F0EAFF06901020ADF81C50FDF77DFF23
:10219C000546E8B1002787601820FDF776FF044656
:1021AC0088B10146876002A8FFF739FE049BA2683C
:1021BC00A360059B0492E26806A9E36004F1100099
:1021CC000592FFF7FFFE084B2C60EB60074BAB60F2
:1021DC0006A8FFF704FF02A8FFF712FE002229460B
:1021EC000348FEF749FBB7E78F200A0825230A08A6
:1021FC00BD280A082DE9F0478AB005460C4617465B
:10220C0098469DF84890FEF7BDFB07AE824638BB5A
:10221C004FF62E73059005A93046ADF81830FFF730
:10222C00D1FE1420FDF731FF044648B102230370A0
:10223C000123C0E901AA437031460C30FFF7C2FEFE
:10224C002846214640F8044BFFF732FF3046FFF793
:10225C00C6FE05A8FFF7C3FE28460AB0BDE8F08706
:10226C000C234FF0000A1420CDE908AA0793FDF7C0
:10227C000CFF014628B1C0E901AA80F800A080F843
:10228C0001A004A80391FFF713FF224B0820089329
:10229C00FDF7FBFE824628B1039B04A940F8043BE2
:1022AC00FEF74AFF42463946204600965FFA89F30C
:1022BC00CDF824A0FEF76EFBB8B9039B5B7803F056
:1022CC00FF0293B94FF69C7305A903A80592ADF8CC
:1022DC001830FFF711FF05A8FFF781FE05A8099933
:1022EC00FFF7A7FE06A8FEF711FF039B04A906A89B
:1022FC000593FEF721FF059B069A2B6000236A606D
:10230C0006A806930593FEF701FF04A8FEF7FEFE50
:10231C00A2E700BFE9230A08022AF8B5054607D050
:10232C00032A18D0012A01D10B6803600020F8BDE4
:10233C0018200E68FDF7A9FE044650B13146FFF790
:10234C00CBFE3069B6F9147008B100F005FF2061BE
:10235C00A7822C60EAE70468002CE7D004F1100097
:10236C00FFF73DFE2046FFF74BFD1821204600F0FD
:10237C005EFEDBE738B5002383608B6804460D46B0
:10238C002BB102229847EB68E360AB68A360204650
:10239C0038BD022A70B5044607D0032A12D0012A90
:1023AC0001D10B680360002070BD14200E68FDF78E
:1023BC006CFE054620B13146FFF7DCFF337C2B74F5
:1023CC002560F0E70468002CEDD02046FFF718FDDF
:1023DC001421204600F02BFEE5E70000F0B5044682
:1023EC0089B00D4601A81146FFF723FEA4B124B213
:1023FC001DB1284600F0B0FE054601A803A90395BF
:10240C00ADF81040FFF778FE03A8FFF7E8FD02A82F
:10241C00FEF77CFE09B0F0BD0123019DD5E84F2FDE
:10242C00002A03D1C5E8413F0029F7D1EFD12B7326
:10243C00BFF35B8F6B70BFF35B8F2B1D53E8006F8B
:10244C0043E80042002AF9D1BFF35B8F002EDED0A7
:10245C002046FEF709FA074660B1304605F10C013B
:10246C00FFF716FE3046FFF7CBFC1021304600F08C
:10247C00DEFDCCE7314603A8FFF77CFF2B7B102059
:10248C008DF81C30FDF701FE0546D0B18760142095
:10249C00FDF7FBFD044678B10146876003A8FFF702
:1024AC00BEFC059BA268A360069B0592E268E360F4
:1024BC009DF81C3006922374064B2C60EB60064B87
:1024CC00AB6003A8FFF79CFC002229460348FEF7EB
:1024DC00D3F9C7E7AF200A089F230A08BD280A08CA
:1024EC00704710B50446182100F0A1FD204610BD20
:1024FC00F8B50E46002400F10807051D17F8011D5C
:10250C000A223046FEF72BFCAF42044401D1204690
:10251C00F8BD002CF2D02E213046FEF711FC0444FD
:10252C00ECE7000010B50446044B1122002140F8E2
:10253C00043B00F0BBFD204610BD00BFCC340A08A4
:10254C000346074A10B543F8042B01F1100251F869
:10255C00044B914243F8044BF9D10A781A7010BD20
:10256C00CC340A08024AC0E90021042202757047E3
:10257C00CC340A0810B59DF8084044EA032404231F
:10258C0044EA024444EA01644460037510BD00004F
:10259C0037B5044D05609DF818500095FFF7EAFF1C
:1025AC0003B030BDCC340A0841747047704708B58D
:1025BC000021007CFEF700F940EAE07008BD08B588
:1025CC000121007CFEF7F8F840EAE07008BD08B580
:1025DC00007CFEF7E9F820EAE07008BD08B5007C45
:1025EC00FEF7DAF820EAE07008BD38B50446007C46
:1025FC000D46FEF7D9F8002801DC607C28B129468D
:10260C00207CFEF7E1F820EAE07038BD007CFEF794
:10261C00E3B810B50446142100F009FD204610BDA6
:10262C0010B54FF47A73044608460021C4E901132F
:10263C00044B20742360012311466374FEF794F855
:10264C00204610BDE0340A080022007CFEF794B846
:10265C00007CFEF799B8000010B504461422002146
:10266C0000F024FD054B20466360054BE36040F20F
:10267C00011323818123238210BD00BF5001002050
:10268C005102002030B50F4D87B001A8FFF7E4FFD1
:10269C002978BFF35B8F11F0010410D12846FDF7A8
:1026AC0005FD60B1214601AA0748FFF7B9FF28468E
:1026BC00FDF701FD054A0649034800F0B3FC02484A
:1026CC0007B030BD20010020280100208000002030
:1026DC00B9250A0810B504461422002100F0E6FCC6
:1026EC00054B20466360054BE36040F201132381E8
:1026FC008123238210BD00BFD2020020D30300200F
:10270C0010B50F4C86B001A8FFF7E4FF2378BFF398
:10271C005B8FDB0710D42046FDF7C8FC60B10121AC
:10272C0001AA0848FFF77CFF2046FDF7C4FC064AC7
:10273C000649044800F076FC024806B010BD00BF04
:10274C00240100203C01002080000020B9250A084B
:10275C00004700002DE9FF4100241D460F4690461E
:10276C000646FDF727FF0423A5428DF80C30A8BFC1
:10277C009DF82830ADF80D408DF80F40A4BF03AC88
:10278C008DF80E303A464346304606490094A8BFB1
:10279C008DF80D50FDF706FFB0FA80F0400904B03B
:1027AC00BDE8F0815D270A0870474174704708B591
:1027BC00007CFDF77FFF20EAE07008BD08B5007CC7
:1027CC00FDF750FF20EAE07008BD08B5007CFDF76E
:1027DC0059FF40EAE07008BD08B5007CFDF74AFFE0
:1027EC0040EAE07008BD007CFDF754BF70B5467C34
:1027FC0004460D462EB12946207CBDE87040FDF7FD
:10280C0029BF007CFDF756FF0028F4DC304670BD74
:10281C0010B50446142100F00AFC204610BD00003F
:10282C004FF0000C10B50446084611464FF47A726E
:10283C00C4E901C2044A20742260012262741A465F
:10284C00FDF7F8FE204610BD10350A080023007C69
:10285C00FDF738BF0022FFF7F9BF007CFDF7F2BE91
:10286C0038B50D4D2978BFF35B8F11F0010411D1F0
:10287C002846FDF71BFC68B12146084A084B09485D
:10288C00FFF7CEFF2846FDF716FC074A0749054817
:10289C0000F0C8FB034838BD540400205804002045
:1028AC00DC0400206005002080000020B5270A0809
:1028BC0010B5836804460BB900F0BFFBC36898479A
:1028CC00A3681BB103222146204698472046BDE849
:1028DC001040102100F0ABBB7047F8B5064615460A
:1028EC000C468F18BC4206D0336830469B6814F8EF
:1028FC00011B9847F6E72846F8BD0022007CFDF73F
:10290C00E9BE0021007CFDF7EDBE0021007CFDF747
:10291C00F1BE0021007CFDF7F5BE0021007CFDF727
:10292C00F9BE10B50446142100F081FB204610BD01
:10293C0010B54FF47A73044608460021C4E901131C
:10294C00034B114623602074FDF7F4FE204610BDA6
:10295C0040350A08002240681146FDF7CBBFF0B5A0
:10296C00154689B011220E460446002103A800F03A
:10297C009DFB284600F00BFC002781B273682846AB
:10298C00009703AAFDF730FF30B139462046FFF718
:10299C00E9FD204609B0F0BD204603A9FFF7D0FDA4
:1029AC00F7E7002240681146FDF7C4BF00224068DB
:1029BC001146FDF7CFBF00224068FDF7C3BF0022D0
:1029CC00406881F00101FDF7ADBF002340681A4655
:1029DC001946FDF79FBF002240681146FDF77ABFEC
:1029EC00002202214068FDF77DBF002340681A4693
:1029FC00FDF768BF0422024B5A60024A1A60704706
:102A0C007405002068350A08002340681A46FDF753
:102A1C0059BF002202214068FDF764BF00224068C4
:102A2C001146FDF757BF002240681146FDF762BF03
:102A3C00002340681A461946FDF764BF002340681E
:102A4C001A461946FDF766BF00214068FDF78ABF9C
:102A5C0000214068FDF78EBF0022406881F0010123
:102A6C00FDF760BF00224068FDF76CBF0022406894
:102A7C001146FDF76FBF002240681146FDF75ABFA3
:102A8C0070B515468EB0044608A8FFF74BFD112211
:102A9C00002103A800F00AFB0026284600F077FB73
:102AAC000A4B009681B25B68284603AAFDF79CFE90
:102ABC0030B131462046FFF755FD20460EB070BDB3
:102ACC00204603A9FFF73CFDF7E700BF7405002083
:102ADC00024B034A1A6000225A6070477C050020A2
:102AEC00A4350A08012200F1100313F8101C184633
:102AFC00012908D153F8041C02EB4102013A03F1FD
:102B0C001003F2D17047022904BF53F8041C521869
:102B1C00F4E70EB42DE9F04187B000AF07F13405AE
:102B2C0055F8048B04462B464246102107F1080049
:102B3C007D60FDF767FF0F281BD900F1080323F018
:102B4C0007036E46ADEB030D4246411C2B4668460F
:102B5C007D60FDF757FF021E04DD236869462046A1
:102B6C009B689847B5461C37BD46BDE8F04103B09D
:102B7C0070470028F7D0236802469B68204607F16F
:102B8C0008019847EFE710B5044603689B6898471F
:102B9C00A368013BA3602BB923682046BDE8104015
:102BAC00DB68184710BD07B503688DF807100122C4
:102BBC009B680DF10701984703B05DF804FB38B52D
:102BCC000B68044603604D6843689D420CD015B1F8
:102BDC006B6801336B60606828B14368013B4360EC
:102BEC000BB9FFF7D0FF6560204638BD0B46114688
:102BFC00002210B50446C0E9002283600BB92046C0
:102C0C0010BDFFF7DCFFFAE70346806820B30278BB
:102C1C00032A1AD8DFE802F00417021B05207047BC
:102C2C001B685A684368D05C2D2812D0A0F1300381
:102C3C00092B0ED974280ED066280CD0A0F16E0387
:102C4C0058425841704706207047002070470420B6
:102C5C007047032070470220704710B50446FFF7F9
:102C6C00D3FF02280ED0C31EDBB2012B14D822686E
:102C7C00A36850685B680A22BDE810400021184424
:102C8C0000F02EBB2268A36852685B68D05CA0F190
:102C9C0074035842584110BD0020FCE70B46114606
:102CAC00002210B50446C0E900220D48C4E9020216
:102CBC00A3B11A78032A06D082B90A6850685A68F8
:102CCC00825C6E2A07D00A68586852689B68024476
:102CDC001B1AA260E3602046FFF771FF204610BD6F
:102CEC00F9330A0838B500250B4604461146C0E9ED
:102CFC000055C0E90255C0E904554BB11A78012AB8
:102D0C0006D103F11002DB6882604361FFF757FFC5
:102D1C00204638BD10B54369044663B18068013B59
:102D2C00E0601030A0602061636113B1FFF7DAFE40
:102D3C00A060012000E0184610BD10B57D210446AE
:102D4C00FFF731FF01232046237110BD08B503792D
:102D5C00012B02D0022B04D008BD2C21FFF723FF3E
:102D6C00FAE73A21FAE710B50446FFF7EFFF2046E1
:102D7C007B21FFF718FF00232046237110BD0000B4
:102D8C0038B504460D46FFF7E1FF236820462A4676
:102D9C00DB680349984701232046237138BD00BFE7
:102DAC00D3330A0838B504460D46FFF7CFFF236826
:102DBC0020462A46DB6803499847012320462371A5
:102DCC0038BD00BFD8350A082DE9F0410D4617462D
:102DDC0022210446FFF7E7FE2946DFF898802F44AE
:102DEC00BD422A4638D015F8016B222E03D05C2E3A
:102DFC0001D01F2EF4D82368521A20469B6898479E
:102E0C005C212046FFF7CFFE0D2E0AD8072E1CD9C9
:102E1C00A6F10803052B18D8DFE803F00D0F1117E6
:102E2C001315222E01D05C2E0FD131462046FFF710
:102E3C00BAFE2946D4E76221F8E77421F6E76E2141
:102E4C00F4E76621F2E77221F0E723683246414647
:102E5C002046DB689847ECE78D4204D02368204677
:102E6C009B686A1A984722212046FFF79CFEBDE812
:102E7C00F08100BFDB350A0870B504460D461646D6
:102E8C00FFF764FF204632462946FFF79DFF0223D9
:102E9C002046237170BD70B504460D461646FFF7EB
:102EAC0055FF204632462946FFF78EFF0123204668
:102EBC00237170BD10B50446806808B1FDF7A2FB04
:102ECC00204610BD172870B5044601D9002070BDEE
:102EDC00A0F10D03022B0BD9012826D800F07AF8AB
:102EEC000021007CFDF71EFC80F00100C0B2EEE773
:102EFC00134E3178BFF35B8F11F001050FD13046C3
:102F0C00FDF7D4F858B129460E48FDF79BFD304625
:102F1C00FDF7D1F80C4A0D490A4800F083F8094B2B
:102F2C001878FDF719FC0028D0D1123C012C05D8DB
:102F3C00FFF796FC007CFDF7B5FBD5E70120C6E753
:102F4C00840500208805002080000020C12E0A087E
:102F5C00172838B504460D460AD8FF2908D0FFF7C4
:102F6C00B1FF28B129462046BDE83840FDF712BB19
:102F7C0038BD0000002313B5074C1A4619462046ED
:102F8C000093FFF705FB2046044A054902B0BDE853
:102F9C00104000F047B800BF9805002080000020CA
:102FAC00ED240A08002370B5202543801423084E15
:102FBC0004460380314685600561284600F03BF8E5
:102FCC0031466060284600F036F8E060204670BD5F
:102FDC00E1350A0830B50F4D87B02978BFF35B8F08
:102FEC0011F0010413D12846FDF760F878B101A85F
:102FFC00FFF7D8FF214601AA0748FFF799FC28469E
:10300C00FDF759F8054A0649034800F00BF8024849
:10301C0007B030BDB0050020B405002080000020B2
:10302C00E5280A080B460146184600F009B8FDF7DA
:10303C0030B8FDF72AB8FDF72AB808B5FDF7EAFC59
:10304C0010B504460448134620B10A460220214616
:10305C00AFF3008010BD00BF000000000A44914295
:10306C0000F1FF3300D1704710B511F8014B9142BC
:10307C0003F8014FF9D110BD884210B501EB0204E1
:10308C0002D98442234607D8431EA14208D011F826
:10309C00012B03F8012FF8E7014602448A4200D1C4
:1030AC0010BD13F8014D02F8014DF7E70346024439
:1030BC00934200D1704703F8011BF9E738B50D4B6B
:1030CC0004461D68AB6B7BB91820FDF77BFC0A4AE4
:1030DC000A4BA863C0E90023094B012283600B2330
:1030EC0083810023C0E904230022AB6B1C615A616D
:1030FC0038BD00BF1C0000200E33CDAB34126DE682
:10310C00ECDE05000346C9B2184613F8012B12B1C8
:10311C008A42F9D17047002918BF0020704710B5BA
:10312C000446FFF7EFFF18B9204600F030F82044B2
:10313C0010BD10F8012B11F8013B012A28BF9A424F
:10314C00F7D0D01A7047034611F8012B03F8012B66
:10315C00002AF9D170470000024B0146186800F0B4
:10316C0003B800BF1C00002070B5044608460D468D
:10317C0000F00DF8461C31462046FDF753FC044682
:10318C0018B132462946FFF769FF204670BD034649
:10319C0013F8012B002AFBD1181A0138704710B50F
:1031AC006AB10139841810F8013B11F8012F9342D0
:1031BC0003D1A04201D0002BF5D1981A10BD1046B6
:1031CC00FCE738B503460C4669B9BDE83840FFF753
:1031DC0099BF0546431C21461846FFF793FF00286C
:1031EC00F7D1284638BD0025F5E700002DE9F0475A
:1031FC008C468646394E60461CF8014BA55D15F091
:10320C000805F8D12D2C33D14FF001089CF8004063
:10321C0000F1020C002B5CD0102B0CD1302C0AD1FD
:10322C009CF8000000F0DF0058284DD110239CF8CA
:10323C0001400CF1020C002608F10047013FB7FBDE
:10324C00F3F9304603FB197AA4F13005092D18D88F
:10325C002C46A34224DD751C07D081451DD301D11A
:10326C00A2451ADB012600FB03401CF8014BEBE7DF
:10327C002B2C08BF9CF80040A84608BF00F1020C9C
:10328C00C8E7A4F14105192D01D8373CE1E7A4F1B9
:10329C006105192D04D8573CDBE74FF0FF36E4E706
:1032AC00731C06D122233846CEF8003042B9BDE853
:1032BC00F087B8F1000F00D04042002AF7D00EB1D1
:1032CC000CF1FF311160F2E73024002BB3D108234D
:1032DC00B1E7302CA4D00A23ADE700BFE3350A08D0
:1032EC0013460A46014602480068FFF77FBF00BF3D
:1032FC001C0000201D000A085D000A0885000A0851
:10330C0089000A08000000005B25642C25642C252C
:10331C00645D007075626C69736865643A2025732E
:10332C000000000000000000000000000000000091
:10333C0000000000A5000A08C9000A0800000000EF
:10334C000000000005010A0839010A08DD1A0A0804
:10335C00CB000A0873686565745465737431007723
:10336C006972696E670053797374656D20736C654F
:10337C00657020636F6E66696775726174696F6ED4
:10338C0020697320696E76616C69642E00626175C8
:10339C00640053657269616C0055534253657269E0
:1033AC00616C31004A534F4E53747265616D4C6FB2
:1033BC006748616E646C6572006170700025303115
:1033CC00307520005D20002564002C200028293A4F
:1033DC002000205B00636F6465203D2000256900A0
:1033EC0064657461696C73203D20000D0A006D00EA
:1033FC00630066006C6E00666E007400636F64653B
:10340C000064657461696C0000000000000000003D
:10341C002D0E0A08530E0A08130E0A081F2B0A0851
:10342C00000000000000000009130A0821130A081C
:10343C00DD1A0A08CB000A0800000000000000009A
:10344C0035130A0849130A08851C0A081B0E0A08BA
:10345C0000000000000000002B0E0A08610E0A0894
:10346C00191A0A081D0E0A080000000000000000CE
:10347C00290E0A086F0E0A0831120A088B0E0A0868
:10348C0025592D256D2D25645425483A254D3A2571
:10349C0053257A0061736374696D65000000000048
:1034AC0000000000B51F0A08BB1F0A08F91F0A0814
:1034BC00C91F0A08B71F0A0800000000000000001E
:1034CC00FD240A08ED240A08EF240A080000000075
:1034DC0000000000B9250A081F260A08F7250A086B
:1034EC00010D0A08E9250A08BB250A08CB250A089C
:1034FC0019260A08DB250A08B5250A080000000071
:10350C0000000000B5270A081D280A08F9270A0838
:10351C00010D0A08C9270A08E5270A08D7270A084F
:10352C00F3270A08B7270A08BB270A08000000007F
:10353C0000000000E5280A082F290A0807290A08B4
:10354C00E7280A080F290A0817290A081F290A0858
:10355C0027290A080000000000000000F7290A08CB
:10356C00ED290A08E3290A0861290A08070E0A0846
:10357C00D7290A08552A0A085D2A0A08CB290A08FD
:10358C00C3290A08B9290A08AF290A086B290A08AD
:10359C000000000000000000152A0A081F2A0A0873
:1035AC00292A0A08332A0A083D2A0A08492A0A083D
:1035BC00552A0A085D2A0A08652A0A08712A0A0887
:1035CC00792A0A08832A0A088D2A0A0825750075A3
:1035DC0025303478000000202020202020202020BE
:1035EC0028282828282020202020202020202020A7
:1035FC0020202020202020881010101010101010D7
:10360C00101010101010100404040404040404041A
:10361C0004101010101010104141414141410101A2
:10362C00010101010101010101010101010101017E
:10363C00010110101010101042424242424202028C
:10364C00020202020202020202020202020202024E
:10365C0002021010101020000000000000000000FA
:10366C00000000000000000000000000000000004E
:10367C00000000000000000000000000000000003E
:10368C00000000000000000000000000000000002E
:10369C00000000000000000000000000000000001E
:1036AC00000000000000000000000000000000000E
:1036BC0000000000000000000000000000000000FE
:1036CC0000000000000000000000000000000000EE
:1036DC000000000000000000E5040A08AD0B0A0819
:1036EC00CD1A0A08F91D0A084D1E0A08012A0A08F3
:1036FC00DD2A0A08812F0A080000000000000000E3
:04370C0000000000B9
:0437100000000000B5
:1037140004000000030000000200000060330A08F7
:1037240064340A087C340A08A0340A082000002003
:103734000000000000000000000000000000000085
:103744000000000000000000000000000000000075
:103754000000000000000000000000000000000065
:103764000000000000000000000000000000000055
:103774000000000000000000000000000000000045
:103784000000000000000000000000000000000035
:10379400FFFFFFFF00000102030405060708090AF2
:1037A4000B0C0D0E0F101112131415161718191AED
:0837B4001B1C1D1E1F20280034
:0437BC0078563412F5
:04000005080A001CC9
:00000001FF
