:02000002D0002C
:1040000000400D0070790D00000006000D00050154
:084010000401DB0700000000C1
:0440180090740D0093
:10401C0009480A49884208B505D0094A824202D0AB
:10402C00121A03F0E1F80748074A0021121A03F0AC
:10403C0003F9014808BD00BF0CE50320D4780D003E
:10404C0080E5032080E50320F0E7032070B5074EE0
:10405C00074C02F087F8A41BA4080025A54200D148
:10406C0070BD56F8043B98470135F7E7A0780D0072
:10407C00C4780D0000F0C7B808B500F031F9BDE800
:10408C00084002F031B800F049BD00F047BD00F027
:10409C004DBD000008B5034A00210C2000F050FC77
:1040AC00FEE700BF2D470D000078B0FA80F0400904
:1040BC0070470123037070477047006A0368DB6820
:1040CC00184738B50446006928B185680C2103F0FF
:1040DC0074F82846F8E7204638BD08B500F0EEFC29
:1040EC0010B900F0DBFCF9E7BDE8084000F0E6BCD5
:1040FC0008B5002000F0FAFC28B100F0DFFC80F0DD
:10410C000100C0B208BD0120FCE700000A4B10B54D
:10411C000446036001F018F9214601F01AFB02F085
:10412C00C5FB02F0B7FB2046044B40F8043B01F002
:10413C00FDF9204610BD00BFE0740D00C8740D00E1
:10414C0010B50446FFF7E2FF2046242103F035F8B2
:10415C00204610BDC06820B183888B4201D0806896
:10416C00F9E7704710B50446006808B100F0DEFCB2
:10417C00204610BDF8B5037D05460F46164643B1E3
:10418C0000680121FFF7E6FF58B18389BB4202D1D9
:10419C0086732846F8BD806818B18388012BFAD144
:1041AC00F2E70B49102003F00AF8044668B110221C
:1041BC00002103F041F8074B23600123A3802B69F6
:1041CC00A360A781A6732C61E3E72875E1E700BF24
:1041DC009D770D00100003000EB410B58DB00FAA22
:1041EC00016852F8044B039200232020CDE904030C
:1041FC00CDE900421E2004AA00F0B2FB0DB0BDE8D0
:10420C00104003B0704708B50021022002F06CFF8B
:10421C000021032002F068FFBDE8084000210420C3
:10422C0002F062BF70B5254C254D22682549264EFB
:10423C00B0B004A800F054FE2A68224908A800F087
:10424C004FFE32681F490CA800F04AFE33680193F8
:10425C002B68009323681D4A802110A800F076FC7F
:10426C001B4B1C491B788DF8003009683C2310AAA5
:10427C0002A802F0D3F8039C7CB16368013B636035
:10428C005BB9236820469B689847A368013BA360F1
:10429C001BB923682046DB6898470F490F4810AAC2
:1042AC00FFF79AFF0CA800F079FD08A800F076FD46
:1042BC0004A800F073FD30B070BD00BF8CE5032086
:1042CC0088E50320A4740D0084E50320A7740D0079
:1042DC009CE503200CE50320B2740D000CE60320D2
:1042EC007FB500F0EBFB18B900F0E0FBFFF7F5FE33
:1042FC00654C237D002B47D00323206823720E21AD
:10430C00FFF728FF30B3037B042B1DD12068042159
:10431C00FFF720FF0646002840F0A4805B491020E0
:10432C0002F04DFF0546002800F0AB80102231460C
:10433C0002F082FF564B2B600423AB802369AB60E9
:10434C00544BEB6025611FE0806818B183880E2BFD
:10435C00FAD1D7E74D49142002F031FF0546002869
:10436C0000F08F801422002102F066FF484B2B6076
:10437C000E23AB802369AB6004232B730023EB81EA
:10438C00237D2561002BC1D1012202213E48FFF77C
:10439C00F1FE01220321FFF7EDFE01220421FFF7BC
:1043AC00E9FE01A8384900F077FC019808B100F04B
:1043BC00BDFB022002F0A9FE012808BF364A374C8B
:1043CC0008BF13684FF0030004BF0133136002F001
:1043DC009CFE012804BF324A13684FF0040004BF4E
:1043EC000133136002F091FE012801BF2D4A1368BE
:1043FC000133136000F09CF92268801A2A4A90421B
:10440C0012D900F05BFB18B900F050FBFFF765FE0A
:10441C00FFF708FF204A00231360214A1360214A4A
:10442C00136000F085F9206000F048FB38B31F4C96
:10443C0000F07EF92268801A1D4A90421FD900F0C4
:10444C003DFB18B900F032FBFFF747FE00F036FBDE
:10445C0010B1002000F042FBFFF74AFE28B900F033
:10446C001DFBF9E70B4BC3608EE7FFF741FE4FF0E6
:10447C00FF31104801F0EDFE00F05AF9206004B055
:10448C0070BD257580E700BFA0E503209D770D006A
:10449C0010000300A0BB0D008CE50320BCE503203D
:1044AC0088E5032084E50320E0930400B8E50320AD
:1044BC0080EE3600D4E7032070B5D0E90053142603
:1044CC00044606FB0356AE4204D0284600F066FCB8
:1044DC001435F8E7206800F029FB204670BD8842AF
:1044EC00F8B504460D46164616D9904215D2A2F1DF
:1044FC001406751AA1F114072C44B7421CD02CB128
:10450C003146204600F0C6FC337C2374304600F064
:10451C0045FC143E143CF0E70ED0B5420CD02CB147
:10452C002946204600F0B6FC2B7C2374284600F06C
:10453C0035FC14351434F0E7F8BD2DE9F0410023B7
:10454C00C0E9003383604F689F4204460E4623DD6A
:10455C004FF0140808FB07F000F0E0FA0546D8B15C
:10456C00D4E9001208FB0212FFF7B9FF206800F033
:10457C00DDFA2560A760D6E9007308FB0378B8451F
:10458C0008D03946284600F09FFC3B7C2B7414372E
:10459C001435F4E7736863602046BDE8F0810000D1
:1045AC002DE9F043374B384D384E01278DB01F7035
:1045BC0000F0BEF8364B186000F0BAF8354B00240A
:1045CC001860354BAB602C60AC80AC71384600F099
:1045DC00DFF932463149284602F0EAFDCDE90044C4
:1045EC00029402F063F92E4D8046694603A8FFF74A
:1045FC00A4FFA94603A906A8FFF79FFF294B49F87A
:10460C00043B06A909A8FFF798FF09AA1E214846F2
:10461C0001F0F2F909A8FFF74FFF06A8FFF74CFFCE
:10462C00214B2B60C5F8208003A8FFF745FF1F4BDB
:10463C002B6002F03BF94FF4165102F027F900F011
:10464C0083FE294601F06AF96846FFF735FF3246CA
:10465C001749284602F0ACFD16481749A0F8094046
:10466C000346021D43F8092B9C70144B0775C0E9D7
:10467C00034443600472324602F09AFD0DB0BDE86B
:10468C00F08300BF9CE5032090E5032080E5032028
:10469C00B8E50320BCE503200000FFFF71410D00CD
:1046AC00C0E50320C8740D0000760D00E0740D0009
:1046BC0019410D00A0E50320CF400D0010000300B0
:1046CC0008B5024B1B689B68019308BD6802030088
:1046DC0008B5024B1B68DB68019308BD6802030038
:1046EC0008B5024B1B689B68019308BD2C020300A4
:1046FC0008B5024B1B68DB68019308BD2C02030054
:10470C0008B5024B1B685B69019308BD2C020300C2
:10471C0008B5024B1B685B68019308BD18020300C7
:10472C0008B5024B1B68DB68019308BD1802030037
:10473C0008B5024B1B685B69019308BD18020300A6
:10474C0008B5024B1B685B6C019308BD4802030063
:10475C0008B5024B1B689B6C019308BD4802030013
:10476C0008B5024B1B68DB6C019308BD48020300C3
:10477C0008B5024B1B685B6D019308BD4802030032
:10478C0008B5024B1B685B69019308BD640203000A
:10479C0008B5024B1B681B68019308BD3C02030063
:1047AC0008B5024B1B689B68019308BD3C020300D3
:1047BC0008B5024B1B68DB68019308BD3C02030083
:1047CC0008B5024B1B681B69019308BD3C02030032
:1047DC0008B5024B1B685B69019308BD3C020300E2
:1047EC0008B5024B1B689B69019308BD3C02030092
:1047FC0008B5024B1B68DB69019308BD3C02030042
:10480C0008B5024B1B681B6A019308BD3C020300F0
:10481C0008B5024B1B689B6A019308BD3C02030060
:10482C0008B5024B1B68DB6A019308BD3C02030010
:10483C0008B5024B1B681B6A019308BD28020300D4
:10484C0008B5024B1B685B6A019308BD2802030084
:10485C0008B5024B1B689B6A019308BD2802030034
:10486C0008B5024B1B68DB6A019308BD28020300E4
:10487C0008B5024B1B681B6B019308BD2802030093
:10488C0008B5024B1B685B6B019308BD2802030043
:10489C0008B5024B1B681B6C019308BD2802030072
:1048AC0008B5024B1B68DB69019308BD300203009D
:1048BC0008B5024B1B681B6A019308BD300203004C
:1048CC0008B5024B1B681B68019308BD4C02030022
:1048DC0008B5024B1B685B68019308BD4C020300D2
:1048EC0008B5024B1B689B68019308BD4C02030082
:1048FC0008B5024B1B681B69019308BD4C020300F1
:10490C0008B5024B1B685B69019308BD4C020300A0
:10491C0008B5024B1B689B69019308BD4C02030050
:10492C0008B5024B1B68DB69019308BD4C02030000
:10493C0008B5024B1B681B6A019308BD4C020300AF
:10494C0008B5024B1B685B6B019308BD600203004A
:10495C0008B5024B1B681B6D019308BD6002030078
:10496C0008B5024B1B685B6D019308BD6002030028
:10497C0008B5024B1B68DB6E019308BD6002030097
:10498C0008B5024B1B681B6F019308BD6002030046
:10499C0008B5024B1B685B68019308BD200203003D
:1049AC0008B5024B1B68DB6C019308BD20020300A9
:1049BC0008B5024B1B685B6D019308BD2002030018
:1049CC0008B5034B1B68D3F88830019308BD000071
:1049DC002002030008B5034B1B68D3F894300193F5
:1049EC0008BD00002002030008B5034B1B68D3F878
:1049FC00AC30019308BD00002002030008B5024B47
:104A0C001B685B68019308BD4002030008B5024BAC
:104A1C001B689B68019308BD4002030008B5024B5C
:104A2C001B68DB68019308BD4002030008B5024B0C
:104A3C001B681B69019308BD4002030008B5024BBB
:104A4C001B685B69019308BD4002030008B5024B6B
:104A5C001B689B69019308BD4002030008B5024B1B
:104A6C001B68DB69019308BD4002030008B5024BCB
:104A7C001B681B6A019308BD4002030008B5024B7A
:104A8C001B681B6B019308BD4002030008B5024B69
:104A9C001B685B6B019308BD4002030008B5024B19
:104AAC001B689B68019308BD4402030008B5024BC8
:104ABC001B68DB68019308BD4402030008B5024B78
:104ACC001B685B69019308BD4402030008B5024BE7
:104ADC001B681B6A019308BD4402030008B5024B16
:104AEC001B68DB6A019308BD4402030008B5024B46
:104AFC001B681B6B019308BD4402030008B5024BF5
:104B0C001B68DB6B019308BD4402030008B5024B24
:104B1C001B681B6C019308BD4402030008B5024BD3
:104B2C001B681B68019308BD1C02030008B5024BEF
:104B3C001B685B68019308BD1C02030008B5024B9F
:104B4C001B689B68019308BD1C02030008B5024B4F
:104B5C001B68DB69019308BD1C02030008B5024BFE
:104B6C001B685B6A019308BD1C02030008B5024B6D
:104B7C001B68DB6A019308BD1C02030008B5024BDD
:104B8C001B681B6B019308BD1C02030008B5024B8C
:104B9C001B685B6C019308BD1C020300002240687B
:104BAC001146FFF763BF002240681146FFF76EBF46
:104BBC0040680022FFF762BF4068002281F00101CB
:104BCC00FFF74CBF002340681A461946FFF73EBF5B
:104BDC00002340681A461946FFF730BF0022406890
:104BEC001146FFF723BF002240681146FFF70EBFA6
:104BFC00406800220221FFF711BF002340681A46CB
:104C0C00FFF7FCBE024B03225A60024A1A6070473F
:104C1C00E4E5032010750D0010B50446084621701C
:104C2C00FFF73EFE00236360204610BD10B504461E
:104C3C00006818B1FFF77AFF0023236010BD38B568
:104C4C00B1F9043083800B460D4653F8062FC0F89B
:104C5C0006209B8843810446FFF7E8FF2B6813B1BD
:104C6C00236000232B60204638BD000038B50C466D
:104C7C000546FFF7DBFF44B12088FFF74FFF2860A4
:104C8C0028B12288214602F0AFFA002038BD014835
:104C9C00FCE700BFFCFEFFFFF0B52D4D0B7D04467D
:104CAC008BB00846AF1D002B38D00B681B79002B3E
:104CBC0034D00022274B049302A904300292ADF8A1
:104CCC000C208DF80E20FFF78FFEDDF80E30C5F8A6
:104CDC00063000B2BDF81230ADF80C00A880029975
:104CEC00BB802846FFF7C2FF02A8FFF79FFF0023F7
:104CFC002360A380A37123814FF6FF736381B5F901
:104D0C000430A3803B68C4F80630BB8829686381F3
:104D1C002046FFF7ABFF20460BB0F0BD002620234A
:104D2C00CDE902360C4B00930C49334602AA3220D3
:104D3C00FFF70EFE074B049302A94FF6F2630448EB
:104D4C0002968DF80E60ADF80C30FFF778FFCBE7CC
:104D5C00ECE503200000FFFF43750D003C750D00D2
:104D6C0010B5094B094C022200201A60084B206038
:104D7C00A080A071A360FFF70BFE2046054A0649F0
:104D8C00BDE8104002F014BAF8E50320ECE503206E
:104D9C000000FFFF80E5032071410D0010B50446B3
:104DAC000068FFF7C3FE204610BD10B5044600682E
:104DBC0008B1FFF7BBFE0023C4E90133236010BD2B
:104DCC0038B504460D4600680131FFF7B7FE10B147
:104DDC00C4E90005012038BD10B50368044623B1B1
:104DEC0043688B4201D3012010BD2046FFF7E8FF3A
:104DFC000028F9D0A368002BF5D122681370F2E7D4
:104E0C0037B50D46114601920446FFF7E5FF019AAE
:104E1C0028B92046FFF7C9FF204603B030BDA26079
:104E2C002946206802F0E0F92268A3680021D154D9
:104E3C00F2E7002313B5C0E9003304468360037323
:104E4C0041B10846019102F06AFA019902462046E6
:104E5C00FFF7D6FF204602B010BD38B505460068F6
:104E6C000C4668B16A688B689A4207D3096802F0ED
:104E7C0030FAA368AB600023A36038BDFFF756FE81
:104E8C0023682B6063686B60A368AB600023C4E984
:104E9C000033F1E710B50023C0E90033044683600A
:104EAC000373FFF7DAFF204610BD884210B50446A5
:104EBC0005D00B682BB18A681946FFF7A1FF204675
:104ECC0010BDFFF772FFFAE710B500230446C0E9E6
:104EDC00003383600373FFF7E8FF204610BD00002A
:104EEC000EB470B587B00BAD044655F8042B019287
:104EFC002B46052104A80395FFF730FE0B49064607
:104F0C002046FFF796FF31462046FFF765FF2068E5
:104F1C0030B1019A03952B46711CFFF71FFEA06060
:104F2C00204607B0BDE8704003B07047C4750D0053
:104F3C0010B5036804469B689847A368013BA360BF
:104F4C002BB923682046DB68BDE81040184710BD1C
:104F5C0010B50446006808B1FFF7FAFB204610BDF7
:104F6C000B68036013B15A6801325A60704710B570
:104F7C000446006828B14368013B43600BB9FFF756
:104F8C00D7FF204610BD000010B5064C002320466C
:104F9C002360FFF7D5FB2046034A0449BDE81040C7
:104FAC0002F006B9FCE5032080E503205D4F0D00FF
:104FBC00F8B506460D468F180024BD420CD0336858
:104FCC0015F8011B9B6830469847031E01DB1C44F7
:104FDC00F3E7002C08BF1C462046F8BD13B5044669
:104FEC00084659B1019102F09AF923680199DB68DE
:104FFC000246204602B0BDE81040184702B010BD72
:10500C0003689B68184738B50D210546FFF7F8FF74
:10501C000A2104462846FFF7F3FF204438BD30B57B
:10502C008BB000238DF82430012A98BF0A2209ACDA
:10503C000D46B1FBF2F101FB125303F0FF03092BF8
:10504C0094BF30333733DBB2AA4204F8013DEFD9B9
:10505C002146FFF7C3FF0BB030BD2DE9F04186B000
:10506C0000AF05460E46381D142114463B60FFF771
:10507C0075FD13280ED8391D2846FFF7AFFF0446DF
:10508C001EB12846FFF7BFFF044420461837BD4623
:10509C00BDE8F08100F1080323F00703E846ADEB0F
:1050AC00030D2246411C3B686846FFF757FD6946D5
:1050BC002846FFF793FF0446C546E1E7806803687E
:1050CC00DB6818477047084611B10B685B681847D6
:1050DC00704770477047704738B504460D460068F6
:1050EC002E2102F0E2F82368C31A2B6023B1037857
:1050FC0003B1013023682060184638BD10B50C216F
:10510C00044602F05AF8204610BD10B5042104469E
:10511C0002F053F8204610BD10B50421044602F0ED
:10512C004CF8204610BD08B502F0C9F8B0FA80F072
:10513C00400908BD10B50C4601F0B8FB844210D0F4
:10514C0001F088FC844205D101F084FCBDE81040DC
:10515C0001F07DBC2CB1236820465B68BDE8104093
:10516C00184710BD13B504460846019102F0D7F854
:10517C0001990246204602B0BDE8104001F066BF1E
:10518C0013B504460846019102F0C9F82368019949
:10519C00DB680246204602B0BDE81040184707B550
:1051AC0003688DF80710DB6801220DF107019847A1
:1051BC0003B05DF804FB0EB403B503AB002153F848
:1051CC00042B006A0193FFF748FF02B05DF804EB73
:1051DC0003B070472DE9F74FD0E900954FF0140854
:1051EC0008FB05F50093AB10184D17465D434C4674
:1051FC00002D23DD6E1008FB06F004EB000A3A4686
:10520C00BAF804B0205801915F4528BF5A4602F005
:10521C008EF80199012378B95F4503D1009A137078
:10522C003546E5E78CBF012000200028F8D0AE1BE6
:10523C000AF11404013EF3E7C00FF6E7A4EB0904EE
:10524C000248A410604303B0BDE8F08FCDCCCCCCA9
:10525C007FB50369067E01910BB301B3002500F104
:10526C000C04039503A901A8FFF736FF0146B0B162
:10527C000DF10B03039A8DF80B502046FFF7AAFF94
:10528C009DF80B305BB12468142303FB004000F144
:10529C000804B0F90630002BA8BFDEB2E2E73046B6
:1052AC0004B070BD10B50A4C2378BFF35B8FDB07DD
:1052BC000BD42046FEF7F8FE38B12046FEF7F9FE77
:1052CC00044A0549054801F073FF044810BD00BFAE
:1052DC0004E6032080E50320E1500D0010E50320D7
:1052EC0010B50A4C2378BFF35B8FDB070BD4204639
:1052FC00FEF7DAFE38B12046FEF7DBFE044A05491C
:10530C00054801F055FF044810BD00BF08E6032016
:10531C0080E50320DF500D0014E5032038B500258F
:10532C000446C0E90055C0E904558560856140F824
:10533C00245FFFF705FAFFF7B5FFE061FFF7D0FF39
:10534C0025732062204638BD10B50B4C2378BFF373
:10535C005B8FDB070ED42046FEF7A6FE50B1074844
:10536C00FFF7DCFF2046FEF7A4FE054A054903487B
:10537C0001F01EFF014810BD00E6032010E60320DB
:10538C0080E50320E9570D00024A03490348002336
:10539C00FFF7F6BAC5560D0051560D00D1550D004C
:1053AC0000231A4619461846FFF7EABA37B50D69B5
:1053BC0051F8043B0093044601A8FFF7D1FD6A465F
:1053CC002946204601F0ECFC01A8FFF7D0FD204651
:1053DC0003B030BD37B58D6851F8043B00930446DB
:1053EC0001A8FFF7BDFD6A462946204601F054FD91
:1053FC0001A8FFF7BCFD204603B030BD37B5CD6822
:10540C0051F8043B0093044601A8FFF7A9FD6A4636
:10541C002946204601F01CFD01A8FFF7A8FD2046F7
:10542C0003B030BD70B58AB00D46014604A8FFF735
:10543C00D1FF144E04A801F047FDE8B104A9684659
:10544C00FFF7DCFF02983146FFF76DFE044610B102
:10545C002C1E18BF012401A8FFF789FD002CE9D0F0
:10546C0004A96846FFF7A2FF684601F0CFFC28604C
:10547C0001A8FFF77CFDDDE705A8FFF778FD0AB072
:10548C0070BD00BF6A750D0037B50C462046124939
:10549C00154601F014FF48B901F008FA4FF4165103
:1054AC0001F0F4F901F002FA03B030BD0B492046CB
:1054BC0001F005FF70B94FF4165301A9284601936A
:1054CC00FFF7B0FF01F0C6FA019901F0BDFA01F047
:1054DC00C1FAE9E70020E7E76F750D0076750D005E
:1054EC0070B5D0E900531426044606FB0356AE42B1
:1054FC0005D005F10800FFF7F3FF1435F7E7206836
:10550C00FFF714FB204670BD70B5D0E9005304467C
:10551C0005EB0316AE4204D02846FFF73FFC1035CE
:10552C00F8E72068FFF702FB204670BD10B5044673
:10553C000C30FFF7D5FF2046FFF7E6FF204610BDE5
:10554C0010B5044B044640F8043BFFF7EFFF204630
:10555C0010BD00BFC8740D0010B50446FFF7F0FF76
:10556C002046242101F029FE204610BD10B5034B26
:10557C0003600446FFF7E4FF204610BD18760D00CB
:10558C0010B50446FFF7F2FF2046242101F015FE6A
:10559C00204610BD0022C0E9002210B582600C68C4
:1055AC0004604C6844608C680A604A6084608A605D
:1055BC0010BD10B5036804461868FFF7D9F82046EB
:1055CC0010BD00002DE9F04F87B0804603931C4BB3
:1055DC005B68C3F30803894616466BB9FFF7B4FE44
:1055EC00044600F12403406A0593FFF7B9F8237BC6
:1055FC002BB105A8FFF7DDFF07B0BDE8F08F012345
:10560C002373D4E900535FFA89F905EB830AAA45A1
:10561C0012D055F8047B3146381DFFF719FE814531
:10562C00F5D33B68039A0092D3F808B04A46334648
:10563C0041463846D847EAE700232373D9E700BF31
:10564C0000ED00E02DE9F74F9B461A4B5B68C3F366
:10565C0008038046894616466BB9FFF775FE04466B
:10566C0000F12403406A0193FFF77AF8237B2BB1F6
:10567C0001A8FFF79EFF03B0BDE8F08F0123237351
:10568C00D4E90053F6B205EB830A55450ED055F814
:10569C00047B5946381DFFF7DBFD8642F5D33B688A
:1056AC004A46DB68414638469847EEE700232373A9
:1056BC00DEE700BF00ED00E02DE9F341164B5B681F
:1056CC00C3F3080305460F461BBBFFF73DFE00F175
:1056DC0024030446406A0193FFF742F8D4E90063BF
:1056EC00462406EB8308B04509D101A8FFF761FFFA
:1056FC00A542B4BF0020012002B0BDE8F08156F8ED
:10570C00040B39460430FFF7A3FD8442A8BF0446BE
:10571C00E9E70020F0E700BF00ED00E070B50446BB
:10572C00D0E900020B4600EB8202824207D0014610
:10573C001D6851F8046BAE4203D00846F5E7002013
:10574C0070BD521A01F05EFD6368013B636001207D
:10575C00F6E71FB500F124030446406A0191039358
:10576C00FEF7FEFF01A92046FFF7D8FF18B16368CA
:10577C000BB9FFF715FE03A8FFF71BFF04B010BD14
:10578C0070B5D0E904561823044603FB0656AE4206
:10579C0015D005F110012046FFF7C0FF63680BB967
:1057AC00FFF7FEFDE06929690368DB6898476969C2
:1057BC0019B1206A0368DB6898471835E7E7D4E924
:1057CC000453182606FB0356AE4204D02846FFF7B6
:1057DC00E5FA1835F8E70023636170BD73B504462C
:1057EC00FFF7DEFD04F12403606A0193FEF7B8FFB6
:1057FC002046FFF7C5FF01A8FFF7DBFE606A08B182
:10580C00FEF7A6FFD4E90453182606FB0356AE4256
:10581C0004D02846FFF7C2FA1835F8E72069FFF7DD
:10582C0085F92068FFF782F9204602B070BD8842E6
:10583C00F8B506460C46154627D9904226D2A2F159
:10584C0014056C1AA1F1140704440026AF423DD094
:10585C00A4B12B682360AB88A380B5F90630E38034
:10586C00C4E902662661AB68A360AE60E368EA68CF
:10587C00E260EB6023692A6922612B6105F1080063
:10588C00FFF72EFE143D143CE0E71FD00027AC427E
:10589C001CD0A6B123683360A388B380B4F906305A
:1058AC00F380C6E902773761A368B360A760F36839
:1058BC00E268F260E360336922693261236104F1CA
:1058CC000800FFF70DFE14341436E0E7F8BDF8B508
:1058DC00D0E901539D4204460E4617460DDB0135B7
:1058EC00002D006804DDA900FFF728F918B9F8BDF0
:1058FC00FFF71CF900202060A5602568626805EBA5
:10590C0086019200A2EB8602081D01F07BFC45F893
:10591C0026706368013363600120E8E737B500F156
:10592C0024030446406A01930D46FEF719FFD4E99F
:10593C00003103EB810083421A460BD01268AA4255
:10594C0003F10403F7D101A8FFF733FE0025284625
:10595C0003B030BD2A462046FFF7B9FF05460028A4
:10596C00F1D06368012B01D1FFF70EFD01A8FFF701
:10597C0020FEECE78842F8B504460D46164614D9CD
:10598C00904213D2A2F11006751AA1F110072C4403
:10599C00B74218D01CB131462046FFF77BFA30468F
:1059AC00FFF7FCF9103E103CF2E70CD0B5420AD0E0
:1059BC001CB129462046FFF76DFA2846FFF7EEF991
:1059CC0010351034F2E7F8BD70B50E1E054611DD2A
:1059DC003001FFF7A3F8044658B1D5E9001201EBEA
:1059EC000212FFF7C7FF2868FFF7A0F82C60AE6023
:1059FC00012070BD0024F6E72DE9F04F914697B0D9
:105A0C0000230391D9F804100C9346229942C0E963
:105A1C000033C0E90233C0E90433CDE90A3304464C
:105A2C00027623DCD9E90057142303FB0757AF4256
:105A3C003BD029460DA8FFF72DFA0DA911A80B9EF6
:105A4C00FFF728FADDE90B1399421BDA0A9B0B9A34
:105A5C0003EB061603EB0212314606F11000FFF7BA
:105A6C0089FFEEB90B9B01330B9311E00AA8FFF7EA
:105A7C00ABFF0028D6D10AA8FFF746FD204617B089
:105A8C00BDE8F08F01310AA8FFF79EFF0028DDD199
:105A9C0011A8FFF783F90DA8FFF780F91435C6E7B5
:105AAC0011A93046FFF7F6F9DCE70026CDE90D66C3
:105ABC000F9637464FF0140ADDE90A239E4280F216
:105ACC0097803301D35808930BB90136F4E70AFBDE
:105ADC0006F3099702930DAD09A908A8FFF7FCFA84
:105AEC0083460028F1D00146099A8DF81F700DF1FC
:105AFC001F032846FFF76EFB9DF81F800190B8F13D
:105B0C00000F66D1BDF82430ADF84830CDE91388CC
:105B1C004FF6FF73CDF844B0ADF84A30CDF8548051
:105B2C00D5E9013293421ADB03F1010BBBF1000FF3
:105B3C004ADD0AFB0BF0FEF7F1FF0490002845D07C
:105B4C00D5E900120AFB0212FFF771FE049B2868CC
:105B5C000493FEF7EBFF049B2B60C5F808B0019B88
:105B6C00D5F800B06A680AFB03F30BEB030101F1F3
:105B7C0014000AFB02B204910593FFF758FE049936
:105B8C00A9B1059B119A4BF80320BDF848308B80C6
:105B9C00BDF94A30CB80C1E902770F61139B8B6052
:105BAC00149B1397CB60159B14970B6115976B681F
:105BBC0001336B6013A8FFF793FCB8F1000F08D00A
:105BCC000DA8FFF78DFC56E74346C0E74FF00108E0
:105BDC00F0E7019B2D680AFB0355089B1B782BB93A
:105BEC00D9F80030029A13441B7CEB80083573E71C
:105BFC002168226062686360A3680B920C9A0C9314
:105C0C00E368A2600D9A0D932369E2600E9A0E93DD
:105C1C00636922610F9A0F93039B0A916261237649
:105C2C00CEE700007FB50546094B45F8043B04461A
:105C3C000E4601A81146FEF780FC01AA3146284603
:105C4C00FFF7DAFE01A8FEF737FC204604B070BD62
:105C5C00C8740D00F0B50F4687B026490C9C384629
:105C6C0016461D4601F02BFB00BBE4B129466846E5
:105C7C00FFF790FC2049242001F0A1FA054670B1F1
:105C8C00694603A8FEF759FC03AA31462846FFF7DC
:105C9C00C9FF03A8FEF710FC184B2C622B6068465A
:105CAC00FEF70AFC2C46204607B0F0BD14493846D6
:105CBC0001F005FBE0B9002CF5D029466846FFF74A
:105CCC0069FC0D49242001F07AFA05460028E6D03B
:105CDC00694603A8FEF731FC03AA31462846FFF7B4
:105CEC00A1FF03A8FEF7E8FB064B2B602C62D6E75E
:105CFC000024D8E77E750D009D770D0018760D00F9
:105D0C0082750D0000760D00014B024A1A60704737
:105D1C000CE6032093750D002DE9F047089DD0F893
:105D2C00209004460E461746984600F0BFFD81456C
:105D3C004CD02B79190704D56A6954492046FFF7D2
:105D4C003AFAB8F1000F0DD05B212046FFF727FA85
:105D5C0041462046FFF714FA23684D49DB680222BE
:105D6C00204698472B79DA0723D5D5F808802F21C0
:105D7C00404601F0EEFA08B100F101084146204618
:105D8C00FFF7FEF92B799B0708D53A212046FFF740
:105D9C0006FAEA683F492046FFF70DFA2A7923688C
:105DAC0012F0040FDB6814BF3B493C490222204629
:105DBC0098472B7958071DD529690B461A4613F8B5
:105DCC00010B60B1202808D11946F7E7344800F0E0
:105DDC00ECFE0028ADD0BDE8F0872828EED1236872
:105DEC00521ADB682046984723682E49DB68042248
:105DFC002046984700213846FEF7BAFD014620465A
:105E0C00FFF7BEF923682549DB6802222046984734
:105E1C001EB131462046FFF7B3F92B7913F0300F42
:105E2C002CD023682049DB680222204698472B7926
:105E3C00D9060AD523681D49DB68072220469847F6
:105E4C00AA691B492046FFF7B6F92B799A0611D59A
:105E5C00DB0605D523681049DB68022220469847EB
:105E6C0023681449DB6820460A229847E9692046D2
:105E7C00FFF786F95D212046FFF791F923680E495B
:105E8C00DB6820460222BDE8F047184797750D00E5
:105E9C009E750D00A4740D00A1750D00A6750D0066
:105EAC00BCE70320A4750D00A9750D00AC750D00A1
:105EBC00B4750D00B7750D00C2750D002DE9F043DA
:105ECC0085B0D0F820900C9C05460F4690461E4697
:105EDC0000F0ECFC814505D1494800F066FE002835
:105EEC0040F08A802B6A474A01924FF0000901A8C2
:105EFC0003938DF8089001F010F849464046FEF7E0
:105F0C0037FD41498046012201A801F08FF8414636
:105F1C00FFF728F93FB13D49012201A801F086F8AD
:105F2C003946FFF71FF93EB13949012201A801F0AA
:105F3C007DF83146FFF716F92379DF070ED5A668F1
:105F4C002F21304601F005FA00B1461C31490122DF
:105F5C0001A801F06BF83146FFF704F923799E078D
:105F6C0007D52D49022201A801F060F8E16800F084
:105F7C00E1FF2379580714D5266933461F4613F8D9
:105F8C00012B2AB1202A01D11E46F7E7282AF5D188
:105F9C002249022201A801F049F8BA1B314601F04E
:105FAC0055F82379190707D51D49012201A801F0DD
:105FBC003DF8616900F0D0FF2379DA0608D5042298
:105FCC0018490DEB020001F031F8A16900F0B2FFA5
:105FDC0023799B0607D51449062201A801F026F85F
:105FEC00E169FFF7BFF801A800F081FF286A0F49AB
:105FFC0003680222DB68984705B0BDE8F08300BF58
:10600C00BCE70320E8750D0074750D00C5750D0017
:10601C00C7750D00C9750D00CB750D00CE750D0043
:10602C00F9740D00D1750D00D6750D00C2750D00FB
:10603C00024B1A68024B1A60704700BF18E5032028
:10604C0038E6032010B58368044613B103220146D9
:10605C009847204610BD10B50446FFF7F3FF2046C5
:10606C0010BD13B50B460246D0E900016C4684E81E
:10607C00030093E8030082E8030094E8030083E83C
:10608C00030002B010BD00000348044A0449002379
:10609C00836001F08DB800BF3CE6032080E503204F
:1060AC0063600D00014B1860704700BF1CE50320B6
:1060BC0008B50B4B43B100F0F9FB03681B6998471B
:1060CC00002801DDAFF30080064B43B100F0C2FCA9
:1060DC0003681B699847002801DDAFF3008008BDF9
:1060EC00000000000000000008B5FFF7E1FFFEF71C
:1060FC001FFB014B186008BDD0E703200248034A80
:10610C000349121A01F070B800F4032004F40320C0
:10611C00D0780D0007B5002300931A466FF0770175
:10612C00FEF758FC03B05DF804FB000007B543888C
:10613C000A2B08D0502B0BD1094B1B684BB103B069
:10614C005DF804EB1847FFF7E5FF03B05DF804FBBF
:10615C00002300931A466FF07701FEF73BFCF4E73F
:10616C0050E6032038B5124C1248134D0021FEF7AF
:10617C000DFD2368AB42114B0CBF012200221A709B
:10618C0002D0FFF7BBFF2560FEF7C2FA044601F010
:10619C005BF80B4B13B12046AFF30080002108488D
:1061AC00FEF7ACFCBDE8384006480021FEF708BC01
:1061BC0000F40320B1600D001E1C279A4CE603204E
:1061CC000000000039610D0070470020704710B5C9
:1061DC001021044600F0F1FF204610BD08B5FFF772
:1061EC00F6FF08BD30B500224FF69C740260848027
:1061FC008D888C800C68858004600A6030BD10B579
:10620C0004460068FEF792FC204610BD38B5C46801
:10621C00F4B12378022B03D104F10C00FFF7EFFF4C
:10622C00656835B12846FFF70DFF1021284600F0B0
:10623C00C4FFA56835B12846FFF704FF1021284696
:10624C0000F0BBFF20461421BDE8384000F0B5BF7C
:10625C0038BD08460021FEF759BC73B50E460446FE
:10626C0056F8043B00930D4601A83146FEF778FE24
:10627C00019A009B6260236001A8002301930093A4
:10628C00FEF775FE3046FEF772FE2846082100F038
:10629C0094FF204602B070BD826810B50AB900F0B8
:1062AC0092FFBDE81040C368184708B5006800F1BC
:1062BC001001FFF7F1FF08BD826810B50AB900F0B4
:1062CC0082FFBDE81040C368184708B5006800F1AC
:1062DC001001FFF7F1FF08BD38B500230446036039
:1062EC0010200D46FDF7CFFE28B10123C0E9013384
:1062FC00024B0360C5602060204638BD7C760D00E3
:10630C0038B5002383608B6804460D462BB10222FE
:10631C009847EB68E360AB68A360204638BD00008B
:10632C00F0B589B004686846FFF75CFF4FF00203D4
:10633C00D4E84F2F002A03D1C4E8413F0029F7D1FC
:10634C0025D104F10C0569462846FFF74BFFBFF336
:10635C005B8F01236370002004F10803BFF35B8F94
:10636C0053E8006F43E80002002AF9D1BFF35B8FBA
:10637C006EB1FEF715FB78B129463046FFF78CFF5E
:10638C003046FFF75FFE1021304600F016FF6846DE
:10639C00FFF735FF09B0F0BD314602A8FFF7B0FF9B
:1063AC00E068B4F9105008B100F09CFF0690102082
:1063BC00ADF81C50FDF767FE0546E8B10027876075
:1063CC001820FDF760FE044688B10146876002A8DC
:1063DC00FFF747FE049BA268A360059B049206A9E5
:1063EC00E268E36004F110000592FFF7FBFE084B36
:1063FC00EB60084B2C60AB6006A8FFF700FF02A80F
:10640C00FFF720FE002229460348FEF7D1FAB7E732
:10641C00B7620D004D650D00B56A0D002DE9F04712
:10642C008AB005469DF848900C4617469846FEF7EC
:10643C0045FB07AE824638BB4FF62E73059005A977
:10644C003046ADF81830FFF7CDFE1420FDF71BFEDB
:10645C00044648B1022303700123C0E901AA43702A
:10646C0031460C30FFF7BEFE2846214640F8044B5F
:10647C00FFF732FF3046FFF7C2FE05A8FFF7BFFE5D
:10648C0028460AB0BDE8F0870C234FF0000A142010
:10649C00CDE908AA0793FDF7F6FD014628B1C0E93E
:1064AC0001AA80F800A080F801A004A80391FFF7CE
:1064BC0013FF224B08930820FDF7E5FD824628B117
:1064CC00039B40F8043B04A9FEF74AFD00965FFAD3
:1064DC0089F3424639462046CDF824A0FEF7F6FA59
:1064EC00B8B9039B5B7803F0FF0293B94FF69C732A
:1064FC0005A903A80592ADF81830FFF711FF05A800
:10650C00FFF77DFE05A80999FFF7A7FE06A8FEF781
:10651C002EFD039B059304A906A8FEF721FD059B00
:10652C00069A2B606A60002306A806930593FEF773
:10653C001EFD04A8FEF71BFDA2E700BF11660D00AF
:10654C00022AF8B5054607D0032A18D0012A01D132
:10655C000B6803600020F8BD18200E68FDF793FD52
:10656C00044650B13146FFF7CBFE3069B6F91470D2
:10657C0008B100F0B7FE2061A7822C60EAE704683E
:10658C00002CE7D004F11000FFF739FE2046FFF78E
:10659C0059FD1821204600F010FEDBE738B500232A
:1065AC0083608B6804460D462BB102229847EB683A
:1065BC00E360AB68A360204638BD022A70B5044680
:1065CC0007D0032A12D0012A01D10B6803600020E6
:1065DC0070BD14200E68FDF756FD054620B13146FE
:1065EC00FFF7DCFF337C2B742560F0E70468002C8C
:1065FC00EDD02046FFF726FD1421204600F0DDFDEE
:10660C00E5E70000F0B589B004460D4601A8114637
:10661C00FFF723FEA4B124B21DB1284600F062FEA0
:10662C00054601A803A90395ADF81040FFF778FEC5
:10663C0003A8FFF7E4FD02A8FEF799FC09B0F0BD32
:10664C00019D0123D5E84F2F002A03D1C5E8413F16
:10665C000029F7D1EFD12B73BFF35B8F6B702B1D20
:10666C00BFF35B8F53E8006F43E80042002AF9D177
:10667C00BFF35B8F002EDED02046FEF791F9074664
:10668C0060B105F10C013046FFF716FE3046FFF7FE
:10669C00D9FC1021304600F090FDCCE7314603A820
:1066AC00FFF77CFF2B7B8DF81C301020FDF7EBFCEB
:1066BC000546D0B187601420FDF7E5FC044678B19F
:1066CC008760014603A8FFF7CCFC059BA268A3607A
:1066DC00069B0592E268E3609DF81C3006922374D9
:1066EC00064BEB60064B2C60AB6003A8FFF7AAFCD3
:1066FC00002229460348FEF75BF9C7E7D7620D0075
:10670C00C7650D00B56A0D00704710B51821044619
:10671C0000F053FD204610BDF0B5037D062B8DB067
:10672C000E4600F104074FF0000412D000F10805EA
:10673C0015F8011D0A223046FEF771FCAF420444E5
:10674C0019D0002CF4D02E213046FEF759FC04440D
:10675C00EEE72F236A4639460A208DF80040FEF7F3
:10676C000FF8684600F0DBFD33680246DB686946CB
:10677C0030469847044620460DB0F0BD10B5054B89
:10678C000446112240F8043B002100F055FD204640
:10679C0010BD00BF98760D000346074A10B543F8AC
:1067AC00042B01F1100251F8044B43F8044B9142B5
:1067BC00F9D10A781A7010BD98760D0010B59DF8B5
:1067CC00084044EA032343EA024242EA01610423FB
:1067DC004160037510BD13B5CB7800938B784A7864
:1067EC000978FFF7EBFF02B010BD4174704770479A
:1067FC0008B50021007CFEF78BF840EAE07008BD7C
:10680C0008B50121007CFEF783F840EAE07008BD72
:10681C0008B5007CFEF774F820EAE07008BD08B5F6
:10682C00007CFEF765F820EAE07008BD13B504465D
:10683C00007C0191FEF764F80028019901DC607C72
:10684C0020B1207CFEF76CF820EAE07002B010BD9D
:10685C00007CFEF76DB810B51421044600F0ADFCB9
:10686C00204610BD10B54FF47A730446084600213B
:10687C00C4E90113044B2360012320746374114693
:10688C00FEF71EF8204610BDAC760D00007C0022F1
:10689C00FEF71EB8007CFEF723B810B51422044690
:1068AC00002100F0C9FC204610BD000010B5104CB2
:1068BC0088B003A8FFF7F1FF2178BFF35B8F11F0CD
:1068CC00010111D120460191FDF7EEFB019958B160
:1068DC0003AA0848FFF7C6FF2046FDF7EAFB064A65
:1068EC000649044800F064FC024808B010BD00BF23
:1068FC0054E6032058E6032080E50320FB670D00D7
:10690C00002240681146FEF791B8002240681146FB
:10691C00FEF7ACB8002240681146FEF7B7B84068E5
:10692C000022FEF7ABB84068002281F00101FEF7AF
:10693C0095B8002340681A461946FEF787B800231D
:10694C0040681A461946FEF779B80022406811468D
:10695C00FEF75CB8406800220221FEF75FB8002306
:10696C0040681A46FEF74AB8084B10B52824224650
:10697C001846002100F060FC054B04804FF0FF32FC
:10698C00426004225A60034A1A6010BD74E6032068
:10699C006CE60320DC760D0070474174704708B537
:1069AC00007CFDF735FF20EAE07008BD08B5007CDF
:1069BC00FDF706FF20EAE07008BD08B5007CFDF786
:1069CC000FFF40EAE07008BD08B5007CFDF700FF42
:1069DC0040EAE07008BD007CFDF70ABF37B5457C86
:1069EC0004462DB1207C03B0BDE83040FDF7E0BE7D
:1069FC00007C0191FDF70CFF00280199F2DC284680
:106A0C0003B030BD10B51421044600F0D6FB20466F
:106A1C0010BD000010B54FF0000C0446084611469E
:106A2C004FF47A72C4E901C2044A22600122207434
:106A3C0062741A46FDF7ACFE204610BD10770D00AF
:106A4C00007C0023FDF7ECBE0022FFF7F9BF007CB1
:106A5C00FDF7A6BE13B50E4C2178BFF35B8F11F07A
:106A6C00010112D120460191FDF71EFB019960B185
:106A7C00084A094B0948FFF7CDFF2046FDF719FBE3
:106A8C00074A0849054800F093FB044802B010BDC2
:106A9C009CE60320A0E6032024E70320A8E70320BC
:106AAC0080E50320A5690D0010B5836804460BB979
:106ABC0000F089FBC3689847A3681BB103222146E9
:106ACC002046984720461021BDE8104000F075BBC9
:106ADC007047F8B5064615460C468F18BC4206D0D2
:106AEC00336814F8011B9B6830469847F6E7284634
:106AFC00F8BD007C0022FDF79BBE007C0021FDF759
:106B0C009FBE007C0021FDF7A3BE007C0021FDF799
:106B1C00A7BE007C0021FDF7ABBE10B514210446C6
:106B2C0000F04BFB204610BD10B54FF47A730446B1
:106B3C0008460021C4E90113034B2360207411465D
:106B4C00FDF7A6FE204610BD40770D0000234068DF
:106B5C001A46FDF753BF406800220221FDF75EBFC5
:106B6C00002240681146FDF751BF002240681146D3
:106B7C00FDF75CBF002340681A461946FDF75EBF5F
:106B8C00002340681A461946FDF760BF4068002292
:106B9C0081F00101FDF762BF40680022FDF76EBF76
:106BAC00002240681146FDF771BF00224068114673
:106BBC00FDF75CBF2DE9F043002495B016460D4659
:106BCC000746FFF7DBFD214618220EA8009400F0C3
:106BDC0033FB4023CDE90C3421466B460CAA3046DE
:106BEC00FDF776FD0446002846D10246012168686F
:106BFC00FDF71CFF0221804622466868FDF716FF50
:106C0C00009E81462146002E36D0002934D173686F
:106C1C00022B03D00A2B0BD0F669F4E7B8F1000F66
:106C2C0004D0716938460431FFF7D5FD4146F3E7CE
:106C3C00B9F1000F01D14946EEE77469102201A8A1
:106C4C0000F0FAFA06238DF8143001AD04F10803B4
:106C5C001834186859682A4603C20833A3421546EB
:106C6C00F7D101A906A807ADFFF796FD0FCD3C1D86
:106C7C000FC42B682370DEE70098FDF721FD384622
:106C8C0015B0BDE8F0830000024B034A1A600022E5
:106C9C005A607047BCE7032068770D0000F11003C1
:106CAC00012213F8101C0129184608D153F8041CB2
:106CBC0002EB4102013A03F11003F2D170470229B1
:106CCC0004BF53F8041C5218F4E70EB4F0B588B0A6
:106CDC0000AF07F13405102155F8042B7A600446F7
:106CEC002B467818FD60FDF739FF0F287A681AD902
:106CFC0000F1080323F007036E46ADEB030D411CB6
:106D0C002B466846FD60FDF729FF021E04DD236853
:106D1C0069469B6820469847B5462037BD46BDE876
:106D2C00F04003B070470028F7D0236802469B68F8
:106D3C0007F1100120469847EFE710B503680446A9
:106D4C009B689847A368013BA3602BB92368204636
:106D5C00DB68BDE81040184710BD07B503688DF817
:106D6C0007109B6801220DF10701984703B05DF8ED
:106D7C0004FB38B50B6803604D6843689D420446BC
:106D8C000CD015B16B6801336B60606828B1436837
:106D9C00013B43600BB9FFF7D0FF6560204638BD5F
:106DAC000B461146002210B5C0E900220446836050
:106DBC000BB9204610BDFFF7DCFFFAE78368EBB197
:106DCC001A78032A1AD8DFE802F00417021B0520F0
:106DDC00704702685B685268D05C2D2812D0A0F115
:106DEC003003092B0ED974280ED066280CD0A0F1D4
:106DFC006E03584258417047062070470020704778
:106E0C0004207047032070470220704710B50446D9
:106E1C00FFF7D4FF02280ED0C31EDBB2012B14D80F
:106E2C002268A36850685B68BDE810400A22002104
:106E3C00184400F01DBB2268A36852685B68D05CE4
:106E4C00A0F174035842584110BD0020FCE700002B
:106E5C0038B50023C0E9003304460E48C4E90203E8
:106E6C00A9B10B78032B06D08BB9136858684B6803
:106E7C00C35C6E2B07D013684D6858688B68284428
:106E8C005B1BA060E36011462046FFF772FF2046B3
:106E9C0038BD00BFC4750D0038B500250B46C0E9E0
:106EAC000055C0E90255C0E90455044611464BB1E2
:106EBC001A78012A06D103F11002DB688260436163
:106ECC00FFF757FF204638BD10B54369044663B140
:106EDC008068E060013B1030A0602061636113B1F9
:106EEC00FFF7DCFEA060012000E0184610BD10B5D5
:106EFC007D210446FFF731FF01232371204610BD8D
:106F0C0008B50379012B02D0022B04D008BD2C212B
:106F1C00FFF723FFFAE73A21FAE710B50446FFF72B
:106F2C00EFFF20467B21FFF718FF0023237120463B
:106F3C0010BD000013B504460191FFF7E1FF236873
:106F4C00019ADB68034920469847012320462371A8
:106F5C0002B010BDA4740D0013B504460191FFF7E7
:106F6C00CFFF2368019ADB68034920469847012329
:106F7C002046237102B010BD94770D002DE9F0412D
:106F8C000D4617462221DFF8A08004462F44FFF758
:106F9C00E4FE2946BD422A4638D015F8016B222E54
:106FAC0003D05C2E01D01F2EF4D82368521A9B6894
:106FBC00204698475C212046FFF7CFFE0D2E0AD8BD
:106FCC00072E1CD9A6F10803052B18D8DFE803F00F
:106FDC000D0F11171315222E01D05C2E0FD1314637
:106FEC002046FFF7BAFE2946D4E76221F8E7742160
:106FFC00F6E76E21F4E76621F2E77221F0E72368E9
:10700C003246DB68414620469847ECE78D4204D077
:10701C0023686A1A9B682046984722212046FFF76E
:10702C009CFEBDE8F08100BF97770D0013B50446B8
:10703C00CDE90021FFF764FF2046DDE90021FFF7D1
:10704C009DFF02232046237102B010BD13B50446E8
:10705C00CDE90021FFF754FF2046DDE90021FFF7C1
:10706C008DFF01232046237102B010BD232813B5D8
:10707C0002D9002002B010BDA0F10B03022B1AD8CC
:10708C00174C2178BFF35B8F11F001010BD1204617
:10709C000191FDF709F8019928B11248FDF7BCFDE3
:1070AC002046FDF706F80F4B1878FDF701FC002879
:1070BC00DFD10120DEE7012809D800F051F80021CA
:1070CC00007CFDF7DDFB80F00100C0B2D2E709388F
:1070DC000128EED8FFF7BEFC007CFDF791FBF2E730
:1070EC00C4E70320C8E70320232838B504460D461F
:1070FC000AD8FF2908D0FFF7B9FF28B12946204646
:10710C00BDE83840FDF7ECBA38BD10B50446FDF7C4
:10711C00EFFA031FDBB2012B08D92046FFF7A6FFBD
:10712C0020B12046BDE81040FDF7EABA002010BDA2
:10713C0038B5002320254380142304460380856042
:10714C0005610649284600F03CF804496060284671
:10715C0000F037F8E060204638BD00BF9D770D0089
:10716C0030B50F4D2978BFF35B8F11F0010487B058
:10717C0013D12846FCF798FF78B101A8FFF7D8FF88
:10718C0001AA21460748FFF7CFFC2846FCF791FFE0
:10719C00054A0649034800F00BF8024807B030BD19
:1071AC00D8E70320DCE7032080E50320DD6A0D002F
:1071BC000B460146184600F009B8FCF768BFFCF70F
:1071CC0062BFFCF762BF08B5FDF7D0FC10B5054CEB
:1071DC0013462CB10A4601460220AFF3008010BDC5
:1071EC002046FCE7000000000A44914200F1FF3306
:1071FC0000D1704710B511F8014B03F8014F9142C3
:10720C00F9D110BD884210B501EB020402D98442B9
:10721C00234607D8431EA14208D011F8012B03F8CE
:10722C00012FF8E7024401468A4200D110BD13F841
:10723C00014D02F8014DF7E702440346934200D199
:10724C00704703F8011BF9E738B50D4B1D68AB6BA4
:10725C0004467BB91820FDF761FC0A4A0A4BA86367
:10726C00C0E90023094B83600B2383810122002397
:10727C00C0E90423AB6B00221C615A6138BD00BF0E
:10728C001CE503200E33CDAB34126DE6ECDE0500AD
:10729C00C9B2034610F8012B1AB18A42F9D118462B
:1072AC007047002918BF0023F9E710B50446FFF713
:1072BC00EFFF18B9204600F032F8204410BD10F84A
:1072CC00012B11F8013B012A28BF9A42F7D0D01AA2
:1072DC007047034611F8012B03F8012B002AF9D152
:1072EC0070470000024B0146186800F003B800BF5D
:1072FC001CE5032037B5044608460D4600F00FF890
:10730C00421C114620460192FDF738FC044618B188
:10731C00019A2946FFF768FF204603B030BD0346AB
:10732C0013F8012B002AFBD1181A0138704710B53D
:10733C006AB10139841810F8013B11F8012F9342FE
:10734C0003D1A04201D0002BF5D1981A10BD1046E4
:10735C00FCE738B503460C4669B9BDE83840FFF781
:10736C0097BF431C054621461846FFF791FF00289E
:10737C00F7D1284638BD0025F5E700002DE9F04788
:10738C003A4E86468C4660461CF8014BA55D15F0BE
:10739C000805F8D12D2C33D19CF800404FF0010892
:1073AC0000F1020C002B5CD0102B0CD1302C0AD12C
:1073BC009CF8000000F0DF0058284DD19CF80140EB
:1073CC0010230CF1020C08F10047013F0026B7FB1B
:1073DC00F3F9304603FB197AA4F13005092D18D8BE
:1073EC002C46A34224DD751C07D081451DD301D149
:1073FC00A2451ADB00FB034001261CF8014BEBE70E
:10740C002B2C08BF9CF80040A84608BF00F1020CCA
:10741C00C8E7A4F14105192D01D8373CE1E7A4F1E7
:10742C006105192D04D8573CDBE74FF0FF36E4E734
:10743C00731C06D12223CEF80030384642B9BDE881
:10744C00F087B8F1000F00D04042002AF7D00EB1FF
:10745C000CF1FF311160F2E73024002BB3D108237B
:10746C00B1E7302CA4D00A23ADE700BF9F770D0005
:10747C0013460A46014602480068FFF77FBF00BF6B
:10748C001CE503201D400D0059400D0081400D00EE
:10749C0085400D00000000002564005B25642C2550
:1074AC00642C25645D007075626C69736865643A60
:1074BC002025730000000000000000000000000008
:1074CC0000000000A1400D00C5400D0000000000B0
:1074DC000000000019410D004D410D00255D0D000F
:1074EC00C7400D0052616461724576656E7400731D
:1074FC006865657454657374310000000000000009
:10750C0000000000074C0D00FD4B0D00F34B0D006F
:10751C00E94B0D00DD4B0D00D14B0D00C54B0D00A3
:10752C00BD4B0D00B34B0D00A94B0D00C16B0D00F5
:10753C00776972696E670053797374656D20736C2B
:10754C0065657020636F6E66696775726174696FCB
:10755C006E20697320696E76616C69642E006261BD
:10756C0075640053657269616C0053657269616C76
:10757C0031004A534F4E53747265616D4C6F6748BE
:10758C00616E646C6572006170700025303130750D
:10759C0020005D20002C200028293A2000205B00D0
:1075AC00636F6465203D2000256900646574616922
:1075BC006C73203D20000D0A006D00630066006CAA
:1075CC006E00666E00636F64650064657461696C5F
:1075DC00000000000000000000000000E3500D005F
:1075EC0009510D00C9500D00D76C0D0000000000B2
:1075FC00000000004D550D0065550D00255D0D007A
:10760C00C7400D00000000000000000079550D007F
:10761C008D550D00C95E0D00D1500D00000000000D
:10762C0000000000E1500D0017510D00615C0D00D1
:10763C00D3500D000000000000000000DF500D00D2
:10764C0025510D0095540D0041510D0025592D2546
:10765C006D2D25645425483A254D3A2553257A003D
:10766C0061736374696D6500000000000000000028
:10767C00D5610D00DB610D0019620D00E9610D0093
:10768C00D7610D00000000000000000025670D0010
:10769C0015670D0017670D000000000000000000CA
:1076AC00FB670D0063680D0039680D00BD4F0D00C0
:1076BC002B680D00FD670D000D680D005D680D0059
:1076CC001D680D00F7670D000000000000000000B1
:1076DC006B690D0061690D0057690D000D690D0096
:1076EC004B690D003F690D0033690D002B690D00CE
:1076FC0021690D0017690D00C16B0D000000000021
:10770C0000000000A5690D00116A0D00E9690D006B
:10771C00BD4F0D00B9690D00D5690D00C7690D008D
:10772C00E3690D00A7690D00AB690D0000000000B6
:10773C0000000000DD6A0D00276B0D00FF6A0D00D4
:10774C00DF6A0D00076B0D000F6B0D00176B0D0042
:10775C001F6B0D000000000000000000596B0D00B5
:10776C00636B0D006D6B0D00776B0D00816B0D0065
:10777C008D6B0D00996B0D00A56B0D00AD6B0D00A5
:10778C00B76B0D00C16B0D00257500752530347875
:10779C00000000202020202020202020282828281D
:1077AC0028202020202020202020202020202020C5
:1077BC002020208810101010101010101010101015
:1077CC001010100404040404040404040410101025
:1077DC0010101010414141414141010101010101D1
:1077EC00010101010101010101010101010110105F
:1077FC0010101010424242424242020202020202A5
:10780C000202020202020202020202020202101030
:10781C00101020000000000000000000000000001C
:10782C00000000000000000000000000000000004C
:10783C00000000000000000000000000000000003C
:10784C00000000000000000000000000000000002C
:10785C00000000000000000000000000000000001C
:10786C00000000000000000000000000000000000C
:10787C0000000000000000000000000000000000FC
:10788C0000000000000000000000000000000000EC
:10789C0000000000AD450D00114C0D006D4D0D00AC
:1078AC00954F0D00155D0D003D600D0095600D00B0
:1078BC0075690D00956C0D000000000000000000C3
:0478CC0000000000B8
:0478D00000000000B4
:1078D400FB740D0030760D0048760D006C760D00BB
:1078E40020E503200000000000000000000000006C
:1078F4000000000000000000000000000000000084
:107904000000000000000000000000000000000073
:107914000000000000000000000000000000000063
:107924000000000000000000000000000000000053
:107934000000000000000000000000000000000043
:04794400000000003F
:10794800FFFFFFFF00000102030405060708090AFC
:107958000B0C0D0E0F101112131415161718191AF7
:087968001B1C1D1E1F2028003E
:0479700078563412FF
:04000003D000401CCD
:00000001FF
