:02000002D0002C
:1040000000400D00C0740D00000006000D00050109
:084010000401BD0B00000000DB
:0440180008700D001F
:10401C0009480A49884208B505D0094A824202D0AB
:10402C00121A02F09DFE0748074A0021121A02F0EC
:10403C00BFFE014808BD00BF20E5032024740D001D
:10404C0094E5032094E50320F0E7032070B5074EB8
:10405C00074C01F033FEA41BA4080025A54200D197
:10406C0070BD56F8043B98470135F7E7F8730D001F
:10407C001C740D0000F061B808B500F0C1F8BDE883
:10408C00084001F0DDBD00F0BDBB00F0BBBB00F093
:10409C00C1BB000008B5034A00210C2000F0E6FA71
:1040AC00FEE700BF59440D000078B0FA80F04009DB
:1040BC0070470123037070477047006A0368DB6820
:1040CC00184700000A4B10B50446036000F016FFB9
:1040DC00214601F006F902F097F902F089F9204621
:1040EC00044B40F8043B00F0E9FF204610BD00BF34
:1040FC0058700D0040700D0010B50446FFF7E2FF3C
:10410C002046242102F015FE204610BD0EB410B539
:10411C008DB00FAA016852F8044B039200232020A3
:10412C00CDE90403CDE900421E2004AA00F0A6FA52
:10413C000DB0BDE8104003B0704708B50021022057
:10414C0002F08EFD0021032002F08AFDBDE808403C
:10415C000021042002F084BD10B5184BA4B01A6BDA
:10416C0001925A6A00929B69154A802104A800F0BA
:10417C0061FB144B14491B788DF8003009683C2303
:10418C0004AA02A801F0F2FE039C7CB16368013B17
:10419C0063605BB9236820469B689847A368013B22
:1041AC00A3601BB923682046DB6898470749084879
:1041BC0004AAFFF7ABFF24B010BD00BFC4E5032079
:1041CC001C700D0098E5032020E5032027700D00DE
:1041DC0010E6032010B500F124010024D0E90123DE
:1041EC00012A08D11BB9C36882600133C3600C304B
:1041FC008842F3D110BD012B08BF8460F7E70000A3
:10420C0038B5022002F03DFD114C124D2061032007
:10421C0002F037FDE061042002F033FDA06220467D
:10422C00FFF7D8FF00F01AF92B68C01A47F22F538A
:10423C0098420BD900F0CEFA40B100F00FF928608B
:10424C00FFF78AFF0023A3616362236338BD00BFBD
:10425C00C4E503209CE5032070B5D0E90053142677
:10426C00044606FB0356AE4204D0284600F080FB01
:10427C001435F8E7206800F0CDFA204670BD88426E
:10428C00F8B504460D46164616D9904215D2A2F141
:10429C001406751AA1F114072C44B7421CD02CB18A
:1042AC003146204600F0CCFB337C2374304600F0C2
:1042BC005FFB143E143CF0E70ED0B5420CD02CB191
:1042CC002946204600F0BCFB2B7C2374284600F0CA
:1042DC004FFB14351434F0E7F8BD2DE9F041002301
:1042EC00C0E9003383604F689F4204460E4623DDCD
:1042FC004FF0140808FB07F000F084FA0546D8B11B
:10430C00D4E9001208FB0212FFF7B9FF206800F095
:10431C0081FA2560A760D6E9007308FB0378B845DD
:10432C0008D03946284600F0A5FB3B7C2B7414378B
:10433C001435F4E7736863602046BDE8F081000033
:10434C0070B5234B234C01208CB01870002100F069
:10435C00B5F90023CDE90033029302F055F8694614
:10436C00054603A8FFF7B9FF264603A906A8FFF7E1
:10437C00B4FF194B46F8043B06A909A8FFF7ADFF9B
:10438C0009AA1E21304601F0FFF809A8FFF764FFC7
:10439C0006A8FFF761FF114B236003A82562FFF706
:1043AC005BFF0F4B236002F02FF84FF4165102F015
:1043BC001BF800F0A3FD214601F078F86846FFF7E2
:1043CC004BFF084A0849204602F0AEFC0CB070BD09
:1043DC0098E50320A0E5032040700D0048710D0006
:1043EC0058700D0094E50320D1400D0008B5024B28
:1043FC001B689B68019308BD6802030008B5024B5B
:10440C001B68DB68019308BD6802030008B5024B0A
:10441C001B689B68019308BD2C02030008B5024B76
:10442C001B68DB68019308BD2C02030008B5024B26
:10443C001B685B69019308BD2C02030008B5024B95
:10444C001B685B68019308BD1802030008B5024B9A
:10445C001B68DB68019308BD1802030008B5024B0A
:10446C001B685B69019308BD1802030008B5024B79
:10447C001B685B6C019308BD4802030008B5024B36
:10448C001B689B6C019308BD4802030008B5024BE6
:10449C001B68DB6C019308BD4802030008B5024B96
:1044AC001B685B6D019308BD4802030008B5024B05
:1044BC001B685B69019308BD6402030008B5024BDD
:1044CC001B681B68019308BD3C02030008B5024B36
:1044DC001B689B68019308BD3C02030008B5024BA6
:1044EC001B68DB68019308BD3C02030008B5024B56
:1044FC001B681B69019308BD3C02030008B5024B05
:10450C001B685B69019308BD3C02030008B5024BB4
:10451C001B689B69019308BD3C02030008B5024B64
:10452C001B68DB69019308BD3C02030008B5024B14
:10453C001B681B6A019308BD3C02030008B5024BC3
:10454C001B689B6A019308BD3C02030008B5024B33
:10455C001B68DB6A019308BD3C02030008B5024BE3
:10456C001B681B6A019308BD2802030008B5024BA7
:10457C001B685B6A019308BD2802030008B5024B57
:10458C001B689B6A019308BD2802030008B5024B07
:10459C001B68DB6A019308BD2802030008B5024BB7
:1045AC001B681B6B019308BD2802030008B5024B66
:1045BC001B685B6B019308BD2802030008B5024B16
:1045CC001B681B6C019308BD2802030008B5024B45
:1045DC001B68DB69019308BD3002030008B5024B70
:1045EC001B681B6A019308BD3002030008B5024B1F
:1045FC001B681B68019308BD4C02030008B5024BF5
:10460C001B685B68019308BD4C02030008B5024BA4
:10461C001B689B68019308BD4C02030008B5024B54
:10462C001B681B69019308BD4C02030008B5024BC3
:10463C001B685B69019308BD4C02030008B5024B73
:10464C001B689B69019308BD4C02030008B5024B23
:10465C001B68DB69019308BD4C02030008B5024BD3
:10466C001B681B6A019308BD4C02030008B5024B82
:10467C001B685B6B019308BD6002030008B5024B1D
:10468C001B685B6D019308BD6002030008B5024B0B
:10469C001B68DB6E019308BD6002030008B5024B7A
:1046AC001B681B6F019308BD6002030008B5024B29
:1046BC001B685B68019308BD2002030008B5024B20
:1046CC001B68DB6A019308BD2002030008B5024B8E
:1046DC001B68DB6C019308BD2002030008B5024B7C
:1046EC001B685B6D019308BD2002030008B5034BEA
:1046FC001B68D3F88830019308BD0000200203002A
:10470C0008B5034B1B68D3F89430019308BD000027
:10471C002002030008B5024B1B685B68019308BDBF
:10472C004002030008B5024B1B689B68019308BD4F
:10473C004002030008B5024B1B68DB68019308BDFF
:10474C004002030008B5024B1B681B69019308BDAE
:10475C004002030008B5024B1B685B69019308BD5E
:10476C004002030008B5024B1B689B69019308BD0E
:10477C004002030008B5024B1B68DB69019308BDBE
:10478C004002030008B5024B1B681B6A019308BD6D
:10479C004002030008B5024B1B681B6B019308BD5C
:1047AC004002030008B5024B1B685B6B019308BD0C
:1047BC004002030008B5024B1B681B6C019308BD3B
:1047CC004002030008B5024B1B685B6C019308BDEB
:1047DC004002030008B5024B1B685B69019308BDDE
:1047EC004402030008B5024B1B681B6A019308BD09
:1047FC004402030008B5024B1B68DB6B019308BD38
:10480C004402030008B5024B1B681B68019308BDEA
:10481C001C02030008B5024B1B685B68019308BDC2
:10482C001C02030008B5024B1B689B68019308BD72
:10483C001C02030008B5024B1B68DB69019308BD21
:10484C001C02030008B5024B1B685B6A019308BD90
:10485C001C02030008B5024B1B68DB6A019308BD00
:10486C001C02030008B5024B1B681B6B019308BDAF
:10487C001C02030008B5024B1B685B6C019308BD5E
:10488C001C020300002240681146FFF77BBF002288
:10489C0040681146FFF786BF40680022FFF77ABFD9
:1048AC004068002281F00101FFF764BF00234068DB
:1048BC001A461946FFF756BF002340681A46194698
:1048CC00FFF748BF002240681146FFF73BBF0022AC
:1048DC0040681146FFF726BF406800220221FFF70F
:1048EC0029BF002340681A46FFF714BF024B03226E
:1048FC005A60024A1A607047E8E503207C700D008C
:10490C0010B5044608462170FFF760FE0023636073
:10491C00204610BD10B50446006818B1FFF77AFFA9
:10492C000023236010BD10B50446FFF7F3FF2046AB
:10493C0010BD000010B5094B094C022200201A6072
:10494C00084B2060A080A071A360FFF7AFFE20464B
:10495C00054A0649BDE8104002F0E6B9FCE5032023
:10496C00F0E503200000FFFF94E5032033490D0020
:10497C0010B504460068FFF74DFF204610BD10B57A
:10498C000446006808B1FFF745FF0023C4E9013372
:10499C00236010BD38B504460D4600680131FFF7A1
:1049AC0041FF10B1C4E90005012038BD10B5036802
:1049BC00044623B143688B4201D3012010BD20462D
:1049CC00FFF7E8FF0028F9D0A368002BF5D1226887
:1049DC001370F2E737B50D46114601920446FFF706
:1049EC00E5FF019A28B92046FFF7C9FF204603B01E
:1049FC0030BDA2602946206802F0B2F92268A36893
:104A0C000021D154F2E738B5054600680C4668B170
:104A1C006A688B689A4207D3096802F016FAA36891
:104A2C00AB600023A36038BDFFF7F4FE23682B6056
:104A3C0063686B60A368AB600023C4E90033F1E7E3
:104A4C0010B50023C0E90033044683600373FFF7FD
:104A5C00DAFF204610BD884210B5044605D00B681D
:104A6C002BB18A681946FFF7B5FF204610BDFFF73A
:104A7C0086FFFAE710B500230446C0E900338360D3
:104A8C000373FFF7E8FF204610BD10B5036804461A
:104A9C009B689847A368013BA3602BB92368204609
:104AAC00DB68BDE81040184710BD10B5044600681F
:104ABC0008B1FFF7E3FC204610BD10B5836804462F
:104ACC0013B1032201469847204610BD70B5D0E9BA
:104ADC000053044605EB0316AE4204D02846FFF7FC
:104AEC0047FF1035F8E72068FFF794FE204670BDAD
:104AFC000B68036013B15A6801325A60704710B5E5
:104B0C000446006828B14368013B43600BB9FFF7CA
:104B1C00BCFF204610BD13B50B460246D0E9000180
:104B2C006C4684E8030093E8030082E8030094E8F1
:104B3C00030083E8030002B010BD000010B5064C62
:104B4C00002320462360FFF791FC2046034A0449CA
:104B5C00BDE8104002F0E8B800E6032094E503201D
:104B6C00B74A0D00F8B506460D468F180024BD4215
:104B7C000CD0336815F8011B9B6830469847031E10
:104B8C0001DB1C44F3E7002C08BF1C462046F8BD93
:104B9C0013B50446084659B1019102F07CF923681B
:104BAC000199DB680246204602B0BDE81040184768
:104BBC0002B010BD03689B68184738B50D21054637
:104BCC00FFF7F8FF0A2104462846FFF7F3FF2044BD
:104BDC0038BD30B58BB000238DF82430012A98BF36
:104BEC000A2209AC0D46B1FBF2F101FB125303F0A2
:104BFC00FF03092B94BF30333733DBB2AA4204F8DE
:104C0C00013DEFD92146FFF7C3FF0BB030BD2DE9B5
:104C1C00F04186B000AF05460E46381D14211446EF
:104C2C003B60FFF70FFE13280ED8391D2846FFF7FF
:104C3C00AFFF04461EB12846FFF7BFFF04442046D1
:104C4C001837BD46BDE8F08100F1080323F00703D7
:104C5C00E846ADEB030D2246411C3B686846FFF766
:104C6C00F1FD69462846FFF793FF0446C546E1E788
:104C7C0080680368DB6818477047084611B10B68F9
:104C8C005B681847704770477047704738B50446E3
:104C9C000D4600682E2102F0C4F82368C31A2B605D
:104CAC0023B1037803B1013023682060184638BD66
:104CBC0010B50C21044602F03CF8204610BD10B58E
:104CCC000421044602F035F8204610BD10B504212D
:104CDC00044602F02EF8204610BD08B502F0ABF8E1
:104CEC00B0FA80F0400908BD10B50C4601F08CFB01
:104CFC00844210D001F05CFC844205D101F058FCD8
:104D0C00BDE8104001F051BC2CB1236820465B6813
:104D1C00BDE81040184710BD13B504460846019174
:104D2C0002F0B9F801990246204602B0BDE81040E5
:104D3C0001F048BF13B504460846019102F0ABF8E8
:104D4C0023680199DB680246204602B0BDE810409A
:104D5C00184707B503688DF80710DB6801220DF1C1
:104D6C000701984703B05DF804FB0EB403B503AB21
:104D7C00002153F8042B006A0193FFF748FF02B09F
:104D8C005DF804EB03B070472DE9F74FD0E90095BF
:104D9C004FF0140808FB05F50093AB10184D17469F
:104DAC005D434C46002D23DD6E1008FB06F004EB32
:104DBC00000A3A46BAF804B0205801915F4528BF62
:104DCC005A4602F070F80199012378B95F4503D176
:104DDC00009A13703546E5E78CBF012000200028AF
:104DEC00F8D0AE1B0AF11404013EF3E7C00FF6E74E
:104DFC00A4EB09040248A410604303B0BDE8F08F93
:104E0C00CDCCCCCC7FB50369067E01910BB301B33D
:104E1C00002500F10C04039503A901A8FFF736FF48
:104E2C000146B0B10DF10B03039A8DF80B502046DF
:104E3C00FFF7AAFF9DF80B305BB12468142303FB2A
:104E4C00004000F10804B0F90630002BA8BFDEB218
:104E5C00E2E7304604B070BD10B50A4C2378BFF3BE
:104E6C005B8FDB070BD42046FFF71EF938B12046C9
:104E7C00FFF71FF9044A0549054801F055FF04489E
:104E8C0010BD00BF08E6032094E50320954C0D00EF
:104E9C0024E5032010B50A4C2378BFF35B8FDB07A6
:104EAC000BD42046FFF700F938B12046FFF701F983
:104EBC00044A0549054801F037FF044810BD00BFFE
:104ECC000CE6032094E50320934C0D0028E5032009
:104EDC0038B500250446C0E90055C0E90455856085
:104EEC00856140F8245FFFF7C1FAFFF7B5FFE06179
:104EFC00FFF7D0FF25732062204638BD10B50B4C50
:104F0C002378BFF35B8FDB070ED42046FFF7CCF87A
:104F1C0050B10748FFF7DCFF2046FFF7CAF8054AF7
:104F2C000549034801F000FF014810BD04E60320C9
:104F3C0014E6032094E5032079530D00024A03493B
:104F4C0003480023FFF7AABB55520D00E1510D0099
:104F5C0061510D0000231A4619461846FFF79EBBF7
:104F6C0037B50D6951F8043B0093044601A8FFF7CF
:104F7C00BFFD6A462946204601F0CEFC01A8FFF78A
:104F8C00BEFD204603B030BD37B58D6851F8043BEB
:104F9C000093044601A8FFF7ABFD6A46294620465C
:104FAC0001F036FD01A8FFF7AAFD204603B030BD85
:104FBC0037B5CD6851F8043B0093044601A8FFF7C0
:104FCC0097FD6A462946204601F0FEFC01A8FFF732
:104FDC0096FD204603B030BD70B58AB00D46014633
:104FEC0004A8FFF7D1FF144E04A801F029FDE8B185
:104FFC0004A96846FFF7DCFF02983146FFF76DFE07
:10500C00044610B12C1E18BF012401A8FFF777FD30
:10501C00002CE9D004A96846FFF7A2FF684601F00E
:10502C00B1FC286001A8FFF76AFDDDE705A8FFF7D2
:10503C0066FD0AB070BD00BFB0700D0037B50C46F0
:10504C0020461249154601F0F6FE48B901F0DCF98C
:10505C004FF4165101F0C8F901F0D6F903B030BD88
:10506C000B49204601F0E7FE70B94FF4165301A925
:10507C0028460193FFF7B0FF01F09AFA019901F06D
:10508C0091FA01F095FAE9E70020E7E7B5700D0019
:10509C00BC700D0070B5D0E900531426044606FB15
:1050AC000356AE4205D005F10800FFF7F3FF1435A7
:1050BC00F7E72068FFF7AEFB204670BD10B504463D
:1050CC000C30FFF7E7FF2046FFF700FD204610BD30
:1050DC0010B5044B044640F8043BFFF7EFFF2046A5
:1050EC0010BD00BF40700D0010B50446FFF7F0FF77
:1050FC002046242101F01DFE204610BD10B5034BA7
:10510C0003600446FFF7E4FF204610BD60710D00FC
:10511C0010B50446FFF7F2FF2046242101F009FEEA
:10512C00204610BD0022C0E9002210B582600C6838
:10513C0004604C6844608C680A604A6084608A60D1
:10514C0010BD10B5036804461868FFF7A7F9204690
:10515C0010BD00002DE9F04F87B0804603931C4B27
:10516C005B68C3F30803894616466BB9FFF7C6FEA6
:10517C00044600F12403406A0593FFF787F9237B6B
:10518C002BB105A8FFF7DDFF07B0BDE8F08F0123B9
:10519C002373D4E900535FFA89F905EB830AAA4516
:1051AC0012D055F8047B3146381DFFF72BFE814594
:1051BC00F5D33B68039A0092D3F808B04A463346BD
:1051CC0041463846D847EAE700232373D9E700BFA6
:1051DC0000ED00E02DE9F74F9B461A4B5B68C3F3DB
:1051EC0008038046894616466BB9FFF787FE0446CE
:1051FC0000F12403406A0193FFF748F9237B2BB19C
:10520C0001A8FFF79EFF03B0BDE8F08F01232373C5
:10521C00D4E90053F6B205EB830A55450ED055F888
:10522C00047B5946381DFFF7EDFD8642F5D33B68EC
:10523C004A46DB68414638469847EEE7002323731D
:10524C00DEE700BF00ED00E02DE9F341164B5B6893
:10525C00C3F3080305460F461BBBFFF74FFE00F1D7
:10526C0024030446406A0193FFF710F9D4E9006364
:10527C00462406EB8308B04509D101A8FFF761FF6E
:10528C00A542B4BF0020012002B0BDE8F08156F861
:10529C00040B39460430FFF7B5FD8442A8BF044621
:1052AC00E9E70020F0E700BF00ED00E070B5044630
:1052BC00D0E900020B4600EB8202824207D0014685
:1052CC001D6851F8046BAE4203D00846F5E7002088
:1052DC0070BD521A01F052FD6368013B63600120FE
:1052EC00F6E71FB500F124030446406A01910393CD
:1052FC00FFF7CCF801A92046FFF7D8FF18B1636877
:10530C000BB9FFF727FE03A8FFF71BFF04B010BD76
:10531C0070B5D0E904561823044603FB0656AE427A
:10532C0015D005F110012046FFF7C0FF63680BB9DB
:10533C00FFF710FEE06929690368DB689847696923
:10534C0019B1206A0368DB6898471835E7E7D4E998
:10535C000453182606FB0356AE4204D02846FFF72A
:10536C0007FB1835F8E70023636170BD73B504467D
:10537C00FFF7F0FD04F12403606A0193FFF786F850
:10538C002046FFF7C5FF01A8FFF7DBFE606A08B1F6
:10539C00FFF774F8D4E90453182606FB0356AE4203
:1053AC0004D02846FFF7E4FA1835F8E72069FFF730
:1053BC0031FA2068FFF72EFA204602B070BD884201
:1053CC00F8B506460C46154627D9904226D2A2F1CE
:1053DC0014056C1AA1F1140704440026AF423DD009
:1053EC00A4B12B682360AB88A380B5F90630E380A9
:1053FC00C4E902662661AB68A360AE60E368EA6844
:10540C00E260EB6023692A6922612B6105F10800D7
:10541C00FFF740FE143D143CE0E71FD00027AC42E0
:10542C001CD0A6B123683360A388B380B4F90630CE
:10543C00F380C6E902773761A368B360A760F368AD
:10544C00E268F260E360336922693261236104F13E
:10545C000800FFF71FFE14341436E0E7F8BDF8B56A
:10546C00D0E901539D4204460E4617460DDB01352B
:10547C00002D006804DDA900FFF7D4F918B9F8BDB8
:10548C00FFF7C8F900202060A5602568626805EB6D
:10549C0086019200A2EB8602081D01F06FFC45F814
:1054AC0026706368013363600120E8E737B500F1CB
:1054BC0024030446406A01930D46FEF7E7FFD4E946
:1054CC00003103EB810083421A460BD01268AA42CA
:1054DC0003F10403F7D101A8FFF733FE002528469A
:1054EC0003B030BD2A462046FFF7B9FF0546002819
:1054FC00F1D06368012B01D1FFF720FD01A8FFF764
:10550C0020FEECE78842F8B504460D46164614D941
:10551C00904213D2A2F11006751AA1F110072C4477
:10552C00B74218D01CB131462046FFF789FA3046F5
:10553C00FFF71EFA103E103CF2E70CD0B5420AD031
:10554C001CB129462046FFF77BFA2846FFF710FAD4
:10555C0010351034F2E7F8BD70B50E1E054611DD9E
:10556C003001FFF74FF9044658B1D5E9001201EBB1
:10557C000212FFF7C7FF2868FFF74CF92C60AE60EA
:10558C00012070BD0024F6E72DE9F04F914697B04D
:10559C0000230391D9F804100C9346229942C0E9D8
:1055AC000033C0E90233C0E90433CDE90A330446C1
:1055BC00027623DCD9E90057142303FB0757AF42CB
:1055CC003BD029460DA8FFF73BFA0DA911A80B9E5D
:1055DC00FFF736FADDE90B1399421BDA0A9B0B9A9B
:1055EC0003EB061603EB0212314606F11000FFF72F
:1055FC0089FFEEB90B9B01330B9311E00AA8FFF75F
:10560C00ABFF0028D6D10AA8FFF760FA204617B0E6
:10561C00BDE8F08F01310AA8FFF79EFF0028DDD10D
:10562C0011A8FFF7A5F90DA8FFF7A2F91435C6E7E5
:10563C0011A93046FFF704FADCE70026CDE90D6628
:10564C000F9637464FF0140ADDE90A239E4280F28A
:10565C0097803301D35808930BB90136F4E70AFB52
:10566C0006F3099702930DAD09A908A8FFF70EFBE5
:10567C0083460028F1D00146099A8DF81F700DF170
:10568C001F032846FFF780FB9DF81F800190B8F19F
:10569C00000F66D1BDF82430ADF84830CDE9138841
:1056AC004FF6FF73CDF844B0ADF84A30CDF85480C6
:1056BC00D5E9013293421ADB03F1010BBBF1000F68
:1056CC004ADD0AFB0BF0FFF79DF80490002845D04B
:1056DC00D5E900120AFB0212FFF771FE049B286841
:1056EC000493FFF797F8049B2B60C5F808B0019B57
:1056FC00D5F800B06A680AFB03F30BEB030101F168
:10570C0014000AFB02B204910593FFF758FE0499AA
:10571C00A9B1059B119A4BF80320BDF848308B803A
:10572C00BDF94A30CB80C1E902770F61139B8B60C6
:10573C00149B1397CB60159B14970B6115976B6893
:10574C0001336B6013A8FFF7A5FCB8F1000F08D06C
:10575C000DA8FFF79FFC56E74346C0E74FF0010842
:10576C00F0E7019B2D680AFB0355089B1B782BB9AE
:10577C00D9F80030029A13441B7CEB80083573E790
:10578C002168226062686360A3680B920C9A0C9388
:10579C00E368A2600D9A0D932369E2600E9A0E9352
:1057AC00636922610F9A0F93039B0A9162612376BE
:1057BC00CEE700007FB50546094B45F8043B04468F
:1057CC000E4601A81146FEF788FD01AA314628466F
:1057DC00FFF7DAFE01A8FEF73FFD204604B070BDCE
:1057EC0040700D00F0B50F4687B026490C9C38462A
:1057FC0016461D4601F01FFB00BBE4B12946684666
:10580C00FFF790FC2049242001F095FA054670B171
:10581C00694603A8FEF761FD03AA31462846FFF747
:10582C00C9FF03A8FEF718FD184B2C622B606846C5
:10583C00FEF712FD2C46204607B0F0BD1449384641
:10584C0001F0F9FAE0B9002CF5D029466846FFF7CB
:10585C0069FC0D49242001F06EFA05460028E6D0BB
:10586C00694603A8FEF739FD03AA31462846FFF71F
:10587C00A1FF03A8FEF7F0FC064B2B602C62D6E7C9
:10588C000024D8E7C4700D00F5720D0060710D0096
:10589C00C8700D0048710D00014B024A1A60704728
:1058AC0010E60320D9700D002DE9F047089DD0F8C3
:1058BC00209004460E461746984600F0A5FD8145FB
:1058CC004CD02B79190704D56A6954492046FFF747
:1058DC004CFAB8F1000F0DD05B212046FFF739FAD6
:1058EC0041462046FFF726FA23684D49DB68022221
:1058FC00204698472B79DA0723D5D5F808802F2135
:10590C00404601F0E2FA08B100F101084146204698
:10591C00FFF710FA2B799B0708D53A212046FFF7A1
:10592C0018FAEA683F492046FFF71FFA2A792368DC
:10593C0012F0040FDB6814BF3B493C49022220469D
:10594C0098472B7958071DD529690B461A4613F829
:10595C00010B60B1202808D11946F7E7344800F054
:10596C00DAFE0028ADD0BDE8F0872828EED12368F8
:10597C00521ADB682046984723682E49DB680422BC
:10598C002046984700213846FEF780FE0146204607
:10599C00FFF7D0F923682549DB6802222046984797
:1059AC001EB131462046FFF7C5F92B7913F0300FA5
:1059BC002CD023682049DB680222204698472B799B
:1059CC00D9060AD523681D49DB680722204698476B
:1059DC00AA691B492046FFF7C8F92B799A0611D5FD
:1059EC00DB0605D523681049DB6802222046984760
:1059FC0023681449DB6820460A229847E969204647
:105A0C00FFF798F95D212046FFF7A3F923680E49AB
:105A1C00DB6820460222BDE8F0471847DD700D0018
:105A2C00E4700D00E7700D00EA700D00EF700D00D2
:105A3C00C0E70320ED700D00F2700D00F5700D0045
:105A4C00FD700D0000710D000B710D002DE9F04380
:105A5C0085B0D0F820900C9C05460F4690461E460B
:105A6C0000F0D2FC814505D1494800F054FE0028D5
:105A7C0040F08A802B6A474A01924FF0000901A836
:105A8C0003938DF8089001F004F849464046FEF760
:105A9C00FDFD41498046012201A801F083F84146F1
:105AAC00FFF73AF93FB13D49012201A801F07AF81C
:105ABC003946FFF731F93EB13949012201A801F00D
:105ACC0071F83146FFF728F92379DF070ED5A66860
:105ADC002F21304601F0F9F900B1461C3149012261
:105AEC0001A801F05FF83146FFF716F923799E07FC
:105AFC0007D52D49022201A801F054F8E16800F005
:105B0C00D5FF2379580714D5266933461F4613F859
:105B1C00012B2AB1202A01D11E46F7E7282AF5D1FC
:105B2C002249022201A801F03DF8BA1B314601F0CE
:105B3C0049F82379190707D51D49012201A801F05D
:105B4C0031F8616900F0C4FF2379DA0608D5042224
:105B5C0018490DEB020001F025F8A16900F0A6FF31
:105B6C0023799B0607D51449062201A801F01AF8DF
:105B7C00E169FFF7D1F801A800F075FF286A0F4919
:105B8C0003680222DB68984705B0BDE8F08300BFCC
:105B9C00C0E7032030710D00BA700D000E710D00BE
:105BAC0010710D0012710D0014710D0017710D00A4
:105BBC001A710D001C710D0021710D000B710D007F
:105BCC00024B1A68024B1A60704700BF2CE5032089
:105BDC003CE6032010B50446FEF76FFF204610BDCF
:105BEC000348044A04490023836001F09DB800BFB8
:105BFC0040E6032094E50320E15B0D00014B1860A7
:105C0C00704700BF30E5032008B50B4B43B100F0E3
:105C1C00FBFB03681B699847002801DDAFF300808C
:105C2C00064B43B100F0C4FC03681B69984700287D
:105C3C0001DDAFF3008008BD000000000000000093
:105C4C0008B5FFF7E1FFFEF709FC014B186008BD32
:105C5C00D4E703200248034A0349121A01F080B822
:105C6C0000F4032004F4032020740D0007B5002376
:105C7C0000931A466FF07701FEF742FD03B05DF812
:105C8C0004FB000007B543880A2B08D0502B0BD11E
:105C9C00094B1B684BB103B05DF804EB1847FFF7D9
:105CAC00E5FF03B05DF804FB002300931A466FF088
:105CBC007701FEF725FDF4E754E6032038B5124CC6
:105CCC001248134D0021FEF7D5FD2368AB42114B52
:105CDC000CBF012200221A7002D0FFF7BBFF256017
:105CEC00FEF7ACFB044601F06BF80B4B13B12046EE
:105CFC00AFF3008000210848FEF77CFDBDE838407A
:105D0C0006480021FEF7F2BC00F40320095C0D00EC
:105D1C001E1C279A50E6032000000000915C0D0029
:105D2C0070470020704710B51021044601F001F8AF
:105D3C00204610BD08B5FFF7F6FF08BD30B50022B0
:105D4C004FF69C74026084808D888C800C688580F2
:105D5C0004600A6030BD10B504460068FEF75AFDB9
:105D6C00204610BD38B5C468F4B12378022B03D19A
:105D7C0004F10C00FFF7EFFF656835B12846FEF71C
:105D8C009CFE1021284600F0D4FFA56835B12846AA
:105D9C00FEF793FE1021284600F0CBFF204614217D
:105DAC00BDE8384000F0C5BF38BD73B50E4604469B
:105DBC0056F8043B00930D4601A83146FEF798FEB9
:105DCC00019A009B6260236001A800230193009359
:105DDC00FEF795FE3046FEF792FE2846082100F0AD
:105DEC00A8FF204602B070BD826810B50AB900F059
:105DFC00A6FFBDE81040C368184708B5006800F15D
:105E0C001001FFF7F1FF08BD826810B50AB900F068
:105E1C0096FFBDE81040C368184708B5006800F14C
:105E2C001001FFF7F1FF08BD38B5002304460360ED
:105E3C0010200D46FEF727F928B10123C0E90133E4
:105E4C00024B0360C5602060204638BDC4710D0054
:105E5C0038B5002383608B6804460D462BB10222B3
:105E6C009847EB68E360AB68A360204638BD000040
:105E7C00F0B589B004686846FFF760FF4FF0020385
:105E8C00D4E84F2F002A03D1C4E8413F0029F7D1B1
:105E9C0025D104F10C0569462846FFF74FFFBFF3E7
:105EAC005B8F01236370002004F10803BFF35B8F49
:105EBC0053E8006F43E80002002AF9D1BFF35B8F6F
:105ECC006EB1FEF703FC78B129463046FFF78CFF24
:105EDC003046FEF7F2FD1021304600F02AFF6846EE
:105EEC00FFF739FF09B0F0BD314602A8FFF7B0FF4C
:105EFC00E068B4F9105008B100F0B0FF0690102023
:105F0C00ADF81C50FEF7BFF80546E8B100278760D6
:105F1C001820FEF7B8F8044688B10146876002A83D
:105F2C00FEF7F9FD049BA268A360059B049206A9E9
:105F3C00E268E36004F110000592FFF7FFFE084BE6
:105F4C00EB60084B2C60AB6006A8FFF704FF02A8BF
:105F5C00FEF7B3FD002229460348FEF7BFFBB7E767
:105F6C00075E0D009D600D0011660D002DE9F047D8
:105F7C008AB005469DF848900C4617469846FEF7A1
:105F8C0029FC07AE824638BB4FF62E73059005A947
:105F9C003046ADF81830FFF7D1FE1420FEF773F839
:105FAC00044648B1022303700123C0E901AA4370DF
:105FBC0031460C30FFF7C2FE2846214640F8044B10
:105FCC00FFF732FF3046FFF7C6FE05A8FFF7C3FE0A
:105FDC0028460AB0BDE8F0870C234FF0000A1420C5
:105FEC00CDE908AA0793FEF74EF8014628B1C0E99F
:105FFC0001AA80F800A080F801A004A80391FFF783
:10600C0013FF224B08930820FEF73DF8824628B177
:10601C00039B40F8043B04A9FEF76AFD00965FFA67
:10602C0089F3424639462046CDF824A0FEF7DAFB28
:10603C00B8B9039B5B7803F0FF0293B94FF69C73DE
:10604C0005A903A80592ADF81830FFF711FF05A8B4
:10605C00FFF781FE05A80999FFF7A7FE06A8FEF732
:10606C004EFD039B059304A906A8FEF741FD059B75
:10607C00069A2B606A60002306A806930593FEF728
:10608C003EFD04A8FEF73BFDA2E700BF61610D00D9
:10609C00022AF8B5054607D0032A18D0012A01D1E7
:1060AC000B6803600020F8BD18200E68FDF7EBFFAD
:1060BC00044650B13146FFF7CBFE3069B6F9147087
:1060CC0008B100F0CBFE2061A7822C60EAE70468DF
:1060DC00002CE7D004F11000FFF73DFE2046FEF740
:1060EC00ECFC1821204600F024FEDBE738B5002339
:1060FC0083608B6804460D462BB102229847EB68EF
:10610C00E360AB68A360204638BD022A70B5044634
:10611C0007D0032A12D0012A01D10B68036000209A
:10612C0070BD14200E68FDF7AEFF054620B1314658
:10613C00FFF7DCFF337C2B742560F0E70468002C40
:10614C00EDD02046FEF7B9FC1421204600F0F1FDFD
:10615C00E5E70000F0B589B004460D4601A81146EC
:10616C00FFF723FEA4B124B21DB1284600F076FE41
:10617C00054601A803A90395ADF81040FFF778FE7A
:10618C0003A8FFF7E8FD02A8FEF7B9FC09B0F0BDC3
:10619C00019D0123D5E84F2F002A03D1C5E8413FCB
:1061AC000029F7D1EFD12B73BFF35B8F6B702B1DD5
:1061BC00BFF35B8F53E8006F43E80042002AF9D12C
:1061CC00BFF35B8F002EDED02046FEF77FFA07462A
:1061DC0060B105F10C013046FFF716FE3046FEF7B4
:1061EC006CFC1021304600F0A4FDCCE7314603A82E
:1061FC00FFF77CFF2B7B8DF81C301020FDF743FF45
:10620C000546D0B187601420FDF73DFF044678B1F8
:10621C008760014603A8FEF77EFC059BA268A3607D
:10622C00069B0592E268E3609DF81C30069223748D
:10623C00064BEB60064B2C60AB6003A8FEF73DFCF5
:10624C00002229460348FEF749FAC7E7275E0D00EE
:10625C0017610D0011660D00704710B5182104462A
:10626C0000F067FD204610BDF0B5037D062B8DB008
:10627C000E4600F104074FF0000412D000F108059F
:10628C0015F8011D0A223046FEF7A3FCAF42044468
:10629C0019D0002CF4D02E213046FEF78BFC044490
:1062AC00EEE72F236A4639460A208DF80040FEF7A8
:1062BC00FDF8684600F0EFFD33680246DB6869467E
:1062CC0030469847044620460DB0F0BD10B5054B3E
:1062DC000446112240F8043B002100F069FD2046E1
:1062EC0010BD00BFE0710D000346074A10B543F81E
:1062FC00042B01F1100251F8044B43F8044B91426A
:10630C00F9D10A781A7010BDE0710D0010B59DF826
:10631C00084044EA032343EA024242EA01610423AF
:10632C004160037510BD000013B5054B0360CB78BD
:10633C0000938B784A780978FFF7E8FF02B010BD1C
:10634C00E0710D0041747047704708B50021007C66
:10635C00FEF774F940EAE07008BD08B50121007C35
:10636C00FEF76CF940EAE07008BD08B5007CFEF75A
:10637C005DF920EAE07008BD08B5007CFEF74EF927
:10638C0020EAE07008BD13B50446007C0191FEF7CD
:10639C004DF90028019901DC607C20B1207CFEF7CE
:1063AC0055F920EAE07002B010BD007CFEF756B93A
:1063BC0010B51421044600F0BCFC204610BD0000B2
:1063CC0010B54FF47A73044608460021C4E9011352
:1063DC00044B23600123207463741146FEF706F905
:1063EC00204610BDF4710D00007C0022FEF706B9AA
:1063FC00007CFEF70BB910B514220446002100F006
:10640C00D7FC204610BD000010B5104C88B003A876
:10641C00FFF7F1FF2178BFF35B8F11F0010111D170
:10642C0020460191FDF740FE019958B103AA084896
:10643C00FFF7C6FF2046FDF73CFE064A0649044816
:10644C0000F072FC024808B010BD00BF58E60320F3
:10645C005CE6032094E5032055630D0000224068A0
:10646C001146FEF76FB9002240681146FEF78AB953
:10647C00002240681146FEF795B940680022FEF7ED
:10648C0089B94068002281F00101FEF773B900233D
:10649C0040681A461946FEF765B9002340681A464B
:1064AC001946FEF757B9002240681146FEF73AB973
:1064BC00406800220221FEF73DB9002340681A46CD
:1064CC00FEF728B9084B10B528242246184600219F
:1064DC0000F06EFC054B04804FF0FF32426004224A
:1064EC005A60034A1A6010BD78E6032070E6032058
:1064FC0024720D0070474174704708B5007CFEF79C
:10650C001DF820EAE07008BD08B5007CFDF7EEFF31
:10651C0020EAE07008BD08B5007CFDF7F7FF40EA03
:10652C00E07008BD08B5007CFDF7E8FF40EAE070BC
:10653C0008BD007CFDF7F2BF37B5457C04462DB194
:10654C00207C03B0BDE83040FDF7C8BF007C019152
:10655C00FDF7F4FF00280199F2DC284603B030BDAA
:10656C0010B51421044600F0E4FB204610BD0000D9
:10657C0010B54FF0000C0446084611464FF47A72E1
:10658C00C4E901C2044A22600122207462741A46D2
:10659C00FDF794FF204610BD60720D00007C0023B7
:1065AC00FDF7D4BF0022FFF7F9BF007CFDF78EBFCB
:1065BC0013B50E4C2178BFF35B8F11F0010112D192
:1065CC0020460191FDF770FD019960B1084A094B15
:1065DC000948FFF7CDFF2046FDF76BFD074A084938
:1065EC00054800F0A1FB044802B010BDA0E6032052
:1065FC00A4E6032028E70320ACE7032094E503205E
:10660C0001650D0010B5836804460BB900F097FBCB
:10661C00C3689847A3681BB10322214620469847BC
:10662C0020461021BDE8104000F083BB7047F8B540
:10663C00064615460C468F18BC4206D0336814F833
:10664C00011B9B6830469847F6E72846F8BD007C4E
:10665C000022FDF783BF007C0021FDF787BF007C83
:10666C000021FDF78BBF007C0021FDF78FBF007C64
:10667C000021FDF793BF10B51421044600F059FB1F
:10668C00204610BD10B54FF47A730446084600211D
:10669C00C4E90113034B236020741146FDF78EFFF0
:1066AC00204610BD90720D00002340681A46FEF77C
:1066BC0031B8406800220221FEF73CB80022406845
:1066CC001146FEF72FB8002240681146FEF73AB883
:1066DC00002340681A461946FEF73CB80023406870
:1066EC001A461946FEF73EB840680021FEF762B81C
:1066FC0040680021FEF766B84068002281F0010175
:10670C00FEF738B840680022FEF744B80022406813
:10671C001146FEF747B8002240681146FEF732B822
:10672C002DE9F043002495B016460D460746FFF7B9
:10673C00CDFD214618220EA8009400F039FB402311
:10674C00CDE90C3421466B460CAA3046FDF756FEBB
:10675C00044600284CD1024601216868FDF7F2FF7F
:10676C000221804622466868FDF7ECFF009E8146B8
:10677C002146002E3CD000293AD17368022B03D05D
:10678C000A2B11D0F669F4E7B8F1000F0AD0716941
:10679C0006A8043107ADFFF7C7FD0FCD3C1D0FC494
:1067AC002B6823704146EDE7B9F1000F01D1494642
:1067BC00E8E77469102201A800F0FAFA06238DF8B4
:1067CC00143001AD04F108031834186859682A46CE
:1067DC0003C20833A3421546F7D101A906A807AD99
:1067EC00FFF782FD0FCD3C1D0FC42B682370DEE735
:1067FC000098FDF7FBFD384615B0BDE8F0830000AE
:10680C00024B034A1A6000225A607047C0E703200B
:10681C00B8720D0000F11003012213F8101C0129AD
:10682C00184608D153F8041C02EB4102013A03F15B
:10683C001003F2D17047022904BF53F8041C5218FC
:10684C00F4E70EB4F0B588B000AF07F134051021B1
:10685C0055F8042B7A6004462B467818FD60FDF73A
:10686C00F1FF0F287A681AD900F1080323F0070307
:10687C006E46ADEB030D411C2B466846FD60FDF7E3
:10688C00E1FF021E04DD236869469B682046984799
:10689C00B5462037BD46BDE8F04003B07047002830
:1068AC00F7D0236802469B6807F1100120469847F1
:1068BC00EFE710B5036804469B689847A368013B53
:1068CC00A3602BB923682046DB68BDE8104018474D
:1068DC0010BD07B503688DF807109B6801220DF1F8
:1068EC000701984703B05DF804FB38B50B680360EB
:1068FC004D6843689D4204460CD015B16B6801335A
:10690C006B60606828B14368013B43600BB9FFF7CB
:10691C00D0FF6560204638BD0B461146002210B5ED
:10692C00C0E90022044683600BB9204610BDFFF776
:10693C00DCFFFAE78368EBB11A78032A1AD8DFE890
:10694C0002F00417021B0520704702685B6852684E
:10695C00D05C2D2812D0A0F13003092B0ED974284D
:10696C000ED066280CD0A0F16E03584258417047E7
:10697C0006207047002070470420704703207047A2
:10698C000220704710B50446FFF7D4FF02280ED042
:10699C00C31EDBB2012B14D82268A36850685B6855
:1069AC00BDE810400A220021184400F01DBB2268EB
:1069BC00A36852685B68D05CA0F1740358425841DC
:1069CC0010BD0020FCE7000038B50023C0E90033FF
:1069DC0004460E48C4E90203A9B10B78032B06D078
:1069EC008BB9136858684B68C35C6E2B07D013685F
:1069FC004D6858688B6828445B1BA060E3601146A7
:106A0C002046FFF772FF204638BD00BF0D710D0008
:106A1C0038B500250B46C0E90055C0E90255C0E960
:106A2C000455044611464BB11A78012A06D103F1DC
:106A3C001002DB6882604361FFF757FF204638BDC8
:106A4C0010B54369044663B18068E060013B1030C7
:106A5C00A0602061636113B1FFF7DCFEA060012030
:106A6C0000E0184610BD10B57D210446FFF731FF3C
:106A7C0001232371204610BD08B50379012B02D0E8
:106A8C00022B04D008BD2C21FFF723FFFAE73A2193
:106A9C00FAE710B50446FFF7EFFF20467B21FFF71E
:106AAC0018FF00232371204610BD000013B50446C7
:106ABC000191FFF7E1FF2368019ADB680349204647
:106ACC00984701232046237102B010BDE7700D00DA
:106ADC0013B504460191FFF7CFFF2368019ADB68D9
:106AEC0003492046984701232046237102B010BD6C
:106AFC00EC720D002DE9F0410D4617462221DFF80E
:106B0C00A08004462F44FFF7E4FE2946BD422A46E6
:106B1C0038D015F8016B222E03D05C2E01D01F2E1D
:106B2C00F4D82368521A9B68204698475C2120466B
:106B3C00FFF7CFFE0D2E0AD8072E1CD9A6F108039D
:106B4C00052B18D8DFE803F00D0F11171315222EA3
:106B5C0001D05C2E0FD131462046FFF7BAFE2946F4
:106B6C00D4E76221F8E77421F6E76E21F4E7662199
:106B7C00F2E77221F0E723683246DB684146204693
:106B8C009847ECE78D4204D023686A1A9B6820462C
:106B9C00984722212046FFF79CFEBDE8F08100BFFC
:106BAC00EF720D0013B50446CDE90021FFF764FF29
:106BBC002046DDE90021FFF79DFF022320462371CB
:106BCC0002B010BD13B50446CDE90021FFF754FF08
:106BDC002046DDE90021FFF78DFF012320462371BC
:106BEC0002B010BD232813B502D9002002B010BD8D
:106BFC00A0F10B03022B1AD8174C2178BFF35B8F33
:106C0C0011F001010BD120460191FDF74DFA0199CC
:106C1C0028B11248FDF774FE2046FDF74AFA0F4BD7
:106C2C001878FDF7DBFC0028DFD10120DEE7012816
:106C3C0009D800F051F80021007CFDF7B7FC80F07A
:106C4C000100C0B2D2E709380128EED8FFF7B0FC3A
:106C5C00007CFDF76BFCF2E7C8E70320CCE70320D0
:106C6C00232838B504460D460AD8FF2908D0FFF76B
:106C7C00B9FF28B129462046BDE83840FDF7C6BB10
:106C8C0038BD10B50446FDF7C9FB031FDBB2012B61
:106C9C0008D92046FFF7A6FF20B12046BDE81040DA
:106CAC00FDF7C4BB002010BD38B500232025438060
:106CBC00142304460380856005610649284600F0CC
:106CCC003CF804496060284600F037F8E060204644
:106CDC0038BD00BFF5720D0030B50F4D2978BFF3EC
:106CEC005B8F11F0010487B013D12846FDF7DCF956
:106CFC0078B101A8FFF7D8FF01AA21460748FFF792
:106D0C00C1FC2846FDF7D5F9054A0649034800F0B1
:106D1C000BF8024807B030BDD8E70320DCE70320AE
:106D2C0094E5032039660D000B460146184600F029
:106D3C0009B8FDF7ACB9FDF7A6B9FDF7A6B908B5CA
:106D4C00FDF788FD10B5054C13462CB10A460146DB
:106D5C000220AFF3008010BD2046FCE700000000CD
:106D6C000A44914200F1FF3300D1704710B511F87D
:106D7C00014B03F8014F9142F9D110BD884210B577
:106D8C0001EB020402D98442234607D8431EA142D8
:106D9C0008D011F8012B03F8012FF8E70244014643
:106DAC008A4200D110BD13F8014D02F8014DF7E7EE
:106DBC0002440346934200D1704703F8011BF9E7E4
:106DCC0038B50D4B1D68AB6B04467BB91820FDF72D
:106DDC0019FD0A4A0A4BA863C0E90023094B8360DA
:106DEC000B23838101220023C0E90423AB6B002217
:106DFC001C615A6138BD00BF30E503200E33CDABAA
:106E0C0034126DE6ECDE0500C9B2034610F8012B16
:106E1C001AB18A42F9D118467047002918BF0023CD
:106E2C00F9E710B50446FFF7EFFF18B9204600F05C
:106E3C0032F8204410BD10F8012B11F8013B012A47
:106E4C0028BF9A42F7D0D01A7047034611F8012B8D
:106E5C0003F8012B002AF9D170470000024B0146C0
:106E6C00186800F003B800BF30E5032037B50446BE
:106E7C0008460D4600F00FF8421C114620460192C0
:106E8C00FDF7F0FC044618B1019A2946FFF768FF9C
:106E9C00204603B030BD034613F8012B002AFBD16A
:106EAC00181A0138704710B56AB10139841810F8F6
:106EBC00013B11F8012F934203D1A04201D0002BCA
:106ECC00F5D1981A10BD1046FCE738B503460C46B0
:106EDC0069B9BDE83840FFF797BF431C054621460A
:106EEC001846FFF791FF0028F7D1284638BD00253A
:106EFC00F5E700002DE9F0473A4E86468C46604691
:106F0C001CF8014BA55D15F00805F8D12D2C33D1DB
:106F1C009CF800404FF0010800F1020C002B5CD0F3
:106F2C00102B0CD1302C0AD19CF8000000F0DF00A3
:106F3C0058284DD19CF8014010230CF1020C08F19B
:106F4C000047013F0026B7FBF3F9304603FB197AE3
:106F5C00A4F13005092D18D82C46A34224DD751C4C
:106F6C0007D081451DD301D1A2451ADB00FB03409C
:106F7C0001261CF8014BEBE72B2C08BF9CF80040BA
:106F8C00A84608BF00F1020CC8E7A4F14105192D71
:106F9C0001D8373CE1E7A4F16105192D04D8573C21
:106FAC00DBE74FF0FF36E4E7731C06D12223CEF863
:106FBC000030384642B9BDE8F087B8F1000F00D078
:106FCC004042002AF7D00EB10CF1FF311160F2E70C
:106FDC003024002BB3D10823B1E7302CA4D00A23E2
:106FEC00ADE700BFF7720D0013460A460146024892
:106FFC000068FFF77FBF00BF30E503201D400D0088
:10700C0059400D0081400D0085400D00000000002E
:10701C005B25642C25642C25645D007075626C699D
:10702C00736865643A2025730000000000000000BE
:10703C00000000000000000000000000A1400D0056
:10704C00C5400D000000000000000000D1400D0004
:10705C0005410D00B5580D00C7400D0073686565FE
:10706C0074546573743100000000000000000000CF
:10707C00EF480D00E5480D00DB480D00D1480D0030
:10708C00C5480D00B9480D00F5660D00FD660D00F4
:10709C00AD480D00A5480D009B480D0091480D0012
:1070AC002D670D00626175640053657269616C0037
:1070BC0053657269616C31004A534F4E537472655B
:1070CC00616D4C6F6748616E646C657200617070C5
:1070DC0000253031307520005D20002564002C2007
:1070EC000028293A2000205B00636F6465203D2056
:1070FC000025690064657461696C73203D20000D86
:10710C000A006D00630066006C6E00666E00740011
:10711C00636F64650064657461696C000000000055
:10712C0000000000974C0D00BD4C0D007D4C0D0077
:10713C004F680D000000000000000000DD500D0045
:10714C00F5500D00B5580D00C7400D0000000000B3
:10715C000000000009510D001D510D00595A0D0081
:10716C00854C0D000000000000000000954C0D0047
:10717C00CB4C0D00F1570D00874C0D0000000000AA
:10718C0000000000934C0D00D94C0D0049500D002F
:10719C00F54C0D0025592D256D2D25645425483AA7
:1071AC00254D3A2553257A0061736374696D65002A
:1071BC0000000000000000002D5D0D00335D0D008F
:1071CC00715D0D00415D0D002F5D0D000000000094
:1071DC000000000075620D0065620D0067620D0015
:1071EC00000000000000000055630D00BD630D00A1
:1071FC0093630D00714B0D0085630D0057630D00FB
:10720C0067630D00B7630D0077630D0051630D00CC
:10721C000000000000000000C7640D00BD640D00FC
:10722C00B3640D0069640D00A7640D009B640D0030
:10723C00F5660D00FD660D008F640D0087640D0072
:10724C007D640D0073640D002D670D0000000000BF
:10725C000000000001650D006D650D0045650D0019
:10726C00714B0D0015650D0031650D0023650D008A
:10727C003F650D0003650D0007650D000000000063
:10728C000000000039660D0083660D005B660D0082
:10729C003B660D0063660D006B660D0073660D009A
:1072AC007B660D000000000000000000B5660D00BC
:1072BC00BF660D00C9660D00D3660D00DD660D00BE
:1072CC00E9660D00F5660D00FD660D0005670D0005
:1072DC0011670D0019670D0023670D002D670D0058
:1072EC0025750075253034780000002020202020E2
:1072FC00202020202828282828202020202020205A
:10730C002020202020202020202020881010101049
:10731C00101010101010101010101004040404049D
:10732C0004040404041010101010101041414141C9
:10733C0041410101010101010101010101010101B1
:10734C0001010101010110101010101042424242C3
:10735C004242020202020202020202020202020281
:10736C0002020202020210101010200000000000A5
:10737C000000000000000000000000000000000001
:10738C0000000000000000000000000000000000F1
:10739C0000000000000000000000000000000000E1
:1073AC0000000000000000000000000000000000D1
:1073BC0000000000000000000000000000000000C1
:1073CC0000000000000000000000000000000000B1
:1073DC0000000000000000000000000000000000A1
:1073EC000000000000000000000000004D430D00F4
:1073FC00F9480D0041490D00494B0D00A5580D00F1
:10740C00CD5B0D00ED5B0D00D1640D000D680D0022
:04741C00000000006C
:047420000000000068
:1074240068700D0078710D0090710D00B4710D003D
:1074340034E503200000000000000000000000000C
:107444000000000000000000000000000000000038
:107454000000000000000000000000000000000028
:107464000000000000000000000000000000000018
:107474000000000000000000000000000000000008
:1074840000000000000000000000000000000000F8
:0474940000000000F4
:10749800FFFFFFFF00000102030405060708090AB1
:1074A8000B0C0D0E0F101112131415161718191AAC
:0874B8001B1C1D1E1F202800F3
:0474C00078563412B4
:04000003D000401CCD
:00000001FF
