:02000004080AE8
:1000000000000A0810340A08000006000600050176
:080010000402DB070000000000
:04001800A42F0A08FF
:10001C0009480A4908B5884205D0094A824202D0EB
:10002C00121A02F06DFE0748074A0021121A02F05C
:10003C008FFE064808BD00BF0000002074330A087C
:10004C007400002074000020D4050020D40500208A
:10005C0070B501F0EBFD0025054E064CA41BA40861
:10006C00A54200D170BD56F8043B98470135F7E71F
:10007C004C330A086C330A0800F061B808B500F07C
:10008C00C1F8BDE8084001F093BD00F09FBB00F043
:10009C009DBB00F0A3BB000000210C2008B5024A58
:1000AC0000F0D8FAFEE700BF3D040A080078B0FA69
:1000BC0080F0400970470123037070477047006A55
:1000CC000368DB681847000010B50446094B036051
:1000DC0000F05EFE214601F08DF802F047F902F0C7
:1000EC002BF92046044B40F8043B00F071FF2046EE
:1000FC0010BD00BFF42F0A08DC2F0A0810B5044607
:10010C00FFF7E2FF2046242102F0E3FD204610BD5C
:10011C000EB410B50023016820208DB00FAA52F840
:10012C00044BCDE90403CDE9004203921E2004AA3E
:10013C0000F098FA0DB0BDE8104003B0704708B558
:10014C000021022002F044FD0021032002F040FDBA
:10015C00BDE808400021042002F03ABD10B5184B50
:10016C00A4B01A6B802101925A6A04A800929B6970
:10017C00144A00F043FB144B14491B7804AA8DF865
:10018C00003009683C2302A801F0A8FE039C7CB156
:10019C006368013B63605BB9236820469B689847A2
:1001AC00A368013BA3601BB923682046DB68984712
:1001BC000749084804AAFFF7ABFF24B010BD00BFE5
:1001CC00A4000020B82F0A087800002000000020AE
:1001DC00C32F0A08E400002010B5002400F124010C
:1001EC00D0E90123012A08D11BB9C368826001330D
:1001FC00C3600C308842F3D110BD012B08BF846062
:10020C00F7E7000038B5022002F0F3FC104C114D5A
:10021C002061032002F0EDFCE061042002F0E9FC17
:10022C00A0622046FFF7D8FF00F00AF92B68C01A2D
:10023C00094B98420BD300F0B1FA40B100F000F931
:10024C002860FFF78BFF0023A3616362236338BD33
:10025C00A40000207C00002080EE360070B514262F
:10026C00D0E90053044606FB0356AE4204D02846A0
:10027C0000F028FB1435F8E7206800F0AFFA2046B0
:10028C0070BD8842F8B504460D46164616D9904204
:10029C0015D2A2F11406751AA1F114072C44B74219
:1002AC001CD02CB13146204600F073FB337C2374F8
:1002BC00304600F007FB143E143CF0E70ED0B5427C
:1002CC000CD02CB12946204600F063FB2B7C237408
:1002DC00284600F0F7FA14351434F0E7F8BD002383
:1002EC002DE9F041C0E9003383604F6804469F421A
:1002FC000E4624DD4FF0140808FB07F000F066FAF8
:10030C000546E0B1D4E9001208FB0212FFF7B9FF71
:10031C00206800F063FA2560A760D6E9007308FB3B
:10032C000378B84509D03946284600F04CFB3B7C95
:10033C00143505F8043C1437F3E773686360204602
:10034C00BDE8F081012070B5224B8CB000211870F3
:10035C0000F0A8F90023CDE90033029302F006F86F
:10036C001D4C05462646694603A8FFF7B8FF03A9AE
:10037C0006A8FFF7B4FF194B06A946F8043B09A8D9
:10038C00FFF7ADFF09AA1E21304601F085F809A838
:10039C00FFF764FF06A8FFF761FF114B03A823606A
:1003AC002562FFF75BFF0F4B236001F0DFFF4FF47B
:1003BC00165101F0BDFF00F0EBFC214600F0FFFFF1
:1003CC006846FFF74BFF2046074A084902F07CFCC1
:1003DC000CB070BD7800002080000020DC2F0A08D3
:1003EC00AC300A08F42F0A0874000020D5000A0863
:1003FC0008B5024B1B689B68019308BDB001060849
:10040C0008B5024B1B68DB68019308BDB0010608F8
:10041C0008B5024B1B685B69019308BDB001060867
:10042C0008B5024B1B685B68019308BD9C0106086C
:10043C0008B5024B1B68DB68019308BD9C010608DC
:10044C0008B5024B1B685B69019308BD9C0106084B
:10045C0008B5024B1B685B6C019308BDD001060804
:10046C0008B5024B1B689B6C019308BDD0010608B4
:10047C0008B5024B1B68DB6C019308BDD001060864
:10048C0008B5024B1B685B6D019308BDD0010608D3
:10049C0008B5024B1B689B69019308BDC401060893
:1004AC0008B5024B1B681B6A019308BDC401060802
:1004BC0008B5024B1B685B6A019308BDC4010608B2
:1004CC0008B5024B1B689B6A019308BDC401060862
:1004DC0008B5024B1B68DB6A019308BDC401060812
:1004EC0008B5024B1B681B6B019308BDC4010608C1
:1004FC0008B5024B1B685B6B019308BDC401060871
:10050C0008B5024B1B689B6B019308BDC401060820
:10051C0008B5024B1B681B6C019308BDC40106088F
:10052C0008B5024B1B68DB6C019308BDC4010608BF
:10053C0008B5024B1B681B6E019308BDAC01060885
:10054C0008B5024B1B685B6E019308BDAC01060835
:10055C0008B5024B1B689B6E019308BDAC010608E5
:10056C0008B5024B1B68DB6E019308BDAC01060895
:10057C0008B5024B1B681B6F019308BDAC01060844
:10058C0008B5024B1B685B6F019308BDAC010608F4
:10059C0008B5034B1B68D3F88030019308BD0000ED
:1005AC00AC01060808B5024B1B68DB69019308BD5A
:1005BC00B401060808B5024B1B681B6A019308BD01
:1005CC00B401060808B5024B1B681B68019308BDF3
:1005DC00D801060808B5024B1B685B68019308BD7F
:1005EC00D801060808B5024B1B689B68019308BD2F
:1005FC00D801060808B5024B1B681B69019308BD9E
:10060C00D801060808B5024B1B685B69019308BD4D
:10061C00D801060808B5024B1B689B69019308BDFD
:10062C00D801060808B5024B1B68DB69019308BDAD
:10063C00D801060808B5024B1B681B6A019308BD5C
:10064C00D801060808B5024B1B689B6C019308BDCA
:10065C00C001060808B5024B1B685B6B019308BD13
:10066C00A801020808B5024B1B685B6D019308BD1D
:10067C00A801020808B5024B1B68DB6E019308BD8C
:10068C00A801020808B5024B1B681B6F019308BD3B
:10069C00A801020808B5024B1B685B68019308BDF2
:1006AC00A401060808B5024B1B68DB6A019308BD60
:1006BC00A401060808B5024B1B68DB6C019308BD4E
:1006CC00A401060808B5024B1B685B6D019308BDBD
:1006DC00A401060808B5034B1B68D3F890300193AE
:1006EC0008BD0000A401060808B5034B1B68D3F82D
:1006FC009C30019308BD0000A401060808B5024B0C
:10070C001B685B68019308BDC801060808B5024B5D
:10071C001B689B68019308BDC801060808B5024B0D
:10072C001B68DB68019308BDC801060808B5024BBD
:10073C001B681B69019308BDC801060808B5024B6C
:10074C001B685B69019308BDC801060808B5024B1C
:10075C001B689B69019308BDC801060808B5024BCC
:10076C001B68DB69019308BDC801060808B5024B7C
:10077C001B681B6A019308BDC801060808B5024B2B
:10078C001B681B6B019308BDC801060808B5024B1A
:10079C001B685B6B019308BDC801060808B5024BCA
:1007AC001B685B69019308BDCC01060808B5024BB8
:1007BC001B681B6A019308BDCC01060808B5024BE7
:1007CC001B68DB6B019308BDCC01060808B5024B16
:1007DC001B681B68019308BDA001060808B5024BF5
:1007EC001B685B68019308BDA001060808B5024BA5
:1007FC001B689B68019308BDA001060808B5024B55
:10080C001B68DB69019308BDA001060808B5024B03
:10081C001B685B6A019308BDA001060808B5024B72
:10082C001B68DB6A019308BDA001060808B5024BE2
:10083C001B681B6B019308BDA001060808B5024B91
:10084C001B685B6C019308BDA001060870B50026FF
:10085C0004460D4640F8086FFFF7FAFD2846257050
:10086C00FFF7A0FE2046666070BD10B50446006818
:10087C0018B1FFF7B3FF0023236010BD10B5044679
:10088C00FFF7F3FF204610BD0222002010B5084BE5
:10089C00084C1A60084B2060A080A071A360FFF781
:1008AC00F9FE2046BDE81040044A054902F00CBA96
:1008BC00D4000020C80000200000FFFF74000020BE
:1008CC0089080A0810B504460068FFF787FF204620
:1008DC0010BD10B50446006808B1FFF77FFF002378
:1008EC00C4E90133236010BD38B504460D460068D9
:1008FC000131FFF77BFF10B1C4E90005012038BDC1
:10090C0010B50368044623B143688B4201D3012020
:10091C0010BD2046FFF7E8FF0028F9D0A368002B94
:10092C00F5D122681370F2E770B50E4611460446F5
:10093C001546FFF7E5FF20B92046FFF7CAFF204612
:10094C0070BD2A4631462068A56002F0D9F9002115
:10095C002268A368D154F2E738B5054600680C4606
:10096C0068B16A688B689A4207D3096802F03DFA4D
:10097C00A368AB600023A36038BDFFF72FFF23688B
:10098C002B6063686B60A368AB600023C4E9003321
:10099C00F1E7002310B50446C0E90033836003730C
:1009AC00FFF7DAFF204610BD884210B50B4604460F
:1009BC0004D0096821B19A68FFF7B6FF204610BD34
:1009CC00FFF787FFFAE7002310B50446C0E90033B0
:1009DC0083600373FFF7E8FF204610BDF8B50646A9
:1009EC000D4600248F18BD420CD0336830469B68EE
:1009FC0015F8011B9847031E01DB1C44F3E7002C80
:100A0C0008BF1C462046F8BD70B505460C46084686
:100A1C0049B102F00EFA2B68024621462846BDE881
:100A2C007040DB68184770BD03689B68184738B581
:100A3C000D210546FFF7F8FF0A2104462846FFF76B
:100A4C00F3FF204438BD0023012A98BF0A2230B599
:100A5C008BB00C468DF8243009A92546B4FBF2F472
:100A6C0004FB1253DBB2092B94BF30333733DBB2A8
:100A7C00AA4201F8013DF0D9FFF7C6FF0BB030BD1B
:100A8C002DE9F04186B000AF05460E46381D142105
:100A9C0014463B60FFF7BAFE13280ED82846391DC2
:100AAC00FFF7B2FF04461EB12846FFF7C0FF04440F
:100ABC0020461837BD46BDE8F08100F1080323F04D
:100ACC000703E846ADEB030D2246411C3B68684624
:100ADC00FFF79CFE69462846FFF796FF0446C5467D
:100AEC00E1E7002340681A461946FFF727BE8068E5
:100AFC000368DB6818477047084611B10B685B68E0
:100B0C001847704770477047704738B504460D4614
:100B1C0000682E2102F055F923680246C01A28609D
:100B2C0020B1137803B101322068226038BD10B5B2
:100B3C0004460C2102F0CDF8204610BD10B5044639
:100B4C00042102F0C6F8204610BD10B5044604215D
:100B5C0002F0BFF8204610BD08B502F03CF9B0FA1F
:100B6C0080F0400908BD10B50C4601F0FFFB844233
:100B7C0005D101F0FBFBBDE8104001F0DDBB01F03D
:100B8C0033FC844202D101F02FFCF4E701F0B0FCFD
:100B9C00844205D101F0ACFCBDE8104001F0A5BCCD
:100BAC002CB123682046BDE810405B68184710BD87
:100BBC0038B5054608460C4602F03BF9214602467C
:100BCC002846BDE8384001F0A6BF70B5044608467B
:100BDC000D4602F02EF92368024629462046BDE850
:100BEC007040DB68184707B503688DF807100122C1
:100BFC00DB680DF10701984703B05DF804FB0EB4F8
:100C0C0003B503AB53F8042B0021006A0193FFF7E3
:100C1C0037FF02B05DF804EB03B070472DE9F74FD6
:100C2C004FF01408D0E9009517464C4608FB05F523
:100C3C000093AB10174D5D43002D23DD6E1008FBA8
:100C4C0006F004EB000ABAF804B03A465F4528BF38
:100C5C005A462058019102F0F4F80123019978B911
:100C6C005F4503D1009A13703546E5E78CBF012030
:100C7C0000200028F8D0AE1B0AF11404013EF3E763
:100C8C00C00FF6E7A4EB09040248A410604303B0BC
:100C9C00BDE8F08FCDCCCCCC7FB50369067E01913D
:100CAC0003B3F9B1002500F10C04039503A901A8C5
:100CBC00FFF72BFF0146A8B10DF10B032046039A59
:100CCC008DF80B50FFF7AAFF9DF80B3053B114238E
:100CDC00246803FB0044B4F906300834002BA8BF89
:100CEC00DEB2E3E7304604B070BD000010B50A4C2C
:100CFC002378BFF35B8FDB070BD42046FFF7D6F9C5
:100D0C0038B12046FFF7D7F9044A0549054801F0E8
:100D1C00DBFF044810BD00BFDC0000207400002085
:100D2C00130B0A080400002010B50A4C2378BFF3FB
:100D3C005B8FDB070BD42046FFF7B8F938B12046A0
:100D4C00FFF7B9F9044A0549054801F0BDFF04480D
:100D5C0010BD00BFE000002074000020110B0A0839
:100D6C000800002038B500250446C0E90055C0E94C
:100D7C0004558560856140F8245FFFF769FBFFF738
:100D8C00B5FFE061FFF7D0FF25732062204638BD28
:100D9C0010B50B4C2378BFF35B8FDB070ED42046CA
:100DAC00FFF784F950B10748FFF7DCFF2046FFF747
:100DBC0082F9054A0549034801F086FF014810BD38
:100DCC00D8000020E8000020740000208B120A08D4
:100DDC000023024A02490348FFF754BC69110A0870
:100DEC00F5100A0875100A0800231A461946184609
:100DFC00FFF748BC38B5046805467CB16368013B15
:100E0C0063605BB9236820469B689847A368013BE5
:100E1C00A3601BB923682046DB689847284638BD79
:100E2C000B68036013B15A6801325A60704737B5CA
:100E3C0004460D6951F8043B01A80093FFF7F0FF3D
:100E4C006A462946204601F011FD01A8FFF7D2FFA2
:100E5C00204603B030BD37B504468D6851F8043BCD
:100E6C0001A80093FFF7DCFF6A462946204601F0F3
:100E7C0079FD01A8FFF7BEFF204603B030BD37B5A2
:100E8C000446CD6851F8043B01A80093FFF7C8FF56
:100E9C006A462946204601F041FD01A8FFF7AAFF4A
:100EAC00204603B030BD000070B58AB00D46014637
:100EBC0004A8FFF7D0FF144E04A801F06BFDE8B1B5
:100ECC00684604A9FFF7DBFF31460298FFF744FEA2
:100EDC00044610B12C1E18BF012401A8FFF78AFF8D
:100EEC00002CE9D0684604A9FFF7A1FF684601F081
:100EFC00F4FC286001A8FFF77DFFDDE705A8FFF7EC
:100F0C0079FF0AB070BD00BF0F300A0837B50C4628
:100F1C0019492046154601F05EFF48B901F026FA42
:100F2C004FF4165101F004FA01F020FA03B030BD71
:100F3C002046124901F04FFF40B901F055FA4FF429
:100F4C00165101F0F5F901F04FFAEFE720460C4984
:100F5C0001F041FF70B94FF4165301A928460193D3
:100F6C00FFF7A2FF01F0C4FA019901F0BBFA01F0FE
:100F7C00BFFADBE70020D9E714300A081B300A0857
:100F8C001E300A0870B51426D0E90053044606FB3F
:100F9C000356AE4205D005F10800FFF7F3FF1435F8
:100FAC00F7E72068FFF71AFC204670BD70B50446C1
:100FBC00D0E9005305EB0316AE4204D02846FFF7E8
:100FCC0081FC1035F8E72068FFF708FC204670BD5F
:100FDC0010B504460C30FFF7D5FF2046FFF7E6FFAF
:100FEC00204610BD10B50446034B40F8043BFFF7F8
:100FFC00EFFF204610BD00BFDC2F0A0810B50446D9
:10100C00FFF7F0FF2046242101F063FE204610BDBF
:10101C0010B50446024B0360FFF7E4FF204610BDF9
:10102C00C4300A0810B50446FFF7F2FF204624210D
:10103C0001F04FFE204610BD0022C0E90022826064
:10104C0010B50C680A6004604C684A6044608C6897
:10105C008A60846010BD10B5044603681868FFF7F9
:10106C000FFA204610BD00002DE9F04F87B0039316
:10107C001C4B80465B688946C3F3080316466BB964
:10108C00FFF786FE044600F12403406A0593FFF740
:10109C00EFF9237B2BB105A8FFF7DDFF07B0BDE807
:1010AC00F08F01235FFA89F92373D4E9005305EB20
:1010BC00830AAA4512D055F8047B3146381DFFF738
:1010CC00EBFD8145F5D3039A3B680092D3F808B049
:1010DC004A46334641463846D847EAE7002323734D
:1010EC00D9E700BF00ED00E02DE9F74F9B461A4B06
:1010FC0080465B688946C3F3080316466BB9FFF755
:10110C0047FE044600F12403406A0193FFF7B0F94F
:10111C00237B2BB101A8FFF79EFF03B0BDE8F08F36
:10112C000123F6B22373D4E9005305EB830A55452A
:10113C000ED055F8047B5946381DFFF7ADFD86429D
:10114C00F5D33B684A4641463846DB689847EEE79C
:10115C0000232373DEE700BF00ED00E02DE9F3412F
:10116C00164B05465B680F46C3F308031BBBFFF722
:10117C000FFE044600F12403406A0193FFF778F94F
:10118C00D4E90063462406EB8308B04509D101A8D5
:10119C00FFF761FFA542B4BF0020012002B0BDE8FB
:1011AC00F08156F8040B39460430FFF775FD844284
:1011BC00A8BF0446E9E70020F0E700BF00ED00E01F
:1011CC000B4670B5044605C800EB8202824207D07C
:1011DC0001461D6851F8046BAE4203D00846F5E792
:1011EC00002070BD521A01F099FD63680120013B8B
:1011FC006360F6E71FB5044600F12403406A0191D1
:10120C000393FFF735F9204601A9FFF7D9FF18B171
:10121C0063680BB9FFF7E8FD03A8FFF71CFF04B0E8
:10122C0010BD182370B50446D0E9045603FB0656CE
:10123C00AE4215D0204605F11001FFF7C1FF6368DF
:10124C000BB9FFF7D1FDE06929690368DB689847A2
:10125C00696919B1206A0368DB6898471835E7E7B4
:10126C001826D4E9045306FB0356AE4204D0284694
:10127C00FFF728FB1835F8E70023636170BD73B5E1
:10128C000446FFF7B1FD04F12403606A0193FFF7F4
:10129C00EFF82046FFF7C5FF01A8FFF7DCFE606AF8
:1012AC0008B1FFF7DDF8D4E90453182606FB035602
:1012BC00AE4204D02846FFF705FB1835F8E7206945
:1012CC00FFF78CFA2068FFF789FA204602B070BD50
:1012DC008842F8B506460C46154627D9904226D2C8
:1012EC000026A2F114056C1AA1F114070444AF42B4
:1012FC003DD0A4B12B682360AB88A380B5F9063030
:10130C00C4E902662661E380AB68A360AE60E36863
:10131C00EA68E260EB6023692A6922612B6105F1BE
:10132C000800FFF72FFE143D143CE0E71FD0002708
:10133C00AC421CD0A6B123683360A388B380B4F947
:10134C000630C6E902773761F380A368B360A76003
:10135C00F368E268F260E360336922693261236109
:10136C0004F10800FFF70EFE14341436E0E7F8BD64
:10137C00F8B5D0E901539D4204460E4617460DDBE5
:10138C000135002D006804DDA900FFF72FFA18B90C
:10139C00F8BDFFF723FA00202060A560256862687D
:1013AC0005EB86019200A2EB8602081D01F0B6FC4B
:1013BC0045F826706368012001336360E8E737B5B0
:1013CC00044600F12403406A0D460193FFF750F8E0
:1013DC00D4E9003103EB810083421A460AD012682B
:1013EC000433AA42F8D101A8FFF735FE00252846A0
:1013FC0003B030BD2A462046FFF7BAFF0546002849
:10140C00F1D06368012B01D1FFF7E2FC01A8FFF7D3
:10141C0022FEECE78842F8B504460D46164614D970
:10142C00904213D2A2F11006751AA1F110072C44A8
:10143C00B74218D01CB131462046FFF7AAFA304605
:10144C00FFF740FA103E103CF2E70CD0B5420AD040
:10145C001CB129462046FFF79CFA2846FFF732FAC2
:10146C0010351034F2E7F8BD70B50E1E054611DDCF
:10147C003001FFF7ABF9044658B1D5E9001201EB86
:10148C000212FFF7C7FF2868FFF7A8F901202C60AC
:10149C00AE6070BD0024F6E72DE9F04F91460023B5
:1014AC00462297B00391D9F8041004469942C0E93A
:1014BC000033C0E90233C0E90433CDE90A330276C4
:1014CC000C9323DCD9E90057142303FB0757AF42D5
:1014DC003BD029460DA8FFF75CFA0DA911A80B9E6D
:1014EC00FFF757FADDE90B1399421BDA0A9B0B9AAB
:1014FC0003EB0616314603EB021206F11000FFF760
:10150C0089FFEEB90B9B01330B9311E00AA8FFF78F
:10151C00ABFF0028D6D10AA8FFF748FD204617B02C
:10152C00BDE8F08F01310AA8FFF79EFF0028DDD13E
:10153C0011A8FFF7C7F90DA8FFF7C4F91435C6E7D2
:10154C00304611A9FFF725FADCE700264FF0140A04
:10155C003746CDE90D660F96DDE90A239E4280F2EF
:10156C0097803301D35808930BB90136F4E70AFB83
:10157C0006F3099702930DAD09A908A8FFF7C5FA60
:10158C0083460028F1D00146099A28460DF11F0325
:10159C008DF81F70FFF742FB9DF81F800190B8F18A
:1015AC00000F66D1BDF82430CDE91388ADF8483072
:1015BC004FF6FF73CDF844B0ADF84A30CDF85480F7
:1015CC00D5E9013293421ADB03F1010BBBF1000F99
:1015DC004ADD0AFB0BF0FFF7F9F80490002845D020
:1015EC00D5E900120AFB0212FFF772FE049B286871
:1015FC000493FFF7F3F8049BC5F808B02B60019B2C
:10160C00D5F800B00AFB03F36A680BEB030101F198
:10161C0014000AFB02B204910593FFF759FE0499DA
:10162C00A9B1119A059B4BF80320BDF848308B806B
:10163C00BDF94A30C1E902770F61CB80139B8B60F7
:10164C00149B1397CB60159B14970B6115976B68C4
:10165C0001336B6013A8FFF795FCB8F1000F08D0AD
:10166C000DA8FFF78FFC56E74346C0E74FF0010883
:10167C00F0E7019B2D680AFB0355089B1B782BB9DF
:10168C00D9F80030029A13441B7CEB80083573E7C1
:10169C002168226062686360A3680B920C9A0C93B9
:1016AC00E368A2600D9A0D932369E2600E9A0E9383
:1016BC00636922610F9A0F93039B0A9162612376EF
:1016CC00CEE700007FB505460E460446084B114692
:1016DC0045F8043B01A8FEF702FE314601AA284654
:1016EC00FFF7DAFE01A8FEF7B9FD204604B070BD85
:1016FC00DC2F0A08F0B50F4687B038462549164648
:10170C001D460C9C01F067FB00BBE4B12946684602
:10171C00FFF792FC2420204901F0DDFA054670B158
:10172C00694603A8FEF7DBFD314603AA2846FFF7FE
:10173C00C9FF03A8FEF792FD184B2C622B6068467C
:10174C00FEF78CFD2C46204607B0F0BD38461449F8
:10175C0001F041FBE0B9002CF5D029466846FFF7B3
:10176C006BFC24200C4901F0B6FA05460028E6D0A3
:10177C00694603A8FEF7B3FD314603AA2846FFF7D6
:10178C00A1FF03A8FEF76AFD064B2C622B60D6E77F
:10179C000024D8E726300A0849320A08C4300A085F
:1017AC002A300A08AC300A08014B024A1A6070470A
:1017BC00E40000203B300A082DE9F047089DD0F8E2
:1017CC00209004460E461746984600F0CFFD814502
:1017DC004DD02B79190704D520466A695449FFF777
:1017EC000EFAB8F1000F0DD05B212046FFF7FBF984
:1017FC0041462046FFF7E9F9236802222046DB68C0
:10180C004C4998472B79DA0724D5D5F808802F2135
:10181C00404601F028FB08B100F101084146204682
:10182C00FFF7D3F92B799B0708D53A212046FFF710
:10183C00DAF92046EA684049FFF7E1F92A7923688A
:10184C0012F0040F20464FF00202DB6814BF3B4934
:10185C003B4998472B7958071DD529690B461A46E1
:10186C0013F8010B60B1202808D11946F7E7354869
:10187C0000F041FF0028ACD0BDE8F0872828EED15D
:10188C002368521A2046DB689847236804222046B6
:10189C00DB682D49984700213846FEF7EBFE0146E0
:1018AC002046FFF792F9236802222046DB68244980
:1018BC0098471EB131462046FFF787F92B7913F074
:1018CC00300F2CD023682149DB6802222046984730
:1018DC002B79D9060AD52368072220461C49DB68D8
:1018EC0098472046AA691B49FFF789F92B799A0674
:1018FC0011D5DB0605D5236802222046DB680F498B
:10190C0098472368204614490A22DB6898472046EA
:10191C00E969FFF75AF95D212046FFF764F923685E
:10192C002046BDE8F0470222DB680C49184700BF8F
:10193C003F300A0846300A0849300A084C300A0879
:10194C0051300A08880500204F300A0854300A0824
:10195C0057300A085F300A0862300A086D300A08EE
:10196C002DE9F04385B0D0F8209005460F469046FF
:10197C001E460C9C00F0FAFC814505D1494800F04C
:10198C00BAFE002840F08A804FF000092B6A464AC4
:10199C0001A8019203938DF8089001F024F84946B0
:1019AC004046FEF767FE80464049012201A801F03F
:1019BC00A3F84146FFF7FCF83FB13D49012201A8CD
:1019CC0001F09AF83946FFF7F3F83EB13949012294
:1019DC0001A801F091F83146FFF7EAF82379DF0707
:1019EC000ED5A6682F21304601F03DFA00B1461CF9
:1019FC003149012201A801F07FF83146FFF7D8F8F0
:101A0C0023799E0707D52D49022201A801F074F80D
:101A1C00E16800F0F5FF2379580714D526693346A1
:101A2C001F4613F8012B2AB1202A01D11E46F7E7D5
:101A3C00282AF5D10222224901A801F05DF831468D
:101A4C00BA1B01F068F82379190707D51D49012243
:101A5C0001A801F051F8616900F0E4FF2379DA067E
:101A6C0008D5042218490DEB020001F045F8A169D4
:101A7C0000F0C6FF23799B0607D51449062201A85E
:101A8C0001F03AF8E169FFF793F801A800F095FF2F
:101A9C00286A022203680E49DB68984705B0BDE846
:101AAC00F08300BF8805002094300A0819300A081A
:101ABC0070300A0872300A0874300A0876300A0846
:101ACC0079300A087C300A087E300A0883300A080C
:101ADC006D300A08024B1A68024B1A60704700BF3F
:101AEC000C0000201001002010B58368044613B1CF
:101AFC00032201469847204610BD10B50446FFF757
:101B0C00F3FF204610BD13B56C460B46024603C8C6
:101B1C0084E8030093E8030082E8030094E80300E0
:101B2C0083E8030002B010BD00230348034A0449B4
:101B3C00836001F0C9B800BF1401002074000020BC
:101B4C00071B0A08014B1860704700BF10000020EB
:101B5C0008B5134B43B100F009FC03681B699847A7
:101B6C00002801DDAFF300800E4B43B100F0C0FC48
:101B7C0003681B699847002801DDAFF300800A4B0E
:101B8C000BB1AFF30080094B43B100F02DFC03689F
:101B9C001B699847002801DDAFF3008008BD00BF2A
:101BAC000000000000000000000000000000000029
:101BBC0008B5FFF7CDFFFEF743FC014B186008BDDD
:101BCC00A00500200248034A0349121A01F098B8F4
:101BDC00004002400440024070330A08002307B55D
:101BEC001A466FF077010093FEF77EFD03B05DF8A7
:101BFC0004FB000007B543880A2B08D0502B0BD1EF
:101C0C00094B1B684BB103B05DF804EB1847FFF7A9
:101C1C00E5FF03B05DF804FB00231A466FF0770173
:101C2C000093FEF761FDF4E72801002038B5124C53
:101C3C0000211248FEF702FE114D2368AB420CBF87
:101C4C00012200220F4B1A7002D0FFF7BBFF256058
:101C5C00FEF7E6FB044601F083F80B4B13B120466C
:101C6C00AFF3008000210848FEF7A8FDBDE838401E
:101C7C0000210648FEF72EBD00400240511B0A0809
:101C8C001E1C279A2401002000000000011C0A08D9
:101C9C0070470020704710B50446102101F019F868
:101CAC00204610BD08B5FFF7F6FF08BD002230B581
:101CBC004FF69C74026084808D888C800C688580C3
:101CCC0004600A6030BD10B504460068FEF786FD5E
:101CDC00204610BD38B5C468F4B12378022B03D16B
:101CEC0004F10C00FFF7EFFF656835B12846FFF7EC
:101CFC00FBFE1021284600F0ECFFA56835B1284604
:101D0C00FFF7F2FE1021284600F0E3FF2046BDE865
:101D1C003840142100F0DDBF38BD73B50E460446C3
:101D2C0056F8043B0D4601A831460093FFF778F8AE
:101D3C00009B019A23600023626001A80193009329
:101D4C00FFF758F83046FFF755F82846082100F001
:101D5C00C0FF204602B070BD826810B50AB900F011
:101D6C00BEFFC368BDE81040184708B5006800F115
:101D7C001001FFF7F1FF08BD826810B50AB900F039
:101D8C00AEFFC368BDE81040184708B5006800F105
:101D9C001001FFF7F1FF08BD38B5002304460360BE
:101DAC0010200D46FEF771F928B10123C0E901336B
:101DBC00024BC56003602060204638BD28310A08FC
:101DCC0038B5002383608B6804460D462BB1022284
:101DDC009847EB68E360AB68A360204638BD000011
:101DEC00F0B589B004686846FFF760FF4FF0020356
:101DFC00D4E84F2F002A03D1C4E8413F0029F7D182
:101E0C0025D104F10C0569462846FFF74FFF012345
:101E1C00BFF35B8F63700020BFF35B8F04F108038B
:101E2C0053E8006F43E80002002AF9D1BFF35B8F3F
:101E3C006EB1FEF73FFC78B129463046FFF78CFFB8
:101E4C003046FFF751FE1021304600F042FF684645
:101E5C00FFF739FF09B0F0BD314602A8FFF7B0FF1C
:101E6C00E068B4F9105008B100F0C8FF06901020DB
:101E7C00ADF81C50FEF709F90546E8B1002787605C
:101E8C001820FEF702F9044688B10146876002A8C3
:101E9C00FFF739FE049BA268A360059B0492E268DD
:101EAC0006A9E36004F110000592FFF7FFFE084B52
:101EBC002C60EB60074BAB6006A8FFF704FF02A891
:101ECC00FFF712FE002229460348FEF7FBFBB7E79B
:101EDC00771D0A080D200A084D250A082DE9F04740
:101EEC008AB005460C46174698469DF84890FEF772
:101EFC0055FC07AE824638BB4FF62E73059005A9EC
:101F0C003046ADF81830FFF7D1FE1420FEF7BDF8BF
:101F1C00044648B1022303700123C0E901AA4370AF
:101F2C0031460C30FFF7C2FE2846214640F8044BE0
:101F3C00FFF732FF3046FFF7C6FE05A8FFF7C3FEDA
:101F4C0028460AB0BDE8F0870C234FF0000A142095
:101F5C00CDE908AA0793FEF798F8014628B1C0E925
:101F6C0001AA80F800A080F801A004A80391FFF753
:101F7C0013FF224B08200893FEF787F8824628B1FE
:101F8C00039B04A940F8043BFEF74AFF424639463E
:101F9C00204600965FFA89F3CDF824A0FEF706FCE4
:101FAC00B8B9039B5B7803F0FF0293B94FF69C73AF
:101FBC0005A903A80592ADF81830FFF711FF05A885
:101FCC00FFF781FE05A80999FFF7A7FE06A8FEF703
:101FDC0011FF039B04A906A80593FEF721FF059B9F
:101FEC00069A2B6000236A6006A806930593FEF7F9
:101FFC0001FF04A8FEF7FEFEA2E700BFD1200A08ED
:10200C00022AF8B5054607D0032A18D0012A01D1B7
:10201C000B6803600020F8BD18200E68FEF735F839
:10202C00044650B13146FFF7CBFE3069B6F9147057
:10203C0008B100F0E3FE2061A7822C60EAE7046897
:10204C00002CE7D004F11000FFF73DFE2046FFF70F
:10205C004BFD1821204600F03CFEDBE738B5002391
:10206C0083608B6804460D462BB102229847EB68BF
:10207C00E360AB68A360204638BD022A70B5044605
:10208C0007D0032A12D0012A01D10B68036000206B
:10209C0070BD14200E68FDF7F8FF054620B13146DF
:1020AC00FFF7DCFF337C2B742560F0E70468002C11
:1020BC00EDD02046FFF718FD1421204600F009FE54
:1020CC00E5E70000F0B5044689B00D4601A81146BD
:1020DC00FFF723FEA4B124B21DB1284600F08EFEFA
:1020EC00054601A803A90395ADF81040FFF778FE4B
:1020FC0003A8FFF7E8FD02A8FEF77CFE09B0F0BDCF
:10210C000123019DD5E84F2F002A03D1C5E8413F9B
:10211C000029F7D1EFD12B73BFF35B8F6B70BFF33B
:10212C005B8F2B1D53E8006F43E80042002AF9D166
:10213C00BFF35B8F002EDED02046FEF7BBFA0746BE
:10214C0060B1304605F10C01FFF716FE3046FFF783
:10215C00CBFC1021304600F0BCFDCCE7314603A887
:10216C00FFF77CFF2B7B10208DF81C30FDF78DFFCB
:10217C000546D0B187601420FDF787FF044678B17F
:10218C000146876003A8FFF7BEFC059BA268A3600D
:10219C00069B0592E268E3609DF81C30069223745E
:1021AC00064B2C60EB60064BAB6003A8FFF79CFC66
:1021BC00002229460348FEF785FAC7E7971D0A084F
:1021CC0087200A084D250A08704710B504461821C7
:1021DC0000F07FFD204610BDF8B50E46002400F13E
:1021EC000807051D17F8011D0A223046FEF72BFCC7
:1021FC00AF42044401D12046F8BD002CF2D02E2170
:10220C003046FEF711FC0444ECE7000010B5044620
:10221C00044B1122002140F8043B00F099FD2046AC
:10222C0010BD00BF44310A080346074A10B543F8F5
:10223C00042B01F1100251F8044B914243F8044B6A
:10224C00F9D10A781A7010BD44310A08024AC0E963
:10225C00002104220275704744310A0810B59DF81C
:10226C00084044EA0324042344EA024444EA016497
:10227C004460037510BD000037B5044D05609DF832
:10228C0018500095FFF7EAFF03B030BD44310A083F
:10229C0041747047704708B50021007CFEF7BAF90D
:1022AC0040EAE07008BD08B50121007CFEF7B2F9E8
:1022BC0040EAE07008BD08B5007CFEF7A3F920EAFF
:1022CC00E07008BD08B5007CFEF794F920EAE070D8
:1022DC0008BD38B50446007C0D46FEF793F900287E
:1022EC0001DC607C28B12946207CFEF79BF920EAB2
:1022FC00E07038BD007CFEF79DB910B50446142182
:10230C0000F0E7FC204610BD10B54FF47A7304467C
:10231C0008460021C4E90113044B207423600123F7
:10232C0011466374FEF74EF9204610BD58310A0869
:10233C000022007CFEF74EB9007CFEF753B900007A
:10234C0010B504461422002100F002FD054B204676
:10235C006360054BE36040F20113238181232382E8
:10236C0010BD00BF5C0100205D02002030B50F4D98
:10237C0087B001A8FFF7E4FF2978BFF35B8F11F05A
:10238C00010410D12846FDF791FE60B1214601AA47
:10239C000748FFF7B9FF2846FDF78DFE054A0649A9
:1023AC00034800F091FC024807B030BD2C0100201E
:1023BC003401002074000020A1220A0810B5044644
:1023CC001422002100F0C4FC054B20466360054B31
:1023DC00E36040F2011323818123238210BD00BFEF
:1023EC00DE020020DF03002010B50F4C86B001A8E0
:1023FC00FFF7E4FF2378BFF35B8FDB0710D4204695
:10240C00FDF754FE60B1012101AA0848FFF77CFFDB
:10241C002046FDF750FE064A0649044800F054FCDD
:10242C00024806B010BD00BF30010020480100205A
:10243C0074000020A1220A0870474174704708B547
:10244C00007CFEF765F820EAE07008BD08B5007C5A
:10245C00FEF736F820EAE07008BD08B5007CFEF700
:10246C003FF840EAE07008BD08B5007CFEF730F894
:10247C0040EAE07008BD007CFEF73AB870B5467CC7
:10248C0004460D462EB12946207CBDE87040FEF76F
:10249C000FB8007CFEF73CF80028F4DC304670BD29
:1024AC0010B50446142100F014FC204610BD0000A9
:1024BC004FF0000C10B50446084611464FF47A72E2
:1024CC00C4E901C2044A20742260012262741A46D3
:1024DC00FDF7DEFF204610BD88310A080023007C82
:1024EC00FEF71EB80022FFF7F9BF007CFDF7D8BF3E
:1024FC0038B50D4D2978BFF35B8F11F0010411D164
:10250C002846FDF7D3FD68B12146084A084B094817
:10251C00FFF7CEFF2846FDF7CEFD074A07490548D1
:10252C0000F0D2FB034838BD600400206404002096
:10253C00E80400206C0500207400002045240A08E3
:10254C0010B5836804460BB900F0C9FBC368984703
:10255C00A3681BB103222146204698472046BDE8BC
:10256C001040102100F0B5BB7047F8B50646154673
:10257C000C468F18BC4206D0336830469B6814F862
:10258C00011B9847F6E72846F8BD0022007CFDF7B2
:10259C00CFBF0021007CFDF7D3BF0021007CFDF7ED
:1025AC00D7BF0021007CFDF7DBBF0021007CFDF7CD
:1025BC00DFBF10B50446142100F08BFB204610BD84
:1025CC0010B54FF47A73044608460021C4E9011390
:1025DC00034B114623602074FDF7DAFF204610BD33
:1025EC00B8310A08002240681146FEF79FB8F0B5D2
:1025FC00154689B011220E460446002103A800F0AE
:10260C00A7FB284600F015FC002781B2736828460A
:10261C00009703AAFEF716F830B139462046FFF7AB
:10262C0015FE204609B0F0BD204603A9FFF7FCFDBE
:10263C00F7E7002240681146FEF798B80022406880
:10264C001146FEF7A3B800224068FEF797B80022A7
:10265C00406881F00101FEF781B8002340681A46FA
:10266C001946FEF773B8002240681146FEF74EB8C3
:10267C00002202214068FEF751B8002340681A4638
:10268C00FEF73CB80422024B5A60024A1A607047AB
:10269C0080050020E0310A08002340681A46FEF746
:1026AC002DB8002202214068FEF738B8002240689D
:1026BC001146FEF72BB8002240681146FEF736B8DB
:1026CC00002340681A461946FEF738B800234068C4
:1026DC001A461946FEF73AB80022406881F001010B
:1026EC00FEF73CB800224068FEF748B8002240686C
:1026FC001146FEF74BB8002240681146FEF736B87B
:10270C0070B515468EB0044608A8FFF77FFD112260
:10271C00002103A800F01CFB0026284600F089FBD2
:10272C000A4B009681B25B68284603AAFDF78AFF24
:10273C0030B131462046FFF789FD20460EB070BD02
:10274C00204603A9FFF770FDF7E700BF80050020C6
:10275C00024B034A1A6000225A6070478805002019
:10276C0014320A08012200F1100313F8101C184649
:10277C00012908D153F8041C02EB4102013A03F180
:10278C001003F2D17047022904BF53F8041C5218ED
:10279C00F4E70EB42DE9F04187B000AF07F1340532
:1027AC0055F8048B04462B464246102107F10800CD
:1027BC007D60FEF72BF80F281BD900F1080323F0DE
:1027CC0007036E46ADEB030D4246411C2B46684693
:1027DC007D60FEF71BF8021E04DD23686946204667
:1027EC009B689847B5461C37BD46BDE8F04103B021
:1027FC0070470028F7D0236802469B68204607F1F3
:10280C0008019847EFE710B5044603689B689847A2
:10281C00A368013BA3602BB923682046BDE8104098
:10282C00DB68184710BD07B503688DF80710012247
:10283C009B680DF10701984703B05DF804FB38B5B0
:10284C000B68044603604D6843689D420CD015B17B
:10285C006B6801336B60606828B14368013B43606F
:10286C000BB9FFF7D0FF6560204638BD0B4611460B
:10287C00002210B50446C0E9002283600BB9204643
:10288C0010BDFFF7DCFFFAE70346806820B302783F
:10289C00032A1AD8DFE802F00417021B0520704740
:1028AC001B685A684368D05C2D2812D0A0F1300305
:1028BC00092B0ED974280ED066280CD0A0F16E030B
:1028CC00584258417047062070470020704704203A
:1028DC007047032070470220704710B50446FFF77D
:1028EC00D3FF02280ED0C31EDBB2012B14D82268F2
:1028FC00A36850685B680A22BDE8104000211844A8
:10290C0000F040BB2268A36852685B68D05CA0F101
:10291C0074035842584110BD0020FCE70B46114689
:10292C00002210B50446C0E900220D48C4E9020299
:10293C00A3B11A78032A06D082B90A6850685A687B
:10294C00825C6E2A07D00A68586852689B680244F9
:10295C001B1AA260E3602046FFF771FF204610BDF2
:10296C006F300A0838B500250B4604461146C0E9FD
:10297C000055C0E90255C0E904554BB11A78012A3B
:10298C0006D103F11002DB6882604361FFF757FF49
:10299C00204638BD10B54369044663B18068013BDD
:1029AC00E0601030A0602061636113B1FFF7DAFEC4
:1029BC00A060012000E0184610BD10B57D21044632
:1029CC00FFF731FF01232046237110BD08B50379B1
:1029DC00012B02D0022B04D008BD2C21FFF723FFC2
:1029EC00FAE73A21FAE710B50446FFF7EFFF204665
:1029FC007B21FFF718FF00232046237110BD000038
:102A0C0038B504460D46FFF7E1FF236820462A46F9
:102A1C00DB680349984701232046237138BD00BF6A
:102A2C0049300A0838B504460D46FFF7CFFF236836
:102A3C0020462A46DB680349984701232046237128
:102A4C0038BD00BF40320A082DE9F0410D4617464B
:102A5C0022210446FFF7E7FE2946DFF898802F4431
:102A6C00BD422A4638D015F8016B222E03D05C2EBD
:102A7C0001D01F2EF4D82368521A20469B68984721
:102A8C005C212046FFF7CFFE0D2E0AD8072E1CD94D
:102A9C00A6F10803052B18D8DFE803F00D0F11176A
:102AAC001315222E01D05C2E0FD131462046FFF794
:102ABC00BAFE2946D4E76221F8E77421F6E76E21C5
:102ACC00F4E76621F2E77221F0E7236832464146CB
:102ADC002046DB689847ECE78D4204D023682046FB
:102AEC009B686A1A984722212046FFF79CFEBDE896
:102AFC00F08100BF43320A0870B504460D461646F5
:102B0C00FFF764FF204632462946FFF79DFF02235C
:102B1C002046237170BD70B504460D461646FFF76E
:102B2C0055FF204632462946FFF78EFF01232046EB
:102B3C00237170BD10B50446806808B1FDF790FC98
:102B4C00204610BD172870B5044601D9002070BD71
:102B5C00A0F10D03022B0BD9012826D800F08CF81C
:102B6C000021007CFDF70CFD80F00100C0B2EEE707
:102B7C00134E3178BFF35B8F11F001050FD1304646
:102B8C00FDF794FA58B129460E48FDF75FFE304622
:102B9C00FDF791FA0C4A0D490A4800F095F8094BDB
:102BAC001878FDF707FD0028D0D1123C012C05D870
:102BBC00FFF79EFC007CFDF7A3FCD5E70120C6E7E0
:102BCC00900500209405002074000020412B0A0879
:102BDC00172838B504460D460AD8FF2908D0FFF748
:102BEC00B1FF28B129462046BDE83840FDF700BCAE
:102BFC0038BD10B50446FDF703FC031FDBB2012BF7
:102C0C0008D92046FFF79EFF20B12046BDE81040B2
:102C1C00FDF7FEBB002010BD002313B5074C1A4670
:102C2C00194620460093FFF727FB2046044A054926
:102C3C0002B0BDE8104000F047B800BFA40500206A
:102C4C0074000020D5210A08002370B5202543808C
:102C5C001423084E044603803146856005612846DE
:102C6C0000F03BF831466060284600F036F8E06032
:102C7C00204670BD49320A0830B50F4D87B029780F
:102C8C00BFF35B8F11F0010413D12846FDF70EFA48
:102C9C0078B101A8FFF7D8FF214601AA0748FFF732
:102CAC008FFC2846FDF707FA054A0649034800F051
:102CBC000BF8024807B030BDBC050020C005002051
:102CCC007400002075250A080B460146184600F0D2
:102CDC0009B8FDF7DEB9FDF7D8B9FDF7D8B908B5D5
:102CEC00FDF79CFD10B504460448134620B10A4676
:102CFC0002202146AFF3008010BD00BF0000000091
:102D0C000A44914200F1FF3300D1704710B511F81D
:102D1C00014B914203F8014FF9D110BD884210B517
:102D2C0001EB020402D98442234607D8431EA14278
:102D3C0008D011F8012B03F8012FF8E701460244E3
:102D4C008A4200D110BD13F8014D02F8014DF7E78E
:102D5C0003460244934200D1704703F8011BF9E784
:102D6C0038B50D4B04461D68AB6B7BB91820FDF7CD
:102D7C002DFD0A4A0A4BA863C0E90023094B012226
:102D8C0083600B2383810023C0E904230022AB6BF7
:102D9C001C615A6138BD00BF100000200E33CDAB52
:102DAC0034126DE6ECDE05000346C9B2184613F882
:102DBC00012B12B18A42F9D17047002918BF0020AB
:102DCC00704710B50446FFF7EFFF18B9204600F026
:102DDC0030F8204410BD10F8012B11F8013B012AEA
:102DEC0028BF9A42F7D0D01A7047034611F8012B2E
:102DFC0003F8012B002AF9D170470000024B014661
:102E0C00186800F003B800BF1000002070B504462D
:102E1C0008460D4600F00DF8461C31462046FDF7DD
:102E2C0005FD044618B132462946FFF769FF2046D6
:102E3C0070BD034613F8012B002AFBD1181A013878
:102E4C00704710B56AB10139841810F8013B11F8BC
:102E5C00012F934203D1A04201D0002BF5D1981A37
:102E6C0010BD1046FCE738B503460C4669B9BDE801
:102E7C003840FFF799BF0546431C21461846FFF71B
:102E8C0093FF0028F7D1284638BD0025F5E7000050
:102E9C002DE9F0478C468646394E60461CF8014BAE
:102EAC00A55D15F00805F8D12D2C33D14FF0010894
:102EBC009CF8004000F1020C002B5CD0102B0CD1C4
:102ECC00302C0AD19CF8000000F0DF0058284DD1BE
:102EDC0010239CF801400CF1020C002608F100476D
:102EEC00013FB7FBF3F9304603FB197AA4F1300527
:102EFC00092D18D82C46A34224DD751C07D081451A
:102F0C001DD301D1A2451ADB012600FB03401CF89E
:102F1C00014BEBE72B2C08BF9CF80040A84608BFE0
:102F2C0000F1020CC8E7A4F14105192D01D8373C7A
:102F3C00E1E7A4F16105192D04D8573CDBE74FF00C
:102F4C00FF36E4E7731C06D122233846CEF8003056
:102F5C0042B9BDE8F087B8F1000F00D04042002A1A
:102F6C00F7D00EB10CF1FF311160F2E73024002BD9
:102F7C00B3D10823B1E7302CA4D00A23ADE700BFAE
:102F8C004B320A0813460A46014602480068FFF70E
:102F9C007FBF00BF100000201D000A085D000A085A
:102FAC0085000A0889000A08000000005B25642CD3
:102FBC0025642C25645D007075626C6973686564AA
:102FCC003A20257300000000000000000000000003
:102FDC000000000000000000A5000A08C9000A0853
:102FEC000000000000000000D5000A0809010A08D2
:102FFC00C5170A08CB000A087368656574546573B5
:10300C00743100626175640053657269616C0055BE
:10301C00534253657269616C31004A534F4E53747D
:10302C007265616D4C6F6748616E646C65720061AE
:10303C00707000253031307520005D200025640053
:10304C002C200028293A2000205B00636F64652047
:10305C003D200025690064657461696C73203D2016
:10306C00000D0A006D00630066006C6E00666E0059
:10307C007400636F64650064657461696C000000C2
:10308C000000000000000000150B0A083B0B0A08AA
:10309C00FB0A0A089F270A08000000000000000035
:1030AC00F10F0A0809100A08C5170A08CB000A080C
:1030BC0000000000000000001D100A0831100A0872
:1030CC006D190A08030B0A0800000000000000003C
:1030DC00130B0A08490B0A0801170A08050B0A0802
:1030EC000000000000000000110B0A08570B0A0832
:1030FC00190F0A08730B0A0825592D256D2D256407
:10310C005425483A254D3A2553257A00617363744A
:10311C00696D650000000000000000009D1C0A089D
:10312C00A31C0A08E11C0A08B11C0A089F1C0A0807
:10313C000000000000000000E5210A08D5210A0863
:10314C00D7210A080000000000000000A1220A0894
:10315C0007230A08DF220A08E9090A08D1220A080B
:10316C00A3220A08B3220A0801230A08C3220A0868
:10317C009D220A08000000000000000045240A08F7
:10318C00AD240A0889240A08E9090A0859240A08FE
:10319C0075240A0867240A0883240A0847240A08A5
:1031AC004B240A08000000000000000075250A08E6
:1031BC00BF250A0897250A0877250A089F250A08BB
:1031CC00A7250A08AF250A08B7250A080000000041
:1031DC000000000087260A087D260A0873260A08C4
:1031EC00F1250A08EF0A0A0867260A085B260A086E
:1031FC0053260A0849260A083F260A08FB250A080E
:10320C000000000000000000A5260A08AF260A08EE
:10321C00B9260A08C3260A08CD260A08D9260A08A0
:10322C00E5260A08F1260A08F9260A0803270A08DF
:10323C000D270A082575007525303478000000200C
:10324C00202020202020202028282828282020204A
:10325C0020202020202020202020202020202088FA
:10326C00101010101010101010101010101010045E
:10327C0004040404040404040410101010101010AE
:10328C0041414141414101010101010101010101A2
:10329C0001010101010101010101101010101010B8
:1032AC004242424242420202020202020202020272
:1032BC00020202020202020202021010101020008E
:1032CC0000000000000000000000000000000000F2
:1032DC0000000000000000000000000000000000E2
:1032EC0000000000000000000000000000000000D2
:1032FC0000000000000000000000000000000000C2
:10330C0000000000000000000000000000000000B1
:10331C0000000000000000000000000000000000A1
:10332C000000000000000000000000000000000091
:10333C000000000000000000000000000000000081
:10334C0051030A0895080A08B5170A08E11A0A0871
:10335C00351B0A0891260A085D270A08252C0A083D
:04336C00000000005D
:043370000000000059
:1033740004300A08DC300A08F4300A0818310A0854
:103384001400002000000000000000000000000005
:103394000000000000000000000000000000000029
:1033A4000000000000000000000000000000000019
:1033B4000000000000000000000000000000000009
:1033C40000000000000000000000000000000000F9
:1033D40000000000000000000000000000000000E9
:0433E40000000000E5
:1033E800FFFFFFFF00000102030405060708090AA2
:1033F8000B0C0D0E0F101112131415161718191A9D
:083408001B1C1D1E1F202800E3
:0434100078563412A4
:04000005080A001CC9
:00000001FF
