:02000004080AE8
:1000000000000A0834380A0800000600060005014E
:080010000402350800000000A5
:040018007C330A0823
:10001C0009480A4908B5884205D0094A824202D0EB
:10002C00121A03F059F80748074A0021121A03F074
:10003C007BF8064808BD00BF0000002094370A0872
:10004C007800002078000020E0050020E00500206A
:10005C0070B501F0CBFF0025054E064CA41BA4087F
:10006C00A54200D170BD56F8043B98470135F7E71F
:10007C0068370A0888370A0800F0A1B808B500F0FC
:10008C00C7F8BDE8084001F073BF00F0C9BC00F030
:10009C00C7BC00F0CDBC000000210C2008B5024A02
:1000AC0000F0C8FBFEE700BF1D060A080078B0FA96
:1000BC0080F0400970470123037070477047006A55
:1000CC000368DB68184738B50446006928B18568B1
:1000DC000C2102F0EAFF2846F8E7204638BD000064
:1000EC0010B50446094B036001F048F8214601F0B5
:1000FC0061FA02F01FFB02F003FB2046044B40F8B0
:10010C00043B01F045F9204610BD00BFCC330A0872
:10011C00B4330A0810B50446FFF7E2FF2046242149
:10012C0002F0C3FF204610BDF8B5037D05460F460F
:10013C0016468BB10368DB6883B19A88012A06D016
:10014C009B68F9E79B684BB19A88012AFAD12BB1CD
:10015C009A89BA42F6D19E732846F8BD10200A49F6
:10016C0002F0A5FF044668B11022002102F0DCFF6A
:10017C00064BA78123600123A3802B69A673A36080
:10018C002C61E9E72875E7E765360A0810000300DB
:10019C000EB410B50023016820208DB00FAA52F8C0
:1001AC00044BCDE90403CDE9004203921E2004AABE
:1001BC0000F050FB0DB0BDE8104003B0704708B51F
:1001CC000021022002F0F0FE0021032002F0ECFEE0
:1001DC000021042002F0E8FEBDE8084000210B20BD
:1001EC0002F0E2BE38B5046805467CB16368013B99
:1001FC0063605BB9236820469B689847A368013B02
:10020C00A3601BB923682046DB689847284638BD95
:10021C00F0B5614BA5B01A7D0AB101221A72012208
:10022C0002215D48FFF780FF01220321FFF77CFFCD
:10023C0001220421FFF778FF037D0546EBB103682B
:10024C00DB682BB19A88042A00F0A3809B68F8E73E
:10025C001020524902F02BFF0446002800F0978032
:10026C001022002102F060FF4D4B23600423A38079
:10027C002B69A3604B4BE3602C6104A8464900F04A
:10028C0059FC049808B100F0D3FB022002F09DFE4B
:10029C00012818D1444B45491A6804A801321A6048
:1002AC0000F06AFD424B43491B78049A8DF80030EC
:1002BC0009683C2302A801F0F5FF03A8FFF792FFA1
:1002CC0004A800F0B9FC032002F07FFE012808BF4F
:1002DC00394A4FF0040002BF13680133136002F077
:1002EC0074FE012801BF354A13680133136000F016
:1002FC006FFB00282ED000F093F9314C2368C01A04
:10030C00284B984226D92D4D2B4E2B68264F019306
:10031C00336880212B4A009304A83B6800F098FBBB
:10032C00294B2A491B7804AA8DF8003009683C2314
:10033C0002A801F0B7FF03A8FFF754FF2449254892
:10034C0004AAFFF725FF00233B6033602B6000F00D
:10035C0067F9206000F064F91F4C2268801A1F4A6C
:10036C00904212D900F034FB08B900F029FB00F0E0
:10037C002FFB10B1002000F03BFB4FF0FF31184871
:10038C0001F0ABFE00F04CF9206025B0F0BD2875F3
:10039C0073E7044ADA6070E78C00002065360A08BF
:1003AC0010000300E09304008400002090330A083E
:1003BC008800002000000020800000207C0000202D
:1003CC00A800002093330A088900002004000020B4
:1003DC009E330A08EC000020A400002080EE3600BA
:1003EC00AC05002070B51426D0E90053044606FB7A
:1003FC000356AE4204D0284600F01EFC1435F8E734
:10040C00206800F015FB204670BD8842F8B5044604
:10041C000D46164616D9904215D2A2F11406751A3D
:10042C00A1F114072C44B7421CD02CB13146204604
:10043C0000F07CFC337C2374304600F0FDFB143E52
:10044C00143CF0E70ED0B5420CD02CB12946204616
:10045C0000F06CFC2B7C2374284600F0EDFB14356B
:10046C001434F0E7F8BD00232DE9F041C0E9003366
:10047C0083604F6804469F420E4624DD4FF01408FB
:10048C0008FB07F000F0CCFA0546E0B1D4E9001205
:10049C0008FB0212FFF7B9FF206800F0C9FA2560CB
:1004AC00A760D6E9007308FB0378B84509D0394634
:1004BC00284600F055FC3B7C143505F8043C1437F9
:1004CC00F3E7736863602046BDE8F0812DE9F041E5
:1004DC0000240126314B8CB01C70314B314D1E70F9
:1004EC0000F09EF8304BA846186000F099F82F4B9E
:1004FC0021461860304600F0CDF9CDE90044029455
:10050C0002F018F90746694603A8FFF7ACFF03A9E8
:10051C0006A8FFF7A8FF264B06A948F8043B09A834
:10052C00FFF7A1FF09AA1E21404601F095F909A881
:10053C00FFF758FF06A8FFF755FF1E4B03A82B60CB
:10054C002F62FFF74FFF1C4B1C4F2B6002F0F2F891
:10055C004FF4165102F0D0F800F010FE294601F0CD
:10056C000EF96846FFF73EFF3A462846144902F05A
:10057C0097FD144814490346021D43F8092BA0F8B3
:10058C0009409C70114B3A46C0E903440675436020
:10059C00047202F085FD0CB0BDE8F08188000020EB
:1005AC0089000020AC000020A4000020A80000203E
:1005BC00B4330A08B8340A08CC330A08780000208F
:1005CC00ED000A088C000020D3000A08100003007C
:1005DC0008B5024B1B689B68019308BDB001060867
:1005EC0008B5024B1B68DB68019308BDB001060817
:1005FC0008B5024B1B685B69019308BDB001060886
:10060C0008B5024B1B685B68019308BD9C0106088A
:10061C0008B5024B1B68DB68019308BD9C010608FA
:10062C0008B5024B1B685B69019308BD9C01060869
:10063C0008B5024B1B685B6C019308BDD001060822
:10064C0008B5024B1B689B6C019308BDD0010608D2
:10065C0008B5024B1B68DB6C019308BDD001060882
:10066C0008B5024B1B685B6D019308BDD0010608F1
:10067C0008B5024B1B689B69019308BDC4010608B1
:10068C0008B5024B1B681B6A019308BDC401060820
:10069C0008B5024B1B685B6A019308BDC4010608D0
:1006AC0008B5024B1B689B6A019308BDC401060880
:1006BC0008B5024B1B68DB6A019308BDC401060830
:1006CC0008B5024B1B681B6B019308BDC4010608DF
:1006DC0008B5024B1B685B6B019308BDC40106088F
:1006EC0008B5024B1B689B6B019308BDC40106083F
:1006FC0008B5024B1B681B6C019308BDC4010608AE
:10070C0008B5024B1B68DB6C019308BDC4010608DD
:10071C0008B5024B1B681B6E019308BDAC010608A3
:10072C0008B5024B1B685B6E019308BDAC01060853
:10073C0008B5024B1B689B6E019308BDAC01060803
:10074C0008B5024B1B68DB6E019308BDAC010608B3
:10075C0008B5024B1B681B6F019308BDAC01060862
:10076C0008B5024B1B685B6F019308BDAC01060812
:10077C0008B5034B1B68D3F88030019308BD00000B
:10078C00AC01060808B5024B1B68DB69019308BD78
:10079C00B401060808B5024B1B681B6A019308BD1F
:1007AC00B401060808B5024B1B681B68019308BD11
:1007BC00D801060808B5024B1B685B68019308BD9D
:1007CC00D801060808B5024B1B689B68019308BD4D
:1007DC00D801060808B5024B1B681B69019308BDBC
:1007EC00D801060808B5024B1B685B69019308BD6C
:1007FC00D801060808B5024B1B689B69019308BD1C
:10080C00D801060808B5024B1B68DB69019308BDCB
:10081C00D801060808B5024B1B681B6A019308BD7A
:10082C00D801060808B5024B1B689B6C019308BDE8
:10083C00C001060808B5024B1B685B6B019308BD31
:10084C00A801020808B5024B1B681B6D019308BD7B
:10085C00A801020808B5024B1B685B6D019308BD2B
:10086C00A801020808B5024B1B68DB6E019308BD9A
:10087C00A801020808B5024B1B681B6F019308BD49
:10088C00A801020808B5024B1B685B68019308BD00
:10089C00A401060808B5024B1B68DB6A019308BD6E
:1008AC00A401060808B5024B1B68DB6C019308BD5C
:1008BC00A401060808B5024B1B685B6D019308BDCB
:1008CC00A401060808B5034B1B68D3F890300193BC
:1008DC0008BD0000A401060808B5034B1B68D3F83B
:1008EC009C30019308BD0000A401060808B5034B19
:1008FC001B68D3F8B030019308BD0000A4010608B2
:10090C0008B5024B1B685B68019308BDC80106085B
:10091C0008B5024B1B689B68019308BDC80106080B
:10092C0008B5024B1B68DB68019308BDC8010608BB
:10093C0008B5024B1B681B69019308BDC80106086A
:10094C0008B5024B1B685B69019308BDC80106081A
:10095C0008B5024B1B689B69019308BDC8010608CA
:10096C0008B5024B1B68DB69019308BDC80106087A
:10097C0008B5024B1B681B6A019308BDC801060829
:10098C0008B5024B1B681B6B019308BDC801060818
:10099C0008B5024B1B685B6B019308BDC8010608C8
:1009AC0008B5024B1B681B6C019308BDC8010608F7
:1009BC0008B5024B1B685B6C019308BDC8010608A7
:1009CC0008B5024B1B68DB68019308BDCC01060817
:1009DC0008B5024B1B685B69019308BDCC01060886
:1009EC0008B5024B1B681B6A019308BDCC010608B5
:1009FC0008B5024B1B68DB6A019308BDCC010608E5
:100A0C0008B5024B1B68DB6B019308BDCC010608D3
:100A1C0008B5024B1B681B6C019308BDCC01060882
:100A2C0008B5024B1B681B68019308BDA0010608A2
:100A3C0008B5024B1B685B68019308BDA001060852
:100A4C0008B5024B1B689B68019308BDA001060802
:100A5C0008B5024B1B68DB69019308BDA0010608B1
:100A6C0008B5024B1B685B6A019308BDA001060820
:100A7C0008B5024B1B68DB6A019308BDA001060890
:100A8C0008B5024B1B681B6B019308BDA00106083F
:100A9C0008B5024B1B685B6C019308BDA0010608EE
:100AAC0070B5002604460D4640F8086FFFF7C0FDF0
:100ABC0028462570FFF766FE2046666070BD10B5AF
:100ACC000446006818B1FFF7B3FF0023236010BD84
:100ADC0010B50446FFF7F3FF204610BD38B5B1F949
:100AEC0004300D4683800B4653F8062F0446C0F89D
:100AFC0006209B884381FFF7E2FF2B6813B123602C
:100B0C0000232B60204638BD38B50C460546FFF750
:100B1C00D6FF44B12088FFF783FF286028B1214617
:100B2C00228802F0D9FA002038BD0148FCE700BF4A
:100B3C00FCFEFFFFF0B52D4D0B7D04468BB0084637
:100B4C00AF1D002B38D00B681B79002B34D0002242
:100B5C00274B02A9043004930292ADF80C208DF8B7
:100B6C000E20FFF7C3FEDDF80E3000B2C5F80630DC
:100B7C00BDF81230ADF80C00A88002992846BB8055
:100B8C00FFF7C2FF02A8FFF79AFF00232360A380A0
:100B9C00A37123814FF6FF736381B5F904302046AE
:100BAC00A3803B682968C4F80630BB886381FFF7D3
:100BBC00ABFF20460BB0F0BD00262023CDE902365A
:100BCC000C4B322000930C49334602AAFFF73AFE35
:100BDC00074B02A904934FF6F263044802968DF872
:100BEC000E60ADF80C30FFF779FFCBE7D00000209A
:100BFC000000FFFFF9330A08F2330A080222002032
:100C0C0010B5084B084C1A60084B2060A080A071EE
:100C1C00A360FFF737FE2046BDE81040044A0549A3
:100C2C0002F03EBADC000020D00000200000FFFFE4
:100C3C0078000020DD0A0A0810B504460068FFF7AA
:100C4C00F7FE204610BD10B50446006808B1FFF74A
:100C5C00EFFE0023C4E90133236010BD38B5044610
:100C6C000D4600680131FFF7EBFE10B1C4E9000539
:100C7C00012038BD10B50368044623B143688B428C
:100C8C0001D3012010BD2046FFF7E8FF0028F9D062
:100C9C00A368002BF5D122681370F2E770B50E46ED
:100CAC00114604461546FFF7E5FF20B92046FFF72D
:100CBC00CAFF204670BD2A4631462068A56002F066
:100CCC000BFA00212268A368D154F2E738B500234F
:100CDC0004460D46C0E900338360037339B10846FE
:100CEC0002F093FA294602462046FFF7D7FF20462A
:100CFC0038BD38B5054600680C4668B16A688B6823
:100D0C009A4207D3096802F05CFAA368AB6000232F
:100D1C00A36038BDFFF78CFE23682B6063686B60A3
:100D2C00A368AB600023C4E90033F1E7002310B5DE
:100D3C000446C0E9003383600373FFF7DAFF2046F3
:100D4C0010BD884210B50B46044604D0096821B189
:100D5C009A68FFF7A3FF204610BDFFF774FFFAE770
:100D6C00002310B50446C0E9003383600373FFF71A
:100D7C00E8FF204610BD00000EB4FFB509AD55F8D4
:100D8C00047B04462B463A46052102A80195FFF741
:100D9C0067FE06460B492046FFF798FF3146204672
:100DAC00FFF768FF206830B12B463A46711C01955D
:100DBC00FFF756FEA060204604B0BDE8F04003B03B
:100DCC00704700BF7D340A08F8B506460D4600246E
:100DDC008F18BD420CD0336830469B6815F8011B48
:100DEC009847031E01DB1C44F3E7002C08BF1C468C
:100DFC002046F8BD70B505460C46084649B102F0D0
:100E0C0004FA2B68024621462846BDE87040DB6890
:100E1C00184770BD03689B68184738B50D21054607
:100E2C00FFF7F8FF0A2104462846FFF7F3FF20449A
:100E3C0038BD0023012A98BF0A2230B58BB00C466E
:100E4C008DF8243009A92546B4FBF2F404FB1253A7
:100E5C00DBB2092B94BF30333733DBB2AA4201F833
:100E6C00013DF0D9FFF7C6FF0BB030BD2DE9F041C5
:100E7C0086B000AF05460E46381D142114463B6063
:100E8C00FFF7EEFD13280ED82846391DFFF7B2FFE9
:100E9C0004461EB12846FFF7C0FF0444204618370D
:100EAC00BD46BDE8F08100F1080323F00703E846D6
:100EBC00ADEB030D2246411C3B686846FFF7D0FDA5
:100ECC0069462846FFF796FF0446C546E1E700232E
:100EDC0040681A461946FFF733BD80680368DB6823
:100EEC0018477047084611B10B685B681847704784
:100EFC0070477047704738B504460D4600682E2180
:100F0C0002F04BF923680246C01A286020B113780E
:100F1C0003B101322068226038BD10B504460C21A3
:100F2C0002F0C3F8204610BD10B50446042102F0AF
:100F3C00BCF8204610BD10B50446042102F0B5F8EB
:100F4C00204610BD08B502F032F9B0FA80F0400925
:100F5C0008BD10B50C4601F0EDFB844205D101F043
:100F6C00E9FBBDE8104001F0CBBB01F021FC844251
:100F7C0002D101F01DFCF4E701F09EFC844205D186
:100F8C0001F09AFCBDE8104001F093BC2CB1236831
:100F9C002046BDE810405B68184710BD38B50546C3
:100FAC0008460C4602F031F9214602462846BDE8B7
:100FBC00384001F09CBF70B5044608460D4602F05F
:100FCC0024F92368024629462046BDE87040DB68B8
:100FDC00184707B503688DF807100122DB680DF17F
:100FEC000701984703B05DF804FB0EB403B503ABDF
:100FFC0053F8042B0021006A0193FFF737FF02B06E
:10100C005DF804EB03B070472DE9F74F4FF014086F
:10101C00D0E9009517464C4608FB05F50093AB103C
:10102C00174D5D43002D23DD6E1008FB06F004EB1D
:10103C00000ABAF804B03A465F4528BF5A46205811
:10104C00019102F0EAF80123019978B95F4503D1C7
:10105C00009A13703546E5E78CBF0120002000286C
:10106C00F8D0AE1B0AF11404013EF3E7C00FF6E70B
:10107C00A4EB09040248A410604303B0BDE8F08F50
:10108C00CDCCCCCC7FB50369067E019103B3F9B10D
:10109C00002500F10C04039503A901A8FFF72BFF11
:1010AC000146A8B10DF10B032046039A8DF80B50A5
:1010BC00FFF7AAFF9DF80B3053B11423246803FBF0
:1010CC000044B4F906300834002BA8BFDEB2E3E7C5
:1010DC00304604B070BD000010B50A4C2378BFF345
:1010EC005B8FDB070BD42046FEF7E0FF38B12046C0
:1010FC00FEF7E1FF044A0549054801F0D1FF044819
:10110C0010BD00BFE400002078000020FF0E0A088C
:10111C000800002010B50A4C2378BFF35B8FDB0767
:10112C000BD42046FEF7C2FF38B12046FEF7C3FFB2
:10113C00044A0549054801F0B3FF044810BD00BF3F
:10114C00E800002078000020FD0E0A080C000020AA
:10115C0038B500250446C0E90055C0E90455856042
:10116C00856140F8245FFFF763FAFFF7B5FFE06194
:10117C00FFF7D0FF25732062204638BD10B50B4C0D
:10118C002378BFF35B8FDB070ED42046FEF78EFF70
:10119C0050B10748FFF7DCFF2046FEF78CFF054AED
:1011AC000549034801F07CFF014810BDE000002018
:1011BC00F0000020780000204B160A080023024A99
:1011CC0002490348FFF756BB29150A08B5140A084B
:1011DC0035140A0800231A4619461846FFF74ABB6D
:1011EC000B68036013B15A6801325A60704737B507
:1011FC0004460D6951F8043B01A80093FFF7F0FF7A
:10120C006A462946204601F01DFD01A8FEF7EAFFBB
:10121C00204603B030BD37B504468D6851F8043B09
:10122C0001A80093FFF7DCFF6A462946204601F02F
:10123C0085FD01A8FEF7D6FF204603B030BD37B5BB
:10124C000446CD6851F8043B01A80093FFF7C8FF92
:10125C006A462946204601F04DFD01A8FEF7C2FF63
:10126C00204603B030BD000070B58AB00D46014673
:10127C0004A8FFF7D0FF144E04A801F077FDE8B1E5
:10128C00684604A9FFF7DBFF31460298FFF75AFEC8
:10129C00044610B12C1E18BF012401A8FEF7A2FFB2
:1012AC00002CE9D0684604A9FFF7A1FF684601F0BD
:1012BC0000FD286001A8FEF795FFDDE705A8FEF705
:1012CC0091FF0AB070BD00BF20340A0837B50C4638
:1012DC0019492046154601F06AFF48B901F02AFA6F
:1012EC004FF4165101F008FA01F024FA03B030BDA6
:1012FC002046124901F05BFF40B901F059FA4FF456
:10130C00165101F0F9F901F053FAEFE720460C49B8
:10131C0001F04DFF70B94FF4165301A92846019303
:10132C00FFF7A2FF01F0C8FA019901F0BFFA01F032
:10133C00C3FADBE70020D9E725340A082C340A0865
:10134C002F340A0870B51426D0E90053044606FB66
:10135C000356AE4205D005F10800FFF7F3FF143534
:10136C00F7E72068FFF764FB204670BD70B50446B4
:10137C00D0E9005305EB0316AE4204D02846FFF724
:10138C005BFC1035F8E72068FFF752FB204670BD78
:10139C0010B504460C30FFF7D5FF2046FFF7E6FFEB
:1013AC00204610BD10B50446034B40F8043BFFF734
:1013BC00EFFF204610BD00BFB4330A0810B5044639
:1013CC00FFF7F0FF2046242101F06FFE204610BDF0
:1013DC0010B50446024B0360FFF7E4FF204610BD36
:1013EC00D0340A0810B50446FFF7F2FF204624213A
:1013FC0001F05BFE204610BD0022C0E90022826095
:10140C0010B50C680A6004604C684A6044608C68D3
:10141C008A60846010BD10B5044603681868FFF735
:10142C001FF9204610BD00002DE9F04F87B0039343
:10143C001C4B80465B688946C3F3080316466BB9A0
:10144C00FFF79CFE044600F12403406A0593FFF766
:10145C00FFF8237B2BB105A8FFF7DDFF07B0BDE834
:10146C00F08F01235FFA89F92373D4E9005305EB5C
:10147C00830AAA4512D055F8047B3146381DFFF774
:10148C0001FE8145F5D3039A3B680092D3F808B06E
:10149C004A46334641463846D847EAE70023237389
:1014AC00D9E700BF00ED00E02DE9F74F9B461A4B42
:1014BC0080465B688946C3F3080316466BB9FFF791
:1014CC005DFE044600F12403406A0193FFF7C0F867
:1014DC00237B2BB101A8FFF79EFF03B0BDE8F08F73
:1014EC000123F6B22373D4E9005305EB830A554567
:1014FC000ED055F8047B5946381DFFF7C3FD8642C4
:10150C00F5D33B684A4641463846DB689847EEE7D8
:10151C0000232373DEE700BF00ED00E02DE9F3416B
:10152C00164B05465B680F46C3F308031BBBFFF75E
:10153C0025FE044600F12403406A0193FFF788F866
:10154C00D4E90063462406EB8308B04509D101A811
:10155C00FFF761FFA542B4BF0020012002B0BDE837
:10156C00F08156F8040B39460430FFF78BFD8442AA
:10157C00A8BF0446E9E70020F0E700BF00ED00E05B
:10158C000B4670B5044605C800EB8202824207D0B8
:10159C0001461D6851F8046BAE4203D00846F5E7CE
:1015AC00002070BD521A01F0A5FD63680120013BBB
:1015BC006360F6E71FB5044600F12403406A01910D
:1015CC000393FFF745F8204601A9FFF7D9FF18B19F
:1015DC0063680BB9FFF7FEFD03A8FFF71CFF04B00F
:1015EC0010BD182370B50446D0E9045603FB06560B
:1015FC00AE4215D0204605F11001FFF7C1FF63681C
:10160C000BB9FFF7E7FDE06929690368DB689847C8
:10161C00696919B1206A0368DB6898471835E7E7F0
:10162C001826D4E9045306FB0356AE4204D02846D0
:10163C00FFF702FB1835F8E70023636170BD73B543
:10164C000446FFF7C7FD04F12403606A0193FEF71B
:10165C00FFFF2046FFF7C5FF01A8FFF7DCFE606A1D
:10166C0008B1FEF7EDFFD4E90453182606FB035628
:10167C00AE4204D02846FFF7DFFA1835F8E72069A8
:10168C00FFF7D6F92068FFF7D3F9204602B070BDFA
:10169C008842F8B506460C46154627D9904226D204
:1016AC000026A2F114056C1AA1F114070444AF42F0
:1016BC003DD0A4B12B682360AB88A380B5F906306C
:1016CC00C4E902662661E380AB68A360AE60E368A0
:1016DC00EA68E260EB6023692A6922612B6105F1FB
:1016EC000800FFF72FFE143D143CE0E71FD0002745
:1016FC00AC421CD0A6B123683360A388B380B4F984
:10170C000630C6E902773761F380A368B360A7603F
:10171C00F368E268F260E360336922693261236145
:10172C0004F10800FFF70EFE14341436E0E7F8BDA0
:10173C00F8B5D0E901539D4204460E4617460DDB21
:10174C000135002D006804DDA900FFF779F918B9FF
:10175C00F8BDFFF76DF900202060A5602568626870
:10176C0005EB86019200A2EB8602081D01F0C2FC7B
:10177C0045F826706368012001336360E8E737B5EC
:10178C00044600F12403406A0D460193FEF760FF06
:10179C00D4E9003103EB810083421A460AD0126867
:1017AC000433AA42F8D101A8FFF735FE00252846DC
:1017BC0003B030BD2A462046FFF7BAFF0546002885
:1017CC00F1D06368012B01D1FFF7F8FC01A8FFF7FA
:1017DC0022FEECE78842F8B504460D46164614D9AD
:1017EC00904213D2A2F11006751AA1F110072C44E5
:1017FC00B74218D01CB131462046FFF797FA304655
:10180C00FFF71AFA103E103CF2E70CD0B5420AD0A2
:10181C001CB129462046FFF789FA2846FFF70CFA37
:10182C0010351034F2E7F8BD70B50E1E054611DD0B
:10183C003001FFF7F5F8044658B1D5E9001201EB79
:10184C000212FFF7C7FF2868FFF7F2F801202C609F
:10185C00AE6070BD0024F6E72DE9F04F91460023F1
:10186C00462297B00391D9F8041004469942C0E976
:10187C000033C0E90233C0E90433CDE90A33027600
:10188C000C9323DCD9E90057142303FB0757AF4211
:10189C003BD029460DA8FFF749FA0DA911A80B9EBC
:1018AC00FFF744FADDE90B1399421BDA0A9B0B9AFA
:1018BC0003EB0616314603EB021206F11000FFF79C
:1018CC0089FFEEB90B9B01330B9311E00AA8FFF7CC
:1018DC00ABFF0028D6D10AA8FFF748FD204617B069
:1018EC00BDE8F08F01310AA8FFF79EFF0028DDD17B
:1018FC0011A8FFF7A1F90DA8FFF79EF91435C6E75B
:10190C00304611A9FFF712FADCE700264FF0140A53
:10191C003746CDE90D660F96DDE90A239E4280F22B
:10192C0097803301D35808930BB90136F4E70AFBBF
:10193C0006F3099702930DAD09A908A8FFF7DBFA86
:10194C0083460028F1D00146099A28460DF11F0361
:10195C008DF81F70FFF758FB9DF81F800190B8F1B0
:10196C00000F66D1BDF82430CDE91388ADF84830AE
:10197C004FF6FF73CDF844B0ADF84A30CDF8548033
:10198C00D5E9013293421ADB03F1010BBBF1000FD5
:10199C004ADD0AFB0BF0FFF743F80490002845D012
:1019AC00D5E900120AFB0212FFF772FE049B2868AD
:1019BC000493FFF73DF8049BC5F808B02B60019B1E
:1019CC00D5F800B00AFB03F36A680BEB030101F1D5
:1019DC0014000AFB02B204910593FFF759FE049917
:1019EC00A9B1119A059B4BF80320BDF848308B80A8
:1019FC00BDF94A30C1E902770F61CB80139B8B6034
:101A0C00149B1397CB60159B14970B6115976B6800
:101A1C0001336B6013A8FFF795FCB8F1000F08D0E9
:101A2C000DA8FFF78FFC56E74346C0E74FF00108BF
:101A3C00F0E7019B2D680AFB0355089B1B782BB91B
:101A4C00D9F80030029A13441B7CEB80083573E7FD
:101A5C002168226062686360A3680B920C9A0C93F5
:101A6C00E368A2600D9A0D932369E2600E9A0E93BF
:101A7C00636922610F9A0F93039B0A91626123762B
:101A8C00CEE700007FB505460E460446084B1146CE
:101A9C0045F8043B01A8FEF7E6FC314601AA2846AE
:101AAC00FFF7DAFE01A8FEF79DFC204604B070BDDE
:101ABC00B4330A08F0B50F4687B0384625491646A8
:101ACC001D460C9C01F073FB00BBE4B12946684633
:101ADC00FFF792FC2420204901F0E9FA054670B189
:101AEC00694603A8FEF7BFFC314603AA2846FFF758
:101AFC00C9FF03A8FEF776FC184B2C622B606846D6
:101B0C00FEF770FC2C46204607B0F0BD3846144951
:101B1C0001F04DFBE0B9002CF5D029466846FFF7E3
:101B2C006BFC24200C4901F0C2FA05460028E6D0D3
:101B3C00694603A8FEF797FC314603AA2846FFF72F
:101B4C00A1FF03A8FEF74EFC064B2C622B60D6E7D8
:101B5C000024D8E737340A0865360A08D0340A0856
:101B6C003B340A08B8340A08014B024A1A60704721
:101B7C00EC0000204C340A082DE9F047089DD0F801
:101B8C00209004460E461746984600F0D3FD81453A
:101B9C004DD02B79190704D520466A695449FFF7B3
:101BAC0024FAB8F1000F0DD05B212046FFF711FA93
:101BBC0041462046FFF7FFF9236802222046DB68E6
:101BCC004C4998472B79DA0724D5D5F808802F2172
:101BDC00404601F034FB08B100F1010841462046B3
:101BEC00FFF7E9F92B799B0708D53A212046FFF737
:101BFC00F0F92046EA684049FFF7F7F92A7923689B
:101C0C0012F0040F20464FF00202DB6814BF3B4970
:101C1C003B4998472B7958071DD529690B461A461D
:101C2C0013F8010B60B1202808D11946F7E73548A5
:101C3C0000F04DFF0028ACD0BDE8F0872828EED18D
:101C4C002368521A2046DB689847236804222046F2
:101C5C00DB682D49984700213846FEF703FE014604
:101C6C002046FFF7A8F9236802222046DB682449A6
:101C7C0098471EB131462046FFF79DF92B7913F09A
:101C8C00300F2CD023682149DB680222204698476C
:101C9C002B79D9060AD52368072220461C49DB6814
:101CAC0098472046AA691B49FFF79FF92B799A069A
:101CBC0011D5DB0605D5236802222046DB680F49C7
:101CCC0098472368204614490A22DB689847204627
:101CDC00E969FFF770F95D212046FFF77AF923686F
:101CEC002046BDE8F0470222DB680C49184700BFCC
:101CFC0050340A0857340A0890330A085A340A0830
:101D0C005F340A08900500205D340A0862340A0822
:101D1C0065340A086D340A0870340A087B340A08E2
:101D2C002DE9F04385B0D0F8209005460F4690463B
:101D3C001E460C9C00F0FEFC814505D1494800F084
:101D4C00C6FE002840F08A804FF000092B6A464AF4
:101D5C0001A8019203938DF8089001F030F84946E0
:101D6C004046FEF77FFD80464049012201A801F064
:101D7C00AFF84146FFF712F93FB13D49012201A8E6
:101D8C0001F0A6F83946FFF709F93EB139490122AD
:101D9C0001A801F09DF83146FFF700F92379DF0720
:101DAC000ED5A6682F21304601F049FA00B1461C29
:101DBC003149012201A801F08BF83146FFF7EEF80A
:101DCC0023799E0707D52D49022201A801F080F83E
:101DDC00E16801F001F82379580714D526693346D8
:101DEC001F4613F8012B2AB1202A01D11E46F7E712
:101DFC00282AF5D10222224901A801F069F83146BE
:101E0C00BA1B01F074F82379190707D51D49012273
:101E1C0001A801F05DF8616900F0F0FF2379DA06A2
:101E2C0008D5042218490DEB020001F051F8A16904
:101E3C0000F0D2FF23799B0607D51449062201A88E
:101E4C0001F046F8E169FFF7A9F801A800F0A1FF3D
:101E5C00286A022203680E49DB68984705B0BDE882
:101E6C00F08300BF90050020A0340A082A340A0829
:101E7C007E340A0880340A0882340A0884340A083A
:101E8C0087340A08E5330A088A340A088F340A08AA
:101E9C007B340A08024B1A68024B1A60704700BF69
:101EAC00100000201801002010B58368044613B1FF
:101EBC00032201469847204610BD10B50446FFF793
:101ECC00F3FF204610BD13B56C460B46024603C803
:101EDC0084E8030093E8030082E8030094E803001D
:101EEC0083E8030002B010BD00230348034A0449F1
:101EFC00836001F0D5B800BF1C01002078000020E1
:101F0C00C71E0A08014B1860704700BF1400002060
:101F1C0008B5134B43B100F00DFC03681B699847DF
:101F2C00002801DDAFF300800E4B43B100F0C4FC80
:101F3C0003681B699847002801DDAFF300800A4B4A
:101F4C000BB1AFF30080094B43B100F031FC0368D7
:101F5C001B699847002801DDAFF3008008BD00BF66
:101F6C000000000000000000000000000000000065
:101F7C0008B5FFF7CDFFFEF753FB014B186008BD0A
:101F8C00A80500200248034A0349121A01F0A4B81C
:101F9C00004002400440024090370A08002307B575
:101FAC001A466FF077010093FEF796FC03B05DF8CC
:101FBC0004FB000007B543880A2B08D0502B0BD12B
:101FCC00094B1B684BB103B05DF804EB1847FFF7E6
:101FDC00E5FF03B05DF804FB00231A466FF07701B0
:101FEC000093FEF779FCF4E73001002038B5124C71
:101FFC0000211248FEF74CFD114D2368AB420CBF7B
:10200C00012200220F4B1A7002D0FFF7BBFF256094
:10201C00FEF7F6FA044601F08FF80B4B13B120468D
:10202C00AFF3008000210848FEF7EAFCBDE8384019
:10203C0000210648FEF746BC00400240111F0A086A
:10204C001E1C279A2C01002000000000C11F0A084A
:10205C0070470020704710B50446102101F025F898
:10206C00204610BD08B5FFF7F6FF08BD002230B5BD
:10207C004FF69C74026084808D888C800C688580FF
:10208C0004600A6030BD10B504460068FEF7D0FC51
:10209C00204610BD38B5C468F4B12378022B03D1A7
:1020AC0004F10C00FFF7EFFF656835B12846FFF728
:1020BC00FBFE1021284600F0F8FFA56835B1284634
:1020CC00FFF7F2FE1021284600F0EFFF2046BDE896
:1020DC003840142100F0E9BF38BD08460021FEF756
:1020EC0097BC73B50E46044656F8043B0D4601A842
:1020FC0031460093FFF774F8009B019A236000238C
:10210C00626001A801930093FEF76CF83046FEF76D
:10211C0069F82846082100F0C8FF204602B070BDBF
:10212C00826810B50AB900F0C6FFC368BDE810405C
:10213C00184708B5006800F11001FFF7F1FF08BD62
:10214C00826810B50AB900F0B6FFC368BDE810404C
:10215C00184708B5006800F11001FFF7F1FF08BD42
:10216C0038B500230446036010200D46FDF78DFFA3
:10217C0028B10123C0E90133024BC5600360206024
:10218C00204638BD34350A0838B5002383608B6887
:10219C0004460D462BB102229847EB68E360AB680E
:1021AC00A360204638BD0000F0B589B004686846CD
:1021BC00FFF75CFF4FF00203D4E84F2F002A03D146
:1021CC00C4E8413F0029F7D125D104F10C0569463B
:1021DC002846FFF74BFF0123BFF35B8F6370002092
:1021EC00BFF35B8F04F1080353E8006F43E8000270
:1021FC00002AF9D1BFF35B8F6EB1FEF753FB78B1B8
:10220C0029463046FFF78CFF3046FFF74DFE102174
:10221C00304600F04AFF6846FFF735FF09B0F0BDC5
:10222C00314602A8FFF7B0FFE068B4F9105008B1CE
:10223C0000F0D0FF06901020ADF81C50FDF725FFE4
:10224C000546E8B1002787601820FDF71EFF0446FD
:10225C0088B10146876002A8FFF735FE049BA2688F
:10226C00A360059B0492E26806A9E36004F11000E8
:10227C000592FFF7FBFE084B2C60EB60074BAB6045
:10228C0006A8FFF700FF02A8FFF70EFE0022294662
:10229C000348FEF70FFBB7E73F210A08D5230A08CE
:1022AC0015290A082DE9F0478AB005460C46174651
:1022BC0098469DF84890FEF78BFB07AE824638BBDC
:1022CC004FF62E73059005A93046ADF81830FFF780
:1022DC00CDFE1420FDF7D9FE044648B1022303704D
:1022EC000123C0E901AA437031460C30FFF7BEFE52
:1022FC002846214640F8044BFFF732FF3046FFF7E3
:10230C00C2FE05A8FFF7BFFE28460AB0BDE8F0875D
:10231C000C234FF0000A1420CDE908AA0793FDF70F
:10232C00B4FE014628B1C0E901AA80F800A080F8EB
:10233C0001A004A80391FFF713FF224B0820089378
:10234C00FDF7A3FE824628B1039B04A940F8043B89
:10235C00FEF746FF42463946204600965FFA89F35F
:10236C00CDF824A0FEF73CFBB8B9039B5B7803F0D7
:10237C00FF0293B94FF69C7305A903A80592ADF81B
:10238C001830FFF711FF05A8FFF77DFE05A8099986
:10239C00FFF7A7FE06A8FDF725FF039B04A906A8D7
:1023AC000593FEF71DFF059B069A2B6000236A60C0
:1023BC0006A806930593FDF715FF04A8FDF712FF79
:1023CC00A2E700BF99240A08022AF8B5054607D0EF
:1023DC00032A18D0012A01D10B6803600020F8BD34
:1023EC0018200E68FDF751FE044650B13146FFF738
:1023FC00CBFE3069B6F9147008B100F0EBFE206129
:10240C00A7822C60EAE70468002CE7D004F11000E6
:10241C00FFF739FE2046FFF747FD1821204600F054
:10242C0044FEDBE738B5002383608B6804460D4619
:10243C002BB102229847EB68E360AB68A36020469F
:10244C0038BD022A70B5044607D0032A12D0012ADF
:10245C0001D10B680360002070BD14200E68FDF7DD
:10246C0014FE054620B13146FFF7DCFF337C2B749C
:10247C002560F0E70468002CEDD02046FFF714FD32
:10248C001421204600F011FEE5E70000F0B50446EB
:10249C0089B00D4601A81146FFF723FEA4B124B262
:1024AC001DB1284600F096FE054601A803A9039528
:1024BC00ADF81040FFF778FE03A8FFF7E4FD02A883
:1024CC00FDF790FE09B0F0BD0123019DD5E84F2F1B
:1024DC00002A03D1C5E8413F0029F7D1EFD12B7376
:1024EC00BFF35B8F6B70BFF35B8F2B1D53E8006FDB
:1024FC0043E80042002AF9D1BFF35B8F002EDED0F7
:10250C002046FEF7CFF9074660B1304605F10C01C5
:10251C00FFF716FE3046FFF7C7FC1021304600F0DF
:10252C00C4FDCCE7314603A8FFF77CFF2B7B1020C2
:10253C008DF81C30FDF7A9FD0546D0B1876014203D
:10254C00FDF7A3FD044678B10146876003A8FFF7A9
:10255C00BAFC059BA268A360069B0592E268E36047
:10256C009DF81C3006922374064B2C60EB60064BD6
:10257C00AB6003A8FFF798FC002229460348FEF73E
:10258C0099F9C7E75F210A084F240A0815290A0898
:10259C00704710B50446182100F087FD204610BD89
:1025AC00F8B50E46002400F10807051D17F8011DAB
:1025BC000A223046FEF73DFCAF42044401D12046CE
:1025CC00F8BD002CF2D02E213046FEF723FC04443B
:1025DC00ECE7000010B50446044B1122002140F832
:1025EC00043B00F0A1FD204610BD00BF50350A0889
:1025FC000346074A10B543F8042B01F1100251F8B9
:10260C00044B914243F8044BF9D10A781A7010BD6F
:10261C0050350A08024AC0E90021042202757047AD
:10262C0050350A0810B59DF8084044EA03240423E9
:10263C0044EA024444EA01644460037510BD00009E
:10264C0037B5044D05609DF818500095FFF7EAFF6B
:10265C0003B030BD50350A0841747047704708B557
:10266C000021007CFEF7C6F840EAE07008BD08B512
:10267C000121007CFEF7BEF840EAE07008BD08B509
:10268C00007CFEF7AFF820EAE07008BD08B5007CCE
:10269C00FEF7A0F820EAE07008BD38B50446007CCF
:1026AC000D46FEF79FF8002801DC607C28B1294616
:1026BC00207CFEF7A7F820EAE07038BD007CFEF71E
:1026CC00A9B810B50446142100F0EFFC204610BD4B
:1026DC0010B54FF47A73044608460021C4E901137F
:1026EC00044B20742360012311466374FEF75AF8DF
:1026FC00204610BD64350A080022007CFEF75AB84B
:10270C00007CFEF75FB8000010B5044614220021CF
:10271C0000F00AFD054B20466360054BE36040F278
:10272C00011323818123238210BD00BF640100208B
:10273C006502002030B50F4D87B001A8FFF7E4FF0C
:10274C002978BFF35B8F11F0010410D12846FDF7F7
:10275C00ADFC60B1214601AA0748FFF7B9FF284636
:10276C00FDF7A9FC054A0649034800F099FC02480C
:10277C0007B030BD340100203C010020780000205F
:10278C0069260A0810B504461422002100F0CCFC7E
:10279C00054B20466360054BE36040F20113238137
:1027AC008123238210BD00BFE6020020E703002036
:1027BC0010B50F4C86B001A8FFF7E4FF2378BFF3E8
:1027CC005B8FDB0710D42046FDF770FC60B1012154
:1027DC0001AA0848FFF77CFF2046FDF76CFC064A6F
:1027EC000649044800F05CFC024806B010BD00BF6E
:1027FC0038010020500100207800002069260A08CA
:10280C0070474174704708B5007CFDF771FF20EAF2
:10281C00E07008BD08B5007CFDF742FF20EAE070CF
:10282C0008BD08B5007CFDF74BFF40EAE07008BD21
:10283C0008B5007CFDF73CFF40EAE07008BD007C69
:10284C00FDF746BF70B5467C04460D462EB12946B1
:10285C00207CBDE87040FDF71BBF007CFDF748FFF6
:10286C000028F4DC304670BD10B50446142100F08D
:10287C001CFC204610BD00004FF0000C10B50446A7
:10288C00084611464FF47A72C4E901C2044A207416
:10289C002260012262741A46FDF7EAFE204610BD42
:1028AC0094350A080023007CFDF72ABF0022FFF7AD
:1028BC00F9BF007CFDF7E4BE38B50D4D2978BFF3A8
:1028CC005B8F11F0010411D12846FDF7EFFB68B1C5
:1028DC002146084A084B0948FFF7CEFF2846FDF76A
:1028EC00EAFB074A0749054800F0DAFB034838BD04
:1028FC00680400206C040020F00400207405002003
:10290C00780000200D280A0810B5836804460BB91E
:10291C0000F0D1FBC3689847A3681BB10322214682
:10292C00204698472046BDE81040102100F0BDBB62
:10293C007047F8B5064615460C468F18BC4206D0B3
:10294C00336830469B6814F8011B9847F6E7284615
:10295C00F8BD0022007CFDF7DBBE0021007CFDF7FA
:10296C00DFBE0021007CFDF7E3BE0021007CFDF7FB
:10297C00E7BE0021007CFDF7EBBE10B50446142128
:10298C0000F093FB204610BD10B54FF47A7304464B
:10299C0008460021C4E90113034B1146236020743F
:1029AC00FDF7E6FE204610BDC4350A08002240683B
:1029BC001146FDF7BDBFF0B5154689B011220E4684
:1029CC000446002103A800F0AFFB284600F01DFCD4
:1029DC00002781B273682846009703AAFDF722FFEF
:1029EC0030B139462046FFF715FE204609B0F0BD40
:1029FC00204603A9FFF7FCFDF7E7002240681146CB
:102A0C00FDF7B6BF002240681146FDF7C1BF00229A
:102A1C004068FDF7B5BF0022406881F00101FDF769
:102A2C009FBF002340681A461946FDF791BF00224C
:102A3C0040681146FDF76CBF002202214068FDF78B
:102A4C006FBF002340681A46FDF75ABF0422024BA1
:102A5C005A60024A1A60704788050020EC350A0853
:102A6C00002340681A46FDF74BBF00220221406844
:102A7C00FDF756BF002240681146FDF749BF002202
:102A8C0040681146FDF754BF002340681A461946AA
:102A9C00FDF756BF002340681A461946FDF758BF8C
:102AAC0000214068FDF77CBF00214068FDF780BF26
:102ABC000022406881F00101FDF752BF00224068FE
:102ACC00FDF75EBF002240681146FDF761BF002292
:102ADC0040681146FDF74CBF70B515468EB00446E4
:102AEC0008A8FFF777FD1122002103A800F01CFBBA
:102AFC000026284600F089FB0A4B009681B25B68E1
:102B0C00284603AAFDF78EFE30B131462046FFF76A
:102B1C0081FD20460EB070BD204603A9FFF768FD6D
:102B2C00F7E700BF88050020024B034A1A60002219
:102B3C005A6070479005002028360A08012200F1DF
:102B4C00100313F8101C1846012908D153F8041C63
:102B5C0002EB4102013A03F11003F2D17047022952
:102B6C0004BF53F8041C5218F4E70EB42DE9F041DD
:102B7C0087B000AF07F1340555F8048B04462B469B
:102B8C004246102107F108007D60FDF769FF0F2810
:102B9C001BD900F1080323F007036E46ADEB030DC0
:102BAC004246411C2B4668467D60FDF759FF021ECC
:102BBC0004DD2368694620469B689847B5461C3758
:102BCC00BD46BDE8F04103B070470028F7D023683C
:102BDC0002469B68204607F108019847EFE710B5BD
:102BEC00044603689B689847A368013BA3602BB914
:102BFC0023682046BDE81040DB68184710BD07B5B8
:102C0C0003688DF8071001229B680DF107019847A6
:102C1C0003B05DF804FB38B50B68044603604D68DF
:102C2C0043689D420CD015B16B6801336B606068D2
:102C3C0028B14368013B43600BB9FFF7D0FF6560D7
:102C4C00204638BD0B461146002210B50446C0E99B
:102C5C00002283600BB9204610BDFFF7DCFFFAE7BA
:102C6C000346806820B30278032A1AD8DFE802F002
:102C7C000417021B052070471B685A684368D05C18
:102C8C002D2812D0A0F13003092B0ED974280ED0A8
:102C9C0066280CD0A0F16E035842584170470620AC
:102CAC0070470020704704207047032070470220B3
:102CBC00704710B50446FFF7D3FF02280ED0C31E91
:102CCC00DBB2012B14D82268A36850685B680A2217
:102CDC00BDE810400021184400F040BB2268A368F6
:102CEC0052685B68D05CA0F174035842584110BD27
:102CFC000020FCE70B461146002210B50446C0E943
:102D0C0000220D48C4E90202A3B11A78032A06D0A6
:102D1C0082B90A6850685A68825C6E2A07D00A68C1
:102D2C00586852689B6802441B1AA260E3602046F4
:102D3C00FFF771FF204610BD7D340A0838B5002519
:102D4C000B4604461146C0E90055C0E90255C0E9DE
:102D5C0004554BB11A78012A06D103F11002DB6835
:102D6C0082604361FFF757FF204638BD10B54369B9
:102D7C00044663B18068013BE0601030A0602061C4
:102D8C00636113B1FFF7DAFEA060012000E0184682
:102D9C0010BD10B57D210446FFF731FF01232046FD
:102DAC00237110BD08B50379012B02D0022B04D07E
:102DBC0008BD2C21FFF723FFFAE73A21FAE710B5FB
:102DCC000446FFF7EFFF20467B21FFF718FF002397
:102DDC002046237110BD000038B504460D46FFF7A0
:102DEC00E1FF236820462A46DB6803499847012304
:102DFC002046237138BD00BF90330A0838B504460D
:102E0C000D46FFF7CFFF236820462A46DB680349AF
:102E1C00984701232046237138BD00BF5C360A0851
:102E2C002DE9F0410D46174622210446FFF7E7FE37
:102E3C002946DFF898802F44BD422A4638D015F831
:102E4C00016B222E03D05C2E01D01F2EF4D82368E8
:102E5C00521A20469B6898475C212046FFF7CFFE0C
:102E6C000D2E0AD8072E1CD9A6F10803052B18D84D
:102E7C00DFE803F00D0F11171315222E01D05C2E75
:102E8C000FD131462046FFF7BAFE2946D4E762211E
:102E9C00F8E77421F6E76E21F4E76621F2E7722178
:102EAC00F0E72368324641462046DB689847ECE75A
:102EBC008D4204D0236820469B686A1A98472221C9
:102ECC002046FFF79CFEBDE8F08100BF5F360A0884
:102EDC0070B504460D461646FFF764FF2046324691
:102EEC002946FFF79DFF02232046237170BD70B564
:102EFC0004460D461646FFF755FF20463246294636
:102F0C00FFF78EFF01232046237170BD10B50446D8
:102F1C00806808B1FDF794FB204610BD172870B5EA
:102F2C00044601D9002070BDA0F10D03022B0BD972
:102F3C00012826D800F08CF80021007CFDF710FC4D
:102F4C0080F00100C0B2EEE7134E3178BFF35B8F17
:102F5C0011F001050FD13046FDF7A8F858B12946FC
:102F6C000E48FDF79DFD3046FDF7A5F80C4A0D49BE
:102F7C000A4800F095F8094B1878FDF70BFC00286F
:102F8C00D0D1123C012C05D8FFF796FC007CFDF744
:102F9C00A7FBD5E70120C6E7980500209C0500207B
:102FAC0078000020192F0A08172838B504460D465A
:102FBC000AD8FF2908D0FFF7B1FF28B129462046CF
:102FCC00BDE83840FDF704BB38BD10B50446FDF72D
:102FDC0007FB031FDBB2012B08D92046FFF79EFF2E
:102FEC0020B12046BDE81040FDF702BB002010BD0B
:102FFC00002313B5074C1A46194620460093FFF7D9
:10300C001FFB2046044A054902B0BDE8104000F001
:10301C0047B800BFB0050020780000209D250A08A5
:10302C00002370B5202543801423084E04460380EA
:10303C00314685600561284600F03BF831466060FA
:10304C00284600F036F8E060204670BD65360A0868
:10305C0030B50F4D87B02978BFF35B8F11F00104A9
:10306C0013D12846FDF722F878B101A8FFF7D8FF55
:10307C00214601AA0748FFF787FC2846FDF71BF8F5
:10308C00054A0649034800F00BF8024807B030BD6A
:10309C00C8050020CC050020780000203D290A0836
:1030AC000B460146184600F009B8FCF7F2BFFCF7D6
:1030BC00ECBFFCF7ECBF08B5FDF7DAFC10B5044625
:1030CC000448134620B10A4602202146AFF3008083
:1030DC0010BD00BF000000000A44914200F1FF3314
:1030EC0000D1704710B511F8014B914203F8014F14
:1030FC00F9D110BD884210B501EB020402D984420B
:10310C00234607D8431EA14208D011F8012B03F81F
:10311C00012FF8E7014602448A4200D110BD13F892
:10312C00014D02F8014DF7E703460244934200D1EA
:10313C00704703F8011BF9E738B50D4B04461D68C1
:10314C00AB6B7BB91820FDF76BFC0A4A0A4BA863E2
:10315C00C0E90023094B012283600B2383810023E8
:10316C00C0E904230022AB6B1C615A6138BD00BF5F
:10317C00140000200E33CDAB34126DE6ECDE0500EE
:10318C000346C9B2184613F8012B12B18A42F9D181
:10319C007047002918BF0020704710B50446FFF790
:1031AC00EFFF18B9204600F030F8204410BD10F89D
:1031BC00012B11F8013B012A28BF9A42F7D0D01AF3
:1031CC007047034611F8012B03F8012B002AF9D1A3
:1031DC0070470000024B0146186800F003B800BFAE
:1031EC001400002070B5044608460D4600F00DF89A
:1031FC00461C31462046FDF743FC044618B13246C6
:10320C002946FFF769FF204670BD034613F8012BD2
:10321C00002AFBD1181A0138704710B56AB1013970
:10322C00841810F8013B11F8012F934203D1A042EE
:10323C0001D0002BF5D1981A10BD1046FCE738B51B
:10324C0003460C4669B9BDE83840FFF799BF0546FF
:10325C00431C21461846FFF793FF0028F7D1284658
:10326C0038BD0025F5E700002DE9F0478C46864671
:10327C00394E60461CF8014BA55D15F00805F8D1D8
:10328C002D2C33D14FF001089CF8004000F1020CBA
:10329C00002B5CD0102B0CD1302C0AD19CF80000E8
:1032AC0000F0DF0058284DD110239CF801400CF1A0
:1032BC00020C002608F10047013FB7FBF3F930463A
:1032CC0003FB197AA4F13005092D18D82C46A3421A
:1032DC0024DD751C07D081451DD301D1A2451ADB15
:1032EC00012600FB03401CF8014BEBE72B2C08BF1D
:1032FC009CF80040A84608BF00F1020CC8E7A4F1F6
:10330C004105192D01D8373CE1E7A4F16105192DD0
:10331C0004D8573CDBE74FF0FF36E4E7731C06D1CB
:10332C0022233846CEF8003042B9BDE8F087B8F118
:10333C00000F00D04042002AF7D00EB10CF1FF3143
:10334C001160F2E73024002BB3D10823B1E7302C05
:10335C00A4D00A23ADE700BF67360A0813460A4615
:10336C00014602480068FFF77FBF00BF1400002031
:10337C001D000A085D000A0885000A0889000A0871
:10338C00000000002564005B25642C25642C25645A
:10339C005D007075626C69736865643A2025730012
:1033AC000000000000000000000000000000000011
:1033BC00A5000A08C9000A0800000000000000006F
:1033CC00ED000A0821010A08851B0A08CB000A082F
:1033DC0052616461724576656E74007368656574DC
:1033EC00546573743100776972696E670053797331
:1033FC0074656D20736C65657020636F6E666967AC
:10340C0075726174696F6E20697320696E76616C78
:10341C0069642E00626175640053657269616C00A9
:10342C0055534253657269616C31004A534F4E5388
:10343C00747265616D4C6F6748616E646C65720087
:10344C0061707000253031307520005D20002C201B
:10345C000028293A2000205B00636F6465203D2022
:10346C000025690064657461696C73203D20000D52
:10347C000A006D00630066006C6E00666E00636F80
:10348C0064650064657461696C00000000000000F4
:10349C0000000000010F0A08270F0A08E70E0A08AF
:1034AC00772B0A080000000000000000B1130A0886
:1034BC00C9130A08851B0A08CB000A080000000083
:1034CC0000000000DD130A08F1130A082D1D0A087C
:1034DC00EF0E0A080000000000000000FF0E0A08B2
:1034EC00350F0A08C11A0A08F10E0A08000000007C
:1034FC0000000000FD0E0A08430F0A08D9120A0842
:10350C005F0F0A0825592D256D2D25645425483A41
:10351C00254D3A2553257A0061736374696D6500F6
:10352C0000000000000000005D200A0863200A086B
:10353C00A1200A0871200A085F200A080000000078
:10354C0000000000AD250A089D250A089F250A08E1
:10355C00000000000000000069260A08CF260A08B7
:10356C00A7260A08D50D0A0899260A086B260A0808
:10357C007B260A08C9260A088B260A0865260A082B
:10358C0000000000000000000D280A0875280A0839
:10359C0051280A08D50D0A0821280A083D280A08CE
:1035AC002F280A084B280A080F280A0813280A088B
:1035BC0000000000000000003D290A0887290A08C5
:1035CC005F290A083F290A0867290A086F290A088F
:1035DC0077290A087F290A08000000000000000073
:1035EC004F2A0A08452A0A083B2A0A08B9290A0858
:1035FC00DB0E0A082F2A0A08AD2A0A08B52A0A087F
:10360C00232A0A081B2A0A08112A0A08072A0A0868
:10361C00C3290A0800000000000000006D2A0A08F7
:10362C00772A0A08812A0A088B2A0A08952A0A0886
:10363C00A12A0A08AD2A0A08B52A0A08BD2A0A08CE
:10364C00C92A0A08D12A0A08DB2A0A08E52A0A0824
:10365C0025750075253034780000002020202020AE
:10366C002020202028282828282020202020202026
:10367C002020202020202020202020881010101016
:10368C00101010101010101010101004040404046A
:10369C000404040404101010101010104141414196
:1036AC00414101010101010101010101010101017E
:1036BC000101010101011010101010104242424290
:1036CC00424202020202020202020202020202024E
:1036DC000202020202021010101020000000000072
:1036EC0000000000000000000000000000000000CE
:1036FC0000000000000000000000000000000000BE
:10370C0000000000000000000000000000000000AD
:10371C00000000000000000000000000000000009D
:10372C00000000000000000000000000000000008D
:10373C00000000000000000000000000000000007D
:10374C00000000000000000000000000000000006D
:10375C00000000000000000000000000D9040A086E
:10376C00090C0A08751B0A08A11E0A08F51E0A088E
:10377C00592A0A08352B0A08FD2F0A0800000000F8
:04378C000000000039
:043790000000000035
:10379400DC330A08E7330A08E8340A0800350A0863
:1037A40024350A0818000020000000000000000072
:1037B4000000000000000000000000000000000005
:1037C40000000000000000000000000000000000F5
:1037D40000000000000000000000000000000000E5
:1037E40000000000000000000000000000000000D5
:1037F40000000000000000000000000000000000C5
:083804000000000000000000BC
:10380C00FFFFFFFF00000102030405060708090A79
:10381C000B0C0D0E0F101112131415161718191A74
:08382C001B1C1D1E1F202800BB
:04383400785634127C
:04000005080A001CC9
:00000001FF
